S01B000044726F6E654441444170706C69636174696F6E2E73726563D4
S1132000782500203D3F0000393F0000393F0000A3
S113201000000000000000000000000000000000BC
S1132020000000000000000000000000393F000034
S11320300000000000000000393F0000393F0000AC
S1132040393F0000393F0000393F0000393F0000AC
S1132050393F0000393F0000393F0000393F00009C
S1132060393F0000812D0000912D0000A12D0000BA
S1132070B12D0000C12D0000D12D0000393F00001A
S1132080393F0000393F0000393F0000393F00006C
S1132090393F00000000000000000000393F00004C
S11320A0393F0000393F0000393F0000393F00004C
S11320B00000000010B5064C2378002B07D1054B17
S11320C0002B02D0044800E000BF0123237010BDA0
S11320D0680000200000000080590000084B10B583
S11320E0002B03D00749084800E000BF07480368F5
S11320F0002B00D110BD064B002BFBD09847F9E70D
S1132100000000006C00002080590000805900008D
S113211000000000002210B54309C409944202D112
S1132120DA01064BD2181F2318401E3B83400029B6
S113213001D0936110BD5361FCE7C04600440041E7
S113214030B50424036810221D7E25420CD05D8B1B
S11321500022254201D05C831E3280799B6A0128CB
S113216004D1DB05DB0D0B80100030BDDBB2FAE7D8
S113217070B50500064B98472B790524DBB2002B7C
S113218002D101221C002A71024B9847200070BD25
S1132190B9290000ED290000F7B56B469D1D002309
S11321A0040001262B8003681A68137E3342FCD096
S11321B0194B60790021984723681B681A7E3242C4
S11321C001D005229A620423206801680A7E1A421B
S11321D0FCD02900114FB847012623681B681A7EDA
S11321E03242FCD01A7E324201D000229A62206828
S11321F002680421137E0B42FBD02900B8472B88C8
S11322003342EAD160790121034B9847288880063C
S1132210C00F0001FEBDC046152100004121000091
S1132220F0B585B015000AAA040001CA168802AAEE
S113223001901170012D05D9D37002A91A0A1B0C43
S11322408A704B7060790021084FB847AAB202A97E
S11322502068074DA847002E03D03200019920685A
S1132260A84760790121B84705B0F0BD15210000E9
S113227059310000002313B5012201930093062174
S1132280014CA04713BDC04621220000F0B585B023
S113229015000AAA040001CA168802AA0190117046
S11322A0012D05D9D37002A91A0A1B0C8A704B7030
S11322B060790021094FB847AAB202A92068084BE7
S11322C09847002E05D00023320001992068054D5F
S11322D0A84760790121B84705B0F0BD1521000079
S11322E059310000653000007FB5002405000F4B14
S11322F0006803949847052816D00323019303AB81
S11323000093012223009F212800094EB0472B6827
S11323101C712B79092B02D8064A9B009C58039BFD
S11323200020A34200D0143004B070BD712100001D
S11323308D2200008C570000F7B50D001E005918BF
S11323400379170004000022092B02D80B4A9B00D2
S11323509A58172091420FD82068094B98470528AE
S11323600AD02B0020000196009705220B21054D71
S1132370A847002023681871FEBDC046B45700006A
S1132380712100008D220000F0B51D0085B002917E
S113239003920379040069180022092B02D8284A01
S11323A09B009A581720914225D82068254B9847BE
S11323B0052820D0244B200098476B461A7A8023A6
S11323C05B009B1A1E1C9BB2AB4200D92E1C039BC4
S11323D0B6B200930422029B022120001B4F0196F7
S11323E0B84720001A4B9847AD1BAFB2002F04D159
S11323F0002223681A7105B0F0BD0028F8D1124BF1
S113240020009847029B9B190293039B9B190393FB
S113241080233E1C5B009F4201D90E4B1E88039B08
S1132420B6B200930422029B022120000196074DBC
S1132430A847BF1B2000064B9847BFB2D6E7C0464B
S1132440B457000071210000752200002122000011
S11324509921000088570000F7B5037904000E00A5
S113246017001720092B1ED80F4A9B009B5899422E
S113247019D220680D4B9847052814D00025200058
S11324800B4B98472900022F01D80A4BD95D330022
S11324900422200001950095074EB047074B200009
S11324A0984723681D71FEBDB457000071210000D8
S11324B075220000DC570000212200009921000051
S11324C030B5104B85B0050000680C00984705280E
S11324D015D028000C4B621E944198473C230F22D0
S11324E00121644223406A441370280000920023AF
S11324F001910A00054CA04700202B68187105B013
S113250030BDC04671210000752200002122000068
S113251073B5037905000E0014001720092B1BD88E
S11325200E4A9B009B58994216D228680C4B984738
S1132530052811D028000B4B98473621002C00D1D8
S11325400331002433002800019400940422064E31
S1132550B04720002B681C7176BDC046B4570000FC
S113256071210000752200002122000073B5094B7F
S113257005000068984705280BD000242800230094
S1132580019400940122B921034EB04720002B6826
S11325901C7176BD712100002122000073B5094B26
S11325A005000068984705280BD000242800230064
S11325B0019400940122AB21034EB04720002B6804
S11325C01C7176BD7121000021220000F8B503239F
S11325D0050003400E0014001820002B24D172B60D
S11325E0BFF35F8F2221174F49423B700930164BCE
S11325F09847164B2268DA6004225D609E600126CB
S113260019780A431A705A783242FCD004205D7853
S11326100F4A054009D022211D30494290473E709F
S1132620BFF35F8F62B61020F8BDD9682120216006
S113263022215E70494290473E70BFF35F8F62B6BD
S11326402800F1E700000020452900000020004197
S1132650F5280000024B187D012318407047C0463E
S113266000400041042370B51C4A1D4DD16904008B
S11326700B43D3612023FF332B831A4B984703006A
S11326800520002B28D0C0221E21237892001B0293
S11326901340A27852000A40802113436278C90291
S11326A0D2011343E27892040A40C02113432279F1
S11326B0890212040A40082113436B60AB680A4A7A
S11326C05B035B0F99401180AB685380637813718F
S11326D0288BC005C00F000170BDC0460004004037
S11326E0004000415526000084000020F7B5244A2C
S11326F0019153881188019A4B430400934207D2F5
S11327008022019B1F4992015B18182093420FD825
S113271080231D4DDB026F682E003B436B6020233A
S1132720FF332B83194B9847002802D16F60053083
S1132730FEBD062C14D8052C1BD2022C01D0042C6F
S113274014D1019B9B085B00F361A5231B021C436E
S113275034800E4B98470028FBD077600020E7E7D1
S1132760402C03D3412CECD9452CEED977601720AB
S1132770DEE72B8BDB05E4D56F601020D8E7C0467D
S11327808400002000C07FFF004000415526000067
S1132790F7B5214E00913388718815005943040020
S11327A01822814226D3591E084223D1013AAB4252
S11327B020D31A4FB847052200281BD0184B194ABA
S11327C01A800193B8470028FCD02023019AFF33D4
S11327D01383002362085200681E9D420CD8002215
S11327E03379934206D13F2D04D8210004200E4BA7
S11327F0984702001000FEBD0099C95C834205DBC6
S113280089B2023311809BB20232E6E7009FFF18BF
S11328107F783F023943F4E7840000205526000006
S11328200040004144A5FFFFED260000F8B5164B1B
S11328300F00160059881A88050051431823814255
S113284014D3541E044011D1013BB2420ED30F4B9A
S113285098470523002809D020220D4BFF326D082C
S11328601A836D00711EA64202D800231800F8BD19
S11328702B889BB23B558C4202DA3A191B0A5370DF
S11328800234A4B20235EEE784000020552600008D
S11328900040004170B5134A040013885288182080
S11328A05A43A2421CD39B00013B1C4218D10E4D3B
S11328B0A84703000520002B12D020220B4BA408AC
S11328C0FF3264001A83DC611C00094A1A80A8479D
S11328D00028FCD01C23208B1840431E9841800004
S11328E070BDC04684000020552600000040004111
S11328F002A5FFFFC243030017208A4209D11F2209
S11329001A405B09DBB2012B0CD0002B02D0022B46
S11329100DD07047012191400A008021C9054A6009
S11329200020F6E793408222D2055360F8E70123A2
S11329300348016A1943016293408422F4E7C046C4
S113294000040040C243030017208A4209D11F2219
S11329501A405B09DBB2012B0CD0002B02D0022BF6
S11329600DD07047012191400A008021C9050A60F9
S11329700020F6E793408222D2051360F8E7012392
S11329800348016A1943016293408422F4E7C04674
S11329900004004007B5802201AB1A700A785A700F
S11329A04A789A708A781900DA70014B984707BD03
S11329B0DD3E000070470000094B196800290BD167
S11329C0EFF31080074A002805D172B6BFF35F8F7A
S11329D005490870012111701A6801321A607047A4
S11329E08C0000209000002000000020084B1A6892
S11329F0013A1A601B68002B09D1064B1B78002B87
S1132A0005D00122044B1A70BFF35F8F62B6704782
S1132A108C0000209000002000000020F0B500246D
S1132A2089B0009201933F230026002725000690D9
S1132A3007910393039A134B012000219847B61979
S1132A407F41069B079A03400A4004960597134367
S1132A5003D0012333431E00059F019BBB4209D8C9
S1132A6002D1009BB34205D8009A019BB61A9F413C
S1132A7004430D43039B5A1E0392DBD2200029001A
S1132A8009B0F0BDE145000010B549080400002379
S1132A904020A14201D210BD0300581C091B80B282
S1132AA08C42F9D94020FF2BF5D813800020F2E79F
S1132AB0F0B585B01E000AAB0D00197803004B4336
S1132AC003924027AB4217D8002E18D102003300DE
S1132AD008001B4C3100A0472A0001003300194CA8
S1132AE03000A04700220123121A8B41140C180451
S1132AF004430027039B1C80380005B0F0BD00246C
S1132B00012EF6D10A00230021000D4EB04700909B
S1132B1001910B000200210028000A4CA0478023E9
S1132B2006009B019842E7D8009A019B690FE800D0
S1132B30A047F400041BE4B264033443D9E7C0465D
S1132B40F94500001D2A000037B50D4C0500237817
S1132B50002B01D000290CD001A91320094B0D70C2
S1132B6098471320084B9847012300206570237071
S1132B703EBD63780800AB42FAD01D20F8E7C0469A
S1132B8091000020093E0000813D0000394A030005
S1132B9000B50800934233D007D8374A934214D083
S1132BA0364A93421FD0002317E0354A93423AD065
S1132BB0344A934244D0344A9342F4D10023032943
S1132BC00BD801F077FC502A2C2E0023032904D8BB
S1132BD001F070FC430205072C4B180000BD2C4B80
S1132BE0FBE72C4BF9E700230329F6D801F062FC3C
S1132BF037020406284BF0E7284BEEE7284BECE7B6
S1132C0000230329E9D801F055FC2C020406254BC6
S1132C10E3E7254BE1E7254BDFE7254BDDE7254BD4
S1132C20DBE7254BD9E700230329D6D801F042FC82
S1132C301D020406214BD0E7214BCEE7214BCCE704
S1132C4000230329C9D801F035FC120204061E4BE7
S1132C50C3E71E4BC1E71E4BBFE71E4BBDE7032373
S1132C60BBE71D4BB9E71D4BB7E71D4BB5E71D4B44
S1132C70B3E7C0460010004200080042000C0042C6
S1132C8000180042001C004200140042030005002A
S1132C9003000600030007000300010003001E00F8
S1132CA003001F000300090003000A0003000B00D7
S1132CB003001100030012000300130003000D00C1
S1132CC003000E0003000F000300170003001800A8
S1132CD003001900030004000300080003001000AF
S1132CE003000C000300160070B586B06946094B5A
S1132CF06A4670CB70C170CB70C1002399005158E3
S1132D00814202D1D8B206B070BD0133062BF5D191
S1132D100020F8E7E057000070470000F0B5094CC8
S1132D20094A2378002B09D11E00084F084DD750BB
S1132D30EE500433182BFAD1173B23708000115046
S1132D40F0BDC0469300002094000020192D00001F
S1132D500405002007B509236A4613700133537034
S1132D60013393700133D370013313710133537101
S1132D70024B98476B4618560EBDC046E92C00001E
S1132D8010B5024B00201B68984710BD940000202A
S1132D9010B5024B01205B68984710BD94000020D9
S1132DA010B5024B02209B68984710BD9400002088
S1132DB010B5024B0320DB68984710BD9400002037
S1132DC010B5024B04201B69984710BD94000020E5
S1132DD010B5024B05205B69984710BD9400002094
S1132DE00368187E8007C00F70470368187E0123AC
S1132DF0184070470368187E4007C00F70470000F2
S1132E0070B5064B0C00056898470523002803D0CD
S1132E100023E405E40DAC62180070BDEB2D000046
S1132E2070B50D4B06000C00056898471022002869
S1132E300DD00423698B0022194201D06B831E320A
S1132E40B379012B05D1AB6ADB05DB0D23801000C0
S1132E5070BDAB6ADBB2F9E7F52D0000F0B50500F3
S1132E60296014000A6889B00E001C23920700D55B
S1132E70D4E001270B683B400193019A0523002A03
S1132E8000D0CBE008006A4B9847811C8F40694B07
S1132E9014301A6A17431F62631DDB7F02AAC7B28C
S1132EA0137011003800644B98473800634B9847FF
S1132EB0631DD87F0199624B98472378012B03D176
S1132EC032680B33134333602378002B03D1326809
S1132ED00833134333602B002A0000260C332832B6
S1132EE040C39A42FCD12B003633AE86EE622E8666
S1132EF0AE621E705E709E70032328686B724C4B2A
S1132F002E71984707004F4B4F4998474F4BBF00CE
S1132F10FD50802302AA13710123937123782F6833
S1132F205671D671002B00D196710026A36A0493C2
S1132F30E36A0593236B0693636B0793B30004AAB8
S1132F409858F1B2002802D13800414B9847431CED
S1132F5006D002AB1871000CC0B203A93D4B9847D0
S1132F600136042EEAD123786B71237CAB71A37CE8
S1132F70EB71237D2B7202AB9E1C002333802378DC
S1132F80012B10D12A4B286898471430324BC0B219
S1132F909847324B01003200A06998471723002854
S1132FA03CD133783B732378002B3DD1E17FA57F5F
S1132FB07B6A090429431943A069A28B631C7962C3
S1132FC0DB7F002B2DD11300A16862680A43E168FE
S1132FD00A43217C02430B43617C002903D120492D
S1132FE08978890701D580210A43A17C002902D070
S1132FF0802189020B43E17C002902D080218900D1
S11330000B43217D002902D0802189010B433968BB
S11330100A433A607A6813437B600023180009B0BE
S1133020F0BD40231343CFE700231800CCE7C0468C
S1133030E92C000000040040093E0000813D00002E
S1133040492B00001D2D0000193300000405002049
S11330508D2B0000DD3E0000253E0000892A000083
S113306000200041F0B587B003930300040005205D
S1133070029138331B781700834236D01230002A6D
S113308033D0E3790530002B2FD06379002B07D19F
S113309020002B4B9847002802D002232268137685
S11330A000256379012B08D12000264B984700287E
S11330B0FAD003992000244B98476379234E002BC0
S11330C01BD1234B01932000B047002804D1019B5E
S11330D0013B0193002BF6D12000194B984700289F
S11330E005D00222042023681A7607B0F0BD200020
S11330F0B047002801D11230F7E72000B04700287C
S1133100FBD004AB9E1D0023310033802000114B03
S113311098470028E9D1029932886B1C4A55A17955
S11331209BB2012909D102990235120AADB2CA54DF
S1133130013FBFB2002FB4D1D7E71D00F8E7C04666
S1133140E12D0000EB2D0000012E0000F52D000004
S113315011270000212E00000300F0B50400052013
S113316087B0029138331B781500834232D0123075
S1133170002A2FD06379002B07D120005F4B98479A
S1133180002802D002232268137600260195013D0F
S1133190ADB25B4A6379954208D1012B00D187E037
S11331A06379002B00D189E0002013E0002B1AD1B1
S11331B0544F2000544B9847002802D1013F002F60
S11331C0F7D120004D4B9847002805D00222042057
S11331D023681A7607B0F0BD20004B4B98470028AF
S11331E001D11230F6E72000474B98470028FAD067
S11331F0029A731C915DA2799BB2012A40D01E00F1
S113320089B2424B20009847E2796B1E9BB2002A98
S11332104CD06379002B24D13A4B0393002D12D068
S11332202000394B984700280DD0029B771C995DEC
S1133230A379BFB2012B2AD089B22000334B98471F
S11332403E00013DADB22000314FB847002825D0E3
S113325020002A4B98470028B8D12000B8470028FE
S113326022D020002A4B98470028FAD004AB991D9D
S11332702000284B9847019B013B9BB2019386E7B2
S1133280029A0236D35CB6B21B021943B9E7029B19
S11332900236DB5DB7B21B021943CEE7039B013B49
S11332A00393002BBAD1D3E7122093E71D0070E7F4
S11332B02000124B98470028FAD071E7E379002BDD
S11332C000D171E7019B002B00D16DE70D4D20006B
S11332D00F4EB047002802D1013D002DF7D1200048
S11332E0B047002800D17CE704AB991D2000094BAE
S11332F09847019B013B9BB20193E3E7E12D00005A
S1133300FFFF000011270000EB2D0000012E00003C
S1133310F52D0000212E0000F8B57C4B8000C45828
S1133320230022003733363225681B7816781E4076
S11333302B7EAF7D1F40FB0739D562791300012A2C
S113334033D1637A002B0DD1714B1B88AB62638E32
S1133350013B9BB26386638E002B00D12A7563798F
S1133360012B22D1637A002B21D0E16A2268481C08
S11333700B78E062A079DBB2012800D174E09BB243
S1133380DB05DB0D9362A38E013B9BB2A386A38E68
S1133390002B0CD101332B75637A012B07D1E37910
S11333A0002B04D10233AB7501E0002BDAD00421E9
S11333B00F4215D06B8B0B425CD0637A012B0CD07F
S11333C023001E2238331A700323637202332B75D1
S11333D0330702D52000A3699847AB6A04236B83A3
S11333E00222174227D06379002B0ED107212975B9
S11333F02A760132627222003832A3862386137041
S1133400F30602D52000E36998476379012B12D1B2
S1133410637ADBB2012B0ED1E279002A0BD10221AF
S1133420297501316172210038310A701E4202D0BF
S11334302000E368984708231F4209D06279002AD4
S113344006D12B752B76B30602D52000236A984744
S11334507FB2002F07DA80232B752B76730602D5F3
S1133460636A20009847F8BD48780231000203439C
S1133470E16285E7627A2368D2B29B6A012A13D19A
S1133480638E013B9BB26386638E9BB2002BA7D1F4
S11334902975210038310B700333637216429FD0B3
S11334A02000E36898479BE7DB05A16ADB0DDAB2ED
S11334B00A70A26A511CA162A179012904D11B0AD4
S11334C05370A36A0133A362238E013B9BB223860C
S11334D0238E9BB2002B00D082E722003832137077
S11334E004332B75627A022A05D11E4200D177E794
S11334F020006369D6E7637A002B00D070E7B30736
S113350000D46DE720002369CCE7C0460405002001
S11335101C0500200268D369002BFCD17047000011
S1133520F0B5070093B0A04B396008001600049171
S113353098470122049B05001B680520134200D014
S11335400FE1049B17301C6802231C4000D008E1E3
S1133550EB181B3898400300944A1435116AEDB2F5
S11335600B43136233002D3302931B780CA90B70A9
S113357028008F4B984728008E4B9847029B2100C8
S113358018788D4B9847F37A08257B71731DDB7F80
S1133590BB71B31DDB7FFB71F37E3B72337F7B72A8
S11335A03B6803931800804B98470EAB1C80338A0A
S11335B0143002938023029ADB019A4214D008D873
S11335C0802310259B019A4200D1CDE010250024D0
S11335D00AE0C023029ADB019A4200D1C3E08023AF
S11335E003251B029A42F1D133680693F3680793CB
S11335F073690893337E0993F31DDB7F0A93736821
S113360005933300059A0833002A00D1AEE08022E6
S11336100599520591420ED1DB7F002B0BD1674BEC
S1133620C0B2346A98470EAA0100654B200098473F
S1133630002800D095E0737E002B02D0B37E039A5D
S11336409373604B380098470AAB1B8A039A069C15
S11336509381079B1C43089B1C43059B1C43029BB3
S11336601C43099B1B021C430A9B5B071C4333003E
S11336700833DB7F002B01D104331C43757E337F79
S1133680AD025B021D43737FF27A1B021D43731D5F
S1133690DB7F5B041D43B31DDB7F1B042B43B57A27
S11336A015431D433389FF2B00D175E0802252045A
S11336B014431D4333002C331B78002B03D1424B9E
S11336C09B789B0701D580231C4338003D4B9847CA
S11336D0039B38005D603B4B9847039B00251C60AF
S11336E080230DAC2370336B65700E93736BE570A0
S11336F00F93B36BA5701093F36B02931193102087
S11337000AAAAB001218D058E9B2002802D10498D2
S11337102E4B9847431C05D02070000CC0B22100EA
S11337202B4B98470135042DE9D13B00002430335D
S1133730FC85FC603C617C61BC61FC613C62BC62F8
S11337407C62BC859C701C705C70DC703868164BA5
S1133750984705001F4B2049984720001F4BAD0098
S1133760EF5013B0F0BD082501243DE7DB7F002BAB
S113377007D02300B16A306A00950EAA184CA047FE
S113378056E7336AC0B20B930C4B9847009501007F
S113379023000EAA0B98F1E7F37E002B00D189E7F2
S11337A08023DB041C4385E7E92C0000000400406F
S11337B0093E0000813D0000492B0000253E000029
S11337C0892A000015350000002000418D2B0000DF
S11337D0DD3E00001D2D0000893800000405002096
S11337E0B12A000070B5C2790D001C23002A0CD048
S11337F0C28D173B002A08D1054B04689847022361
S11338002585227E1A42FCD00023180070BDC046D4
S11338101535000070B582790E001C23002A13D0E0
S1133820828D173B002A0FD104250468227E2A4288
S11338300AD0144B9847638BDBB29A061DD0022240
S1133840134203D01A236283180070BD2B4202D0A6
S113385065831E23F8E70122134202D062831323F7
S1133860F2E71022134202D062834223ECE72022C3
S1133870134202D062834123E6E7238D3380002381
S1133880E2E7C04615350000F8B5584B8000C4582F
S11338902568EB69002BFCD12B7EAF7D1F402300F4
S11338A030331A785E78012316401F4219D0E28D16
S11338B0002A00D172E0A26A511C1378A1626179D6
S11338C0DBB2012964D09BB2DB05DB0D2B85E38DD4
S11338D0013B9BB2E385002B03D101332B750133EC
S11338E0AB7502231F4209D02B752300002233330A
S11338F01A70F30702D52000E368984704231F4297
S113390027D0A28D002A00D16DE06B8BDBB21A07A1
S113391046D43F22134045D002221A2113420FD12C
S113392004221E2113420BD101221321134207D179
S113393010224221134203D12022134204D04121F8
S11339402300323319706A83730702D52000636938
S1133950984710231F4206D02B752B761E4202D0A7
S11339602000E369984720231F4206D02B752B764D
S1133970330702D52000A369984708231F4206D0C5
S11339802B752B76B30602D5236A20009847F8BD21
S11339905178023209020B43A26295E72B75A0E726
S11339A03722B7E72B8D616ADB05DB0DDAB20A70CB
S11339B0626A511C61626179012904D11B0A537046
S11339C0636A01336362A38D013B9BB2A385002B21
S11339D0BFD104222A75220032321370B307B8D53E
S11339E020002369B4E72B75B3E7C0460405002023
S11339F010230249CA681A42FCD0704700080040EC
S1133A0070B5082806D800F055FD0805052E2E12BD
S1133A100B1526000024200070BD154B1C69FAE725
S1133A20144B154C1B6A9B059B0FDC40F3E7104BB2
S1133A305C69F0E70E4D00242B689B07EBD50F4B18
S1133A4098472B685B0711D520000D4B9847AC684D
S1133A50A4B24443DFE70B4B00241B785B07DAD5A1
S1133A60034BDC68D7E780242402D4E7064CD2E772
S1133A70AC0000200008004000127A00F139000078
S1133A80253E000050080040006CDC0270B58478CC
S1133A9002784578012040260540204080240849CA
S1133AA0AD010B6AC001B3432B43A343034303207B
S1133AB0024004481202034013430B6270BDC04627
S1133AC000080040FFFCFFFFF8B5082806D800F006
S1133AD0F1FC1405050C0E1A072034001720F8BD5C
S1133AE00223194A116A0B4313620020F7E70223E9
S1133AF0154A91690B439361F7E70223124A118A2D
S1133B000B431382F1E702230F4A918A0B439382FA
S1133B10EBE7022200240D4E0B4D33680C4F134388
S1133B203360AA84B847B368EB627368AB62AC8451
S1133B30B84733689BB2AB84D7E70223054A1178B0
S1133B400B431370D1E7C04600080040AC000020CE
S1133B50F1390000440800407FB5C2221E21194BF0
S1133B60D2009A60184A0024536801AD8B43536015
S1133B7001232B70E0B22900144B01349847252C03
S1133B80F8D100246B4601265C709E701C70684658
S1133B900F4B98470F4B062098470F4B98470F4BF6
S1133BA029001C725C729C72DC72062320002B704C
S1133BB00B4B6E606C702C726C7298472000094B32
S1133BC098477FBD0008004000400041093E0000C6
S1133BD08D3A0000C93A0000F53B000000040040A3
S1133BE0153C0000B93C0000014B5878C0097047EF
S1133BF0000C00400823054A91690B43936101239B
S1133C00034A137011781942FCD170470004004034
S1133C10000C0040F8B50C784B782402060005002F
S1133C200443002B02D08023DB021C434B7A002B7D
S1133C3002D080231B031C434B68012B12D95D1E49
S1133C401D400222002D06D01D02802335439B0215
S1133C5007E0013552009A42FBD380232D023543FD
S1133C605B031C430B7A002B02D080239B031C4371
S1133C700C4FB8470028FBD10B4B98470B4B1E70D9
S1133C80B8470028FCD10A4B9D601D00B8470028A6
S1133C90FCD180226B68520213401C436C60054BBC
S1133CA09847F8BDE93B0000B9290000080C004022
S1133CB0000C0040ED29000070B50500094CA04738
S1133CC00028FBD1084B9847084B1D70A0470028DB
S1133CD0FCD18023064A5B0251680B435360054BB9
S1133CE0984770BDE93B0000B9290000040C00406E
S1133CF0000C0040ED290000F7B50700184EB0474E
S1133D000028FBD1174B9847174B1F700193B047FE
S1133D100028FCD1154D164B6868C004C00E9847A6
S1133D200400019B1F706B68DB02DB0F0193114BD6
S1133D301F70B0470028FCD1AD680F4B9847019B1A
S1133D402D022D0C002B08D1012D04D920002900AF
S1133D500A4B984704002000FEBD0135EC40FAE709
S1133D60E93B0000B9290000040C0040000C0040AD
S1133D70013A0000080C0040ED290000C94400008D
S1133D8010B50400064B9847064B074A1C70802365
S1133D905188DB010B435380044B984710BDC04648
S1133DA0B9290000020C0040000C0040ED2900007D
S1133DB010B504000E4B98470E4B0F4A1C700F4B66
S1133DC00F4C588859880005114059805988000FB4
S1133DD02140598011008022D2015C881442FCD118
S1133DE05A8800020A4002435A80064B984710BD85
S1133DF0B9290000020C0040FFF0FFFF000C004056
S1133E00FFBFFFFFED29000010B50C78034B24021F
S1133E1004439847024BA4B25C8010BDB13D00003E
S1133E20000C004010B50400064B9847064B1C706C
S1133E30064B5C88064B2405240F98472000054B4D
S1133E40984710BDB9290000020C0040000C004046
S1133E50ED290000F93C0000D37830B5002B35D1B2
S1133E601478802C03D0802324065B02234302258C
S1133E705478AC4306D19478002C24D18024A40235
S1133E80234341605478013C012C01D8124C234057
S1133E90A0248DB2E4052C431C438462D0240D0C71
S1133EA024062C431C438462D478002C0AD15B037F
S1133EB003D59378012B0CD181615378013B012BFD
S1133EC000D8816030BDC024E402D9E741600023FA
S1133ED0DEE74161F1E7C046FFFFFBFF10B50300D9
S1133EE00A004409C1090020814202D10449E001C9
S1133EF040181F210B401E399940024B984710BDB2
S1133F0000440041593E00007047000010B5054BC5
S1133F109847054B9847054B9847054B9847054BE1
S1133F20984710BD593B0000B5290000093F000027
S1133F30093F0000093F0000FEE700002148224934
S1133F4070B5884204D00023204CCA18A24232D350
S1133F5000211F4B1F4A934231D3FF211E4B1F4A9E
S1133F608B43936002220C25082430261C4B1D48E9
S1133F705A62C378FC398B431343C370C378AB4391
S1133F802343C370184B987BB04306002020304372
S1133F909873987BA84304439C73987B884302439B
S1133FA09A738023114A51680B435360104B98470E
S1133FB0104B9847FEE7C55804331560C5E702C3A4
S1133FC0C9E7C046805900000000002068000020B6
S1133FD068000020740500200020000000ED00E0CF
S1133FE0FC70004100500041004800410040004185
S1133FF0794600000941000070B50E001400150058
S1134000002808D0012040420CE0074B013D18680D
S1134010064B1B689847611B7118002DF5DCE043C3
S1134020C017204070BDC046280500202005002090
S1134030013870B50E0002280DD80C008D18A01B95
S1134040AC420AD0054B21781868054B01341B6833
S113405098470028F3DA0120404270BD280500206B
S113406024050020054B02001968002901D10449E8
S11340701960186882181A607047C046C40000208E
S11340807825002001204042704780239B010020B6
S11340904B607047012070470020704700BEFEE768
S11340A073B56B469C1D002306000D002380210080
S11340B03000034B98470028F9D123882B7073BD37
S11340C01538000070B504000D00A9B22000024BA1
S11340D098470028F9D170BDE537000007B50022E4
S11340E06B4669461A70064B68465B68DB061B0F15
S11340F08B70044BCA700A714A70984707BDC0465A
S11341000040004165260000F0B5B54BA7B09847C4
S113411074220021012502AB9B1816AE1970683A6F
S1134120B04B1CA835707160B16031747174B57492
S1134130F57431759847AC4BAC4FB36180235B0287
S1134140F360AB4B3200B36201235B42F362A94BD1
S1134150A9493363A94B38007363A94B98473C685A
S1134160A84B200098471F2318408540A64B1D608C
S11341703A680193D569002DFCD10227236806A96A
S11341803B4323600423A14C07202371974B6071A8
S1134190236001234B7001230B709D4B8D70984756
S11341A062795309D40900D017E11F210A401E394E
S11341B091400A009749DB015B189A61964BDA69D2
S11341C01743DF61954B98478023DB051693FF2344
S11341D07422338102AB9B18733A1A70562302AAD5
S11341E09B180122DA77572302AA9B18DC7718ABB5
S11341F0DC7721AB1C707D239B181C701323B376D2
S1134200C4239B03F36001235B4233637363844BD6
S1134210844DB363844B854AF363E1235B023362C9
S1134220834B74601D60834BB472F472B462746126
S11342303482F47634763477747674771A607E4AEE
S11342407E4B7F491A60280032007E4B98477E4F90
S113425021003B687D4E9868B0473B682100586850
S1134260B0472C68674B200098471F2318401E3B1B
S11342708340019A13602B68DD69002DFCD1022371
S113428022687348134323600124724B984702AB9E
S1134290190037205E4E5C701D709D70B04703A9F5
S11342A017204C700C708D70B0476B486B4FB8473B
S11342B080232C009B006A4AA45401349C42FAD106
S11342C0524E684B300098473000674B9847051EA4
S11342D004D06648B8470120654B98472300010085
S11342E0644A3000644FB84780212A0049023000F4
S11342F0624B984780212A0049023000604B98475E
S113430080212300564A490230005E4FB8470121FC
S113431030005D4B984780212300564A4902300003
S1134320554FB847594B30009847210004AA584EBE
S1134330504804950595B04705AA21004848B04760
S11343400499444C5348A04705995348A0475348FF
S1134350424FB84706ABED540135402DFBD1C8257B
S1134360ED0128004E4B98470528FAD0C825ED01E9
S1134370402206A928004B4B98470528F8D0002373
S1134380190016AA99540133402BFBD1C825ED011D
S1134390402216A92800444B98470528F8D000234A
S11343A004AA402116A804930593B04705AA402106
S11343B006A8B04704993748A04705993648A0474E
S11343C03A48B8478023134A39491B0408681842FD
S11343D001D15361FAE79361F8E7AD61FFDEC046AE
S11343E00D3F0000C1460000C0D401003405002088
S11343F00200100002001200000C00420200130030
S11344005D2E0000552D000000E100E02C05002089
S1134410952900000044004100040040DD400000F4
S113442003002A00C800002003002B00C540000040
S11344302805002024050020A140000020050020BC
S1134440001800422135000004000020D947000074
S1134450F8570000D14600000A580000C547000084
S1134460FC0200209D250000E922000028580000DD
S11344704D460000FC0000203923000011250000F7
S11344805924000089230000C12400006D25000088
S1134490CD2500003D580000585800007458000015
S11344A095280000912700002D2800009058000056
S11344B0A044004102B4714649084900095C49001E
S11344C08E4402BC7047C046002243088B4274D31A
S11344D003098B425FD3030A8B4244D3030B8B4201
S11344E028D3030C8B420DD3FF22090212BA030C0A
S11344F08B4202D31212090265D0030B8B4219D3EB
S113450000E0090AC30B8B4201D3CB03C01A52410A
S1134510830B8B4201D38B03C01A5241430B8B4252
S113452001D34B03C01A5241030B8B4201D30B033B
S1134530C01A5241C30A8B4201D3CB02C01A524162
S1134540830A8B4201D38B02C01A5241430A8B4225
S113455001D34B02C01A5241030A8B4201D30B020E
S1134560C01A5241CDD2C3098B4201D3CB01C01A28
S1134570524183098B4201D38B01C01A5241430932
S11345808B4201D34B01C01A524103098B4201D320
S11345900B01C01A5241C3088B4201D3CB00C01A8D
S11345A0524183088B4201D38B00C01A5241430805
S11345B08B4201D34B00C01A5241411A00D201462A
S11345C0524110467047FFE701B5002000F006F89D
S11345D002BDC0460029F7D076E770477047C04651
S11345E09140031C90409C46203A93401943524208
S11345F06346D34019437047F0B5CE464746150489
S11346002D0C2E0080B50704140C3F0C9946030CA6
S11346107E435D43674363437F19340CE4199C462E
S1134620A54203D980235B029846C4444B465143B8
S113463043433604360C250C24046544A419591844
S1134640491920000CBC90469946F0BD084B10B5A2
S11346500400002B02D0002100E000BF054B1868C5
S1134660836A002B00D098472000FFF717FDC0464F
S113467000000000C858000070B500260C4D0D4C19
S1134680641BA410A64209D1002601F069F90A4D61
S11346900A4C641BA410A64205D170BDB300EB58AC
S11346A098470136EEE7B300EB5898470136F2E736
S11346B06C5900006C5900006C59000070590000DE
S11346C003008218934200D1704719700133F9E74F
S11346D00FB40B4B13B51C68002C05D0A369002B39
S11346E002D1200000F0F2FA05AB049AA168200080
S11346F0019300F0C7FC16BC08BC04B01847C046C0
S11347000400002070B505000E00002804D0836961
S1134710002B01D100F0DAFAAB69AC68002B02D1AE
S1134720280000F0D3FA244B9C420FD16C68A38973
S11347301B0702D52369002B20D12100280000F09B
S113474057F900281AD00120404270BD1B4B9C42EF
S113475001D1AC68EBE71A4B9C42E8D1EC68E6E780
S1134760013B0136A360002B04DAA269934216DBF5
S11347700A2914D023685A1C226019703178A3685E
S11347800029EDD1013BA360002B0FDA22000A318E
S1134790280000F0D7F8431CD5D00A20D5E7220022
S11347A0280000F0CFF8431CE8D1CCE70A202368A6
S11347B05A1C22601870C8E7EC5800000C5900001D
S11347C0CC58000010B5034B01001868FFF79AFF9E
S11347D010BDC046040000204A424A41802310B55F
S11347E05200DB0000F002F810BD0000F0B51D001F
S11347F04F4B85B01E6804000F000092002E05D0B8
S1134800B369002B02D1300000F060FA494B9C429E
S113481050D17468009B022B05D0012B00D984E091
S1134820002D00DA81E02100300000F0E1F9616B35
S1134830002908D023004433994202D0300000F00C
S113484051FB002363630023A3616360A3891B06F8
S113485003D52169300000F045FBA389364A134093
S1134860A381009B022B5AD003AB02AA2100300083
S113487000F0C2FAA3891843A081002D24D1029D1F
S1134880280000F025FB0195071E42D1029B0193ED
S1134890AB4239D1012040420223A2891343A381B0
S11348A00023A36023004733236023610123636152
S11348B005B0F0BD214B9C4201D1B468AAE7204B5E
S11348C09C42A7D1F468A5E7002FD9D0B369002B87
S11348D002D1300000F0FAF9009B012B03D1A38927
S11348E0009A1A43A2810820A38927602761656181
S11348F0184018D0012018400023984211D06D426E
S1134900A360A5611800D3E7019800F0E1FA071E3F
S1134910C0D08023A289019D1343A381D6E7002040
S1134920BAE7A560C4E7A060C2E701204042BFE740
S113493004000020EC5800005CF3FFFF0C59000059
S1134940CC580000F8B505000E001400002804D06F
S11349508369002B01D100F0B9F9224B9C422DD17F
S11349606C68A369A360A3891B0731D52369002B55
S11349702ED023682269F7B2981A6369F6B2984276
S113498005DB2100280000F033F9002826D1A368B4
S11349900130013BA36023685A1C22601F706369C5
S11349A0984204D0A389DB071AD50A2E18D1210016
S11349B0280000F01DF9002812D00FE00A4B9C4299
S11349C001D1AC68CDE7094B9C42CAD1EC68C8E779
S11349D02100280000F00CF80028CAD001267642F5
S11349E03000F8BDEC5800000C590000CC58000011
S11349F0364B70B51D6806000C00002D05D0AB6960
S1134A00002B02D1280000F061F9314B9C420FD1F8
S1134A106C680C23E25E93B219072DD4D90611D425
S1134A2009230120336037331343A381404270BD0F
S1134A30284B9C4201D1AC68EBE7274B9C42E8D160
S1134A40EC68E6E75B0713D5616B002908D0230007
S1134A504433994202D0300000F044FA00236363E7
S1134A602422A3899343A3810023636023692360E1
S1134A700823A2891343A3812369002B0BD1A0210E
S1134A808022A389890092000B40934203D0210025
S1134A90300000F0D9F90123A289134011D000237A
S1134AA0A36063695B42A361002023698342BED192
S1134AB00C23E25E1306BAD540231343A3810138C5
S1134AC0B5E7920700D46369A360EDE70400002012
S1134AD0EC5800000C590000CC580000F7B58A8946
S1134AE005000C00130760D44B68002B04DC0B6C2E
S1134AF0002B01DC0020FEBDE76A002FFAD0002362
S1134B002E682B6080235B011A4034D0606DA3892A
S1134B105B0706D56368C01A636B002B01D0236C56
S1134B20C01A0200216A00232800E76AB847A18955
S1134B30431C06D12B681D2B31D82C4ADA40D307ED
S1134B402DD50023636023692360CB0405D5431C62
S1134B5002D12B68002B00D16065616B2E600029A7
S1134B60C8D023004433994202D0280000F0BAF997
S1134B7000206063BFE70123216A2800B847431C73
S1134B80C5D12B68002BC2D01D2B01D0162B01D10F
S1134B902E60AFE74023A2891343A381ABE74023F0
S1134BA00B430120A3814042A5E70F69002FA1D048
S1134BB00B680F60DB1B01930023920700D14B6944
S1134BC0A360019B002B00DC94E7019B3A00216A5F
S1134BD02800A66AB047002803DC4023A2891343B7
S1134BE0DFE7019B3F181B1A0193EAE7010040200D
S1134BF00B6970B505000C00002B01D1002070BDBD
S1134C00002804D08369002B01D100F05FF80B4B1E
S1134C109C4209D16C680C22A35E002BEED02100CB
S1134C202800FFF75BFFEAE7054B9C4201D1AC6823
S1134C30F1E7044B9C42EED1EC68ECE7EC58000041
S1134C400C590000CC58000010B5024900F0B2F82D
S1134C5010BDC046F14B0000002310B504000360F2
S1134C604360836081814366C281036143618361E0
S1134C70190008225C30FFF723FD054B24626362B0
S1134C80044BA362044BE362044B236310BDC04690
S1134C90F155000019560000515600007D560000E1
S1134CA070B568254A1E55430E002900743100F082
S1134CB063F9041E08D000212A00016046600C300C
S1134CC0A0606832FFF7FCFC200070BD836913B557
S1134CD00400002B28D18364C3640365134B144A76
S1134CE01B6882620193984201D1012383612000F1
S1134CF000F020F86060200000F01CF8A0602000A4
S1134D0000F018F80022E06004216068FFF7A4FFB7
S1134D1001220921A068FFF79FFF02221221E06807
S1134D20FFF79AFF0123A36113BDC046C8580000D2
S1134D30494C0000F8B51E4B07001E68B369002BF0
S1134D4002D13000FFF7C2FF4836B4687368013BF4
S1134D5004D53368002B07D03668F6E70C22A55E2D
S1134D60002D0DD06834F2E704213800FFF798FFD6
S1134D7030600028F0D10C2304003B602000F8BD13
S1134D80012320005B42E3810233A3816566256031
S1134D90A560656025616561A561082229005C3014
S1134DA0FFF78EFC6563A563A564E564E6E7C0468A
S1134DB0C8580000F7B504000700002601914834E4
S1134DC0002C01D13000FEBD6368A5680093009BF0
S1134DD0013B009301D52468F2E7AB89012B08D984
S1134DE00E22AB5E013304D029003800019B9847A2
S1134DF006436835EBE7000070B50E001D000E2376
S1134E00C95E90B01400002907DA00232B60B3892F
S1134E101B0611D48023DB000FE001AA00F05AFC2A
S1134E200028F2DBF022029B12021340054A9B1871
S1134E305A4253412B60EDE740230020236010B019
S1134E4070BDC04600E0FFFFF7B502268B89050060
S1134E500C00334206D0230047332360236101232F
S1134E606361F7BD01AB6A46FFF7C6FF009907000F
S1134E70280000F081F8002808D10C22A35E9A05CE
S1134E80EFD4032293431E43A681E4E70F4BAB62A6
S1134E908023A28920601343A381009B2061636166
S1134EA0019B002B0DD00E23E15E280000F024FCB2
S1134EB0002806D00322A38993431A000123134335
S1134EC0A381A0893843A081CBE7C046494C0000A8
S1134ED010B5034B0100186800F04EF810BDC04631
S1134EE00400002070B50500002910D00C1F2368B1
S1134EF0002B00DAE418280000F02FFC1D4A136888
S1134F00002B05D163601460280000F027FC70BDFD
S1134F10A34209D9216860188342F3D118685B68F9
S1134F2041182160EEE713005A68002A01D0A2421A
S1134F30F9D919685818A0420BD1206809185818D3
S1134F4019608242E0D110685268411819605A60B1
S1134F50DAE7A04202D90C232B60D5E72168601858
S1134F60824203D1106852684118216062605C601B
S1134F70CAE7C046FC040020032370B5CD1C9D4342
S1134F80083506000C2D1ED20C25A9421DD8300070
S1134F9000F0E3FB254A14682100002919D1244CB0
S1134FA02368002B03D1300000F010FB206029009F
S1134FB0300000F00BFB431C2CD10C233000336079
S1134FC000F0CCFB03E0002DDFDA0C23336000207B
S1134FD070BD0B685B1B1AD40B2B03D90B60CC1868
S1134FE0256003E08C420ED163681360300000F04A
S1134FF0B5FB200007220B30231D9043C31AE7D0D2
S11350005A42E250E4E74B6863600C00EEE70C00A0
S11350104968C2E70323C41C9C43A042E0D0211A80
S1135020300000F0D3FA431CDAD1C6E7FC040020B8
S113503000050020936810B5013B9360002B05DA4E
S11350409469A34208DBCBB20A2B05D01368581C21
S113505010601970C8B210BDFFF774FCFBE7F8B517
S113506006000F001400D518AC4201D1002007E05F
S113507021783A003000FFF7DDFF0134431CF3D1FF
S1135080F8BD0000F0B59FB006000F0014000593B2
S1135090002804D08369002B01D1FFF717FE7F4B52
S11350A09F425CD17768BB891B0762D53B69002BA3
S11350B05FD0002306AD6B6120336B761033AB7683
S11350C00294029C2378002B5DD1029BE31A049383
S11350D00DD0049B029A39003000FFF7C0FF431C37
S11350E000D1CCE06A69049B944663446B612378E5
S11350F0002B00D1C3E00122002352426A6002A9BE
S11351005432521801342B60EB60AB601370AB6502
S113511021780522624800F015FB631C9C46002898
S113512035D12968CB0604D5532302AA20309B1815
S113513018700B0704D553232B2002AA9B18187050
S113514023782A2B2CD000200A21099B2278303A7C
S1135150092A00D86BE000282AD0099328E0514B93
S11351609F4201D1B7689EE74F4B9F429BD1F7689E
S113517099E739003000FFF73BFC002899D0012063
S113518040421FB0F0BD252B9FD001349AE7444B19
S11351902968C01A012383400B432B606446B7E798
S11351A0059B181D1B680590002B3ADB0993644688
S11351B023782E2B0BD16378621C2A2B3FD1059BBD
S11351C002341A1D1B680592002B35DB07932178E6
S11351D00322364800F0B6FA002807D0334B2A6879
S11351E0C01A4023834013432B6001342178631C8D
S11351F006222F480293297600F0A4FA002844D00E
S11352002C4B002B2FD12968059B0722C90528D5D3
S11352109B189343083305936B69039A9B186B613E
S11352204FE75B42EB6002230B432B60BFE74B432A
S113523001349B18012089E701235B42C6E7002360
S113524014000A201A006B6021783039092903D927
S1135250002BBCD00792BAE7424301345218012311
S1135260F2E70733D5E705AB00933A00124B290068
S1135270300000E000BF0390039B0133CCD1BB8915
S11352805B0600D57BE70B987BE705AB00933A0000
S1135290094B2900300000F07FF8ECE7EC580000DF
S11352A02C5900000C590000CC5800003259000061
S11352B036590000000000005F500000F7B51500EB
S11352C001938A680B6900900C00934200DA130082
S11352D022002B6043321278002A01D001332B6064
S11352E023689B0602D52B6802332B6006272368AC
S11352F01F4027D0230043331B785A1E9341226852
S1135300920630D42200019943320098089EB04797
S1135310431C25D0062320682A68E1680340002541
S1135320042B03D18D1AEB43DB171D40A3682269BC
S1135330934201DD9B1AED180027BD4220D10020C5
S113534010E00137E3682A689B1A9F42D2DA2200F0
S11353500123193201990098089EB047431CF0D1EB
S113536001204042FEBD3020E11843310870210085
S11353705A1C45310978A218433202331170C1E72F
S1135380220001231A3201990098089EB047431C59
S1135390E6D00137D1E70000F0B58BB006920A00E1
S11353A043320793059004920A7E0C00109B6E2AE8
S11353B000D18FE017D8632A2CD008D8002A00D156
S11353C099E0582A54D026004236327029E0642AE3
S11353D001D0692AF7D121681A68080623D5111D5E
S11353E01960156825E0732A00D188E008D86F2A6F
S11353F029D0702AE7D1202209680A43226003E0F9
S1135400752A20D0782ADED1220078214532117005
S11354106C4A30E00E001A684236111D1960136898
S11354203370012379E04906D9D5111D1960002391
S1135430D55E002D03DA2D23049A6D421370624B5E
S11354400A2703932FE020681968050603D5081D71
S113545018600D6805E04006F9D50D68081D186050
S1135460ADB2594B082703936F2A18D00A2716E0C8
S113547045310A70544A03921A682168101D186055
S11354801568080622D5CB0702D5202319432160CD
S11354901027002D03D1202322689A432260230081
S11354A0002243331A706368A360002B5CDB042280
S11354B0216891432160002D58D1049E002B64D0B3
S11354C02600039B42361B7833705EE04806DAD52B
S11354D0ADB2D8E709681A68080605D5111D196028
S11354E0136862691A6006E04906F7D5111D196050
S11354F01368A28A1A800023049E236154E01A6868
S1135500111D1960166800216268300000F01AF954
S1135510002801D0801B6060636823610023049A23
S1135520137041E02369320006990598079DA84746
S1135530431C43D0236800259B070FD4099BE068D4
S113554098423DDA18003BE0220001231932069903
S11355500598079EB047431C30D00135E368099A8B
S11355609B1A9D42F0DBE9E7002DA9D0049E280098
S11355703900FFF72FF8039B013E5B5C2800337072
S11355803900FEF7A1FF051EF1D1082F09D12368C8
S1135590DB0706D563682269934202DC3023013EAF
S11355A03370049B9B1B2361079B09AA0093210072
S11355B0069B0598FFF782FE431CB3D101204042AD
S11355C00BB0F0BD4E5900003D590000002370B5EA
S11355D0064C050008002360FEF744FD431C03D17C
S11355E02368002B00D02B6070BDC04670050020DE
S11355F070B50C000E25495F00F0B2F8002803DBFB
S1135600636D1B18636570BDA389024A1340A381AF
S1135610F9E7C046FFEFFFFFF8B51F008B890500CF
S11356200C001600DB0505D50E23C95E00220223FB
S113563000F074F8A389054A28001340A3813200BE
S11356400E23E15E3B0000F01FF8F8BDFFEFFFFF03
S113565070B50C000E25495F00F060F8A389421C68
S113566003D1054A1340A38170BD80225201134324
S1135670A3816065F8E7C046FFEFFFFF10B50E2376
S1135680C95E00F015F810BD70B5050008001100E2
S11356900022064C22601A00FEF7CAFC431C03D108
S11356A02368002B00D02B6070BDC046700500201D
S11356B0002370B5064C050008002360FEF7E2FCE9
S11356C0431C03D12368002B00D02B6070BDC0465F
S11356D070050020002370B5064C05000800110079
S11356E02360FEF7D2FC431C03D12368002B00D0B7
S11356F02B6070BD70050020002370B5064C0500BA
S113570008002360FEF7C6FC431C03D12368002B6A
S113571000D02B6070BDC0467005002070B5050038
S1135720080011000022064C22601A00FEF7B4FCA7
S1135730431C03D12368002B00D02B6070BDC046EE
S113574070050020C9B28218904201D10020704730
S113575003788B42FBD00130F6E7704770470000B6
S113576070B50500080011000022064C22601A00E2
S1135770FEF742FC431C03D12368002B00D02B60AE
S113578070BDC04670050020000100001F650000C8
S11357901F4300001F4401001F4502001F45010074
S11357A01F4602001F4603001F8600001F4701001A
S11357B01F48000000000100000004000000080071
S11357C00000100000001000000020000000200075
S11357D00000200000004000000080002052D8009B
S11357E000080042000C0042001000420014004275
S11357F000180042001C0042496E204170706C6920
S1135800636174696F6E210A0D00426567696E6990
S11358106E672074657374206F6620466C617368CC
S11358202052572E2E2E0D00466C6173682063683B
S11358306970206D697373696E67210D004352436B
S1135840333220526573756C74206F662072656103
S1135850643A2025780D0A004352433332205265BE
S113586073756C74206F662077726974653A2025AD
S1135870780D0A005374617274696E6720746573DD
S113588074206F66204E564D2052572E2E2E0D003A
S1135890525720546573747320646F6E652E2E2ED8
S11358A0207072657373207468652064656275671F
S11358B020627574746F6E20666F72207468652040
S11358C04C45442E0D00000008000020000000009C
S11358D000000000000000000000000000000000C4
S11358E000000000000000000000000000000000B4
S11358F000000000000000000000000000000000A4
S11359000000000000000000000000000000000093
S11359100000000000000000000000000000000083
S1135920000000000000000000000000232D302BC8
S11359302000686C4C00656667454647003031328C
S113594033343536373839414243444546003031E3
S11359503233343536373839616263646566000042
S1135960F8B5C046F8BC08BC9E467047DD20000070
S1135970F8B5C046F8BC08BC9E467047B520000088
S1135980010000000800002000000000EC580000A6
S11359900C590000CC58000000000000000000007A
S11359A000000000000000000000000000000000F3
S11359B000000000000000000000000000000000E3
S11359C000000000000000000000000000000000D3
S11359D000000000000000000000000000000000C3
S10B59E00000000000000000BB
S9033F3D80
