S01B000044726F6E654441444170706C69636174696F6E2E73726563D4
S1132000603A0020817800007D7800007D7800002F
S113201000000000000000000000000000000000BC
S11320200000000000000000000000007D780000B7
S113203000000000000000007D7800007D780000B2
S11320407D7800007D7800007D7800003552000026
S1132050DD5000007D7800007D7800007D78000070
S11320607D7800008D6600009D660000AD6600006E
S1132070BD660000CD660000DD660000D95C00008E
S1132080E95C0000F95C00007D7800007D780000C8
S11320907D78000000000000000000007D78000052
S11320A07D7800007D7800007D7800007D78000058
S11320B00000000010B5064C2378002B07D1054B17
S11320C0002B02D0044800E000BF0123237010BDA0
S11320D0FC0100200000000098DE0000084B10B551
S11320E0002B03D00749084800E000BF07480368F5
S11320F0002B00D110BD064B002BFBD09847F9E70D
S1132100000000000002002098DE000098DE0000BD
S113211000000000002210B54309C409944202D112
S1132120DA01064BD2181F2318401E3B83400029B6
S113213001D0936110BD5361FCE7C04600440041E7
S113214030B50424036810221D7E25420CD05D8B1B
S11321500022254201D05C831E3280799B6A0128CB
S113216004D1DB05DB0D0B80100030BDDBB2FAE7D8
S113217070B50500064B98472B790524DBB2002B7C
S113218002D101221C002A71024B9847200070BD25
S1132190C5620000F9620000F7B56B469D1D00237F
S11321A0040001262B8003681A68137E3342FCD096
S11321B0194B60790021984723681B681A7E3242C4
S11321C001D005229A620423206801680A7E1A421B
S11321D0FCD02900114FB847012623681B681A7EDA
S11321E03242FCD01A7E324201D000229A62206828
S11321F002680421137E0B42FBD02900B8472B88C8
S11322003342EAD160790121034B9847288880063C
S1132210C00F0001FEBDC046152100004121000091
S1132220F0B585B015000AAA040001CA168802AAEE
S113223001901170012D05D9D37002A91A0A1B0C43
S11322408A704B7060790021084FB847AAB202A97E
S11322502068074DA847002E03D03200019920685A
S1132260A84760790121B84705B0F0BD15210000E9
S1132270316A0000002313B5012201930093062163
S1132280014CA04713BDC04621220000F0B585B023
S113229015000AAA040001CA168802AA0190117046
S11322A0012D05D9D37002A91A0A1B0C8A704B7030
S11322B060790021094FB847AAB202A92068084BE7
S11322C09847002E05D00023320001992068054D5F
S11322D0A84760790121B84705B0F0BD1521000079
S11322E0316A000025690000F7B50D001E00591879
S11322F00379170004000022092B02D80B4A9B0023
S11323009A58172091420FD82068094B98470528FE
S11323100AD02B0020000196009705220B21054DC1
S1132320A847002023681871FEBDC046F8C8000005
S1132330712100008D220000F0B51D0085B00291CE
S113234003920379040069180022092B02D8284A51
S11323509B009A581720914225D82068254B98470E
S1132360052820D0244B200098476B461A7A8023F6
S11323705B009B1A1E1C9BB2AB4200D92E1C039B14
S1132380B6B200930422029B022120001B4F019647
S1132390B84720001A4B9847AD1BAFB2002F04D1A9
S11323A0002223681A7105B0F0BD0028F8D1124B41
S11323B020009847029B9B190293039B9B1903934C
S11323C080233E1C5B009F4201D90E4B1E88039B59
S11323D0B6B200930422029B022120000196074D0D
S11323E0A847BF1B2000064B9847BFB2D6E7C0469C
S11323F0F8C80000712100007522000021220000AD
S113240099210000F4C80000F7B5037904000E0018
S113241017001720092B1ED80F4A9B009B5899427E
S113242019D220680D4B9847052814D000252000A8
S11324300B4B98472900022F01D80A4BD95D330072
S11324400422200001950095074EB047074B200059
S1132450984723681D71FEBDF8C800007121000073
S11324607522000020C900002122000099210000EB
S113247030B5104B85B0050000680C00984705285E
S113248015D028000C4B621E944198473C230F2220
S11324900121644223406A441370280000920023FF
S11324A001910A00054CA04700202B68187105B063
S11324B030BDC046712100007522000021220000B9
S11324C073B5037905000E0014001720092B1BD8DF
S11324D00E4A9B009B58994216D228680C4B984789
S11324E0052811D028000B4B98473621002C00D129
S11324F00331002433002800019400940422064E82
S1132500B04720002B681C7176BDC046F8C8000097
S113251071210000752200002122000073B5094BCF
S113252005000068984705280BD0002428002300E4
S1132530019400940122B921034EB04720002B6876
S11325401C7176BD712100002122000073B5094B76
S113255005000068984705280BD0002428002300B4
S1132560019400940122AB21034EB04720002B6854
S11325701C7176BD7121000021220000012310B5D9
S113258048400649D200002A00D110BD040040088A
S11325901C4000D04840013AF5E7C0462083B8ED1E
S11325A0F7B503230C000500170012689D43D143BF
S11325B022009C4201D942421A40002A0AD0D30088
S11325C028685B422033D840164BA41A98472E1D26
S11325D001003500032322009A430BD02E00A31AD6
S11325E0A40801930094009B5A1E009214D2A400E4
S11325F02D19019C002C0BD00122E3005B422033F7
S11326005242DA402868074B1040220098470100E4
S1132610C94300203960FEBD042201CE014B984716
S11326200100E0E77D25000070B5094B00209847C4
S1132630FA21084C89000500A047074B0749186098
S11326402800A0470522064B1860064B1A6070BD8F
S11326503D760000399500000000002040420F0044
S11326600400002010E000E030B580240021074B76
S113267064021A68064B013800D230BD002AFAD031
S11326805A6099601D682542FCD0F4E704000020DC
S113269010E000E030B580240021074B64021A6882
S11326A0064B013800D230BD002AFAD05A60996036
S11326B01D682542FCD0F4E70000002010E000E093
S11326C010B5034B1B68002B00D0984710BDC046C3
S11326D01802002010B50400002C00D110BD012008
S11326E0014B9847013CF7E795260000F8B5802791
S11326F08025064C7F052D056761054E6561012027
S1132700B047A7610A20B047A561F8BD0044004165
S1132710D526000073B50023012501AC144A154EDB
S113272021001B201360A37065702570B047210041
S11327301C20B04721002820B04780220E4B5205B0
S11327405A61802212055A610C4B1A682A4202D03F
S11327501B689B0701D40A4B98470A4B98470122F0
S1132760094B1A70BFF35F8F62B6002076BDC04676
S113277018020020A16200000044004110E000E0C3
S113278029260000ED2600002400002030B50F4B60
S113279085B001AC186020000D4B98472923002513
S11327A00193283B23720133E37221000920094B72
S11327B0656098472A000921074B08489847290073
S11327C0074B0920984705B030BDC04618020020C9
S11327D0B1510000C551000075500000C126000031
S11327E09D50000010B5011E04D000210920034BA8
S11327F0984710BD0920024BFAE7C0469D500000DF
S1132800BD500000F0B58FB06B46002501240E20AA
S11328102D4E5C709D701C7069462C4B3070757029
S1132820B570984732785309D109A94249D11F2775
S113283020003A40904002002548DB011B189A61B1
S11328406B461C70C0239B0303936B461974597425
S113285019759C74DC740533D9770C221D4B06A8BA
S11328600191029198471C4B1C4E0A931C4B6A46DB
S11328700B9301235B420C931A4B1B490D931B4B87
S1132880300006931A4B9847A84217D13568194B64
S1132890280098470740BC40174B1C603368DC692C
S11328A0002CFCD102232A6813432B60134B984756
S11328B00120134B984720000FB0F0BD0620404282
S11328C0FAE7AD61FFDEC04604170020A1620000F4
S11328D0004400410BB2000002000C000817002065
S11328E002000D0002000F0000100042001BB700A0
S11328F05D6700006166000000E100E0ED26000075
S1132900D5260000F0B585B0032819D1002702AB05
S11329104E6807330C890D681F70BE4204D1BD4256
S11329201CD10F20404263E0002CFAD0002D01D1CD
S113293001271D000023009316E09A6AD2B23EE0FC
S11329400E222C49FF322C4B2C4898472C4B2D48F7
S113295098470D202C4B98470120E3E7002CE0D04A
S1132960012237001E0000922849294B01222948E0
S11329709847012304219C462B780193254B1B681F
S11329806246187E1042FBD06246187E1042FBD08D
S1132990019A9A621A7E0A42FCD01E4A92790192E6
S11329A01A7E0A42FCD05A8B00200A4201D0598375
S11329B01E30019A012AC0D19A6AD205D20D00288C
S11329C0EED1009B32705A425341F6187B427B4150
S11329D0013CA4B2ED18002CCED102230D480168AD
S11329E00A7E1A42FCD000220849094B984700206D
S11329F005B0F0BD23C900006DB3000030C900006C
S1132A0089B4000043C90000A1B3000004170020EA
S1132A10B569000008170020002373B5144E01ACFB
S1132A2035682370A37063702800124B98471F23E6
S1132A3018401E3B8340104AD3673368DE69002E7A
S1132A40FCD18F2302222B752B762B682100934314
S1132A502B600C20094DA84721000F20A847210016
S1132A600D20A84721000E20A847300076BDC0469F
S1132A70081700206166000004E100E0A162000084
S1132A80002310B59A4203D0CC5CC4540133F9E757
S1132A9010BD8318002A03D0017001309842FBD185
S1132AA070470023C15C9AB201330029FAD11000A7
S1132AB070470000024AD3780133DBB2D370704709
S1132AC0441700207047000007B50022094B01207D
S1132AD09A70094B984701A90848094B9847002860
S1132AE006D10221019B05481943064B01919847E1
S1132AF00EBDC04644170020E527000070100000FA
S1132B002D3B0000393B0000002010B50A4CA3788F
S1132B10834207D16378834205D000206378013370
S1132B20DBB2637010BD2378002BF6D0034B9847BB
S1132B300028F2D0F6E7C046441700205D380000B4
S1132B40044A5378002B03D05378013BDBB2537013
S1132B50002070474417002010B5094B5A78002A0A
S1132B6003D05A78013AD2B25A7000205A7882427D
S1132B7004D11B78834201D0024B984710BDC04654
S1132B8044170020FD370000F0B58BB01F0010ABD8
S1132B90029204CB060000927F221B880A40019314
S1132BA012AB1B880D00039306AB5A7008221870F1
S1132BB05A80009A002A47D001995A8852180399DA
S1132BC08A1892B25A805B4B9847041E00D0A3E047
S1132BD004AB0890D8800790079B2D021E430796EC
S1132BE0079B55481D43079506AB5B88079A1B0452
S1132BF0134307930799514DA847041E46D1022356
S1132C000790079A4E48134307930799A847041E51
S1132C103CD1FA2604AB08907600D88004AB9C1D06
S1132C202288484B9A4205D807A94548464B9847FD
S1132C3000280CD0089B002B30D1444B0324984728
S1132C40644220000BB0F0BD5A88D219B9E7F423CE
S1132C502288FF339A420ED92388B34208D83C4BCA
S1132C603C4898473C4B3D4898470D203C4B98477F
S1132C7001203C4B98470223079D1D4009D108A918
S1132C803948314B9847041ED4D00895374B9847A0
S1132C90D7E7238801339BB22380BFE7089B06A9AB
S1132CA009934B8808229BB24B800998304DA84762
S1132CB0041EEBD1099B08330993029B002B08D017
S1132CC009983A001900A847041EDFD1099BFB1894
S1132CD00993009B002B0ED0039B099ADB1B9B18C6
S1132CE009930998019A0099A847041ECED1099B1B
S1132CF0019AD3180993089B1E489B00079302234B
S1132D00079A1343079307990C4B9847041EBDD1A8
S1132D100E4B9847040094E7CB22174952000C4B02
S1132D20164898470C4B164898470D4B0D2098476A
S1132D3087E7C046092B00008C100000393B0000D7
S1132D4078100000E70300002D3B0000592B000021
S1132D506DB300001ECC000089B400002ACC000032
S1132D60A1B30000D526000000041500412B00008B
S1132D70853B00006C10000056C9000030C90000FB
S1132D803ACC0000F0B589B0974DE878C0B200287D
S1132D9001D109B0F0BDEB78013BDBB2EB7005A9C2
S1132DA09248934CA047061E00D010E10127059BD2
S1132DB03B4200D1FDE08F4B984705998B48B943BE
S1132DC08D4B05919847061E1BD1059BAF709B0444
S1132DD01B0D039300D1DEE0079007A98748A047A5
S1132DE0061E1AD0C8228649FF328648864B984769
S1132DF08648874B9847874B0D20984738007D4B72
S1132E009847854A804C85497E48A04731008448CC
S1132E10A047804B0D209847C1E7079B06AC6B6029
S1132E20039B0422AB6021007E4B0798984763887C
S1132E3006009BB26380002807D0D2227049FF327B
S1132E407048714B98477848D3E76388039A9A424D
S1132E501BD06388D31A042B17DDED226849520076
S1132E60694E6848B04762882378617892B2DBB2D1
S1132E7000916E480399B047664B0D20984738007F
S1132E805C4B984706267642BBE72378012B30D16A
S1132E90EB68002B20D0EB6860786188079A0839CA
S1132EA0C0B2083289B29847AB78002B00D16BE7E7
S1132EB0554E5F4A52495348B04721786278C9B2A7
S1132EC0D2B25C48B047534B0D2098475A4B9847B1
S1132ED0061E00D158E794E7F322494952004948B5
S1132EE0494B984755484A4B98474A4B0D209847B9
S1132EF0DAE72378022B0CD12B69002B01D02B6944
S1132F00CAE7F7223E4952003E483F4B98474C4897
S1132F10E9E72378042B0CD16B69002B01D06B6992
S1132F20BAE7FB22364952003648374B98474548A2
S1132F30D9E72378062B0BD12B6A002B01D02B6AFF
S1132F40AAE7414A2E492F482F4B98473F48CAE7E2
S1132F502378072B0BD1AB69002B01D0AB699BE71E
S1132F603B4A27492748284B98473A48BBE72378E8
S1132F70052B04D16B6A002B96D06B6A8CE7364A1A
S1132F801F49214B1F489847214B34489847214BF0
S1132F900D20984776E78722194992001A4B194861
S1132FA098471B4B2E4898470D201A4B98470226EA
S1132FB069E7892212499200134C1248A0470599E7
S1132FC02848A0470D20134B98470C265BE7264A58
S1132FD00B490D4B0B4898470D4B244898470D4B14
S1132FE00D2098470DE7C0464417002070100000DC
S1132FF02D3B0000E5270000393B00008410000051
S11330005FC9000030C900006DB3000092C9000020
S113301089B40000A1B300004A02000067C900009F
S11330203ECB0000453B0000B6C90000CDC90000FE
S113303015020000C6CA0000C92A00000BCA00001D
S11330402BCA00004DCA0000FF0100006CCA00003A
S1133050060200008ECA00000F020000AFCA000082
S1133060F2CA000003CB00002D0200001DCB0000BB
S1133070F8B517001D00002803D0002901D0002A4C
S11330800DD1002D02D01E4B98471AE01D4A1E494F
S11330901E481F4B98471F481F4B98470CE01F4C76
S11330A0A3689A420ED91E4A17491848184DA847D2
S11330B0A26839001B48A8470D201B4B98470C20D9
S11330C04042F8BD6368984205D363688618A268D5
S11330D09B189E4206D9154A0B490C480C4B98473D
S11330E01348D9E73A00134B98470028E9D163689D
S11330F0A2689B189E42C6D0002DC4D1E1E7C04609
S1133100C92A00006B02000076C9000030C9000023
S11331106DB300006DCB000089B40000441700209B
S1133120730200008CCB0000A1B300007902000000
S1133130D1CB0000453B000070B5050001380628DE
S113314015D8124B06F0EEF907040B09110D0F0008
S11331501961002070BDD960FBE75961F9E7D961B5
S1133160F7E71962F5E79961F3E75962F1E7084A6D
S11331700849094C0948A04729000948A0470D20DF
S1133180084B98470C204042E4E7C046441700200F
S1133190B102000082C900006DB3000030C9000014
S11331A014CC0000A1B3000010B528220021064869
S11331B0064B98470648074B984707490320074B97
S11331C09847002010BDC04644170020932A0000F1
S11331D0B52A00008D270000C52A000039310000FF
S11331E0F0B504009DB015002C2802D10023042260
S11331F003E01B280ED100230822280003A9574D01
S1133200A84700283CD1564B03A91B68002B37D094
S113321020004DE0062802D101233022EDE70E28DC
S11332202ED0322802D100231422E6E72F2807D11A
S11332304C4B6422002103A8984700236422DCE756
S113324034281FD128000023444D042203A9A84791
S1133250051E15D1FF27444E4448B0470398010E7C
S1133260030A020C38403B403A4000904048B047C3
S1133270404B0D2098473A4B29001B68002BC7D1BF
S11332801DB0F0BD112815D100233B4A03AC1370C7
S1133290280004222100314DA8470028F0D1374BE3
S11332A022781A702E4B1B68002BE9D021001130B4
S11332B09847E5E713280ED100232C2203A9280000
S11332C0264CA0470028DBD1254B1B68002BD7D008
S11332D003A91330ECE704280ED10023042203A928
S11332E028001E4CA0470028CAD11D4B1B68002B88
S11332F0C6D003A90430DBE7652800D176E70928A6
S113330001D101239AE72A2801D101236FE720285C
S113331016D103AE00230822310028000F4FB8470E
S11333200028ADD12800B288083001230399B8479A
S11333300028A5D10A4B1B68002BA1D0310067E7F8
S11333409522094D52000E490E48A84721000E4807
S1133350A847084B0D20984792E7C04671300000FB
S11333601C020020932A00006DB300001ECC000054
S113337084CC0000A1B30000210200202002002020
S113338056CC000030C90000A4CC00000F23F0B5D7
S113339001268FB06B441E7000285ED000240168A3
S11333A02F4A180011602F4A2F4B147098470500BC
S11333B0A0424BD12D4B98470500A04249D12C493E
S11333C030002C4B04AE98472B4B300098472B4CC5
S11333D005002B48A047308CB3797279317900907D
S11333E02848A047284F0D20B8472548A047262243
S11333F01A216A4469442548A0470D20B84720484B
S1133400A047737A327AF1792148A0470D20B84752
S11334101B48A0470223052213211E48A0470D2064
S1133420B8471748A0471C4A1C491D48A0470D200F
S1133430B8472B000D3309D1EE221A49FF321A483E
S1133440A0471A481A4B98470D20B84728000FB0D8
S1133450F0BD2000174B9847F8E70C256D42F5E7BF
S11334601C02002021020020893C0000A931000038
S1133470E131000039310000C53B00006DB30000AC
S11334801ECC000052CD0000A1B3000077CD000097
S113349092CD0000B6CD0000CCCD0000D5CD00000B
S11334A0E1CD000062CC000030C90000F8CD00007E
S11334B089B40000553D000010B5014B984710BD7C
S11334C0852D0000F0B5A5B01C002AAB1B88069022
S11334D005932BAB1B780F0016000793012A09D123
S11334E07B1E1F2B37D95D4A5D495E485E4B98476A
S11334F05E4807E0002C0ED15D4A594959485A4BA1
S113350098475C485C4B98470D205C4B98470C20CF
S1133510404225B0F0BD022AE2D12000584B984722
S11335204028DDD1210022004031137818003038C2
S1133530362805D80A38062802D9473B192B06D85D
S1133540504A47494748484B98474F48DAE70132C1
S11335508A42EAD1C4E7059B013B0D2B09D9059B9F
S1133560FF2B06D0494A3E493E483F4B98474848BE
S1133570C8E75A2004AB09AD3A000699C018EF1900
S1133580444B98473B00002746331F701A2304AA74
S11335909B186A46928A04A9DA87079B5A1E9341AC
S11335A07B225218137055235B181E70032E33D1DF
S11335B02378013BDBB22B70032B08D92849364A08
S11335C02848294CA04729783448A0479CE76278CA
S11335D0531E6B701100102399430B2908D09622B7
S11335E01F4992001F48204CA04769782C48ECE7FB
S11335F0162004ABC018A11C264B98476378EB181F
S11336009F7000232A0002930193009328216C33B6
S1133610244C0120A0477CE7022E0ED1184B200039
S11336209847431E9BB2421C3F2B09D91E4A0C49A2
S11336300C480D4B98471D4864E7042E05D13E22E3
S113364021002800134B9847DBE7012ED9D0184AF4
S113365003490448044B9847164853E731020000D5
S113366070CC000030C900006DB30000D5CC000060
S11336701B020000B8CC000089B40000A1B3000014
S1133680A32A000027020000C9CC00003A0200006F
S1133690E6CC0000812A000051020000F1CC0000B9
S11336A00BCD0000892B00006702000026CD00002E
S11336B0770200003FCD000037B5002506AC248812
S11336C001950094014CA0473EBDC046C53400009E
S11336D00020704737B58024A525640004436D019C
S11336E02100074B28009847002301A901932800D3
S11336F0044B98470028F3D1019B9C42F0D13EBD76
S1133700393B00002D3B0000002337B50F4801A9C9
S11337100F4D0193A847002817D18021019B490030
S113372019430A480B4C0191A04700280DD1D02021
S113373001A94001A847002807D18021D020019B7E
S11337404902194340010191A0473EBD08140000FD
S11337502D3B0000393B000073B51E4C2568002D3D
S11337601FD18020210040011B4EB047002803D008
S113377000232360280076BD01A91848B04700281B
S1133780F6D12368164A93420DD1019B012B01D037
S1133790144B23602368144A1A40A023DB0213430A
S11337A023602568E6E7114A934208D1019B032B65
S11337B0F0D0042B01D10E4BEBE70E4BE9E70E4A98
S11337C09342E7D1EC2021008003B0470028CFD1F9
S11337D0E0E7C046240200202D3B0000F413000063
S11337E0A0021000A1021000FFFFF0FFB0021000C1
S11337F0B1021000B2021000F000100037B501252C
S113380001A91020134CA047002810D1019B2B4282
S1133810F6D101A90130A047002808D1022301995B
S1133820194205D101A90B20A047002808D03EBDAC
S113383099430120084B019198470028F2D0F6E7FC
S1133840012301991942F2D099430B20024B0191B3
S11338509847ECE72D3B0000393B00000023F7B507
S11338600B206946294D00930193A847041E08D1F3
S11338700121009B0B4206D069460120A847041E83
S113388008D02000FEBD19430B20214B9847041E8D
S1133890F2D0F6E70221009B0B4214D00526042740
S11338A001A90F20A847041E14D0AA22194D5200C2
S11338B019491A48A847019A21001948A847194BE1
S11338C00D209847DDE719430120114B9847041E4A
S11338D0E4D0D6E7019B3B4214D10220124B013EB7
S11338E09847002EDCD1AF22042452000A49094B28
S11338F00A4898470D4B0E4898470D20094B9847A6
S11339006442BEE70B4B9847BBE7C0462D3B000023
S1133910393B00006DB3000012CE000030C9000036
S113392040CE0000A1B30000D526000089B40000F9
S113393056CE0000153B000070B505002448254C08
S1133940A047002803DB0120234B9847F6E72348D0
S1133950A047C3070BD5224C022D11D1214922487F
S1133960A047802149032148A047002515E01A4BB0
S1133970012098471E48A0471E4B9842F7D1EAE71A
S1133980032D04D117491848A0470021EBE71A4931
S11339901648042DE8D1A0477C35184B9847184A9F
S11339A00005000D174B904210D902202843984778
S11339B0154D1648A84710491548A847154B0D2022
S11339C0984715490A48A047002070BD2800EEE733
S11339D014100000213B0000D5260000BC070200A3
S11339E0393B00007DD51C3CAC0702008C10000064
S11339F00C000C009ED0AD10521352135937000026
S1133A009F030000D53600006DB300001ECC0000FB
S1133A106FCE0000A1B30000612F52EF37B5134BF6
S1133A20134C023800930194012803D8114B0093DE
S1133A30114B0193012500206D42019B984209D14D
S1133A40019B0025A34203D1290008480B4B98474A
S1133A5028003EBD02200A4B9847013D0098094BBF
S1133A609847002DE9D105256D42F1E78C1000003F
S1133A7036265302AC070200C3C15DD7393B0000B0
S1133A80D5260000213B000013B50023A02001939C
S1133A9001A940010E4B9847041E0CD00D4A0E4953
S1133AA00E4B0F4898470F4B0F4898470D200F4B6C
S1133AB09847200016BDA020019B0D4940011940E4
S1133AC00C4B01919847041EF3D00B4AE7E7C0461C
S1133AD02D3B0000050200001CCE00006DB3000069
S1133AE030C9000089B4000028CE0000A1B3000052
S1133AF0FFFBFFFF393B00000B02000010B5014B38
S1133B00984710BD0528000010B5014B984710BD1B
S1133B10192A000010B5014B984710BD4943000015
S1133B2010B5014B984710BD7943000010B5014B07
S1133B30984710BD8943000010B5014B984710BD4C
S1133B40A1430000F7B50700150006000B4B0191D7
S1133B501C88083CA4B2019BF11B5918A54204D847
S1133B60AAB23000064B9847FEBD22003000044B39
S1133B7098470028F8D12D1B3619ECE708000020DF
S1133B80CD440000F7B50700150006000B4B01916A
S1133B901C88083CA4B2019BF11B5918A54204D807
S1133BA0AAB23000064B9847FEBD22003000044BF9
S1133BB098470028F8D12D1B3619ECE7080000209F
S1133BC0F94500007FB5002504000822290002A859
S1133BD0264B01959847AC4202D1002004B070BD39
S1133BE029002000224B2822984701A92148224B72
S1133BF098470028F2D10198002802D10C204042B5
S1133C00ECE7C025AD022843082202A91B4EB047A9
S1133C100028E3D1039880B201900028EED0284315
S1133C2028222100B0470028D8D10F21FF2522796E
S1133C30A379607912020B4013430001627A284091
S1133C400A400343217AE079090100020243294032
S1133C500A43002BD2D0002AD0D009498A4202D884
S1133C60084A9342B9D80D20C9E7C0460BB20000F8
S1133C70932A000008000C002D3B0000453B000087
S1133C805213000051130000F8B50124002804D099
S1133C900478631E032B00D9012400201D4B984790
S1133CA01D4E051E1D4F0BD028221D49FF321D48F5
S1133CB0B0471D481D4B98470D20B8472800F8BD54
S1133CC01B48B0471B4B984701001B48B0470D20C9
S1133CD0B8471A4B98472000194B9847051E16D130
S1133CE02000184B9847051E11D1023C012CE5D940
S1133CF0154B9847041EE1D056220949FF32094862
S1133D00B0470A4B114898470D20B8472500104B7F
S1133D109847D3E7FD3A00006DB30000A1B300005B
S1133D2087CE000030C9000019CF000089B400001C
S1133D301ECC00005937000034CF0000B943000006
S1133D40393900001D3A000009370000FBCE00009D
S1133D50093B000010B5164B9847041E0DD0B6223F
S1133D60144952001448154B98471548154B984769
S1133D700D20154B9847200010BD144B9847041E86
S1133D8007D074220B49FF320B480C4B984710485C
S1133D90ECE7104B9847041E07D07A220549FF32FE
S1133DA00548064B98470C48E0E70C4B9847E2E778
S1133DB0893A000093CE000030C900006DB30000C2
S1133DC0A1CE000089B40000A1B300009D4F000003
S1133DD0BECE0000093B0000E1CE00006D430000B0
S1133DE01FB5002201AB0190198103201900024B79
S1133DF00292984705B000BD052900001FB50022B6
S1133E0001AB0290198103201900024B01929847DB
S1133E1005B000BD05290000F7B56B460700DD1DA0
S1133E20CF2819D003003B33DBB2012B14D90B2666
S1133E30012128001F4B9847041E16D0B1221E49A9
S1133E4052001E4B1E4898471E4B1F4898470D2092
S1133E501E4B9847002406E001212800154B984783
S1133E600024A042E3D02000FEBD2B78BB4203D047
S1133E70013EF6B2002EDBD10B26012128000D4BAA
S1133E80984700280CD0B8220B4952000B4B0C4821
S1133E9098470C4B0C4898470C4B0D209847E2E789
S1133EA02B78002B03D0013EF6B2002EE5D101247D
S1133EB0D9E7C046FD3D00005DCF00006DB30000B2
S1133EC030C9000089B40000D9D30000A1B30000B8
S1133ED00023F0B50C0087B0029003920093802277
S1133EE0231C9201944201D9314B1B880A259BB2B1
S1133EF0019304ABDF1C012138002E4B9847061EAA
S1133F000ED02D4A2D492E4B2E4898472E4B2F4824
S1133F1098470D202E4B98470026300007B0F0BD7F
S1133F203B781B090F2B2FD0013D2DB26B1CE0D128
S1133F302249284A2348224CA04739782648A047DA
S1133F40234B0D209847E8E7039B002B10D1234B0C
S1133F501B78002B0CD1022105A8164B984700288A
S1133F6006D01F4A15491748154B98471D481CE0B1
S1133F70019A009B9446A41A63441BB2A4B2009312
S1133F80002CACD10126C8E7002DD1D0029B009AA9
S1133F9001999818074B98470028D5D0C52207499E
S1133FA092000848064B98470F48074B9847C7E7C5
S1133FB042CF0000FD3D0000FF02000069CF000079
S1133FC06DB3000030C9000089B400000BD40000B8
S1133FD0A1B300000B0300003ED40000280200201F
S1133FE01F0300009DD400006DD40000F0B585B01F
S1133FF00AAC257801AC2070C1380E2800D980E0C5
S113400005F090FA28283E152222323250087F7F8C
S11340107F7F26000B0C63700B0AA370E1700521EF
S11340203A4B481E1B78002B4AD0C1B256E00B0A0B
S1134030DBB2002D04D163700023A170E370EEE7BE
S1134040802252421343F6E700236370A370F5E71E
S1134050FF23FAE70A0C62700A0AA2701A0AE170D6
S1134060227163710721DBE70A0C62700A0AA270ED
S11340701A0C22711A0AE1706271A3710821CFE748
S11340800B0ADBB2002D09D16370130EE370130C1D
S11340902371130AA1706371A271EFE7802040427B
S11340A00343F1E70B0C63700B0AA370130E237127
S11340B0130C6371130AE170A371E2710921AFE774
S11340C00A007F23124D66185742F75D5B007B4060
S11340D0013AEB5C012AF7D15B0023540D4B89B202
S11340E020009847012300280CD028220A49FF32D7
S11340F00A4B0B4898470B4B0B4898470D200B4B2A
S113410098470023180005B0F0BDC04628020020DF
S1134110C6CF0000E13D000048CF00006DB30000B1
S113412030C9000089B40000AFD30000A1B300007F
S1134130F0B587B004000491302843D82A4B1B788B
S11341403022DBB203930023A2425B410A26DBB296
S11341500593059B254D0093049A0423210003989D
S1134160A847050001282FD02149224A2248234F7D
S1134170B84721002248B847224B0D209847012018
S1134180214B98470021194F0B000A000091CF20C2
S1134190B8471E4BCF2098471D4A1549174F16485C
S11341A0B84731002200049B1A48B847154B0D202C
S11341B09847013E0120144B9847002EC9D128008E
S11341C007B0F0BD144BBAE70398104B98470500AD
S11341D00128F4D0E722064992000748074FB84760
S11341E021000E48C7E7C04644CF0000ED3F000061
S11341F086CF00009603000030C900006DB30000B4
S113420067D50000A1B30000D5260000193E0000C8
S1134210AF030000C8D5000045CF000093D50000CF
S1134220F0B589B005000591FF2842D8334B1B78BF
S1134230FF22DBB203930023AA425B410A26DBB2CE
S11342400493049B2E4C009300220423290003981A
S1134250A047040001282ED02A492B4A2B482C4F72
S1134260B84729002B48B8472B4B0D20984701200D
S11342702A4B98470021224F0B000A000091CF20BF
S1134280B847274BCF209847264A1E49204F1F483E
S1134290B84731002A002448B8471F4B0D209847DF
S11342A0013E01201D4B9847002ECAD1200009B0C1
S11342B0F0BD1E4BBBE70398194B98470400012837
S11342C007D010491A4A1148114FB8472900194814
S11342D0C9E7049A042107A8174B9847040001284A
S11342E008D0164A07490A4B08489847144B154802
S11342F09847B9E7059B079A1A60D7E746CF0000AD
S1134300ED3F0000A1CF00001704000030C90000F9
S11343106DB30000D1D40000A1B30000D526000085
S1134320193E00003C0400004FD5000047CF0000B8
S11343301D040000FCD40000D13E00002404000051
S113434089B4000030D5000037B50024054D2300A2
S1134350220021000094CF20A847034BCF20984788
S113436020003EBDED3F0000193E00000020014B3F
S1134370187070472802002007B5024B01A998471E
S113438001980EBD21420000044B10B5984700234C
S1134390012800D0063B180010BDC0462142000091
S11343A0044B10B598470023012800D0063B1800A1
S11343B010BDC046314100000023F7B5304D01A9BE
S11343C03048314C01932B70A047002820D10123A1
S11343D02E4F2F4E2F4A39002B7030002E4B98470A
S11343E02E4B2F4898472F4B0D20984701A925485D
S11343F0A047041E0CD12C4A39003000264B9847A4
S11344002A48264B98470D20264B98472000FEBD8E
S11344102B78002B13D15021019A7C339A431143FA
S11344201848234B01919847041E06D1214A174985
S11344301748194B98472048E3E701232B70802045
S113444069464001104B984700280DD106241B4AA9
S11344500E49114B0E489847104B194898470D20A8
S1134460104B98476442D1E7164B0648984770238F
S1134470502198430143144B024898470024C5E750
S11344802802002024E8000021420000BACF0000E6
S113449030C90000C70400006DB3000089B40000F7
S11344A0C6D00000A1B30000CA04000015D100006A
S11344B031410000D404000041D10000DE040000BA
S11344C072D1000079430000A14300000A23F0B533
S11344D089B0039300230500140005910493012C73
S11344E001D10494013400262300009632002900EF
S11344F0C820304FB84701282FD02F492F4A3048C1
S1134500304EB04729003048B047304B0D20984713
S113451001202F4EB0470021264F0B000A000091C6
S1134520CF20B8472B4BCF2098472B4A2249254F01
S11345302348B8472A00039923002848B847234B47
S11345400D2098470120B047039B013B0393002BA8
S1134550C5D10620404209B0F0BDC8201D4B984784
S1134560012807D014491E4A1548164EB0472900A1
S11345701C48C9E7049B002B13D007AF32001A4B29
S11345802100380098473B78059A137001280ED013
S1134590164A09490B4B0A489847154B1548984742
S11345A0B3E7049A210005980F4B9847EEE70020E3
S11345B0D1E7C046ED3F0000AECF00005D0400002F
S11345C030C900006DB3000096D10000A1B3000013
S11345D0D5260000193E0000840400001ED200000D
S11345E063040000C3D10000D13E00007304000046
S11345F089B40000F9D10000F0B515000A2789B08C
S113460002900591012D00D1013500262B00009662
S113461032000299C7206B4CA04701282CD06A496C
S11346206A4A6B486B4CA04702996B48A0476B4B96
S11346300D20984701206A4CA0470021614E0B00D1
S11346400A000091CF20B047664BCF209847664AB6
S11346505D49604E5E48B0473900029A2B006348BA
S1134660B0475E4B0D209847013F0120A047002F23
S1134670C8D106204042A2E0C7205A4B98470128DF
S113468008D0F422504992005148524CA047029954
S11346905748CBE72C0007AB1E8004908023201CD6
S11346A09B019C4201D9534B188883B20393002E7B
S11346B027D18022049B9201944200D803230B202B
S11346C004AA8018102252421343037004994A4BDF
S11346D0984700281CD0D422484992003C483D4BBE
S11346E098474748474B98470D203C4B9847F8223A
S11346F092003549374B36489847424B42489847D1
S113470095E7802200239201A2425B410233D6E75F
S1134710059B03999819384B9847002806D03B4AC3
S113472036492B482B4B98473948DBE7394B1B78E4
S1134730002B0CD1022107A82F4B9847002806D044
S1134740354A2E492248234B98473448CAE7039BED
S1134750E41A9E19A4B236B2002C9FD12D4B07A89F
S11347601E78731E9E410236B1B22D4B9847002825
S11347700DD03C22174BFF322A49154898472A4846
S1134780204B98470D20154B9847FA22B0E707AB0A
S11347909E19731E1B78002B03D1023E3378C32B62
S11347A00CD0A1221F4952000A4C0948A04707A96E
S11347B08B784A781D480978A047E3E7200009B0C0
S11347C0F0BDC046ED3F000094CF0000CA030000D6
S11347D030C900006DB3000039D20000A1B300005D
S11347E0D5260000193E0000F20300001ED200008E
S11347F067D2000042CF0000E13D000077CF000007
S11348009FD2000089B4000089D30000590300003E
S1134810D4D20000280200206303000005D3000066
S1134820FD3D000050CF00003AD3000059D30000F2
S1134830F0B587B002930CAB1C8801900E00049273
S1134840002C4BD02E4A03019A58002A46D02C4AF9
S1134850D3189A88002A41D09B7ADBB2012B3DD130
S1134860CC800593019B1B010393039A244B9A1854
S11348709388E31A1BB2002B32DD00239588ADB276
S11348801F4A0399029851581E4F2A00B84700281E
S113489029D1039A1A4B9B58B5803360F3885B1B6C
S11348A0F380194B1A68002A04D01B68320004995B
S11348B001989847029B124A5B190293019B641B5F
S11348C01B01D318987AA4B2C0B2002815D1002CC9
S11348D004D00123020001000A4CA04707B0F0BD38
S11348E02500059BCCE7094D0948A8472100094844
S11348F0A847094B0D209847F0E7002CB2D1EDE70B
S11349007017002071300000201800206DB30000E3
S11349101ECC0000E4D50000A1B30000F0B59DB0AA
S113492002911400412801D0542816D10BAD200067
S11349300023042229009A4CA04700280BD16B784D
S113494007AA1370974B1968002904D0002001218D
S11349501B68285698471DB0F0BD422814D10BADF2
S113496020000023042229008D4CA0470028F2D106
S11349706B7807AA13708B4B19680029EBD00020C1
S11349801B6828560221E5E743283DD107AD2000E6
S113499000230C222900824CA0470028DBD10920E7
S11349A0285600281FDB0823EB567F4A1B01D31827
S11349B0DB7A04011119DBB2CB7201238B726B8990
S11349C0083B9BB20B81794B1988013189B219805C
S11349D01988002903D11988013189B219801B88EB
S11349E012199BB2D38002230BAA107093806B8898
S11349F0D3806B6893606B4B19680029ABD0082097
S1134A001B6828560421A5E7442801D04B2821D14E
S1134A100BAD2000002304222900614CA04700288C
S1134A2000D098E700200123285607AA1070EB56FF
S1134A305370002B06D16B885B49083B04019BB281
S1134A4009190B81574B1968002900D183E71B68AA
S1134A5005217FE74A2812D12000002344220BA914
S1134A604F4CA047002800D075E7514B1A68002A24
S1134A7000D170E71B681B990BA898476BE7462881
S1134A8003D0482831D04D2848D1062607AD00234D
S1134A90102229002000424FB847002800D05AE7CE
S1134AA00C27EB89EF57404A04933B01D318039337
S1134AB0187369890823EA5E05916B880BA94B81F9
S1134AC06B68049DCB60039BDB889D421CD1002A4C
S1134AD00DDD029B9A420ADA059B92B21B190092E1
S1134AE038003200334CA04735E70926CEE70023CF
S1134AF00B932C4B8A801A68002A00D12BE70A00FA
S1134B001B683100380025E7029B102B00D822E7F0
S1134B10012302000100224CA0471CE7452803D0D2
S1134B20472821D04C2821D107260BAD2000002393
S1134B30082229001A4CA047002800D00BE70020C7
S1134B406B88285607AAA9881380174B04011B19E0
S1134B50DB88994200D0FEE6124B1968002900D187
S1134B60F9E61B683100F5E60826DEE7522800D096
S1134B70F1E60BAD2000012314222900084CA047C4
S1134B80002800D0E7E60C4B6A681A601A68002A0D
S1134B9000D1E0E61B682A7CA96828689847DAE611
S1134BA07130000020180020701700202A02002015
S1134BB028180020314800002418002070B5094D41
S1134BC02C78E4B2002C0CD1B02221000648074B0B
S1134BD09847074B07490220984701232B70064B3F
S1134BE01C8070BD2902002070170020932A000049
S1134BF0393100001D4900002A020020024B1860D0
S1134C00024B19607047C046201800202818002065
S1134C10F0B589B00592022804D001256D42280020
S1134C2009B0F0BD01294CD10726324F3D783C78BC
S1134C303878314B013007219847E4B22F4BC9B281
S1134C40240139701C19A37AEDB2002B34D16DB252
S1134C50002DE4DB2A4B1022002120009847012379
S1134C60284EA372338801339BB233803388002BE0
S1134C7003D1338801339BB233803388224F9BB2F4
S1134C80E3802248B8473288290092B22048B847C6
S1134C90204B0D209847059BDB07C0D52123E372E9
S1134CA0002307AA157050210293019300931A4C14
S1134CB004330220A047B2E7013EF6B2002EB5D17C
S1134CC0ABE70229A9D104230326144914480D781B
S1134CD00C780A7824010132324024180A70A27A2E
S1134CE0EDB2002A01D10735B1E7013BDBB2002B5D
S1134CF0EDD192E72C0200201998000070170020D3
S1134D00932A00002A0200206DB300001ECC00008C
S1134D100DD60000A1B30000892B00002D02002055
S1134D20E0170020F0B5140089B000282DDB00291D
S1134D302BD0174B0701DA19937ADBB2012B24D15C
S1134D40002C22D0D47A4426A446654605AC1D42E4
S1134D5002D0D37A073663722072082220000D4BEA
S1134D6098470B4B2200DD19EB8831006381002347
S1134D700220029301930093074C0C33A0470028B0
S1134D8001D00920404209B0F0BD0620FAE7C04630
S1134D9070170020812A0000892B000070B588B0AC
S1134DA000282DDB00292BD0AF23DB009A4227D823
S1134DB0144C0601A3199D7A012D21D1DB8804AD81
S1134DC0AB8128706A805023062800DD0C3BA019B3
S1134DD0C67A4524F60702D5038907349BB280209E
S1134DE00443029301920091102321002A007E388B
S1134DF0054CA047002801D00E20404208B070BDE9
S1134E000620FAE770170020892B0000F0B5070090
S1134E1087B010001A00002F2DDB00292BD00028AA
S1134E2029D0164C3B01E618B57AEDB2012D22D1FA
S1134E301951B0800020317B81421AD13573F07A48
S1134E404621284200D00731002A00D1013AE41853
S1134E50E388049204AAD3800023177102200293EA
S1134E6001930093064C0833A047002801D00E207C
S1134E70404207B0F0BD0620FAE7C0467017002094
S1134E80892B000070B5060086B01A4C1A48A0475A
S1134E9031001A48A0470D20194B9847002E25DBF6
S1134EA0184C35016119887AC0B201281ED1CB880B
S1134EB005AA538000238B72CB801670CE7A4921C9
S1134EC0064200D005310293019300930E4E042351
S1134ED00220B047061E01D009267642601910222E
S1134EE000210A4B9847300006B070BD0626764272
S1134EF0F9E7C0466DB300001ECC0000F8D50000F1
S1134F00A1B3000070170020892B0000932A000031
S1134F10F7B500220A251300009201AC061DB04229
S1134F201ED001782E2901D000290DD1135500235C
S1134F3001302E2911D10132042AEFD1684601A98A
S1134F40084B98470098FEBD0F00303F092F07D843
S1134F506B43CB18303BDBB2EAE70029DFD1EAE749
S1134F600020F0E7812A00001FB50A4B040098478F
S1134F70C3B2402B0BD8002201330292019200925B
S1134F804A2122000220044CA04704B010BD062090
S1134F904042FAE7A32A0000892B0000F0B5274B12
S1134FA085B007009847264B0005000D0025984260
S1134FB02ED903A92348244B9847051E28D1234EF4
S1134FC0039B2349334019431E48224C0391A047B5
S1134FD001962900204E2148002F1CD0A047AB2168
S1134FE01F48A04701211F48A04729001E48A04789
S1134FF081211E48A0471E48B0470128FBD18021CB
S1135000039A019B4902134019430E480391A04798
S1135010280005B0F0BDA047B9211148A0470121DF
S11350201048A04729001048A04781210F48A047F5
S11350300F48B0470128FBD1E1E7C04659370000CB
S11350409F030000101400002D3B0000FF8F88F820
S113505000101101393B0000213B0000080201004F
S11350600C020100140201001C02010004020100F0
S11350701802010010B51723002A06D1064B890037
S1135080CC58002C03D1C8502300180010BD1300C5
S11350908442FAD01D23F8E7301800201723002992
S11350A006D11F2806D8163B8340034AD3600B0061
S11350B018007047C960FFDE00180040172300295C
S11350C006D11F2806D8163B8340034A93600B0081
S11350D0180070478960FFDE00180040002370B597
S11350E001250B4C237023780F2B00D970BD2900A8
S11350F09940084A1069084206D01161064A9B008B
S11351009B58002B00D09847237801332370EAE79B
S11351102C1800200018004030180020014B58784B
S1135120C009704700180040022310B5044A1178E2
S11351300B431370034B98470028FBD110BDC046A6
S1135140001800401D510000402307B5104A0520F7
S113515091690B439361002301A90B700D4B984790
S11351600D4B0520984701230C4A11780B4313700B
S11351700B4B98470028FBD102000A4B1A5004300D
S11351804028FBD11022084B1A60084B984707BDF2
S1135190000400404D770000C57600000018004070
S11351A01D5100003018002000E100E029510000EA
S11351B0002301220360436083720233027242724D
S11351C0C3727047F7B50C000026237901A94E700D
S11351D0CE700B70237A05008B702078134B9847A0
S11351E033001F2D00D8124B0721A27A29408900D1
S11351F0E67A002A01D0082216430F278E408F40FA
S11352003100EA0892009A189069B8430143916109
S1135210617A0122002904D0AA4059690A435A61DB
S1135220F7BDAA40596991435961F9E72178000013
S11352300018004070B50E4B1B68598A1C681A8A06
S1135240207A0A40E179014048B2002806DA920740
S113525001D5DB6898478023237270BD012529425C
S1135260FBD02A4201D09B6898472572F5E7C046D7
S11352707018002007230168CA691A42FCD17047DC
S11352800300F0B501278DB019600290924B08001D
S113529016000D0098473C00831C9C4023008F4A55
S11352A01430116AC4B20B431362337B0AAA13701D
S11352B0110020008A4B984720008A4B98478A4B5C
S11352C0307B002198472B681C209B0700D5F6E013
S11352D02C6817383C4000D0F1E014232B60029B6B
S11352E00BAD1B68019318007B4B984780230690F5
S11352F0F0696C70EC702B70AF70346A002803D1C5
S113530001007A4B0198984702232870000C6B70B7
S1135310C0B22900764B9847002C04D10121019892
S1135320724B9847040002272C70240C704BE0B297
S113533029006F709847B38A029AD380F38A138145
S1135340327E8023002A05D16A4B9B783B405F1E46
S1135350BB41DB01B268376917431F43731DDB7F11
S1135360002B02D08023DB051F43B36A1F433300A5
S11353702C331B78002B03D180239B049A4202D147
S113538080231B051F4333002D331B78002B02D0D1
S113539080231B041F4333002E331B78002B02D0C1
S11353A08023DB031F43019B06981B68019A1F435C
S11353B0019B14301F608023FA275B005360C0B246
S11353C04D4B98473368BF005F437368069007935B
S11353D04A4B9847494B02900391780098470490B0
S11353E00591464B308E9847454C08900991029898
S11353F00399444A444BA04702000B0008980999BA
S1135400A0470022414C424BA0473C4B04003800CB
S11354100D00984702000B0020002900384CA047DB
S11354203C4D02000B0002980399A847049A059B7F
S1135430364CA0470022384BA847049A059B374CAA
S1135440A047374B98478023B26807009B049A42D1
S11354503ED1FA23079C9B005C43029A039B2B4E8C
S113546010001900B047254B029003912000984783
S113547000222C4B224EB047284E02000B0002980B
S11354800399B0470022244BA847254B9847264B45
S1135490061E16D02100069898470238831B402028
S11354A0FF2F0CD8FF2B0AD8FF203D0000041B045B
S11354B00340002036063543019A2B43D3600DB0D8
S11354C0F0BD6100069A481E80189847431EE6E71F
S11354D000263300E3E7C046F56500000004004001
S11354E04D770000C5760000556400009964000003
S11354F0217800000020004169770000ADB0000071
S113550019A5000095D626E80B2E113E91980000AF
S11355100000244019AA00000000F03FB19E0000E2
S113552045B00000000008403995000002220368DD
S1135530197E114206D01A765B8B412013420AD1A0
S1135540002008E05A8B5207FAD5C0221820596867
S113555092020A435A60704770B500220126022461
S113556001680B7E334002D10D7E254201D000201C
S113557005E00132038992B29342F2D8122070BD41
S1135580802310B50468DB026268134363606162C0
S1135590024B98470123237610BDC046595500009D
S11355A0F0B5046885B0236801901B01DB0F4D88BA
S11355B003934B7A0E00002B02D0897A474B98470D
S11355C06368474F3B406360727A3388317A920351
S11355D05B0013430122002919D0802212021343D5
S11355E0636201983F4B984763683B4063600028BF
S11355F063D101983C4B984700285ED178233288C8
S1135600717A120A1343012289035B000A4313438C
S113561063620198334B9847039B0200002B17D019
S11356207388012B14D180236168DB020B43636010
S1135630002A42D101982C4B984700283DD1013DC6
S1135640AFB20500294B9F4206D10295002520E008
S113565063681F406760EBE72022638B13423AD0F4
S1135660019BDB7A002B04D0039B002B27D1002F56
S113567027D001981E4B98476B1C9BB202932300C2
S113568028331B78726801985355164B9847051EAA
S11356901DD0019B164F9B7A002B06D00198B8476A
S11356A0C02362689B02134363600198B8472800D3
S11356B028342278736802995A5405B0F0BD012F3A
S11356C0D7D180226368D202134363600295013FFD
S11356D0BFB2029DB6E74120EFE7C0468155000006
S11356E0FFFFFBFF595500002D550000FFFF000090
S11356F075520000F7B50F004B88050001932A4B43
S1135700046898477B7A002B03D0B97A2800274B8A
S113571098476368264A134063607A7A3B88397AEB
S11357205B0092031343002902D080221202134328
S1135730636228001F4B9847061E15D128001E4B94
S11357409847061E10D10090009B019A93420DD1F8
S11357500026AB7A002B07D0134B28009847C023B0
S113576062689B02134363603000FEBD2022638B9A
S1135770134216D028000C4B98477B68009A2800E7
S11357809A5C230028331A700A4B9847061EE0D10E
S1135790009A638B0132009204221342D4D01E2655
S11357A0D7E74126E0E7C046755200008155000066
S11357B0FFFFFBFF595500002D550000002310B5D5
S11357C083720133C372014B984710BDA155000089
S11357D0002310B583720133C372014B984710BD87
S11357E0F5560000084A0300904209D0074A904247
S11357F008D0074A0020934201D10230C0B270475A
S11358000020FBE70120F9E70020004200240042C9
S11358100028004210B53A4B040008009847394A62
S11358208000825800236260220020002C3248301D
S11358302360A372E372237363722372E3612362AE
S11358406362A36223756375A375E3752376637638
S113585023746374A374E374137053709370D370DC
S1135860137153719371D371137253729372D37210
S11358700C32137053709370D3701371537193710E
S1135880D371137253729372D372137353739373EA
S1135890D373211D037043708370C370037143710C
S11358A08371C371037243728372C372037343734C
S11358B08373C37350300370A365A3674370E365B8
S11358C0E36783702366CB6797310B700121303A0D
S11358D06366D36794321370143AA36613605375E6
S11358E00432E36613609374043223671360D37342
S11358F063670432A13413601173237010BDC04672
S1135900E557000040D60000F0B5C04B8FB006004C
S113591008000D0014009847BD4982008446BD4824
S11359200B6A105803430B622B681C209B0708D496
S11359302B68DB0705D4B84BD25823689A4202D2AD
S113594017200FB0F0BD63689A42F9D323002100F9
S11359501C332C3118688242F2D304338B42F9D1C0
S11359600022AE4910009830205C002803D0604625
S1135970085C9042E4DD0132082AF3D10022802041
S113598001924004A7183F7C012F09D16146A44F1E
S11359907F5C9742D4DB070097400199394301911A
S11359A00132042AEED12200A1321278002A04D056
S11359B080220199120111430191227A511E8A41D8
S11359C092000392627A012A02D10399114303914E
S11359D06146227B0692E27A0792914A525C0292D5
S11359E0002200925F7A029ABA42A9D919780F2943
S11359F0A6D8F0205A7800050906014012040A438B
S1135A0099780492481E8141C9010591D9780322ED
S1135A10481E81411879C9000891411E884101013D
S1135A20602009919979BF024901014058791040D9
S1135A30049A02430A43C021D87989000002014034
S1135A40E02011431A7AC00112030240C020000171
S1135A5011430740059A0F431743089A00991743C7
S1135A60099A0A3317430CAA8F500A000432009291
S1135A70082AB7D16246694B01209B5C049300233A
S1135A800093E218170050373F78002F09D004998B
S1135A90994200D854E780277F029F4000993943F8
S1135AA000911F004137D25D002A0CD0049999421D
S1135AB000D845E7022A00D08FE00222FF329A4044
S1135AC00099114300910133082BDAD130220721C8
S1135AD0637E1B011340227E0A40134380220593F8
S1135AE000235202E118097D002908D00299994245
S1135AF000DC25E71100994005980843059001331F
S1135B00042BEFD131000023321D343108C29142FD
S1135B10FCD17363B36363469A00424B0AA9D6501F
S1135B2023003560A0331B783C363370A37A0AAA6D
S1135B30137062463C4B27009E5C3C4B30009847F8
S1135B40300026003A4B9847049B98369833E31864
S1135B5058370493049B9E4241D1069B079A1B032A
S1135B6012021343019A13432B600423AA681A42B6
S1135B70FCD1FF232B71FB3BAA681A42FCD16B4674
S1135B801B7B6B710C9BEB600D9B2B61009BAB61D2
S1135B90284BAA681A42FCD1059BEB631023AA6820
S1135BA01A42FCD12368244A6B63AB681340FCD1CE
S1135BB0626822492A64029A934224DA0A009A40CB
S1135BC0A8680242FCD19A00A218D0691A001032C7
S1135BD09200AA1850600133EDE702006FE73378B2
S1135BE0002B0DD001230BA98B700023CB70203325
S1135BF0FB181B7838780B7001234B70104B9847B7
S1135C0001360437A6E700209BE6C046E5570000AE
S1135C10000400402CD6000040D600004CD6000002
S1135C2038D60000741800203BD600004D770000E1
S1135C30C576000040000200800004000001080056
S1135C4021780000920083185960034BD358426BAB
S1135C50134343630020704750D6000070B50B4BCC
S1135C60040000680D009847094BAD001A5C1F231F
S1135C701A401E3B9340074A1360074BEA58A36B34
S1135C801343A36323689A6270BDC046E5570000BE
S1135C9080D6000000E100E050D60000F8B50025F1
S1135CA00B4B8000C4582368626BDE6AA36B1340FD
S1135CB01E40084BEF58374205D063195B6820003B
S1135CC098472368DF620435302DF2D1F8BDC04611
S1135CD07418002050D6000010B50020014B9847DE
S1135CE010BDC0469D5C000010B50120014B9847D3
S1135CF010BDC0469D5C000010B50220014B9847C2
S1135D0010BDC0469D5C0000F7B501226A26114B08
S1135D10114D5A80114A009011705A6019001E806A
S1135D2028000F4B98470F4F01903220B847019B32
S1135D300D4C002B08D101336380210028000B4B4C
S1135D40268098473220B8476368009A1B78002061
S1135D501370FEBD18000020101A00203802002025
S1135D60D1570000692600000C000020BD57000038
S1135D7013B56B46DC1D0F21044B20009847207897
S1135D806938431E9841C0B216BDC046095D000083
S1135D906A22094B10B51A80683A5A80074A107073
S1135DA051705A6019000648064B98473220064B3A
S1135DB09847002010BDC04618000020380200207B
S1135DC0101A0020D1570000692600000122FA2190
S1135DD00F4B30B51A705A729A72DA72DA741A75F5
S1135DE00C4AC900C82059800D2400211025DA82EC
S1135DF00A2240009D819C80D8801972DC8118821F
S1135E0099741A839976044B1980044B198030BD18
S1135E1080180020B80B00009C1800209E18002059
S1135E20F7B56B460025DC1D654B2570984725703A
S1135E30644D0600AA7A012A4ED12B8A642B1AD00B
S1135E40C82B1AD0322B01D12F3B2370AB89042BE2
S1135E5015D0082B18D0022B19D1D022EB8952006F
S1135E60934261D01DD81A2B58D013D80D2B2FD0A4
S1135E70227840232EE00223E7E72270E6E7082396
S1135E80227813432370E8E722780C23F9E7227879
S1135E900423F6E7342B44D0D02BE9D122785023C5
S1135EA018E0494A934245D009D8484A93423ED023
S1135EB0474A9342DCD1802322785B420AE0454A78
S1135EC093423AD0444A9342D2D122785023F4E701
S1135ED01023227813432370217810203F4FB847B2
S1135EE03F4B1321200098477F22237813402370CF
S1135EF0EA7A012A02D1813A1343237021781320CC
S1135F00B847002323702B78012B32D16B88F52BF3
S1135F1021D015D87D2B1CD00C231BE02278202304
S1135F20D8E722783023D5E722786023D2E7227895
S1135F307023CFE722787023BFE722786023BCE781
S1135F40FA225200934219D092189342E4D10823C2
S1135F5000E002232370AB88D02B27D010D81A2B53
S1135F601BD0342B1CD00D2B1DD1102322781343AE
S1135F70237021781120B8473000FEBD0423E9E7DF
S1135F80124A934215D0124A934215D0D02252009D
S1135F90934208D122786023E9E722782023E6E7B8
S1135FA022783023E3E722784023E0E72278502365
S1135FB0DDE722787023DAE7802322785B42D6E794
S1135FC0715D000080180020020D000041030000F4
S1135FD07C060000041A000012340000915D0000E9
S1135FE0095D000010B5034B9847034B9847034BDA
S1135FF0984710BD715D0000CD5D0000215E00007A
S1136000024B187D012318407047C04600400041F0
S1136010042370B51C4A1D4DD16904000B43D361A0
S11360202023FF332B831A4B984703000520002BB2
S113603028D0C0221E21237892001B021340A2788C
S113604052000A40802113436278C902D2011343EB
S1136050E27892040A40C02113432279890212048F
S11360600A40082113436B60AB680A4A5B035B0F69
S113607099401180AB68538063781371288BC005F5
S1136080C00F000170BDC046000400400040004144
S11360900160000042020020F7B5244A01915388B0
S11360A01188019A4B430400934207D28022019B3A
S11360B01F4992015B18182093420FD880231D4D6D
S11360C0DB026F682E003B436B602023FF332B837E
S11360D0194B9847002802D16F600530FEBD062C8D
S11360E014D8052C1BD2022C01D0042C14D1019BF2
S11360F09B085B00F361A5231B021C4334800E4BF9
S113610098470028FBD077600020E7E7402C03D3B2
S1136110412CECD9452CEED977601720DEE72B8B88
S1136120DB05E4D56F601020D8E7C04642020020AA
S113613000C07FFF0040004101600000F7B5214E20
S11361400091338871881500594304001822814254
S113615026D3591E084223D1013AAB4220D31A4F09
S1136160B847052200281BD0184B194A1A800193FE
S1136170B8470028FCD02023019AFF33138300235F
S113618062085200681E9D420CD800223379934263
S113619006D13F2D04D8210004200E4B984702005D
S11361A01000FEBD0099C95C834205DB89B202334D
S11361B011809BB20232E6E7009FFF187F783F020E
S11361C03943F4E74202002001600000004000412E
S11361D044A5FFFF99600000F8B5164B0F001600A8
S11361E059881A88050051431823814214D3541E38
S11361F0044011D1013BB2420ED30F4B9847052303
S1136200002809D020220D4BFF326D081A836D003F
S1136210711EA64202D800231800F8BD2B889BB239
S11362203B558C4202DA3A191B0A53700234A4B269
S11362300235EEE742020020016000000040004108
S113624070B5134A04001388528818205A43A24296
S11362501CD39B00013B1C4218D10E4DA8470300E0
S11362600520002B12D020220B4BA408FF3264001F
S11362701A83DC611C00094A1A80A8470028FCD054
S11362801C23208B1840431E9841800070BDC046DB
S113629042020020016000000040004102A5FFFF0F
S11362A007B5802201AB1A700A785A704A789A703E
S11362B08A781900DA70014B984707BD21780000ED
S11362C070470000094B196800290BD1EFF31080C7
S11362D0074A002805D172B6BFF35F8F05490870DD
S11362E0012111701A6801321A60704748020020B7
S11362F04C02002024000020084B1A68013A1A605E
S11363001B68002B09D1064B1B78002B05D00122FA
S1136310044B1A70BFF35F8F62B6704748020020C7
S11363204C02002024000020F0B5002489B0009223
S113633001933F230026002725000690079103932D
S1136340039A134B012000219847B6197F41069BFD
S1136350079A03400A4004960597134303D0012388
S113636033431E00059F019BBB4209D802D1009B09
S1136370B34205D8009A019BB61A9F4104430D43CA
S1136380039B5A1E0392DBD22000290009B0F0BD02
S11363902598000010B54908040000234020A142BC
S11363A001D210BD0300581C091B80B28C42F9D9DC
S11363B04020FF2BF5D813800020F2E7F0B585B01C
S11363C01E000AAB0D00197803004B4303924027CB
S11363D0AB4217D8002E18D10200330008001B4C22
S11363E03100A0472A0001003300194C3000A047B7
S11363F000220123121A8B41140C180404430027B1
S1136400039B1C80380005B0F0BD0024012EF6D19A
S11364100A00230021000D4EB047009001910B00AB
S11364200200210028000A4CA047802306009B019B
S11364309842E7D8009A019B690FE800A047F4004E
S1136440041BE4B264033443D9E7C0463D9800001A
S11364502963000037B50D4C05002378002B01D0CB
S113646000290CD001A91320094B0D709847132063
S1136470084B984701230020657023703EBD637864
S11364800800AB42FAD01D20F8E7C0464D020020B8
S11364904D770000C5760000394A030000B50800B6
S11364A0934233D007D8374A934214D0364A9342A2
S11364B01FD0002317E0354A93423AD0344A93421E
S11364C044D0344A9342F4D1002303290BD803F077
S11364D029F8502A2C2E0023032904D803F022F88B
S11364E0430205072C4B180000BD2C4BFBE72C4B3B
S11364F0F9E700230329F6D803F014F83702040659
S1136500284BF0E7284BEEE7284BECE70023032960
S1136510E9D803F007F82C020406254BE3E7254BE2
S1136520E1E7254BDFE7254BDDE7254BDBE7254B93
S1136530D9E700230329D6D802F0F4FF1D0204068C
S1136540214BD0E7214BCEE7214BCCE70023032995
S1136550C9D802F0E7FF120204061E4BC3E71E4B24
S1136560C1E71E4BBFE71E4BBDE70323BBE71D4B33
S1136570B9E71D4BB7E71D4BB5E71D4BB3E7C04665
S11365800010004200080042000C004200180042C3
S1136590001C004200140042030005000300060032
S11365A0030007000300010003001E0003001F0096
S11365B00300090003000A0003000B00030011009C
S11365C0030012000300130003000D0003000E007B
S11365D003000F0003001700030018000300190054
S11365E003000400030008000300100003000C0073
S11365F00300160070B586B06946094B6A4670CB35
S113660070C170CB70C1002399005158814202D1EE
S1136610D8B206B070BD0133062BF5D10020F8E7DF
S113662084D6000070470000F0B5094C094A23786D
S1136630002B09D11E00084F084DD750EE500433EB
S1136640182BFAD1173B237080001150F0BDC046BF
S11366504F0200205002002025660000A0180020F0
S113666007B509236A4613700133537001339370DD
S11366700133D3700133137101335371024B9847C3
S11366806B4618560EBDC046F565000010B5024BAA
S113669000201B68984710BD5002002010B5024B23
S11366A001205B68984710BD5002002010B5024BD2
S11366B002209B68984710BD5002002010B5024B81
S11366C00320DB68984710BD5002002010B5024B30
S11366D004201B69984710BD5002002010B5024BDE
S11366E005205B69984710BD50020020002210B5B8
S11366F04309C409944202D1DA01064BD2181F237C
S113670018401E3B8340002901D0936110BD5361A2
S1136710FCE7C04600440041036805201A7ED20706
S113672003D50020C905C90D9962704730B504240A
S1136730036810221D7E25420CD05D8B0022254269
S113674001D05C831E3280799B6A012804D1DB0569
S1136750DB0D0B80100030BDDBB2FAE7F0B50500AD
S1136760296014000A6889B00F001C23920700D521
S1136770BAE001260B6833400193019A0523002AED
S113678000D0B1E008005A4B9847811C8E40594B09
S113679014301A6A16431E62631DDB7F02AAC6B256
S11367A0137011003000544B98473000534B9847F6
S11367B0631DD87F0199524B98472378012B03D14D
S11367C03A680B3313433B602B002A0000260C333A
S11367D0283240C39342FCD12B003633AE86EE629E
S11367E02E86AE621E705E709E70032328686B72E4
S11367F03F4B2E7198470700424B43499847434B00
S1136800BF00FD50802302AA1371012393712378E2
S11368102F685671D671002B00D196710026A36A99
S11368200493E36A0593236B0693636B0793B300A6
S113683004AA9858F1B2002802D13800344B984782
S1136840431C06D002AB1871000CC0B203A9314B33
S113685098470136042EEAD123786B71237CAB71FF
S1136860A37CEB71237D2B7202AB9E1C002333802F
S11368702378012B10D11E4B286898471430264BDF
S1136880C0B29847254B01003200A06998471723EE
S1136890002829D133783B73A3686268617C1A436A
S11368A0E3681A43237C002903D11D4989788907A9
S11368B001D580210A43A17C002902D080218902CC
S11368C00B43E17C002902D0802189000B43217D08
S11368D0002902D0802189010B4339680A433A60B8
S11368E07A6813437B600023180009B0F0BDC046EA
S11368F0F5650000000400404D770000C5760000F7
S11369005564000029660000BD6A0000A01800203C
S11369109964000021780000697700009563000005
S113692000200041F0B585B0019303000400052068
S1136930009138331B781600834233D01230002A7A
S113694030D0E3790530002B2CD000256379012B5E
S113695008D122680121137E0B42FBD0019920004B
S1136960124B984722680421137E0B42FBD002ABE2
S11369709F1D002339003B8020000D4B98470028C1
S113698010D100993A886B1C4A55A1799BB2012910
S11369900AD100990235120AADB2CA54013EB6B208
S11369A0002ED3D105B0F0BD1D00F7E71967000034
S11369B02D67000073B50E00417905001400152001
S11369C0012903D12A7A002A01D0002076BD30782B
S11369D0144B002C22D07478002C1CD02C68247EFC
S11369E00C4202D198470520F0E7110098470E4B5E
S11369F0B17828009847EB79002BE6D12968043355
S1136A000A7E1A42FCD06B460024991D2800074BCD
S1136A100C809847D9E721009847D6E7984720008B
S1136A20D4E7C046ED660000196700002D6700003A
S1136A300300F7B50400052038331B780F00150058
S1136A40834203D012300026002A20D1FEBD01214A
S1136A501A7E0A42FBD0A27973189BB2B95D012A4F
S1136A6017D01E0089B2134B20009847E379002BFE
S1136A7009D022680421137E0B42FBD06B46200010
S1136A80991D0D4B9847013DADB2002D07D02368E9
S1136A90DDE7FB5C02361B02B6B21943E3E7637918
S1136AA02800012BD2D1216801330A7E1A42FCD07E
S1136AB00020CBE7196700002D670000F8B5684B8C
S1136AC08000C458230022003733363225681B78EF
S1136AD016781E402B7EAF7D1F40FB0734D56279AC
S1136AE0012A31D1637A002B0DD15E4B1B88AB6236
S1136AF0638E013B9BB26386638E002B00D12A75A3
S1136B006379012B20D1637A002B1DD0E16A2268BE
S1136B10481C0B78E062A079DBB2012851D09BB20B
S1136B20DB05DB0D9362A38E013B9BB2A386A38E90
S1136B30002B09D101332B75637A012B04D1E3793E
S1136B40002B01D10233AB7504210F4215D06B8B9E
S1136B500B423CD0637A012B0CD023001E22383325
S1136B601A700323637202332B75330702D5200096
S1136B70A3699847AB6A04236B8302210F4214D0A4
S1136B806379012B11D1637ADBB2012B0DD1E27948
S1136B90002A0AD1297501316172210038310A7045
S1136BA01E4202D02000E36898477FB2002F07DA24
S1136BB080232B752B76730602D5636A20009847D1
S1136BC0F8BD4878023100020343E162A8E7627A23
S1136BD02368D2B29B6A012A13D1638E013B9BB214
S1136BE06386638E9BB2002BC7D12975210038318F
S1136BF00B70033363721642BFD02000E3689847DA
S1136C00BBE7DB05A16ADB0DDAB20A70A26A511C8C
S1136C10A162A179012904D11B0A5370A36A01332B
S1136C20A362238E013B9BB22386238E9BB2002B4F
S1136C30A3D122003832137004332B75627A022AEE
S1136C4004D11E4299D020006369D8E7637A002BEF
S1136C5000D092E7B30700D48FE720002369CEE782
S1136C60A0180020B81800200268D369002BFCD1BA
S1136C7070470000F0B5070093B0A04B39600800DE
S1136C801600049198470122049B05001B68052007
S1136C90134200D00FE1049B17301C6802231C40F0
S1136CA000D008E1EB181B3898400300944A1435CF
S1136CB0116AEDB20B43136233002D3302931B7838
S1136CC00CA90B7028008F4B984728008E4B9847CF
S1136CD0029B210018788D4B9847F37A08257B7125
S1136CE0731DDB7FBB71B31DDB7FFB71F37E3B72D6
S1136CF0337F7B723B6803931800804B98470EAB3D
S1136D001C80338A143002938023029ADB019A4256
S1136D1014D008D8802310259B019A4200D1CDE0DD
S1136D20102500240AE0C023029ADB019A4200D114
S1136D30C3E0802303251B029A42F1D133680693F2
S1136D40F368079373690893337E0993F31DDB7F1C
S1136D500A93736805933300059A0833002A00D117
S1136D60AEE080220599520591420ED1DB7F002BC3
S1136D700BD1674BC0B2346A98470EAA0100654B29
S1136D8020009847002800D095E0737E002B02D0A5
S1136D90B37E039A9373604B380098470AAB1B8AFF
S1136DA0039A069C9381079B1C43089B1C43059BE9
S1136DB01C43029B1C43099B1B021C430A9B5B074D
S1136DC01C4333000833DB7F002B01D104331C4305
S1136DD0757E337FAD025B021D43737FF27A1B0223
S1136DE01D43731DDB7F5B041D43B31DDB7F1B044D
S1136DF02B43B57A15431D433389FF2B00D175E02E
S1136E008022520414431D4333002C331B78002B7F
S1136E1003D1424B9B789B0701D580231C43380048
S1136E203D4B9847039B38005D603B4B9847039B61
S1136E3000251C6080230DAC2370336B65700E93AA
S1136E40736BE5700F93B36BA5701093F36B0293A0
S1136E50119310200AAAAB001218D058E9B20028E6
S1136E6002D104982E4B9847431C05D02070000C87
S1136E70C0B221002B4B98470135042DE9D13B00CA
S1136E8000243033FC85FC603C617C61BC61FC61A6
S1136E903C62BC627C62BC859C701C705C70DC7063
S1136EA03868164B984705001F4B20499847200027
S1136EB01F4BAD00EF5013B0F0BD082501243DE792
S1136EC0DB7F002B07D02300B16A306A00950EAA3D
S1136ED0184CA04756E7336AC0B20B930C4B984743
S1136EE00095010023000EAA0B98F1E7F37E002B16
S1136EF000D189E78023DB041C4385E7F5650000A6
S1136F00000400404D770000C57600005564000081
S1136F106977000095630000696C0000002000415F
S1136F20996400002178000029660000DD6F0000EC
S1136F30A0180020BD63000070B5C2790D001C23A9
S1136F40002A0CD0C28D173B002A08D1054B0468D7
S1136F50984702232585227E1A42FCD0002318007C
S1136F6070BDC046696C000070B582790E001C23A8
S1136F70002A13D0828D173B002A0FD10425046800
S1136F80227E2A420AD0144B9847638BDBB29A06BE
S1136F901DD00222134203D01A236283180070BD4D
S1136FA02B4202D065831E23F8E70122134202D04C
S1136FB062831323F2E71022134202D06283422336
S1136FC0ECE72022134202D062834123E6E7238DBB
S1136FD033800023E2E7C046696C0000F8B5584BE3
S1136FE08000C4582568EB69002BFCD12B7EAF7D53
S1136FF01F40230030331A785E78012316401F4265
S113700019D0E28D002A00D172E0A26A511C1378D3
S1137010A1626179DBB2012964D09BB2DB05DB0D8F
S11370202B85E38D013B9BB2E385002B03D1013318
S11370302B750133AB7502231F4209D02B75230036
S1137040002233331A70F30702D52000E36898470F
S113705004231F4227D0A28D002A00D16DE06B8B40
S1137060DBB21A0746D43F22134045D002221A212C
S113707013420FD104221E2113420BD101221321EA
S1137080134207D110224221134203D1202213427A
S113709004D041212300323319706A83730702D567
S11370A020006369984710231F4206D02B752B7666
S11370B01E4202D02000E369984720231F4206D0D5
S11370C02B752B76330702D52000A3699847082334
S11370D01F4206D02B752B76B30602D5236A2000F7
S11370E09847F8BD5178023209020B43A26295E732
S11370F02B75A0E73722B7E72B8D616ADB05DB0D23
S1137100DAB20A70626A511C61626179012904D1A0
S11371101B0A5370636A01336362A38D013B9BB204
S1137120A385002BBFD104222A75220032321370AA
S1137130B307B8D520002369B4E72B75B3E7C0467D
S1137140A018002010230249CA681A42FCD07047D4
S1137150000800400222F8B50026094D094C2B68AE
S1137160094F13432B60A284B847AB68E3626B6892
S1137170A362A684B8472B6830009BB2A384F8BDF1
S113718068020020000800404571000070B508281E
S113719006D802F0C7F90805052E2E120B15260095
S11371A00024200070BD154B1C69FAE7144B154CE4
S11371B01B6A9B059B0FDC40F3E7104B5C69F0E70F
S11371C00E4D00242B689B07EBD50F4B98472B687B
S11371D05B0711D520000D4B9847AC68A4B244431B
S11371E0DFE70B4B00241B785B07DAD5034BDC6825
S11371F0D7E780242402D4E7064CD2E768020020B3
S11372000008004000127A00457100006977000010
S113721050080040006CDC0270B584780278457830
S1137220012040260540204080240849AD010B6A16
S1137230C001B3432B43A343034303200240044848
S11372401202034013430B6270BDC04600080040A5
S1137250FFFCFFFFF0B5224B4278077885B09C46CF
S11372609B8A03927A425741427B8478C578067997
S11372700192027B0292817B1A4A80685061B800B5
S113728004270122BB43184308231540BD40164080
S11372909843F6000643DB189E43354310339D4361
S11372A02B004020144064012343029C8343144078
S11372B0A401234380240198A3431040C001034345
S11372C00720039C11402040074C00022340074A3A
S11372D003431A40634609030A439A8205B0F0BD8A
S11372E00008004068020020FFF8FFFFFFEFFFFFE7
S11372F010B5027A438992069B059B0D120C1A4322
S1137300174B5A60C179827984880A4341882143A2
S11373100A4341780478C9010A431A60042C0DD148
S1137320027B018A92060A43C1890E48090401407E
S11373300A439A601A6814431C6010BD202CFCD1C7
S1137340027B018A92060A43C18906480904014066
S11373500A439A601968044A0A431A60EDE7C04672
S1137360680200200000FF032404000010B5082870
S113737006D802F0D7F81405050C0E1A07202300CE
S1137380172010BD0223104A116A0B431362002018
S1137390F7E702230C4A91690B439361F7E7022351
S11373A0094A118A0B431382F1E70223064A918AA0
S11373B00B439382EBE7054B9847E2E70223044A29
S11373C011780B431370E2E7000800405571000088
S11373D044080040C2231E22F0B5454DDB00454958
S11373E0AB604B68002493431A00042313434B609F
S11373F002238FB009AE3370E0B231003E4B01344A
S11374009847252CF8D1802205A812020023826017
S1137410012203708370C370027103738373023299
S11374204373364B427098470520354CA0470223DE
S1137430EA681A42FCD08023AA8A1343AB823F2213
S1137440002372817380B380B371F37173703B3A1C
S11374502C4B32701B689B0E3F2B00D1203B3372A8
S1137460294B01273382072333733833F3813000E8
S11374700026264B984701A8254B46708770067056
S113748098470620A047234B9847052302AC2100C8
S113749023703800204B67606670267266729847C6
S11374A038001E4B984721003000134B2770984733
S11374B030001B4B98471B4B9847D022EB68134076
S11374C0D02BFBD10025184B21001D725D729D72DB
S11374D0DD72012363600633237028000E4B657050
S11374E025726572984728000C4B98470FB0F0BD81
S11374F000080040004000414D7700005572000034
S11375006D73000024608000B9050000F172000072
S1137510197200003975000059750000FD750000EE
S1137520C57600005571000000040040014B5878F6
S1137530C0097047000C00400823054A91690B43B9
S113754093610123034A137011781942FCD17047E7
S113755000040040000C0040F8B50C784B7824027D
S1137560060005000443002B02D08023DB021C43E9
S11375704B7A002B02D080231B031C434B68012B46
S113758012D95D1E1D400222002D06D01D0280234B
S113759035439B0207E0013552009A42FBD3802316
S11375A02D0235435B031C430B7A002B02D080234E
S11375B09B031C430C4FB8470028FBD10B4B984747
S11375C00B4B1E70B8470028FCD10A4B9D601D0070
S11375D0B8470028FCD180226B68520213401C4338
S11375E06C60054B9847F8BD2D750000C56200001E
S11375F0080C0040000C0040F962000070B5050062
S1137600094CA0470028FBD1084B9847084B1D7034
S1137610A0470028FCD18023064A5B0251680B4333
S11376205360054B984770BD2D750000C56200007E
S1137630040C0040000C0040F9620000F7B507009C
S1137640184EB0470028FBD1174B9847174B1F70B3
S11376500193B0470028FCD1154D164B6868C0044F
S1137660C00E98470400019B1F706B68DB02DB0FA0
S11376700193114B1F70B0470028FCD1AD680F4B2C
S11376809847019B2D022D0C002B08D1012D04D904
S1137690200029000A4B984704002000FEBD013554
S11376A0EC40FAE72D750000C5620000040C0040B0
S11376B0000C00408D710000080C0040F9620000CD
S11376C03995000010B50400064B9847064B074A4D
S11376D01C7080235188DB010B435380044B984773
S11376E010BDC046C5620000020C0040000C004002
S11376F0F962000010B504000E4B98470E4B0F4A78
S11377001C700F4B0F4C5888598800051140598044
S11377105988000F2140598011008022D2015C88D1
S11377201442FCD15A8800020A4002435A80064B94
S1137730984710BDC5620000020C0040FFF0FFFF37
S1137740000C0040FFBFFFFFF962000010B50C7889
S1137750034B240204439847024BA4B25C8010BD3F
S1137760F5760000000C004010B50400064B984765
S1137770064B1C70064B5C88064B2405240F984767
S11377802000054B984710BDC5620000020C004064
S1137790000C0040F96200003D760000D37830B55B
S11377A0002B35D11478802C03D0802324065B026F
S11377B0234302255478AC4306D19478002C24D179
S11377C08024A402234341605478013C012C01D855
S11377D0124C2340A0248DB2E4052C431C43846244
S11377E0D0240D0C24062C431C438462D478002C32
S11377F00AD15B0303D59378012B0CD181615378B3
S1137800013B012B00D8816030BDC024E402D9E7DC
S113781041600023DEE74161F1E7C046FFFFFBFF63
S113782010B503000A004409C1090020814202D1B5
S11378300449E00140181F210B401E399940024BB6
S1137840984710BD004400419D7700007047000038
S113785010B5054B9847054B9847054B9847054B82
S11378609847054B984710BDD5730000C1620000CE
S11378704D780000495100004D780000FEE70000FB
S11378802148224970B5884204D00023204CCA18EC
S1137890A24232D300211F4B1F4A934231D3FF210E
S11378A01E4B1F4A8B43936002220C25082430266A
S11378B01C4B1D485A62C378FC398B431343C37075
S11378C0C378AB432343C370184B987BB043060083
S11378D0202030439873987BA84304439C73987B7F
S11378E0884302439A738023114A51680B435360BF
S11378F0104B9847104B9847FEE7C5580433156062
S1137900C5E702C3C9E7C04698DE000000000020B6
S1137910FC010020FC0100205C1A00200020000073
S113792000ED00E0FC7000410050004100480041BF
S11379300040004165B10000D994000070B50E000C
S113794014001500002808D0012040420CE0074B29
S1137950013D1868064B1B689847611B7118002D80
S1137960F5DCE043C017204070BDC046C4180020B9
S1137970BC180020013870B50E0002280DD80C0088
S11379808D18A01BAC420AD0054B21781868054B12
S113799001341B6898470028F3DA0120404270BD87
S11379A0C4180020C0180020054B020019680029E3
S11379B001D104491960186882181A607047C046DA
S11379C080020020603A002001204042704780235A
S11379D09B0100204B6070470120704700207047D6
S11379E003000E3000B50E281AD801F09BFD1715C0
S11379F01311191C190F0D190F0F0B081C0002206D
S1137A00404200BD7020FBE71620F9E70C20F7E7A1
S1137A107920F5E76820F3E70B20F1E71020EFE782
S1137A200020002BEDDA0520EAE70000F8B5040099
S1137A300126050000204134237892B23343237099
S1137A40285600230A4FB84700280DDB2078304021
S1137A5003D0EB6E0020022B00D8F8BD054B9847ED
S1137A60686D054B9847F1E72378B3432370F4E737
S1137A709D4D0000B9340000C188000050230380EC
S1137A80002383704360C3600133FF330361AE3B63
S1137A90024A4361024B028183617047204E000019
S1137AA093D7000070B504000D00002837D00029DA
S1137AB035D00B69002B32D04B68002B2FD04B698B
S1137AC0512B2CD9E8220021174B98472000174B43
S1137AD01C22290050309847E36D002B0BD12869F4
S1137AE0134B9847E06500281BD022000423413241
S1137AF011780B4313702B89002B04D10020E0660E
S1137B00D834206070BD68680023220009490A4DFA
S1137B10A847A0640028F1DA1C204042F2E71620AE
S1137B20FBE70C20F9E7C0460BB20000D5B100001A
S1137B30ADB10000497C00004D880000002802D04F
S1137B40C1640020704716204042FBE70300F0B5F3
S1137B50C0331B6887B004000191002B03D00200DE
S1137B60C43210689847200018220021B030164F04
S1137B70B847E36E002B03D00020144B20569847DF
S1137B8000230025E356124A9B009D5026006C22D8
S1137B902900A018D836B847102229003000B84769
S1137BA02200FC21E5664132356013780B401370E6
S1137BB0019B0393E36CAB4203D003AAF839200082
S1137BC0984707B0F0BDC0460BB20000854E0000D8
S1137BD084020020F0B507000E00002585B0164B86
S1137BE0EC58002C24D0611C3800144B9847002812
S1137BF01ED1E36E012B1BD1002E06D1762120006D
S1137C0049420F4B984705B0F0BD6A4602231380E2
S1137C10230050331B8800201A021B0A13436A46B0
S1137C2001965380205610226946064B9847EAE78E
S1137C3004351C2DD3D1E6E78402002071B6000080
S1137C404D7B0000254D000010B5002A04D03E21D4
S1137C5010004942014B984710BDC0464D7B0000BF
S1137C60F0B597B06B4602AF10227B601C23040072
S1137C70B818CF49C018CF4B98476946626ED31DD8
S1137C80DB08DB00CB1A9D4602ABFB60230001211D
S1137C9041331B780B4005D1E16E032907D0042939
S1137CA000D1D0E07B689D46BD4615B0F0BD2100F3
S1137CB010252C20CC310B604B607D190094BE4BF9
S1137CC02818F968BD4DA8472300C8331A78BC4B5F
S1137CD0012A74D1BB49033210252C207D192818A0
S1137CE0984725007035B84B2800984702001020AB
