:1000000090240020D5730000CD740000CD74000052
:1000100000000000000000000000000000000000E0
:10002000000000000000000000000000CD7400008F
:100030000000000000000000CD740000CD7400003E
:10004000CD740000CD740000CD740000CD740000AC
:10005000C5420000CD740000CD740000CD740000D6
:10006000CD740000754C00008D4C0000A54C0000C4
:10007000BD4C0000D54C0000ED4C0000CD740000DC
:10008000CD740000CD740000CD740000CD7400006C
:10009000CD7400000000000000000000251A0000E0
:1000A000CD740000CD740000CD740000CD7400004C
:1000B0000000000010B5064C2378002B07D1054B3B
:1000C000002B02D0044800E000BF0123237010BDC4
:1000D0004402002000000000C0C40000084B10B51E
:1000E000002B03D00749084800E000BF0748036819
:1000F000002B00D110BD064B002BFBD09847F9E731
:100100000000000048020020C0C40000C0C400007D
:100110000000000080B582B000AF0200FB1D1A7025
:10012000064BFA1D127811001F220A40012191404E
:100130000A001A60C046BD4602B080BD00E100E082
:1001400080B584B000AF78607B681B68FB60FB689B
:100150005B7EDBB25BB2002B01DA012300E00023FF
:100160001800BD4604B080BD80B584B000AF786093
:100170007B681B68FB60C0467B681800104B984783
:10018000031EF9D117200F4B9847FB680F229A7571
:10019000FB680F221A76FB681B78DBB2022213433E
:1001A000DAB2FB681A70C0467B681800044B9847A7
:1001B000031EF9D100231800BD4604B080BDC0461F
:1001C000410100001501000080B58CB000AF3B007C
:1001D0001800134B98473B0001221A703B00802205
:1001E00092005A803B0000225A703B0018221A737A
:1001F0003B00C0225201DA813B000422DA753A004A
:100200000849094B1800094B9847064B22229A705F
:10021000054B1800064B9847C046BD460CB080BD44
:1002200019110000004000426C0400206917000012
:100230006901000080B584B000AF78607B68FA2265
:1002400092005A43054B0649100098470300FB6093
:10025000FB681800BD4604B080BDC046198100008F
:10026000E78F010080B584B000AF0200FB1D1A705B
:100270000F23FB18FA1D1278D2091A700E23FB18EF
:10028000FA1D127852091A700D4BBB600F23FB1830
:100290001B78002B0FD10F23FB181B789B0010221B
:1002A0009446BC446344083B1A680E23FB181B7831
:1002B000DB01D31800E000231800BD4604B080BD68
:1002C0000044004180B582B000AF0200FB1D1A70EF
:1002D000FB1D1B781800034B984703001800BD4610
:1002E00002B080BD6502000080B584B000AF02009E
:1002F000FB1D1A70BB1D0A1C1A70FB1D1B78180011
:100300000D4B98470300FB60FB1D1B781F22134019
:1003100001229A401300BB60BB1D1B78002B03D049
:10032000FB68BA689A6102E0FB68BA685A61C04625
:10033000BD4604B080BDC046C502000080B500AF18
:10034000024B9847C046BD4680BDC04619400000DC
:1003500080B500AF024B9847C046BD4680BDC04641
:100360006D40000080B584B000AF78600D4B9847B9
:100370007B681B79DBB2002B04D00F23FB1805220E
:100380001A7006E07B6801221A710F23FB18002205
:100390001A70054B98470F23FB181B781800BD46B1
:1003A00004B080BD3D0300005103000080B582B061
:1003B00000AF78607B6800221A71C046BD4602B06B
:1003C00080BD80B584B000AF78607B681B68FB603F
:1003D000FB681B7EDBB21A00012313405A1E9341B7
:1003E000DBB21800BD4604B080BD80B584B000AF5C
:1003F00078607B681B68FB60FB681B7EDBB21A00C1
:10040000042313405A1E9341DBB21800BD4604B0CA
:1004100080BD000080B584B000AF78600A00BB1CCE
:100420001A807B681B68FB607B6818000A4B984742
:1004300003001A0001235340DBB2002B01D0052337
:1004400006E0BB1C1B88DB05DA0DFB689A62002303
:100450001800BD4604B080BDC303000080B584B061
:1004600000AF786039607B681B68BB607B681800F0
:100470001B4B984703001A0001235340DBB2002BAB
:1004800001D0102327E00F23FB1800221A70BB684D
:100490005B8B9BB21A000423134006D00F23FB187A
:1004A0001E221A70BB6804225A837B689B79012B39
:1004B00008D1BB689B6A9BB2DB05DB0D9AB23B6837
:1004C0001A8005E0BB689B6ADBB29AB23B681A806F
:1004D0000F23FB181B781800BD4604B080BDC04632
:1004E000EB03000080B582B000AF0200FB1D1A7064
:1004F000FB1D1B78092B18D89A000E4BD3181B68CC
:100500009F460D4B12E00D4B10E00D4B0EE00D4BD6
:100510000CE00D4B0AE00D4B08E00D4B06E00D4BD7
:1005200004E00D4B02E00D4B00E000231800BD4637
:1005300002B080BDECBA00001F6500001F43000040
:100540001F4401001F4502001F4501001F46020015
:100550001F4603001F8600001F4701001F480000C0
:1005600080B582B000AF0200FB1D1A70FB1D1B7826
:10057000092B19D89A000F4BD3181B689F4680236C
:100580005B0212E08023DB020FE080231B030CE000
:1005900080235B0309E080239B0306E08023DB03C9
:1005A00003E080231B0400E000231800BD4602B0D6
:1005B00080BDC04614BB000080B582B000AF78603B
:1005C0007B685B7900211800024B9847C046BD4606
:1005D00002B080BDE902000080B582B000AF786053
:1005E0007B685B7901211800024B9847C046BD46E5
:1005F00002B080BDE902000084B0B0B584B000AFA5
:10060000786004202024A446BC4460440160426019
:100610008360042320229446BC4463441A78082350
:10062000FB181A70042320229446BC4463445B7870
:10063000012B1FD9042320229446BC4463445B68E9
:10064000DAB20823FB18DA70042320229446BC4453
:1006500063445B681B0ADAB20823FB189A70042310
:1006600020229446BC4463445B681B0CDAB2082326
:10067000FB185A707B6818001D4B98477B681868F8
:10068000042320229446BC4463445B789AB20F232F
:10069000FC180823FB181900164B98470300237019
:1006A000042320229446BC4463449B89002B14D02D
:1006B0007B681868042320229446BC4463449968EC
:1006C000042320229446BC4463449A890F23FC18D7
:1006D0000023094DA847030023707B681800074BCF
:1006E0009847C046BD4604B0B0BC08BC04B018472B
:1006F000B9050000DD530000A9520000D905000033
:1007000084B090B585B000AF786004202024A44662
:10071000BC4460440160426083600423202294460C
:10072000BC4463441A780823FB181A70042320225F
:100730009446BC4463445B78012B1FD904232022D8
:100740009446BC4463445B68DAB20823FB18DA7051
:10075000042320229446BC4463445B681B0ADAB23B
:100760000823FB189A70042320229446BC44634457
:100770005B681B0CDAB20823FB185A707B68180000
:100780001D4B98477B681868042320229446BC447C
:1007900063445B789AB20F23FC180823FB181900F6
:1007A000164B984703002370042320229446BC4430
:1007B00063449B89002B14D07B6818680423202293
:1007C0009446BC4463449968042320229446BC4464
:1007D00063449B890F22BC181A00084B98470300FA
:1007E00023707B681800064B9847C046BD4605B08D
:1007F00090BC08BC04B01847B9050000DD530000E8
:10080000D905000090B585B000AF78600C23FB18C7
:1008100000221A80C0467B681B6818003C4B984732
:1008200003001A0001235340DBB2002BF3D17B6895
:100830001800384B98477B681B680F22BC180521AD
:100840001800354B984703002370C0467B681B682F
:100850001800324B984703001A0001235340DBB2C3
:10086000002BF3D17B681B680F22BC180C22BA182E
:10087000110018002A4B984703002370C0467B687C
:100880001B681800224B984703001A0001235340AD
:10089000DBB2002BF3D17B681B680F22BC18002150
:1008A00018001D4B984703002370C0467B681B68E7
:1008B00018001A4B984703001A0001235340DBB27B
:1008C000002BF3D17B681B680F22BC180C22BA18CE
:1008D00011001800124B9847030023700C23FB18DB
:1008E0001B881A0001231340C8D17B6818000D4BE8
:1008F00098470C23FB181B881A002023134001D0B3
:10090000102300E000231800BD4605B090BDC0468E
:10091000C3030000B905000015040000EB0300004C
:100920005D040000D905000090B589B002AF786081
:100930000823FB1806221A700823FB1801225A709C
:100940000823FB1800229A810823FB1800225A6012
:100950000823FB1800229A600823FB1878686A466F
:10096000D968116019685A689B68034CA047C04653
:10097000BD4607B090BDC0460107000090B58BB0E2
:1009800002AF78600023BB607B681B681F22BC1825
:100990001800214B9847030023701F23FB181B7876
:1009A000052B03D11F23FB181B7830E00C23FB1809
:1009B0009F221A700C23FB1801225A700C23FB187B
:1009C0000822BA189A600C23FB1803229A810C2380
:1009D000FB1800225A600C23FB1878686A46D96815
:1009E000116019685A689B680C4CA0477B681B68AB
:1009F00018000B4B98477B681B791800094B9847E8
:100A00000200BB689A4201D1002300E014231800C1
:100A1000BD4609B090BDC04665030000F905000061
:100A2000AD030000E504000090B58DB002AFF860A2
:100A3000B9607A601A00BB1C1A80BB1C1A88BB689C
:100A4000D418FB681B791800214B984703009C427F
:100A500001D9172337E0FB681B682722BC18180050
:100A60001C4B9847030023702723FB181B78052B8A
:100A700003D12723FB181B7825E01423FB180B2236
:100A80001A701423FB1805225A701423FB18BA6835
:100A90005A601423FB187A689A601423FB18BA1C56
:100AA00012889A811423FB18F8686A46D968116085
:100AB00019685A689B68084CA047FB681B681800B7
:100AC000064B984700231800BD460BB090BDC046AA
:100AD0006105000065030000F9050000AD0300009A
:100AE00090B58DB002AFF860B9607A601A00BB1C97
:100AF0001A80BB1C1A88BB68D418FB681B791800C5
:100B00005B4B984703009C4201D91723ABE0FB687D
:100B10001B682722BC181800564B98470300237007
:100B20002723FB181B78052B03D12723FB181B78E1
:100B300099E0FB681800504B98471423FB180222D9
:100B40001A701423FB1804225A701423FB18BA6875
:100B50005A601423FB187A689A60BB689BB2FF2224
:100B600013409AB22423FB18802149008A1A1A8064
:100B7000BB1C2422BA1810881B8899B282B29142F9
:100B800000D9031C9AB21423FB189A811423FB1872
:100B9000F8686A46D968116019685A689B68374CCA
:100BA000A0472723FC18FB681800354B9847030023
:100BB00023701423FB189A89BB1CB91C09888A1A54
:100BC0001A803FE0FB6818002B4B98471423FB1852
:100BD0005B681422BA1892899A181423FB185A6079
:100BE0001423FB189B681422BA1892899A181423AC
:100BF000FB189A60BB1C1B8899B28022520091425C
:100C000001D980235B009AB21423FB189A81142324
:100C1000FB18F8686A46D968116019685A689B68B9
:100C2000164CA0472723FC18FB681800144B984764
:100C3000030023701423FB189A89BB1CB91C098874
:100C40008A1A1A80BB1C1B88002B04D02723FB1890
:100C50001B78002BB6D0FB681B681800094B98471F
:100C60002723FB181B781800BD460BB090BDC0466B
:100C7000610500006503000029090000010700006C
:100C800005080000AD03000090B58DB002AFF8601C
:100C9000B960FB1D1A70FB681B791800334B98472D
:100CA0000200BB689A4201D817235BE0FB681B680F
:100CB0002722BC1818002E4B9847030023702723C7
:100CC000FB181B78052B03D12723FB181B7849E061
:100CD000FB681800274B9847FB1D1B78012B08D099
:100CE000022B0BD0002B0ED11423FB1820221A70DC
:100CF0000DE01423FB1852221A7008E01423FB188D
:100D0000D8221A7003E01423FB1800221A7014234F
:100D1000FB1804225A701423FB18BA685A60142373
:100D2000FB1800229A811423FB1800229A601423D6
:100D3000FB18F8686A46D968116019685A689B6898
:100D40000D4CA0472723FC18FB6818000B4B984755
:100D500003002370FB681B681800094B9847272382
:100D6000FB181B781800BD460BB090BD6105000054
:100D700065030000290900000107000005080000C4
:100D8000AD03000090B58BB002AF78600A00FB1C89
:100D90001A707B681B681F22BC181800224B9847EA
:100DA000030023701F23FB181B78052B03D11F237F
:100DB000FB181B7833E07B6818001C4B9847FB1C22
:100DC0001B78002B01D03C2200E000220B23FB18F3
:100DD0001A700C23FB1801221A700C23FB18012235
:100DE0005A700C23FB1801229A810C23FB180B224A
:100DF000BA189A600C23FB1800225A600C23FB18C7
:100E000078686A46D968116019685A689B68084C06
:100E1000A0477B681B681800064B98470023180002
:100E2000BD4609B090BDC046650300002909000019
:100E300001070000AD03000090B58DB002AFF8606F
:100E4000B960FB1D1A70FB681B791800264B984788
:100E50000200BB689A4201D8172340E0FB681B6878
:100E60002722BC181800214B984703002370272322
:100E7000FB181B78052B03D12723FB181B782EE0CA
:100E8000FB6818001A4B9847FB1D1B78002B01D0FC
:100E9000362200E039221423FB181A701423FB18A1
:100EA00004225A701423FB18BA685A601423FB18E2
:100EB00000229A811423FB1800229A601423FB1845
:100EC000F8686A46D968116019685A689B68094CC5
:100ED000A047FB681B681800074B984700231800C1
:100EE000BD460BB090BDC046610500006503000023
:100EF0002909000001070000AD03000090B58BB088
:100F000002AF78607B681B681F22BC1818001B4B5F
:100F10009847030023701F23FB181B78052B03D170
:100F20001F23FB181B7824E00C23FB18B9221A702E
:100F30000C23FB1801225A700C23FB1800229A8103
:100F40000C23FB1800225A600C23FB1800229A6025
:100F50000C23FB1878686A46D968116019685A68CA
:100F60009B68074CA0477B681B681800054B984797
:100F700000231800BD4609B090BDC04665030000BF
:100F800001070000AD03000090B58BB002AF7860A0
:100F90007B681B681F22BC1818001B4B9847030076
:100FA00023701F23FB181B78052B03D11F23FB186D
:100FB0001B7824E00C23FB18AB221A700C23FB18BF
:100FC00001225A700C23FB1800229A810C23FB1873
:100FD00000225A600C23FB1800229A600C23FB1895
:100FE00078686A46D968116019685A689B68074C26
:100FF000A0477B681B681800054B98470023180022
:10100000BD4609B090BDC046650300000107000061
:10101000AD03000080B582B000AF78607B6800222D
:101020001A70C046BD4602B080BD000080B582B0D7
:1010300000AF02003960FB1D1A70FB1D1B78012BED
:101040000AD0022B0FD0002B14D10E4B0D4A916900
:101050003A680A439A610FE00A4B0A4AD1693A6832
:101060000A43DA6108E0074B064A116A3A680A4304
:101070001A6201E0172300E000231800BD4602B009
:1010800080BDC0460004004080B582B000AF7860EB
:101090007B6880221A707B6800225A707B6801226C
:1010A0009A707B680022DA70C046BD4602B080BDEF
:1010B00080B582B000AF0200FB1D1A70FB1D1B78CB
:1010C000002B02D0012B07D00DE0084B074A126C11
:1010D00002210A431A6406E0044B044A126C0421FC
:1010E0000A431A64C046BD4602B080BD00080040F5
:1010F00080B584B000AF78607B681B68FB60FB68DC
:101100005B7EDBB25BB2002B01DA012300E000233F
:101110001800BD4604B080BD80B582B000AF7860D5
:101120007B6800221A707B6800225A707B6800225C
:101130005A807B6800221A717B6800221A767B68CD
:1011400000221A627B680022DA617B6800229A60C2
:101150007B6800221A737B68C0225201DA817B68A7
:1011600000221A747B6800225A747B6800229A74E9
:101170007B680022DA747B6800221A757B682A2259
:10118000002199547B6800225A757B6800229A7569
:101190007B682422002199547B680022DA847B68D2
:1011A00000221A857B680022DA757B682B220021D9
:1011B00099547B682C2200219954C046BD4602B048
:1011C00080BD000080B598B000AF78600C23FA189D
:1011D000154B1000190050231A00144B9847144B5C
:1011E000FB657B68132B1AD80C23FB187A689200D6
:1011F000D358FB650823FB1818000E4B98470823AB
:10120000FB1800229A700823FB1801221A70FB6D4C
:10121000DBB20822BA1811001800074B9847C046E5
:10122000BD4618B080BDC0463CBB0000619C0000BC
:10123000FFFF0000891000004D730000F0B589B079
:1012400000AF786039601F23FB1800221A7010234A
:10125000BB611723FB1800221A707B681B683B6177
:101260000C23FB181800CE4B98473B681A780C23C8
:10127000FB181A700C23FB1819001E20C94B984745
:101280001E20C94B98473B682C229B5C002B40D00A
:101290001623FB183A682B21525C1A703B68197BA5
:1012A0001523FB181622BA1812788A181A703B6890
:1012B0002C22995C0F23FB181522BA1812788A1871
:1012C0001A7018E01623FB181B780F2213403A6897
:1012D000127B9B181800B54B98471523FB181A78FA
:1012E0001523FB1801321A701623FB181A781623DF
:1012F000FB1801321A701523FA180F23FB18127805
:101300001B789A42DED33B68DB891800A74B9847CD
:1013100009E03B681B7B1800A44B98473B68DB89BE
:101320001800A24B98473B685B7D9B00DAB23B6993
:101330001A703B689B7DDB015AB23B685B785BB2FD
:1013400013435BB2DAB23B695A703B681B79342BAA
:1013500046D89A00964BD3181B689F461F23FB184C
:101360003A68527C1A701723FB183A68127C1A707C
:101370001023BB6136E01F23FB1801221A701723CC
:10138000FB1802221A701023BB612BE01F23FB18ED
:1013900002221A701723FB1804221A701023BB6153
:1013A00020E01F23FB1801221A701723FB180622C6
:1013B0001A701023BB6115E01F23FB1800221A705E
:1013C0001723FB1808221A701023BB610AE0302390
:1013D000BB6107E02023BB6104E00023BB6101E0A7
:1013E0001723AEE11F23FB181B781B01DBB2702211
:1013F0001340DAB21723FB181B781343DAB23B69A8
:101400009A703B68DB7D3F2B01D9172399E13B683C
:10141000DA7D3B69DA70C0467B681800654B9847F7
:10142000031EF9D13B685A88BB699BB213439AB239
:101430003B6824215B5C9BB2DB009BB213439AB2F6
:101440003B681B7D9BB29B009BB213439AB23B68E7
:101450009B7C9BB2DB189BB213439AB23B68DB7C4C
:101460009BB213439AB23B699A803B681B7E002B68
:1014700000D1C4E0BB69102B00D176E002D8002B6C
:101480004DD0BCE0202B23D0302B00D0B7E03B6800
:10149000DB7C002B11D03B68DB697F2B0BDC3B68CE
:1014A000DB69803307DB3B681B6A7F2B03DC3B680F
:1014B0001B6A803301DA172343E13B68DB69FF2BAA
:1014C00004DC3B681B6AFF2B00DC91E0172338E14A
:1014D0003B68DB7C002B15D03B68DB69364A9342C6
:1014E0000EDC3B68DB69354A934209DB3B681B6ACB
:1014F000314A934204DC3B681B6A304A934201DA6A
:1015000017231EE13B68DB692D4A934205DC3B68EB
:101510001B6A2B4A934200DC6CE0172311E13B6805
:10152000DB7C002B15D03B68DB69264A93420EDC3E
:101530003B68DB69244A934209DB3B681B6A214A0A
:10154000934204DC3B681B6A1F4A934201DA17236B
:10155000F7E03B68DB691D4A934204DC3B681B6A89
:101560001A4A934248DD1723EBE03B68DB7C002BF3
:1015700032D03B68DB69164A93420EDC3B68DB697C
:10158000144A934209DB3B681B6A114A934204DC0C
:101590003B681B6A0F4A93421EDA1723D1E0C0460C
:1015A0001510000061700000A5700000C51100005A
:1015B0008CBB0000F1100000FF01000000FEFFFFE7
:1015C000FF030000FF07000000F8FFFFFF0F00000F
:1015D000FF7F00000080FFFF3B68DB695B4A9342AE
:1015E00004DC3B681B6A594A934207DD1723A8E0D5
:1015F000C04604E0C04602E0C04600E0C046C04627
:101600007B681800524B9847031EF9D13B681A7E3D
:101610003B691A72C0467B6818004D4B9847031E01
:10162000F9D13B68DB699AB23B699A83C0467B6813
:101630001800474B9847031EF9D13B681B6A9AB2C2
:101640003B691A841423FB183A682C21525C1A70E7
:101650001423FB181B78002B06D01423FB181A78D0
:101660001423FB18013A1A701423FB181B780F2B54
:1016700004D83B682B229B5C0F2B01D9172360E019
:10168000C0467B681800324B9847031EF9D13B686F
:101690009B683A682B21525C120513431422BA1836
:1016A0001278120413433A68D28913433A68127BC2
:1016B0001A433B691A613B682A229A5C3B691A7596
:1016C0003B690F229A753B6824229B5C002B1ED03D
:1016D0003B68DB8C1F4A934201D9172331E03B68FA
:1016E000DA8C3B699A843B6828229B5E1A4A9342B3
:1016F00005DC3B6828229B5E184A934201DA1723D7
:101700001FE03B6828229B5E9AB23B69DA84144B47
:101710001B68DB089BB21B029AB2E023DB0013407C
:101720009AB2104B5C681B686101DD0E0D43E60E3A
:10173000ABB2FF210B409BB213439AB23B691A85AF
:1017400000231800BD4609B0F0BDC046FFFF0000F1
:10175000F1100000FF0F0000FF07000000F8FFFF7E
:10176000246080002060800080B586B000AFF86003
:10177000B9607A60FB68BA681A6080235B0219005E
:101780000220324B9847BB681B78DBB21A0001235A
:10179000134001D0052355E0BB681B78DBB21A006B
:1017A0000223134001D01C234CE07B685A78FB686D
:1017B0001A71FB681B79002B02D10120244B98473A
:1017C0001723FB1800221A700EE01723FB181A7853
:1017D000FB68023292000021D1501723FB181A78BF
:1017E0001723FB1801321A701723FB181B78022BE2
:1017F000EBD9FB6800229A76FB680022DA76FB6858
:1018000000221A83FB6800221A77124BFA681A60CA
:101810007B682A229B5C002B0AD17B681B7D0122FE
:101820005340DBB2002B03D0FB6801225A7702E061
:10183000FB6800225A777A68FB6811001800064B93
:10184000984703001800BD4606B080BD2D1000006B
:10185000B1100000F40200203D12000080B584B0F9
:1018600000AF78607B681B68FB60FB685B7EDBB267
:101870005BB2002B01DA012300E000231800BD4613
:1018800004B080BD80B584B000AF78607B681B6811
:10189000FB60C0467B6818000B4B9847031EF9D1CC
:1018A000FB681B7BDBB202221343DAB2FB681A73BC
:1018B000C0467B681800044B9847031EF9D1C04608
:1018C000BD4604B080BDC0465D18000080B584B040
:1018D00000AF78600A00FB1C1A707B681B68FB6015
:1018E000FB68FA1C12789A75C046BD4604B080BDEC
:1018F00080B584B000AF0200FB1D1A70FB1D1A7882
:10190000444B9200D358FB60FB681B681B7EDBB224
:10191000BB60BB680122134045D0FB68DB7E1A0028
:10192000012313403FD0FB689B7E1A000123134024
:1019300039D0FB681B6801221A76C046FB68180084
:10194000354B9847031EF9D1FB685B69991CFA680F
:101950005161FA681268528B92B21A80FB681B8B35
:101960009BB2013B9BB2FA68191C1183002B08D073
:10197000FB685B7F002B16D0FB681800274B98474D
:1019800011E0FB681B7FDBB2052B0CD1FB6800224A
:101990001A77FB6801211800214B9847FB689B6868
:1019A000FA6810009847BB680422134014D0FB6803
:1019B0001B6804221A76FB68DB7E1A0002231340A0
:1019C0000AD0FB689B7E1A000223134004D0FB68F8
:1019D000DB68FA6810009847BB680222134014D0F5
:1019E000FB681B6802221A76FB68DB7E1A00042360
:1019F00013400AD0FB689B7E1A000423134004D0D6
:101A0000FB681B69FA6810009847C046BD4604B0E1
:101A100080BDC046F40200205D180000851800005B
:101A2000CD18000080B500AF0020024B9847C0469B
:101A3000BD4680BDF118000080B582B000AF78606F
:101A40007B6800221A70C046BD4602B080BD00000F
:101A500080B582B000AF02003960FB1D1A70FB1D1B
:101A60001B78012B0AD0022B0FD0002B14D10E4B68
:101A70000D4A91693A680A439A610FE00A4B0A4A93
:101A8000D1693A680A43DA6108E0074B064A116AED
:101A90003A680A431A6201E0172300E000231800A5
:101AA000BD4602B080BDC0460004004080B582B093
:101AB00000AF78607B6880221A707B6800225A70C1
:101AC0007B6801229A707B680022DA70C046BD46AE
:101AD00002B080BD80B500AF054B9B78DBB21A0029
:101AE000022313405A1E9341DBB21800BD4680BD4D
:101AF0000020004180B584B000AF78607B681B682F
:101B0000FB60FB68DB69072213405A1E9341DBB27E
:101B10001800BD4604B080BD80B582B000AF7860CB
:101B2000C0467B681800044B9847031EF9D1C04695
:101B3000BD4602B080BDC046F51A0000F0B597B0B2
:101B400000AF786139610023FB6300233B6500230C
:101B5000FB643B2310229446BC44634400221A7069
:101B60007B691B68BB637B691B687B632323102233
:101B7000BA18D4187B6B1800C04B98470300237029
:101B80000C2310229446BC4463441800BC4B984775
:101B90003B69DB697B643B691B6A3B647B6C002BA4
:101BA00006D17B6B00211800B64B984703007B647D
:101BB0007B6CDAB20C2310218C46BC4463441A704F
:101BC0000C2310229446BC44634402225A707B6C5E
:101BD0001B0CDBB20C2210218C46BC446244110069
:101BE0001800A94B98473B6C002B06D17B6B012159
:101BF0001800A44B984703003B643B6CDAB20C23FB
:101C000010218C46BC4463441A700C231022944665
:101C1000BC44634402225A703B6C1B0CDBB20C22A6
:101C200010218C46BC44624411001800964B984722
:101C30003B699A8A7B69DA803B69DA8A7B691A8117
:101C40003B691B7E002B03D1904B9847031E02D0AB
:101C500080237B6501E000237B653B691B69002BCA
:101C600004D03B691B697A6D13437B653B699B68B4
:101C70007A6D13437B653B6924229B5C002B04D067
:101C80007B6D8022D20513437B653B699B6A002BE9
:101C900004D03B699B6A7A6D13437B653B692C22B8
:101CA0009B5C002B05D13B699A6880239B049A4278
:101CB00004D17B6D8022120513437B653B692D2285
:101CC0009B5C002B04D07B6D8022120413437B6548
:101CD0003B692E229B5C002B04D07B6D8022D203BB
:101CE00013437B65BB6B1A687B6D1A43BB6B1A6031
:101CF000BB6B802252005A60232310229446BC44BE
:101D000063441B781433DBB21800614B984703001F
:101D1000FB623B691B68FA2292005343BB623B693A
:101D20005B68FA22920053437B623B691B8E3B62E5
:101D3000584BF86A984705000E00564BB86A98470A
:101D4000B860F960534BF86A9847534C534A544B68
:101D5000A04703000C003B607C604E4B386A9847FC
:101D600002000B004C4C38687968A04703000C0057
:101D7000180021004B4C00224B4BA04703000C00E5
:101D80001A002300444CB868F968A04703000C000F
:101D90001A002300454C28003100A04703000C0026
:101DA0001D002600BB6A5A003A4B100098470200FB
:101DB0000B003C4C28003100A04703000C00180029
:101DC00021003A4C00223A4BA04703000C001D00B2
:101DD0002600BB6A5A002F4B1000984702000B00E8
:101DE000344C28003100A04703000C0019002200E9
:101DF000314B0800110098470300FB633B699A6868
:101E000080239B049A426AD1224BF86A9847254C5A
:101E100002000B00A04703000C001D0026001D4B14
:101E2000786A98471C4C0022244BA04703000C0002
:101E30001A0023001F4C28003100A04703000C00AB
:101E400018002100194C0022194BA04703000C0078
:101E500019002200184B0800110098470300FB648A
:101E6000FB6C002B2ED0164B796AF86A984703005A
:101E70009A1EFB6CD31A3B6531E0C046614B0000F3
:101E8000AD1A0000A54900004D730000D51A0000EE
:101E900085710000619B0000CD8F000095D626E87B
:101EA0000B2E113E4583000000002440CD9400001D
:101EB0000000F03F65890000F99A0000000008402A
:101EC000058000007B6A5A00FB6AD3185A1E7B6AA1
:101ED00059001D4B100098470300013B3B65FB6B0D
:101EE000FF2B08DCFB6B002B05DB3B6DFF2B02DCC3
:101EF0003B6D002B06DA3B2310229446BC4463441E
:101F000040221A703B2310229446BC4463441B7841
:101F1000402B0ED0FB6BFF221A403B6D1B041900B7
:101F2000FF231B040B401343FA6C12061A43BB6BCE
:101F3000DA603B2310229446BC4463441B781800AB
:101F4000BD4617B0F0BDC0460580000090B58BB00F
:101F500000AFF860B9607A60FB68BA681A60FB6825
:101F60001B687B62FB681B6818003B4B98470300AB
:101F70003B623B6A0233FB613B6A1433BB61012263
:101F8000FB699A40130019000220344B9847142330
:101F9000FB181800324B98477B681A7B1423FB18F8
:101FA0001A70BB69DBB21422BA18110018002D4B4D
:101FB0009847BB69DBB218002B4B98477B681B7BAB
:101FC00000211800294B98477B6A1B6802221340A6
:101FD00001D01C233BE07B6A1B680122134001D027
:101FE000052334E0FB681B681722BC1818001A4B45
:101FF0009847030023701E4A1723FB181B78110013
:1020000018001C4B98471723FB181A781A4B92009C
:10201000F968D150FB6800221A76FB6800225A76D4
:10202000FB6800225A83FB6800229A83FB68252202
:1020300000219954FB6800221A627B6A14221A60FC
:102040007A68FB68110018000C4B984703001800D1
:10205000BD460BB090BDC046614B0000511A000058
:10206000391A000061700000A570000019490000D5
:102070009D280000C54B0000D80300203D1B000038
:1020800080B584B000AF78607B681B68FB60FB683C
:102090001B7EDBB21A00022313400BD0FB68022226
:1020A0001A76FB685B8B9BB21A000223134011D097
:1020B000412310E0FB685B8B9BB21A0004231340A2
:1020C00008D0FB685B68C02292021A43FB685A6022
:1020D000182300E000231800BD4604B080BD80B581
:1020E00084B000AF78607B681B68BB600E23FB1870
:1020F00000221A800FE00E23FB180E22BA18128855
:1021000001321A807B681B890E22BA1812889A4203
:1021100001D312230EE0BB681B7EDBB21A00012341
:10212000134006D1BB681B7EDBB21A0002231340AA
:10213000E1D000231800BD4604B080BD90B585B045
:1021400000AF78600A00FB1C1A707B681B68FB609C
:10215000FB685B688022D2021A43FB685A60FB1C52
:102160001A78FB685A620B23FC187B681800074B2F
:10217000984703002370FB6801221A760B23FB1893
:102180001B781800BD4605B090BDC046DF2000009A
:1021900090B587B000AF786039607B681B68FB60E2
:1021A0001423FB183A6852881A801223FB18002265
:1021B0001A80FB681B681B01DB0FDBB21A000B23C4
:1021C000FB18511E8A411A703B685B7A002B06D0BF
:1021D0003B689A7A7B6811001800854B9847FB682A
:1021E0005B68844A1A40FB685A603B681B7A002B84
:1021F00042D03B681B885A003B685B7A9B031343C1
:102200001A0080231B021A43FB685A621723FC182A
:102210007B681800784B984703002370FB685B6865
:10222000744A1A40FB685A601723FB181B78002B6E
:1022300007D11723FC187B681800704B98470300E0
:1022400023701723FB181B78002B11D13B681B88C8
:102250001B0A9BB2782213439BB25A003B685B7AFD
:102260009B031343012213431A00FB685A620FE0D9
:102270001723FB181B78B6E03B681B885B00012224
:102280001A433B685B7A9B0313431A00FB685A624C
:102290001723FC187B681800574B984703002370DE
:1022A0000B23FB181B78002B0BD03B685B88012BA2
:1022B00007D1FB685B688022D2021A43FB685A6030
:1022C00005E0FB685B684B4A1A40FB685A601723BD
:1022D000FB181B78002B07D11723FC187B6818000C
:1022E000464B9847030023701723FB181B78002BDD
:1022F00000D075E04BE0FB685B8B9BB21A0020239B
:10230000134001D141236EE07B68DB7A002B1ED0A5
:102310000B23FB181B7801225340DBB2002B04D0A7
:102320001423FB181B88002B09D00B23FB181B78E8
:10233000002B0CD01423FB181B88012B07D1FB6842
:102340005B688022D2021A43FB685A601AE07B68FD
:1023500018002B4B98473B685A681223FB181B88C0
:1023600012217918581C0880D318FA682821525C69
:10237000D2B21A701723FC187B6818001E4B9847BE
:10238000030023701723FB181B78002B09D114239B
:10239000FB181B881422BA18591E1180002BAAD1D1
:1023A00000E0C0467B689B7A002B0AD07B6818004F
:1023B000134B9847FB685B68C02292021A43FB6884
:1023C0005A607B6818000E4B98473B685A68122386
:1023D000FB181B88D318FA682821525CD2B21A70F5
:1023E0001723FB181B781800BD4607B090BDC046E8
:1023F0003D210000FFFFFBFFDF20000081200000E7
:10240000191B000080B582B000AF786039607B682E
:102410009B8B9BB2002B01D005230CE07B68012233
:102420009A727B680122DA723A687B6811001800A0
:10243000034B984703001800BD4602B080BDC0465C
:102440009121000090B587B000AF786039607B685B
:102450001B68FB601423FB183A6852881A807B685B
:102460001800514B98473B685B7A002B06D03B68BD
:102470009A7A7B68110018004C4B9847FB685B68A0
:102480004B4A1A40FB685A603B681B7A002B0DD000
:102490003B681B885A003B685B7A9B0313431A0016
:1024A00080231B021A43FB685A6209E03B681B88C1
:1024B0005A003B685B7A9B0313431A00FB685A621D
:1024C0001723FC187B6818003A4B984703002370C9
:1024D0001723FB181B78002B07D11723FC187B68E8
:1024E0001800354B9847030023701723FB181B78FF
:1024F000002B52D11223FB1800221A8033E0FB6814
:102500005B8B9BB21A002023134001D1412347E08B
:102510007B681800244B98473B685A681223FB18C5
:102520001B8812217918581C0880D3181978FB6869
:10253000282299541723FC187B6818001D4B9847D4
:10254000030023701723FB181B78002B15D1FB68A1
:102550005B8B9BB21A000423134004D01723FB1893
:102560001E221A700AE01423FB181B881422BA18C2
:10257000591E1180002BC2D100E0C0467B689B7AB7
:10258000002B0AD07B681800074B9847FB685B68F4
:10259000C02292021A43FB685A601723FB181B786B
:1025A0001800BD4607B090BD191B00003D2100007A
:1025B000FFFFFBFFDF2000008120000080B582B01C
:1025C00000AF786039607B689B8B9BB2002B01D099
:1025D00005230CE07B6800229A727B680122DA7284
:1025E0003A687B6811001800034B984703001800F5
:1025F000BD4602B080BDC0464524000080B584B011
:1026000000AF78607B681B68FB607B681800064B36
:102610009847FB685B68C02292021A43FB685A60C5
:10262000C046BD4604B080BD191B000080B584B013
:1026300000AF78607B681B68FB60FB68DB69072282
:1026400013405A1E9341DBB21800BD4604B080BD52
:1026500080B582B000AF7860C0467B681800044B3C
:102660009847031EF9D1C046BD4602B080BDC046A2
:102670002D26000080B584B000AF78607B681B68B1
:10268000FB60FB681B681B01DB0FDBB21A000B232E
:10269000FB18511E8A411A700823FB187A68528B66
:1026A0001A807B689B8B9AB20823FB180821791843
:1026B00009888A1A1A807B689B8B9BB2013B9AB26D
:1026C0007B689A830B23FB181B78002B10D07B6848
:1026D000DB7A002B1CD07B689B8B9BB2012B17D124
:1026E000FB685B688022D2021A43FB685A600FE0E5
:1026F0007B68DB7A002B0BD07B689B8B9BB2002B1B
:1027000006D1FB685B688022D2021A43FB685A60DC
:102710007B689B8B9BB2002B0ED17B689B7A002B36
:102720000AD07B6818000E4B9847FB685B68C02294
:1027300092021A43FB685A607B681800084B98475E
:102740007B681A6A0823FB181B88D318FA682821AB
:10275000525CD2B21A70C046BD4604B080BDC046BD
:102760005126000080B584B000AF78607B681B689C
:10277000FB60FB685B8B9BB21A000423134004D000
:102780007B6825221E21995424E00A23FB187A68CD
:10279000528B1A807B689B8B9AB20A23FB180A2102
:1027A000791809888A1A1A807B689B8B9BB2013B37
:1027B0009AB27B689A837B681800084B98477B68BD
:1027C0001A6A0A23FB181B88D3181B78D9B2FB6836
:1027D00028229954BD4604B080BDC0465126000051
:1027E00080B584B000AF78607B681B68FB60FB68D5
:1027F0001B7EDBB21A00012313402BD0FB680122A1
:102800001A76FB685B8B9BB21A000223134004D03C
:102810007B682522412199541CE0FB685B8B9BB2AD
:102820001A000423134015D07B68252218219954DF
:102830007B6800229A837B689B7A002B0AD07B6896
:102840001800134B9847FB685B68C02292021A433A
:10285000FB685A607B689B8B9AB27B685A837B6863
:1028600025229B5CDBB2052B0ED17B6824229B5C6E
:10287000DBB2002B04D17B681800064B984703E0BD
:102880007B681800044B9847C046BD4604B080BD25
:1028900051260000652700007526000080B586B02F
:1028A00000AF0200FB1D1A70FB1D1A78934B9200BB
:1028B000D3587B617B691B683B613B691B681B01CB
:1028C000DB0FDBB21A000F23FB18511E8A411A706E
:1028D0000E23FB187A69527E1A707B691B7EDAB26E
:1028E0000E23FB180E21791809780A401A707B69AB
:1028F0005B8B9BB2002B09D17B699B8B9BB2002B1E
:1029000004D07B6918007E4B984770E07B695B8B35
:102910009BB2002B39D07B699B8B9BB2002B34D1AF
:102920007B6925229B5CDBB2052B2ED17B6924229F
:102930009B5CDBB2002B28D13B6903221A757B69B3
:1029400000225A837B692522002199547B699B7A56
:10295000002B0BD07B6918006A4B98473B695B687A
:10296000C02292021A433B695A6002E03B6901228D
:102970001A760E23FB181B780122134037D07B698F
:10298000DB687A691000984731E07B695B8B9BB20A
:10299000002B2CD07B699B8B9BB2002B27D03B69F3
:1029A0005B8B9BB21A002023134011D10F23FB181D
:1029B0001B7801225340DBB2002B04D17B699B8B37
:1029C0009BB2012B04D07B692522412199540EE052
:1029D0007B6924229B5CDBB2002B04D17B6918004D
:1029E000494B984703E07B691800484B98477B693F
:1029F0005B8B9BB2002B47D07B699B8B9BB2002BE0
:102A000042D17B6925229B5CDBB2052B3CD17B69E3
:102A100024229B5CDBB2012B36D13B691B7EDBB2EF
:102A20001A000223134002D03B6902221A763B6946
:102A300003221A757B6900225A837B6925220021B3
:102A400099540E23FB181B78022213400BD07B698C
:102A500024229B5CDBB2012B05D17B691B697A695F
:102A60001000984710E00E23FB181B78012213403A
:102A70000AD07B6924229B5CDBB2002B04D17B69EA
:102A8000DB687A69100098477B6925229B5CDBB282
:102A9000052B2ED07B6925229B5CDBB2002B28D036
:102AA0003B6903221A757B6900225A837B690022E5
:102AB0009A837B6925229B5CDBB2412B0ED07B691C
:102AC0009B7A002B0AD07B6918000E4B98473B6914
:102AD0005B68E022D2021A433B695A600E23FB185E
:102AE0001B780422134004D07B695B697A6910006B
:102AF0009847C046BD4606B080BDC046D8030020FA
:102B0000E12700005126000065270000752600001F
:102B100080B584B000AF0200FB1D1A700F23FB18B4
:102B2000FA1D1278D2091A700E23FB18FA1D1278BA
:102B300052091A700D4BBB600F23FB181B78002B3A
:102B40000FD10F23FB181B789B0010229446BC4426
:102B50006344083B1A680E23FB181B78DB01D3186B
:102B600000E000231800BD4604B080BD00440041D1
:102B700080B582B000AF0200FB1D1A70FB1D1B78F0
:102B8000002B02D0012B07D00DE0084B074A126C36
:102B900002210A431A6406E0044B044A126C042121
:102BA0000A431A64C046BD4602B080BD000800401A
:102BB00080B582B000AF0200FB1D1A70064BFA1DF3
:102BC000127811001F220A40012191400A001A6068
:102BD000C046BD4602B080BD00E100E080B582B0D5
:102BE00000AF0200FB1D1A70074AFB1D1B7819007D
:102BF0001F230B40012199400B0019008023D15065
:102C0000C046BD4602B080BD00E100E080B584B0A2
:102C100000AF78607B681B68FB60FB685B7EDBB2A3
:102C20005BB2002B01DA012300E000231800BD464F
:102C300004B080BD80B586B000AF78607B681B684B
:102C40003B613B691B7EDBB2FB6000237B61FB6861
:102C50000122134003D07B69012213437B61FB688F
:102C60000422134003D07B69022213437B61FB687B
:102C70000222134003D07B69042213437B617B69EA
:102C80001800BD4606B080BD80B584B000AF786046
:102C900039607B681B68BB600023FB603B680122D6
:102CA000134003D0FB6801221343FB603B68022200
:102CB000134003D0FB6804221343FB603B680422EB
:102CC000134003D0FB6802221343FB60FB68DAB2B7
:102CD000BB681A76C046BD4604B080BD80B584B0DE
:102CE00000AF78607B681B68FB60C0467B6818009B
:102CF000104B9847031EF9D117200F4B9847FB68DC
:102D00000F229A75FB680F221A76FB681B78DBB2DC
:102D100002221343DAB2FB681A70C0467B681800BF
:102D2000044B9847031EF9D100231800BD4604B098
:102D300080BDC0460D2C0000B12B000080B584B0D2
:102D400000AF78607B681B68FB601720114B9847C9
:102D5000C0467B681800104B9847031EF9D1FB68EA
:102D60000F229A75FB680F221A76FB681B78DBB27C
:102D700002229343DAB2FB681A70C0467B681800DF
:102D8000054B9847031EF9D100231800BD4604B037
:102D900080BDC046DD2B00000D2C000080B584B046
:102DA00000AF78607B681B68FB60C0467B681800DA
:102DB0000B4B9847031EF9D1FB681B7BDBB2022249
:102DC0001343DAB2FB681A73C0467B681800044BE1
:102DD0009847031EF9D1C046BD4604B080BDC04629
:102DE0000D2C000080B584B000AF786039607B683E
:102DF0001800184B984702000123134001D1052306
:102E000023E07B681B68FB60C0467B681800124BA0
:102E10009847031EF9D1FB685B8B9AB23B681A8016
:102E20007B68012118000D4B98477B681800094BFF
:102E3000984702000423134006D07B680421180041
:102E4000064B98471E2300E000231800BD4604B03F
:102E500080BDC046352C00000D2C0000892C0000E0
:102E600080B582B000AF0200FB1D1A70FB1D1B78FD
:102E70001800034B984703001800BD4602B080BD00
:102E8000112B000080B584B000AF0200FB1D1A704A
:102E9000FB1D1B7818000B4B98470300FB60FB1DC4
:102EA0001B781F22134001229A401300BB60FB686D
:102EB0001B69BA6813405A1E9341DBB21800BD4625
:102EC00004B080BD612E000080B584B000AF020068
:102ED000FB1D1A70BB1D0A1C1A70FB1D1B78180005
:102EE0000D4B98470300FB60FB1D1B781F2213400E
:102EF00001229A401300BB60BB1D1B78002B03D03E
:102F0000FB68BA689A6102E0FB68BA685A61C04619
:102F1000BD4604B080BDC046612E0000F0B5DE465F
:102F200057464E464546E0B583B000AF4F4B1A6852
:102F30004F4B19684F4B1B687B604F4B18683860CC
:102F40004E4B1C68A3464E4B1C68A2464D4B1C685A
:102F5000A1464D4B1C68A0464C4B1C68A4464C4BEC
:102F60001E684C4B1D684C4B1C684C4B18684C4BF6
:102F70001A604B4A4B4B5360494A4B4B9360484B4A
:102F8000D960474B474A1A61454B484A5A61444BFE
:102F90007A689A61424B434ADA61414B444A1A6269
:102FA0003F4B3A685A623E4B424A9A623C4B424A15
:102FB000DA623B4B5A461A63394B3E4A5A63384BE6
:102FC0003E4A9A63364B5246DA63354B394A1A64A5
:102FD000334B3B4A5A64324B4A469A64304B314A2F
:102FE000DA642F4B374A1A652D4B42465A652C4BF3
:102FF0002C4A9A652A4B344ADA65294B62461A668E
:10300000274B324A5A66264B314A9A66244BDE6673
:10301000234B244A1A67224B2E4A5A67204B9D673E
:103020001F4B204ADA671E4B80212B4A5A501C4BFB
:1030300084229C501A4B88211E4A5A50184B8C21CE
:10304000264A5A50164B90229850154B9421154AF7
:103050005A50134B9821224A5A50C046BD4603B0DD
:103060003CBC90469946A246AB46F0BD000000200D
:1030700004000020080000200C00002010000020A8
:1030800014000020180000201C0000202000002058
:10309000280000202C0000203000002034000020F8
:1030A000F8020020F0BC0000F4BC00000CBD0000E1
:1030B00034BD00005CBD000070BD000094BD000088
:1030C000B8BD0000E4BD0000FCBD000014BE00005F
:1030D00038BE000058BE000074BE000094BE000060
:1030E000B8BE000080B500AF034B1800034B9847F3
:1030F000C046BD4680BDC0466C0400203D2D00008A
:1031000080B58CB000AF3B0018000E4B98473B00D9
:1031100001221A703B0002225A703B00802292006A
:103120005A803B0000221A713A000749074B1800E9
:10313000074B9847054B1800064B9847C046BD46BD
:103140000CB080BD19110000004000426C0400204A
:1031500069170000DD2C000080B59CB000AF7860DE
:10316000C54A7B6811001800C44B98470300FB66F2
:10317000C34B1B68FA6E11001800C24B9847031E20
:1031800002D1C14B98474CE2C04B1B68FA6E11004C
:103190001800BC4B9847031E02D1BD4B984740E234
:1031A000BC4B1B68FA6E11001800B64B9847031E03
:1031B00002D1B94B984734E2B84B1B68FA6E110044
:1031C0001800B04B9847031E46D1AB4B19000020A6
:1031D000AA4B98470300BB66A74B19000020A74BDA
:1031E000984703007B66BB6E002B02D07B6E002BE2
:1031F00004D1AB4B1800AB4B984712E2BB6E3B6659
:103200007B6E1800A84B98470300FB65A74A3B6EEE
:10321000110018009B4B9847031E0BD0A44A3B6E2D
:1032200011001800974B9847031E03D0A14B1800BC
:103230009C4B9847FB6D002B06DCFB6D202B03DDC0
:103240009D4B1800974B98473B6E1B78FA6D110009
:1032500018009A4B9847E4E1994B1B68FA6E1100ED
:103260001800884B9847031E46D1834B1900002055
:10327000824B98470300BB657F4B190000207F4BB2
:10328000984703007B65BB6D002B02D07B6D002B44
:1032900004D1834B1800834B9847C2E1BB6D3B655B
:1032A0007B6D1800804B98470300FB647F4A3B6DA1
:1032B00011001800734B9847031E0BD07C4A3B6DDE
:1032C000110018006F4B9847031E03D0794B18006C
:1032D000744B9847FB6C002B06DCFB6C202B03DD4A
:1032E000754B18006F4B98473B6D1B78FA6C1100BB
:1032F0001800744B984794E1734B1B68FA6E1100E9
:103300001800604B9847031E46D15B4B1900002004
:103310005A4B98470300BB64574B19000020574B8A
:10332000984703007B64BB6C002B02D07B6C002BA6
:1033300004D15B4B18005B4B984772E1BB6C3B645C
:103340007B6C1800584B98470300FB63574A3B6C53
:10335000110018004B4B9847031E0BD0544A3B6C8E
:1033600011001800474B9847031E03D0514B18001B
:103370004C4B9847FB6B002B06DCFB6B202B03DDD3
:103380004D4B1800474B98473B6C1B78FA6B11006C
:1033900018004E4B984744E14D4B1B68FA6E1100E4
:1033A0001800384B9847031E02D14A4B984738E122
:1033B000494B1B68FA6E11001800324B9847031EE8
:1033C00002D1464B98472CE1454B1B68FA6E110021
:1033D00018002C4B9847031E2BD1274B19000020B7
:1033E000264B98470300BB63234B19000020234B57
:1033F000984703007B63BB6B002B02D07B6B002BD9
:1034000004D1274B1800274B98470AE1BB6B1800E3
:10341000254B984703003B637B6B1800224B984772
:103420000300FB62FA6A3B6B110018002D4B9847B2
:10343000F7E02D4B1B68FA6E11001800114B9847EE
:10344000031E66D10C4B190000200C4B984703005B
:10345000BB62094B19000020084B984703007B62B0
:10346000BB6A002B02D07B6A002B3FD10C4B1800AB
:103470000C4B9847D5E0C04600BF0000419F0000BC
:10348000000000202D9F0000813600000400002075
:10349000F9360000080000201D3700000C00002055
:1034A00004BF0000799D00000D9C000028BF0000B3
:1034B0002CBF000030BF000054BF000041370000A7
:1034C000100000208137000014000020C1370000E8
:1034D00018000020553800001C0000208138000032
:1034E00020000020AD38000024000020BB6A180036
:1034F0004D4B984703003B627B6A18004A4B984744
:103500000300FB61FA693B6A11001800474B9847BA
:1035100087E0474B1B68FA6E11001800454B98472F
:10352000031E46D1444B19000020444B984703002A
:10353000BB61414B19000020404B984703007B6161
:10354000BB69002B02D07B69002B04D13C4B1800D7
:103550003C4B984765E0BB693B617B691800324B87
:1035600098470300FB60384A3B6911001800314B53
:103570009847031E0BD0354A3B69110018002D4BAC
:103580009847031E03D0324B18002E4B9847FB6818
:10359000002B06DCFB68202B03DD2E4B1800294B8B
:1035A00098473B69DBB2FA68110018002A4B98472C
:1035B00037E02A4B1B68FA6E110018001D4B984724
:1035C000031E02D1264B98472BE0264B1B68FA6E50
:1035D00011001800174B9847031E02D1224B984741
:1035E0001FE0224B1B68FA6E11001800114B984720
:1035F000031E04D1222142201D4B984711E01D4B90
:103600001B68FA6E110018000A4B9847031E04D17C
:1036100022214220184B984703E0184B1800094B11
:103620009847BD461CB080BD0D9C0000713B00005A
:10363000300000202D9F000000BF0000419F0000CF
:1036400004BF0000799D000028BF00002CBF0000CF
:1036500030BF000054BF0000953B00003400002044
:10366000FD3B000038000020713C000028000020D5
:10367000413700002C000020813700007CBF000093
:10368000B0B582B000AF174B1800174B9847002316
:103690007B6020E015497A6813005B009B189B0053
:1036A0005C5812497A6813005B009B189B00CB188A
:1036B00004331D680D497A6813005B009B189B005A
:1036C000CB1808331B680A482A002100094CA04780
:1036D0007B6801337B607B680C2BDBDDC046BD461D
:1036E00002B0B0BDBCBF0000799D0000F802002010
:1036F000CCBF0000859C000080B500AF044A054B9C
:1037000011001800044B9847C046BD4680BDC04616
:10371000DCBF0000E4BF0000859C000080B500AF66
:10372000044A054B11001800044B9847C046BD469B
:1037300080BDC046DCBF000000C00000859C0000CA
:1037400080B584B000AF02003960FB1D1A700F23F2
:10375000FB1822221A700E23FB1801221A700E2366
:10376000FB181A780F23FB181B7811001800034B65
:103770009847C046BD4604B080BDC046C92E000073
:1037800080B584B000AF02003960FB1D1A700F23B2
:10379000FB1822221A700E23FB1800221A700E2327
:1037A000FB181A780F23FB181B7811001800034B25
:1037B0009847C046BD4604B080BDC046C92E000033
:1037C00090B585B000AF02003960FB1D1A700E2362
:1037D000FB1822221A70FB1D1B781A00194B9A4203
:1037E0000DD13B68022B0AD10F23FC180E23FB18C6
:1037F0001B781800144B98470300237016E0FB1D3C
:103800001B781A000F4B9A4210D13B68032B0DD145
:103810000D23FB1823221A700F23FC180D23FB180D
:103820001B781800084B9847030023700F23FB18E0
:103830001A78064B11001800054B9847C046BD4644
:1038400005B090BD2CBF0000852E00001CC00000FC
:10385000859C000080B582B000AF064B7B607A6823
:10386000054B11001800054B9847C046BD4602B0F5
:1038700080BDC04634C0000048C00000859C0000E8
:1038800080B582B000AF064B7B607A68054B1100B3
:103890001800054B9847C046BD4602B080BDC046E3
:1038A0005CC000006CC00000859C0000F0B58DB0CD
:1038B00004AF786039600023FB6137E1A04B6822D8
:1038C0001A809F4B01225A809E4B6B221A709C4B90
:1038D0009C4A5A609C4B68221A801B23FC18984A09
:1038E0009A4B110018009A4B9847030023701B2332
:1038F000FB181B78002B09D11B23FC18924A934B11
:1039000011001800934B9847030023708F4B180049
:10391000914B98478C4B5B6800221A70884B682249
:103920001A80874B02225A80864B6B221A70864B74
:103930005B681A78834B5A70814B824A5A60824B7B
:1039400068221A801B23FC187D4A804B1100180046
:103950007F4B9847030023707C4B18007E4B9847A1
:10396000774B68221A80764B01225A80754B6B2266
:103970001A70734B734A5A60734B68221A801B2368
:10398000FC186F4A714B11001800714B98470300E7
:1039900023701B23FB181B78002B09D11B23FC1859
:1039A000694A6A4B110018006A4B9847030023705C
:1039B000664B1800684B9847614B68221A80604B31
:1039C00001225A805F4B3B221A705D4B5D4A5A6060
:1039D0005D4B68221A801B23FC18594A5B4B11006F
:1039E00018005B4B9847030023701B23FB181B78C0
:1039F000002B09D11B23FC18534A544B110018000B
:103A0000544B9847030023704F4B5B681B781B0295
:103A100019B24D4B5B6801331B781AB21823FB189F
:103A20000A431A80484B5B6802331B781B0219B2A9
:103A3000454B5B6803331B781AB21623FB180A4305
:103A40001A80414B5B6804331B781B0219B23E4B52
:103A50005B6805331B781AB21423FB180A431A80DB
:103A6000394B5B6808331B781B0219B2364B5B6815
:103A700009331B781AB21223FB180A431A80324BFF
:103A80005B680A331B781B0219B22F4B5B680B3340
:103A90001B781AB21023FB180A431A802A4B5B6862
:103AA0000C331B781B0219B2274B5B680D331B7854
:103AB0001AB20E23FB180A431A80FA69274B110029
:103AC0001800274B98471823FB1800241C5F162367
:103AD000FB1800255D5F1423FB1800269E5F122350
:103AE000FB1800229B5E1022BA180021525E0E21A4
:103AF00079180020095E1B4802910192009333005F
:103B00002A002100164CA047104B1800124B984772
:103B10003B68002B04D03B681800134B984702E029
:103B20000120124B9847FB690133FB61FA697B68FE
:103B30009A4200DAC2E6C046BD4609B0F0BDC046B2
:103B4000440000203C000020500000200804002019
:103B5000BD25000005240000FD25000080C00000F8
:103B6000859C000094C00000C13D0000913D000014
:103B700080B582B000AF78603960044B1800044B08
:103B80009847C046BD4602B080BDC046CCC00000CC
:103B9000799D000080B584B000AF02003960FB1D44
:103BA0001A700F4B98470F4B98470F4B18000F4B4D
:103BB00098470E23FA180C4B110018000C4B98472D
:103BC0000300052BF5D00E23FB181B881A00094BA8
:103BD00011001800084B9847C046BD4604B080BD90
:103BE000E5300000013100006C0400209D2D000034
:103BF000E52D0000DCC00000859C000080B582B08F
:103C000000AF124B98470020114B9847114B984733
:103C1000114B1800114B9847BA1C0F4B110018009C
:103C20000F4B98470300052BF6D0BB1C1B881800D0
:103C30000C4B984703007B607A680B4B110018000F
:103C40000A4B9847C046BD4602B080BDE530000033
:103C5000712B0000C90100006C0400209D2D0000A4
:103C6000E52D000035020000F0C00000859C00003A
:103C700090B583B000AFFB1D00221A702AE0FB1D37
:103C80001B789AB2184B1A80174B01225A80174B97
:103C900000221A70144B154A5A60BC1D124A144B6C
:103CA00011001800134B984703002370BB1D1B78AD
:103CB000002B06D1FB1D1A780F4B110018000F4B7B
:103CC00098470B4B18000E4B9847FB1D1A78FB1DAD
:103CD00001321A70FB1D1B785BB2002BCFDAC04695
:103CE000BD4603B090BDC046440000203C0000200B
:103CF00008040020BD2500000CC10000859C0000C8
:103D0000FD25000080B582B000AF78607B68002B95
:103D10000CD0084B7A685A60064B00229A60C04665
:103D2000044B1A6880235B021340F9D0C046BD469D
:103D300002B080BD10E000E080B500AF00200F4B66
:103D4000984702000E4B1A600D4B18680D4BFA2273
:103D50009100984703001A00094B1A60084B186835
:103D6000084BFA229100984703001A00064B1A608C
:103D7000064B05221A60C046BD4680BD896F000013
:103D80005C000020058000006000002010E000E0E2
:103D900080B582B000AF786004E0074B1B68180064
:103DA000064B98477B685A1E7A60002BF5D1C046B7
:103DB000BD4602B080BDC04660000020053D000049
:103DC00080B582B000AF786004E0074B1B68180034
:103DD000064B98477B685A1E7A60002BF5D1C04687
:103DE000BD4602B080BDC0465C000020053D00001D
:103DF00080B584B000AF0200FB1D1A700F23FB18C2
:103E0000FA1D1278D2091A700E23FB18FA1D1278C7
:103E100052091A700D4BBB600F23FB181B78002B47
:103E20000FD10F23FB181B789B0010229446BC4433
:103E30006344083B1A680E23FB181B78DB01D31878
:103E400000E000231800BD4604B080BD00440041DE
:103E500080B500AF044B01221A70BFF35F8F62B6CA
:103E6000C046BD4680BDC0466400002080B582B01B
:103E700000AF0200FB1D1A70FB1D1B781800034BDE
:103E8000984703001800BD4602B080BDF13D000018
:103E900080B582B000AF78607B6800221A707B68C2
:103EA00001225A707B6800229A70C046BD4602B05B
:103EB00080BD000080B584B000AF0200FB1D1A7009
:103EC000BB1D0A1C1A70FB1D1B7818000D4B984770
:103ED0000300FB60FB1D1B781F22134001229A4048
:103EE0001300BB60BB1D1B78002B03D0FB68BA68B6
:103EF0009A6102E0FB68BA685A61C046BD4604B0E8
:103F000080BDC0466D3E000080B582B000AF3B1D55
:103F10001800104B98473B1D01221A703B1D1900D9
:103F20001B200D4B98473B1D19001C200A4B98473E
:103F30003B1D19002820084B984700211C20074BE7
:103F4000984700211B20054B9847C046BD4602B04C
:103F500080BDC046913E000085450000B53E000092
:103F600080B500AF0C4B00221A600C4B98470C4BED
:103F70001B680122134004D0094B1B680222134026
:103F800001D1084B9847084B9847084B98470023A6
:103F90001800BD4680BDC04668020020093F0000F1
:103FA00010E000E0393D0000B13F0000513E00004C
:103FB00080B500AF00211C200B4B984700211B202F
:103FC000094B98470120094B984701211C20064BBB
:103FD00098470A20054B984701211B20024B984720
:103FE000C046BD4680BDC046B53E0000F13F000062
:103FF00080B582B000AF786002E00120054B9847A1
:104000007B685A1E7A60002BF7D1C046BD4602B0CD
:1040100080BDC046C13D000080B582B000AF104BEE
:104020001B68002B12D1EFF310837B607B68002BA1
:1040300009D172B6BFF35F8F0A4B00221A700A4B88
:1040400001221A7002E0084B00221A70044B1B6810
:104050005A1C034B1A60C046BD4602B080BDC04624
:104060006C020020640000207002002080B500AFC8
:104070000B4B1B685A1E0A4B1A60094B1B68002B1E
:104080000AD1084B1B78DBB2002B05D0064B01226E
:104090001A70BFF35F8F62B6C046BD4680BDC04692
:1040A0006C020020700200206400002080B584B003
:1040B00000AF0200FB1D1A700F23FB18FA1D1278C7
:1040C000D2091A700E23FB18FA1D127852091A70C1
:1040D0000D4BBB600F23FB181B78002B0FD10F2358
:1040E000FB181B789B0010229446BC446344083B99
:1040F0001A680E23FB181B78DB01D31800E000239D
:104100001800BD4604B080BD0044004180B582B0B7
:1041100000AF0200FB1D1A70FB1D1B781800034B3B
:10412000984703001800BD4602B080BDAD400000B6
:1041300080B582B000AF78607B6800221A707B681F
:1041400001225A707B6800229A70C046BD4602B0B8
:1041500080BD000080B584B000AF0200FB1D1A7066
:10416000BB1D0A1C1A70FB1D1B7818000D4B9847CD
:104170000300FB60FB1D1B781F22134001229A40A5
:104180001300BB60BB1D1B78002B03D0FB68BA6813
:104190009A6102E0FB68BA685A61C046BD4604B045
:1041A00080BDC0460D41000080B582B000AF3B1D10
:1041B00018000E4B98473B1D01221A703B1D190039
:1041C00017200B4B9847012117200A4B98473B1D9E
:1041D00000221A703B1D01225A703B1D1900372026
:1041E000034B9847C046BD4602B080BD3141000038
:1041F000854500005541000080B584B000AF020045
:10420000FB1D1A700F23FB18FA1D127852091A7041
:104210000F23FB181B78002B0CD1094BBB600F231D
:10422000FB181B789B0010229446BC446344083B57
:104230001B6800E000231800BD4604B080BDC046E6
:104240000018004080B584B000AF0200FB1D1A705A
:10425000FB1D1B7818000B4B98470300FB60FB1DF0
:104260001B781F22134001229A401300BB60FB6899
:104270001B69BA6813405A1E9341DBB21800BD4651
:1042800004B080BDF941000080B584B000AF0200E9
:10429000FB1D1A70FB1D1B781800094B9847030083
:1042A000FB60FB1D1B781F22134001229A40130064
:1042B000BB60FB68BA681A61C046BD4604B080BDE9
:1042C000F941000080B500AF154B00221A7020E0C4
:1042D000134B1B781800134B9847031E13D0104B39
:1042E0001B781800104B98470D4B1B781A000F4B8A
:1042F0009200D358002B06D0094B1B781A000B4BA9
:104300009200D3589847064B1B780133DAB2044B1E
:104310001A70034B1B780F2BDAD9C046BD4680BDFF
:1043200094030020454200008942000098030020C9
:1043300080B582B000AF78607B6800221A70C046FA
:10434000BD4602B080BD000080B582B000AF020063
:104350003960FB1D1A70FB1D1B78012B0AD0022B44
:104360000FD0002B14D10E4B0D4A91693A680A43C5
:104370009A610FE00A4B0A4AD1693A680A43DA6146
:1043800008E0074B064A116A3A680A431A6201E0DC
:10439000172300E000231800BD4602B080BDC046D0
:1043A0000004004080B582B000AF0200FB1D1A700F
:1043B000064BFA1D127811001F220A40012191407C
:1043C0000A001A60C046BD4602B080BD00E100E0B0
:1043D00080B582B000AF0F4B3B6000237B6011E0E3
:1043E0007B689B0008229446BC446344083B1B68DE
:1043F0005B78DBB25BB2002B01DA012306E07B685D
:1044000001337B607B68002BEAD000231800BD4697
:1044100002B080BD0018004080B584B000AF2D4BC5
:104420007B60402100202C4B98473B0018002B4B11
:1044300098473B0000221A703B0019000520284BCA
:1044400098470520274B98470023FB6018E0FB683E
:104450009B0010229446BC4463440C3B1A68FB68E2
:104460009B0010218C46BC4463440C3B1B681B78AA
:10447000DBB201210B43DBB21370FB680133FB603D
:10448000FB68002BE3D0C046174B9847031EFBD1B7
:104490000B23FB1800221A700DE00B23FB181A786F
:1044A000124B92000021D1500B23FB181A780B23DA
:1044B000FB1801321A700B23FB181B780F2BECD959
:1044C00004200B4B98470B4B9847C046BD4604B0A1
:1044D00080BDC04600180040494300003143000041
:1044E00061700000A5700000D14300009803002017
:1044F000A5430000F944000080B582B000AF154B21
:104500003B6000237B6018E07B689B000822944698
:10451000BC446344083B1A687B689B0008218C46B6
:10452000BC446344083B1B681B78DBB202210B438D
:10453000DBB213707B6801337B607B68002BE3D0B8
:10454000C046054B9847031EFBD1C046BD4602B08E
:1045500080BDC04600180040D143000080B582B045
:1045600000AF78607B6880221A707B6800225A70E6
:104570007B6801229A707B680022DA70C046BD46D3
:1045800002B080BD80B584B000AF02003960FB1D71
:104590001A700C23FB181800104B98470C23FB18BB
:1045A00080221A703B681A780C23FB185A703B68FB
:1045B0005A780C23FB189A703B689A780C23FB18E6
:1045C000DA700C23FA18FB1D1B7811001800044B3D
:1045D0009847C046BD4604B080BDC0465D4500005A
:1045E0004D73000080B582B000AF78607B68002218
:1045F0001A70C046BD4602B080BDF0B58DB000AFA8
:10460000B860F9603A607B60002300243B627C6202
:1046100000230024BB61FC613F23FB6253E0FB6A83
:10462000203B002B04DB01229A4013007B610BE04E
:10463000FB6A2022D31A0122DA4013000021FA6A11
:1046400091400A0013437B610122FB6A9A401300E8
:104650003B61BB69FC69DB186441BB61FC61BB6801
:104660003A691A401500FB687A691A4016002B0057
:10467000334307D0BB6901221343BB61FB690022AE
:104680001343FB617A68FB699A4219D87A68FB691F
:104690009A4203D13A68BB699A4211D8B969FA695A
:1046A0003B687C68C91AA2410B001400BB61FC6125
:1046B0003A6A3B6913433B627A6A7B6913437B62C4
:1046C000FB6A013BFB62FB6A002BA8DA3B6A7C6A4F
:1046D00018002100BD460DB0F0BD80B586B000AF1A
:1046E000F860B9607A601623FB1800221A80BB6854
:1046F0003B61BB685A08FB689A4201D2402326E01E
:10470000BB685B083B610AE03A69FB68D31A3B610E
:104710001623FB181A881623FB1801321A803A69EF
:10472000FB689A42F0D21623FB181622BA18128898
:10473000013A1A801623FB181B88FF2B01D940234E
:1047400005E07B681622BA1812881A800023180028
:10475000BD4606B080BD0000F0B5A1B000AFF86462
:10476000B9647A644322BA181370002300243B67AB
:104770007C6700230024BB66FC6600230024BB6723
:10478000FC6700237B66582340229446BC44634464
:104790001A78FB6C5A43BB6C9A4201D94023B3E0B0
:1047A0004323FB181B78002B3DD15823402294460D
:1047B000BC4463441B78DBB23B6100237B61FB6C30
:1047C000BB600023FB60524CBA68FB6838697969AA
:1047D000A04703000C001B00FB650023BB65BB6CFE
:1047E0003B6000237B60B86DF96D3A687B68494C8B
:1047F000A04703000C003B677C67002101223B6F50
:104800007C6FC91AA2410B001400BB66FC66BB6E2C
:104810001B0CFA6E16041E43BB6E1D043300BB67EF
:104820000023FB676AE04323FB181B78012B65D14B
:10483000FB6C3B6300237B63582340229446BC44BB
:1048400063441B78DBB2BB620023FB62304CBA6A64
:10485000FB6A386B796BA04703000C00BB65FC65F5
:10486000BB6C3B6200237B62BB6DFC6D1A002300B6
:10487000386A796A274CA04703000C007B667A6E81
:1048800080239B019A4201D940233DE0BB6CBB6170
:104890000023FB61B969FA690B005B0F1000C000CF
:1048A000F863F86B1843F8630B00DB00BB63BB6D68
:1048B000FC6D1A002300B86BF96B164CA04703007F
:1048C0000C00BB65FC65BB6DFC6DD9B27B6EDBB2C9
:1048D000DB00DAB2172340208446BC4463448A1AC2
:1048E0001A70172340229446BC4463441B785B0330
:1048F0001A007B6E1343BB670023FB67BB6FFC6F23
:104900009AB27B6C1A8000231800BD4621B0F0BD1E
:10491000F1820000FB45000080B584B000AF0200CA
:10492000FB1D1A70BB1D0A1C1A701A4B1B78012242
:104930005340DBB2002B03D1BB1D1B78002B1BD0D7
:104940000C23FB181800144B98470C23FB18FA1D76
:1049500012781A700C23FB18190013200F4B98477C
:1049600013200F4B98470B4BFA1D12785A70094BC6
:1049700001221A70002308E0064B5B78FA1D1278BA
:104980009A4201D1002300E01D231800BD4604B067
:1049900080BDC04674020020E54500006170000043
:1049A000A570000080B582B000AF78600A00FB1CE3
:1049B0001A707B684D4A93423FD04C4A934206D8C6
:1049C0004B4A93420FD04B4A934221D089E04A4A46
:1049D000934200D15BE0494A934200D16CE0484ADF
:1049E00093423FD07DE0FB1C1B78012B0AD002DCF8
:1049F000002B05D075E0022B06D0032B06D070E00B
:104A0000404B6FE0404B6DE0404B6BE0404B69E04A
:104A1000FB1C1B78012B0AD002DC002B05D060E0C8
:104A2000022B06D0032B06D05BE003235AE0394B60
:104A300058E0394B56E0394B54E0FB1C1B78012BF6
:104A40000AD002DC002B05D04BE0022B06D0032B52
:104A500006D046E0324B45E0324B43E0324B41E07A
:104A6000324B3FE0FB1C1B78012B0AD002DC002BF1
:104A700005D036E0022B06D0032B06D031E02C4BBC
:104A800030E02C4B2EE02C4B2CE02C4B2AE0FB1C76
:104A90001B78012B0AD002DC002B05D021E0022B71
:104AA00006D0032B06D01CE0254B1BE0254B19E05C
:104AB000254B17E0254B15E0FB1C1B78012B0AD07A
:104AC00002DC002B05D00CE0022B06D0032B06D015
:104AD00007E01F4B06E01F4B04E01F4B02E01F4B9B
:104AE00000E000231800BD4602B080BD0010004267
:104AF00000080042000C004200180042001C004266
:104B00000014004203000400030005000300060037
:104B1000030007000300010003001E0003001F0044
:104B2000030008000300090003000A0003000B0053
:104B30000300100003001100030012000300130023
:104B400003000C0003000D0003000E0003000F0023
:104B500003001600030017000300180003001900EB
:104B600090B58BB000AF78600C23FB180F4A13CAC6
:104B700013C313CA13C300237B620EE00C23FB187C
:104B80007A6A9200D3581A007B689A4202D17B6AF3
:104B9000DBB206E07B6A01337B627B6A052BEDD9D1
:104BA00000231800BD460BB090BDC0462CC10000CC
:104BB00080B582B000AF0200FB1D1A70C046BD4632
:104BC00002B080BD80B584B000AF02003960FB1D2B
:104BD0001A70134B1B7801225340DBB2002B15D007
:104BE0000023FB600CE00F4BFA6892000E49D15095
:104BF0000E4BFA6892000021D150FB680133FB6034
:104C0000FB68052BEFD9064B01221A70FB1D1A78A1
:104C1000044B92003968D150C046BD4604B080BDF7
:104C20007602002078020020B14B0000D80300205B
:104C300090B585B000AF78600823FB180B4A116867
:104C4000196092889A800F23FC187B681800084B23
:104C50009847030023700F23FB181B780822BA180B
:104C6000D35C5BB21800BD4605B090BD44C10000E6
:104C7000614B000080B500AF034B1B6800209847D4
:104C8000C046BD4680BDC0467802002080B500AF5A
:104C9000034B5B6801209847C046BD4680BDC046B7
:104CA0007802002080B500AF034B9B680220984734
:104CB000C046BD4680BDC0467802002080B500AF2A
:104CC000034BDB6803209847C046BD4680BDC04605
:104CD0007802002080B500AF034B1B690420984781
:104CE000C046BD4680BDC0467802002080B500AFFA
:104CF000034B5B6905209847C046BD4680BDC04652
:104D00007802002080B582B000AF78607B68802296
:104D10001A707B6800225A707B6801229A707B6847
:104D20000022DA70C046BD4602B080BD80B582B0B8
:104D300000AF78607B6800221A70C046BD4602B0A2
:104D400080BD000080B582B000AF02003960FB1D5D
:104D50001A70FB1D1B78012B0AD0022B0FD0002BE1
:104D600014D10E4B0D4A91693A680A439A610FE0DB
:104D70000A4B0A4AD1693A680A43DA6108E0074BEC
:104D8000064A116A3A680A431A6201E0172300E0F2
:104D900000231800BD4602B080BDC046000400409C
:104DA00080B500AF054B9B78DBB21A00022313409D
:104DB0005A1E9341DBB21800BD4680BD0020004161
:104DC00080B584B000AF78607B681B68FB60FB68CF
:104DD0001B7EDBB21A00022313405A1E9341DBB242
:104DE0001800BD4604B080BD80B584B000AF7860C7
:104DF0007B681B68FB60FB681B7EDBB21A0001232B
:104E000013405A1E9341DBB21800BD4604B080BD6A
:104E100080B584B000AF78607B681B68FB60FB687E
:104E20001B7EDBB21A00042313405A1E9341DBB2EF
:104E30001800BD4604B080BD80B584B000AF786076
:104E40000A00BB1C1A807B681B68FB607B6818002B
:104E50000A4B984703001A0001235340DBB2002B92
:104E600001D0052306E0BB1C1B88DB05DA0DFB68BF
:104E70009A6200231800BD4604B080BDE94D0000D1
:104E800080B584B000AF786039607B681B68BB6018
:104E90007B6818001B4B984703001A0001235340FE
:104EA000DBB2002B01D0102327E00F23FB180022D8
:104EB0001A70BB685B8B9BB21A000423134006D0A8
:104EC0000F23FB181E221A70BB6804225A837B68CA
:104ED0009B79012B08D1BB689B6A9BB2DB05DB0D7C
:104EE0009AB23B681A8005E0BB689B6ADBB29AB253
:104EF0003B681A800F23FB181B781800BD4604B0CE
:104F000080BDC046114E000090B593B000AF7860F0
:104F100039607B681B687B637B681B683B631C2371
:104F2000FB181800754B98471C23FB1800225A7079
:104F30003B681B78002B03D11C23FB1800229A70BE
:104F40003B689A6A0C23FB181A603B68DA6A0C23E8
:104F5000FB185A603B681A6B0C23FB189A603B687D
:104F60005A6B0C23FB18DA604723FB1800221A70D7
:104F70002CE04723FB181A780C23FB189200D35817
:104F80003B643B6C002B09D14723FB181A783B6B21
:104F9000110018005A4B984703003B643B6C0133E7
:104FA0000DD03B6CDAB21C23FB181A703B6C1B0C47
:104FB000DBB21C22BA1811001800524B9847472345
:104FC000FB181A784723FB1801321A704723FB1885
:104FD0001B78032BCDD93B681A787B685A713B68E4
:104FE0001A7C7B689A713B689A7C7B68DA713B68B3
:104FF0001A7D7B681A720A23FB1800221A8000238C
:10500000FB630023BB633B681B78012B29D17B68C2
:105010001B6818003C4B98470300FB62FB6A143383
:10502000BB62BB6ADBB21800384B984703007B6257
:105030003B689B692322BC180A22BA18796A1800B7
:10504000334B9847030023702323FB181B78002B56
:1050500001D017234EE00A23FB181B88DAB27B6BC2
:105060001A733B685B68FA6B1343FB633B689B688E
:10507000FA6B1343FB633B68DB68FA6B1343FB6318
:105080003B681B7C1A00BB6B1343BB633B685B7CB8
:10509000002B03D11F4B9847031E03D0FB6B8022CC
:1050A0001343FB633B689B7C002B04D0BB6B8022CB
:1050B00092021343BB633B68DB7C002B04D0BB6BC9
:1050C000802292001343BB633B681B7D002B04D0FE
:1050D000BB6B802292011343BB637B6B1A68FB6B33
:1050E0001A437B6B1A607B6B5A68BB6B1A437B6BF2
:1050F0005A6000231800BD4613B090BD054D000056
:10510000A54900004D730000614B0000857100004F
:10511000DB460000A14D000090B58BB000AFF860F9
:10512000B9607A60FB68BA681A60FB681B683B620A
:105130003B6A1B680222134001D01C239CE03B6A9F
:105140001B680122134001D0052395E0FB681B6812
:1051500018004B4B98470300FB61FB690233BB61AE
:10516000FB6914337B610122BB699A40130019006B
:105170000220444B98471023FB181800424B9847D5
:105180007B6824229A5C1023FB181A707B69DBB2BF
:105190001022BA18110018003C4B98477B69DBB20B
:1051A00018003B4B98477B6824229B5C0021180029
:1051B000384B98477B681B78012B05D13B6A1B68ED
:1051C0000C221A433B6A1A602723FB1800221A702C
:1051D00010E02723FB181B78FA6802339B00D318D2
:1051E000043300221A602723FB181A782723FB18A0
:1051F00001321A702723FB181B78062BE9D9FB68AC
:105200000022DA62FB6800229A62FB6800229A861A
:10521000FB6800221A86FB68362200219954FB683D
:10522000372200219954FB68382200219954FB68E9
:1052300003225A72FB6800221A71FB681B68132252
:10524000BC1818000E4B984703002370124A132312
:10525000FB181B7811001800104B98471323FB18FC
:105260001A780F4B9200F968D1507A68FB681100E8
:1052700018000C4B984703001800BD460BB090BDBA
:10528000614B0000454D00002D4D00006170000095
:10529000A57000001949000081560000C54B0000B0
:1052A000D8030020094F000090B587B000AFF86028
:1052B000B9601900BB1D1A803B1D0A1C1A80FB68CF
:1052C00038229B5CDBB2052B01D105237AE0BB1DA4
:1052D0001B88002B01D1172374E0FB68DB790122C6
:1052E0005340DBB2002B01D01C236BE01623FB18CC
:1052F00000221A805EE0FB685B79012B12D1C04668
:10530000FB681800314B984703001A0001235340F3
:10531000DBB2002BF4D13B1D1A88FB68110018008A
:105320002B4B9847C046FB6818002A4B9847030050
:105330001A0001235340DBB2002BF4D11223FB18D7
:1053400000221A801523FC181223FA18FB6811009A
:105350001800214B9847030023701523FB181B7876
:10536000002B03D01523FB181B782BE01623FB180A
:105370001B881622BA18591C11801A00BB689B188A
:105380001222BA181288D2B21A70FB689B79012BCC
:1053900010D11623FB181B881622BA18591C11802D
:1053A0001A00BB689B181222BA181288120A92B20D
:1053B000D2B21A70BB1D1B88BA1D591E1180002B5A
:1053C00099D100231800BD4607B090BDE94D0000FB
:1053D000394E0000114E0000814E000080B586B0AD
:1053E00000AFF860B960BB1D1A80FB6838229B5C77
:1053F000DBB2052B01D1052387E0BB1D1B88002BE9
:1054000001D1172381E01623FB1800221A801423F0
:10541000FB18BA1D12881A805FE0C046FB681800AE
:105420003C4B984703001A0001235340DBB2002B8A
:10543000F4D11623FB181B881622BA18591C1180A8
:105440001A00BB689B181A781223FB181A80FB6895
:105450009B79012B15D11623FB181B881622BA182D
:10546000591C11801A00BB689B181B781B021AB2CA
:105470001223FB1800215B5E13431AB21223FB18A0
:105480001A801223FB181A88FB6811001800224B9F
:105490009847FB68DB791422BA1814217918098817
:1054A0001180002B19D0C046FB6818001B4B984791
:1054B00003001A0001235340DBB2002BF4D1102368
:1054C000FA18FB6811001800154B98471423FB18B5
:1054D0001A881423FB18013A1A80BB1D1B88BA1DB9
:1054E000591E1180002B98D1FB685B79012B0BD1E1
:1054F000C046FB6818000B4B984703001A000123B5
:105500005340DBB2002BF4D100231800BD4606B097
:1055100080BDC046E94D0000394E0000114E00002C
:10552000814E0000C14D000080B584B000AF7860AE
:105530007B681B68BB607B68DB6A1B78DAB20E2372
:10554000FB181A807B68DB6A5A1C7B68DA627B680E
:105550009B79012B13D17B68DB6A1B78DBB21B02C2
:105560001AB20E23FB1800215B5E13431AB20E23FE
:10557000FB181A807B68DB6A5A1C7B68DA620E2390
:10558000FB181B88DB05DA0DBB689A627B689B8E73
:105590009BB2013B9AB27B689A86C046BD4604B076
:1055A00080BD000080B584B000AF78607B681B6868
:1055B000FB60084B1B881A00FB689A627B685B8E55
:1055C0009BB2013B9AB27B685A86C046BD4604B086
:1055D00080BDC046F003002080B584B000AF786085
:1055E0007B681B68FB600A23FB1800221A80FB689B
:1055F0009A6A0A23FB181A807B685B8E9BB2013B78
:105600009AB27B685A86C046BD4604B080BD80B55C
:1056100084B000AF78607B681B68FB60FB689B6AA6
:105620009AB20A23FB18D205D20D1A807B689B6AB6
:105630000A22BA181288D2B21A707B689B6A5A1C66
:105640007B689A627B689B79012B0DD17B689B6A92
:105650000A22BA181288120A92B2D2B21A707B6861
:105660009B6A5A1C7B689A627B681B8E9BB2013BCB
:105670009AB27B681A86C046BD4604B080BD000061
:1056800080B586B000AF0200FB1D1A70FB1D1A78B2
:10569000964B9200D3587B617B691B683B617B69A9
:1056A00037229A5C7B693621595C0F23FB180A402C
:1056B0001A703B691B7EDAB20C23FB181A803B6917
:1056C0009B7DDBB29AB20C23FB180C217918098858
:1056D0000A401A800C23FB181B880122134038D083
:1056E0007B695B79012B10D17B695B7ADBB2002B84
:1056F0000BD17B6918007E4B98477B695B8E9BB210
:10570000002B02D13B6901221A757B695B79012B61
:105710001FD17B695B7ADBB2002B1AD07B69180042
:10572000744B98477B699B8E9BB2002B11D13B69D0
:1057300001221A757B695B7ADBB2012B09D17B6987
:10574000DB7901225340DBB2002B02D03B690222FD
:105750009A750C23FB181B880422134000D17EE0AD
:105760003B695B8B9BB21A000423134022D07B69F8
:105770005B7ADBB2012B14D07B6938221E2199544D
:105780007B6903225A723B6905221A750F23FB18A5
:105790001B780822134004D07B699B697A6910004A
:1057A00098473B699A6A0A23FB181A803B690422CE
:1057B0005A8354E07B695B7ADBB2012B1ED17B6993
:1057C00018004D4B98477B695B8E9BB2002B46D1EE
:1057D0003B6904221A757B693822002199547B6940
:1057E00003225A720F23FB181B780122134036D074
:1057F0007B69DB687A691000984730E07B691800A4
:105800003E4B98477B691B8E9BB2002B27D17B694F
:105810003822002199543B6904221A757B695B7A0E
:10582000DBB2022B0BD10F23FB181B780422134091
:1058300015D07B695B697A69100098470FE07B6936
:105840005B7ADBB2002B0AD10F23FB181B780222F4
:10585000134004D07B691B697A69100098470C23B8
:10586000FB181B880222134024D07B695B79012B33
:1058700020D17B695B7ADBB2012B1BD17B69DB79A1
:1058800001225340DBB2002B14D03B6902221A756F
:105890007B6903225A727B693822002199540F23B5
:1058A000FB181B780122134004D07B69DB687A69FE
:1058B000100098470C23FB181B888022134010D03F
:1058C0003B6980221A753B6980221A760F23FB18E8
:1058D0001B784022134004D07B695B6A7A69100010
:1058E0009847C046BD4606B080BDC046D8030020DC
:1058F000A555000029550000D95500000F5600009D
:1059000080B582B000AF78607B6800221A70C04614
:10591000BD4602B080BD000080B582B000AF02007D
:105920003960FB1D1A70FB1D1B78012B0AD0022B5E
:105930000FD0002B14D10E4B0D4A91693A680A43DF
:105940009A610FE00A4B0A4AD1693A680A43DA6160
:1059500008E0074B064A116A3A680A431A6201E0F6
:10596000172300E000231800BD4602B080BDC046EA
:105970000004004080B582B000AF78607B68802270
:105980001A707B6800225A707B6801229A707B68CB
:105990000022DA70C046BD4602B080BD80B500AFBF
:1059A000054B9B78DBB21A00022313405A1E934129
:1059B000DBB21800BD4680BD0020004180B584B038
:1059C00000AF78607B681B68FB60FB68DB695A1E70
:1059D0009341DBB21800BD4604B080BD80B582B0F3
:1059E00000AF7860C0467B681800044B9847031EE0
:1059F000F9D1C046BD4602B080BDC046BD590000C9
:105A0000B0B58CB002AF786039607B681B68BB6151
:105A10007B681B681800AB4B984703007B617B6970
:105A200014333B6100237B6200233B620A23FB1893
:105A300000221A801F23FB1800221A701E23FB1855
:105A400010221A703B681B8A8022D20193421CD01C
:105A50008022D201934206DC002B0DD080229201DD
:105A6000934224D035E0C022D201934228D0802234
:105A70001202934212D02CE01F23FB1800221A704E
:105A80001E23FB1810221A7023E01F23FB1800228C
:105A90001A701E23FB1808221A701AE01F23FB1825
:105AA00000221A701E23FB1803221A7011E01F2314
:105AB000FB1801221A701E23FB1810221A7008E02E
:105AC0001F23FB1801221A701E23FB1808221A70CC
:105AD000C0463B681A683B68DB681A433B685B69F1
