S014000044726F6E6544414450726F6A2E73726563B4
S113000078240020395A0000315B0000315B000085
S113001000000000000000000000000000000000DC
S1130020000000000000000000000000315B000040
S11300300000000000000000315B0000315B0000A4
S1130040315B0000315B0000315B0000315B00007C
S113005025350000315B0000315B0000315B00009E
S1130060315B0000D53E0000ED3E0000053F00007E
S11300701D3F0000353F00004D3F0000315B000094
S1130080315B0000315B0000315B0000315B00003C
S1130090315B00000000000000000000750C00004F
S11300A0315B0000315B0000315B0000315B00001C
S11300B00000000010B5064C2378002B07D1054B37
S11300C0002B02D0044800E000BF0123237010BDC0
S11300D038020020000000008CA80000084B10B576
S11300E0002B03D00749084800E000BF0748036815
S11300F0002B00D110BD064B002BFBD09847F9E72D
S1130100000000003C0200208CA800008CA8000025
S11301100000000080B582B000AF0200FB1D1A7021
S1130120064BFA1D127811001F220A40012191404A
S11301300A001A60C046BD4602B080BD00E100E07E
S113014080B584B000AF78607B681B68FB60FB6897
S11301505B7EDBB25BB2002B01DA012300E00023FB
S11301601800BD4604B080BD80B584B000AF78608F
S11301707B681B68FB60C0467B681800104B98477F
S1130180031EF9D117200F4B9847FB680F229A756D
S1130190FB680F221A76FB681B78DBB2022213433A
S11301A0DAB2FB681A70C0467B681800044B9847A3
S11301B0031EF9D100231800BD4604B080BDC0461B
S11301C0410100001501000080B58CB000AF3B0078
S11301D01800134B98473B0001221A703B00802201
S11301E092005A803B0000225A703B0018221A7376
S11301F03B00C0225201DA813B000422DA753A0046
S11302000849094B1800094B9847064B22229A705B
S1130210054B1800064B9847C046BD460CB080BD40
S1130220690300000040004250040020B9090000A6
S11302306901000080B584B000AF78607B68FA2261
S113024092005A43054B0649100098470300FB608F
S1130250FB681800BD4604B080BDC046256500009B
S1130260E78F010080B582B000AF78607B68002220
S11302701A70C046BD4602B080BD000080B582B091
S113028000AF02003960FB1D1A70FB1D1B78012BA7
S11302900AD0022B0FD0002B14D10E4B0D4A9169BA
S11302A03A680A439A610FE00A4B0A4AD1693A68EC
S11302B00A43DA6108E0074B064A116A3A680A43BE
S11302C01A6201E0172300E000231800BD4602B0C3
S11302D080BDC0460004004080B582B000AF7860A5
S11302E07B6880221A707B6800225A707B68012226
S11302F09A707B680022DA70C046BD4602B080BDA9
S113030080B582B000AF0200FB1D1A70FB1D1B7884
S1130310002B02D0012B07D00DE0084B074A126CCA
S113032002210A431A6406E0044B044A126C0421B5
S11303300A431A64C046BD4602B080BD00080040AE
S113034080B584B000AF78607B681B68FB60FB6895
S11303505B7EDBB25BB2002B01DA012300E00023F9
S11303601800BD4604B080BD80B582B000AF78608F
S11303707B6800221A707B6800225A707B68002216
S11303805A807B6800221A717B6800221A767B6887
S113039000221A627B680022DA617B6800229A607C
S11303A07B6800221A737B68C0225201DA817B6861
S11303B000221A747B6800225A747B6800229A74A3
S11303C07B680022DA747B6800221A757B682A2213
S11303D0002199547B6800225A757B6800229A7523
S11303E07B682422002199547B680022DA847B688C
S11303F000221A857B680022DA757B682B22002193
S113040099547B682C2200219954C046BD4602B001
S113041080BD000080B598B000AF78600C23FA1856
S1130420154B1000190050231A00144B9847144B15
S1130430FB657B68132B1AD80C23FB187A6892008F
S1130440D358FB650823FB1818000E4B9847082364
S1130450FB1800229A700823FB1801221A70FB6D06
S1130460DBB20822BA1811001800074B9847C0469F
S1130470BD4618B080BDC046F89E00006D800000E7
S1130480FFFF0000D9020000B1590000F0B589B0A7
S113049000AF786039601F23FB1800221A70102304
S11304A0BB611723FB1800221A707B681B683B6131
S11304B00C23FB181800CE4B98473B681A780C2382
S11304C0FB181A700C23FB1819001E20C94B9847FF
S11304D01E20C94B98473B682C229B5C002B40D0C4
S11304E01623FB183A682B21525C1A703B68197B5F
S11304F01523FB181622BA1812788A181A703B684A
S11305002C22995C0F23FB181522BA1812788A182A
S11305101A7018E01623FB181B780F2213403A6850
S1130520127B9B181800B54B98471523FB181A78B3
S11305301523FB1801321A701623FB181A78162398
S1130540FB1801321A701523FA180F23FB181278BE
S11305501B789A42DED33B68DB891800A74B984787
S113056009E03B681B7B1800A44B98473B68DB8978
S11305701800A24B98473B685B7D9B00DAB23B694D
S11305801A703B689B7DDB015AB23B685B785BB2B7
S113059013435BB2DAB23B695A703B681B79342B64
S11305A046D89A00964BD3181B689F461F23FB1806
S11305B03A68527C1A701723FB183A68127C1A7036
S11305C01023BB6136E01F23FB1801221A70172386
S11305D0FB1802221A701023BB612BE01F23FB18A7
S11305E002221A701723FB1804221A701023BB610D
S11305F020E01F23FB1801221A701723FB18062280
S11306001A701023BB6115E01F23FB1800221A7017
S11306101723FB1808221A701023BB610AE0302349
S1130620BB6107E02023BB6104E00023BB6101E060
S11306301723AEE11F23FB181B781B01DBB27022CA
S11306401340DAB21723FB181B781343DAB23B6961
S11306509A703B68DB7D3F2B01D9172399E13B68F6
S1130660DA7D3B69DA70C0467B681800654B9847B1
S1130670031EF9D13B685A88BB699BB213439AB2F3
S11306803B6824215B5C9BB2DB009BB213439AB2B0
S11306903B681B7D9BB29B009BB213439AB23B68A1
S11306A09B7C9BB2DB189BB213439AB23B68DB7C06
S11306B09BB213439AB23B699A803B681B7E002B22
S11306C000D1C4E0BB69102B00D176E002D8002B26
S11306D04DD0BCE0202B23D0302B00D0B7E03B68BA
S11306E0DB7C002B11D03B68DB697F2B0BDC3B6888
S11306F0DB69803307DB3B681B6A7F2B03DC3B68C9
S11307001B6A803301DA172343E13B68DB69FF2B63
S113071004DC3B681B6AFF2B00DC91E0172338E103
S11307203B68DB7C002B15D03B68DB69364A93427F
S11307300EDC3B68DB69354A934209DB3B681B6A84
S1130740314A934204DC3B681B6A304A934201DA23
S113075017231EE13B68DB692D4A934205DC3B68A5
S11307601B6A2B4A934200DC6CE0172311E13B68BF
S1130770DB7C002B15D03B68DB69264A93420EDCF8
S11307803B68DB69244A934209DB3B681B6A214AC4
S1130790934204DC3B681B6A1F4A934201DA172325
S11307A0F7E03B68DB691D4A934204DC3B681B6A43
S11307B01A4A934248DD1723EBE03B68DB7C002BAD
S11307C032D03B68DB69164A93420EDC3B68DB6936
S11307D0144A934209DB3B681B6A114A934204DCC6
S11307E03B681B6A0F4A93421EDA1723D1E0C046C6
S11307F065020000C55600000957000015040000FA
S1130800489F000041030000FF01000000FEFFFFBD
S1130810FF030000FF07000000F8FFFFFF0F0000C8
S1130820FF7F00000080FFFF3B68DB695B4A934267
S113083004DC3B681B6A594A934207DD1723A8E08E
S1130840C04604E0C04602E0C04600E0C046C046E0
S11308507B681800524B9847031EF9D13B681A7EF7
S11308603B691A72C0467B6818004D4B9847031EBB
S1130870F9D13B68DB699AB23B699A83C0467B68CD
S11308801800474B9847031EF9D13B681B6A9AB27C
S11308903B691A841423FB183A682C21525C1A70A1
S11308A01423FB181B78002B06D01423FB181A788A
S11308B01423FB18013A1A701423FB181B780F2B0E
S11308C004D83B682B229B5C0F2B01D9172360E0D3
S11308D0C0467B681800324B9847031EF9D13B6829
S11308E09B683A682B21525C120513431422BA18F0
S11308F01278120413433A68D28913433A68127B7C
S11309001A433B691A613B682A229A5C3B691A754F
S11309103B690F229A753B6824229B5C002B1ED0F6
S11309203B68DB8C1F4A934201D9172331E03B68B3
S1130930DA8C3B699A843B6828229B5E1A4A93426C
S113094005DC3B6828229B5E184A934201DA172390
S11309501FE03B6828229B5E9AB23B69DA84144B01
S11309601B68DB089BB21B029AB2E023DB00134036
S11309709AB2104B5C681B686101DD0E0D43E60EF4
S1130980ABB2FF210B409BB213439AB23B691A8569
S113099000231800BD4609B0F0BDC046FFFF0000AB
S11309A041030000FF0F0000FF07000000F8FFFFF5
S11309B0246080002060800080B586B000AFF860BD
S11309C0B9607A60FB68BA681A6080235B02190018
S11309D00220324B9847BB681B78DBB21A00012314
S11309E0134001D0052355E0BB681B78DBB21A0025
S11309F00223134001D01C234CE07B685A78FB6827
S1130A001A71FB681B79002B02D10120244B9847F3
S1130A101723FB1800221A700EE01723FB181A780C
S1130A20FB68023292000021D1501723FB181A7878
S1130A301723FB1801321A701723FB181B78022B9B
S1130A40EBD9FB6800229A76FB680022DA76FB6811
S1130A5000221A83FB6800221A77124BFA681A6084
S1130A607B682A229B5C002B0AD17B681B7D0122B8
S1130A705340DBB2002B03D0FB6801225A7702E01B
S1130A80FB6800225A777A68FB6811001800064B4D
S1130A90984703001800BD4606B080BD7D020000E3
S1130AA001030000DC0200208D04000080B584B046
S1130AB000AF78607B681B68FB60FB685B7EDBB221
S1130AC05BB2002B01DA012300E000231800BD46CD
S1130AD004B080BD80B584B000AF78607B681B68CB
S1130AE0FB60C0467B6818000B4B9847031EF9D186
S1130AF0FB681B7BDBB202221343DAB2FB681A7376
S1130B00C0467B681800044B9847031EF9D1C046C1
S1130B10BD4604B080BDC046AD0A000080B584B0B7
S1130B2000AF78600A00FB1C1A707B681B68FB60CE
S1130B30FB68FA1C12789A75C046BD4604B080BDA5
S1130B4080B584B000AF0200FB1D1A70FB1D1A783B
S1130B50444B9200D358FB60FB681B681B7EDBB2DE
S1130B60BB60BB680122134045D0FB68DB7E1A00E2
S1130B70012313403FD0FB689B7E1A0001231340DE
S1130B8039D0FB681B6801221A76C046FB6818003E
S1130B90354B9847031EF9D1FB685B69991CFA68C9
S1130BA05161FA681268528B92B21A80FB681B8BEF
S1130BB09BB2013B9BB2FA68191C1183002B08D02D
S1130BC0FB685B7F002B16D0FB681800274B984707
S1130BD011E0FB681B7FDBB2052B0CD1FB68002204
S1130BE01A77FB6801211800214B9847FB689B6822
S1130BF0FA6810009847BB680422134014D0FB68BD
S1130C001B6804221A76FB68DB7E1A000223134059
S1130C100AD0FB689B7E1A000223134004D0FB68B1
S1130C20DB68FA6810009847BB680222134014D0AE
S1130C30FB681B6802221A76FB68DB7E1A00042319
S1130C4013400AD0FB689B7E1A000423134004D08F
S1130C50FB681B69FA6810009847C046BD4604B09B
S1130C6080BDC046DC020020AD0A0000D50A0000A9
S1130C701D0B000080B500AF0020024B9847C04612
S1130C80BD4680BD410B000080B582B000AF7860E6
S1130C907B6800221A70C046BD4602B080BD0000C9
S1130CA080B582B000AF02003960FB1D1A70FB1DD5
S1130CB01B78012B0AD0022B0FD0002B14D10E4B22
S1130CC00D4A91693A680A439A610FE00A4B0A4A4D
S1130CD0D1693A680A43DA6108E0074B064A116AA7
S1130CE03A680A431A6201E0172300E0002318005F
S1130CF0BD4602B080BDC0460004004080B582B04D
S1130D0000AF78607B6880221A707B6800225A707A
S1130D107B6801229A707B680022DA70C046BD4667
S1130D2002B080BD80B500AF054B9B78DBB21A00E2
S1130D30022313405A1E9341DBB21800BD4680BD06
S1130D400020004180B584B000AF78607B681B68E8
S1130D50FB60FB68DB69072213405A1E9341DBB238
S1130D601800BD4604B080BD80B582B000AF786085
S1130D70C0467B681800044B9847031EF9D1C0464F
S1130D80BD4602B080BDC046450D0000F0B597B029
S1130D9000AF786139610023FB6300233B650023C6
S1130DA0FB643B2310229446BC44634400221A7023
S1130DB07B691B68BB637B691B687B6323231022ED
S1130DC0BA18D4187B6B1800C04B984703002370E3
S1130DD00C2310229446BC4463441800BC4B98472F
S1130DE03B69DB697B643B691B6A3B647B6C002B5E
S1130DF006D17B6B00211800B64B984703007B6437
S1130E007B6CDAB20C2310218C46BC4463441A7008
S1130E100C2310229446BC44634402225A707B6C17
S1130E201B0CDBB20C2210218C46BC446244110022
S1130E301800A94B98473B6C002B06D17B6B012112
S1130E401800A44B984703003B643B6CDAB20C23B4
S1130E5010218C46BC4463441A700C23102294461F
S1130E60BC44634402225A703B6C1B0CDBB20C2260
S1130E7010218C46BC44624411001800964B9847DC
S1130E803B699A8A7B69DA803B69DA8A7B691A81D1
S1130E903B691B7E002B03D1904B9847031E02D065
S1130EA080237B6501E000237B653B691B69002B84
S1130EB004D03B691B697A6D13437B653B699B686E
S1130EC07A6D13437B653B6924229B5C002B04D021
S1130ED07B6D8022D20513437B653B699B6A002BA3
S1130EE004D03B699B6A7A6D13437B653B692C2272
S1130EF09B5C002B05D13B699A6880239B049A4232
S1130F0004D17B6D8022120513437B653B692D223E
S1130F109B5C002B04D07B6D8022120413437B6501
S1130F203B692E229B5C002B04D07B6D8022D20374
S1130F3013437B65BB6B1A687B6D1A43BB6B1A60EA
S1130F40BB6B802252005A60232310229446BC4477
S1130F5063441B781433DBB21800614B98470300D9
S1130F60FB623B691B68FA2292005343BB623B69F4
S1130F705B68FA22920053437B623B691B8E3B629F
S1130F80584BF86A984705000E00564BB86A9847C4
S1130F90B860F960534BF86A9847534C534A544B22
S1130FA0A04703000C003B607C604E4B386A9847B6
S1130FB002000B004C4C38687968A04703000C0011
S1130FC0180021004B4C00224B4BA04703000C009F
S1130FD01A002300444CB868F968A04703000C00C9
S1130FE01A002300454C28003100A04703000C00E0
S1130FF01D002600BB6A5A003A4B100098470200B5
S11310000B003C4C28003100A04703000C001800E2
S113101021003A4C00223A4BA04703000C001D006B
S11310202600BB6A5A002F4B1000984702000B00A1
S1131030344C28003100A04703000C0019002200A2
S1131040314B0800110098470300FB633B699A6821
S113105080239B049A426AD1224BF86A9847254C14
S113106002000B00A04703000C001D0026001D4BCE
S1131070786A98471C4C0022244BA04703000C00BC
S11310801A0023001F4C28003100A04703000C0065
S113109018002100194C0022194BA04703000C0032
S11310A019002200184B0800110098470300FB6444
S11310B0FB6C002B2ED0164B796AF86A9847030014
S11310C09A1EFB6CD31A3B6531E0C046C13D00005B
S11310D0FD0C0000053C0000B1590000250D000086
S11310E0E95700006D7F0000D973000095D626E80B
S11310F00B2E113E5167000000002440D9780000F7
S11311000000F03F716D0000057F00000000084002
S1131110116400007B6A5A00FB6AD3185A1E7B6A6A
S113112059001D4B100098470300013B3B65FB6BC6
S1131130FF2B08DCFB6B002B05DB3B6DFF2B02DC7C
S11311403B6D002B06DA3B2310229446BC446344D7
S113115040221A703B2310229446BC4463441B78FB
S1131160402B0ED0FB6BFF221A403B6D1B04190071
S1131170FF231B040B401343FA6C12061A43BB6B88
S1131180DA603B2310229446BC4463441B78180065
S1131190BD4617B0F0BDC0461164000090B58BB0D9
S11311A000AFF860B9607A60FB68BA681A60FB68DF
S11311B01B687B62FB681B6818003B4B9847030065
S11311C03B623B6A0233FB613B6A1433BB6101221D
S11311D0FB699A40130019000220344B98471423EA
S11311E0FB181800324B98477B681A7B1423FB18B2
S11311F01A70BB69DBB21422BA18110018002D4B07
S11312009847BB69DBB218002B4B98477B681B7B64
S113121000211800294B98477B6A1B68022213405F
S113122001D01C233BE07B6A1B680122134001D0E0
S1131230052334E0FB681B681722BC1818001A4BFE
S11312409847030023701E4A1723FB181B781100CC
S113125018001C4B98471723FB181A781A4B920056
S1131260F968D150FB6800221A76FB6800225A768E
S1131270FB6800225A83FB6800229A83FB682522BC
S113128000219954FB6800221A627B6A14221A60B6
S11312907A68FB68110018000C4B9847030018008B
S11312A0BD460BB090BDC046C13D0000A10C00007E
S11312B0890C0000C556000009570000793B000066
S11312C0ED1A0000253E0000C00300208D0D000033
S11312D080B584B000AF78607B681B68FB60FB68F6
S11312E01B7EDBB21A00022313400BD0FB680222E0
S11312F01A76FB685B8B9BB21A000223134011D051
S1131300412310E0FB685B8B9BB21A00042313405B
S113131008D0FB685B68C02292021A43FB685A60DB
S1131320182300E000231800BD4604B080BD80B53A
S113133084B000AF78607B681B68BB600E23FB1829
S113134000221A800FE00E23FB180E22BA1812880E
S113135001321A807B681B890E22BA1812889A42BD
S113136001D312230EE0BB681B7EDBB21A000123FB
S1131370134006D1BB681B7EDBB21A000223134064
S1131380E1D000231800BD4604B080BD90B585B0FF
S113139000AF78600A00FB1C1A707B681B68FB6056
S11313A0FB685B688022D2021A43FB685A60FB1C0C
S11313B01A78FB685A620B23FC187B681800074BE9
S11313C0984703002370FB6801221A760B23FB184D
S11313D01B781800BD4605B090BDC0462F13000011
S11313E090B587B000AF786039607B681B68FB609C
S11313F01423FB183A6852881A801223FB1800221F
S11314001A80FB681B681B01DB0FDBB21A000B237D
S1131410FB18511E8A411A703B685B7A002B06D078
S11314203B689A7A7B6811001800854B9847FB68E3
S11314305B68844A1A40FB685A603B681B7A002B3D
S113144042D03B681B885A003B685B7A9B0313437A
S11314501A0080231B021A43FB685A621723FC18E4
S11314607B681800784B984703002370FB685B681F
S1131470744A1A40FB685A601723FB181B78002B28
S113148007D11723FC187B681800704B984703009A
S113149023701723FB181B78002B11D13B681B8882
S11314A01B0A9BB2782213439BB25A003B685B7AB7
S11314B09B031343012213431A00FB685A620FE093
S11314C01723FB181B78B6E03B681B885B000122DE
S11314D01A433B685B7A9B0313431A00FB685A6206
S11314E01723FC187B681800574B98470300237098
S11314F00B23FB181B78002B0BD03B685B88012B5C
S113150007D1FB685B688022D2021A43FB685A60E9
S113151005E0FB685B684B4A1A40FB685A60172376
S1131520FB181B78002B07D11723FC187B681800C5
S1131530464B9847030023701723FB181B78002B96
S113154000D075E04BE0FB685B8B9BB21A00202354
S1131550134001D141236EE07B68DB7A002B1ED05F
S11315600B23FB181B7801225340DBB2002B04D061
S11315701423FB181B88002B09D00B23FB181B78A2
S1131580002B0CD01423FB181B88012B07D1FB68FC
S11315905B688022D2021A43FB685A601AE07B68B7
S11315A018002B4B98473B685A681223FB181B887A
S11315B012217918581C0880D318FA682821525C23
S11315C0D2B21A701723FC187B6818001E4B984778
S11315D0030023701723FB181B78002B09D1142355
S11315E0FB181B881422BA18591E1180002BAAD18B
S11315F000E0C0467B689B7A002B0AD07B68180009
S1131600134B9847FB685B68C02292021A43FB683D
S11316105A607B6818000E4B98473B685A6812233F
S1131620FB181B88D318FA682821525CD2B21A70AE
S11316301723FB181B781800BD4607B090BDC046A1
S11316408D130000FFFFFBFF2F130000D1120000D9
S1131650690D000080B582B000AF786039607B68A6
S11316609B8B9BB2002B01D005230CE07B680122ED
S11316709A727B680122DA723A687B68110018005A
S1131680034B984703001800BD4602B080BDC04616
S1131690E113000090B587B000AF786039607B68D3
S11316A01B68FB601423FB183A6852881A807B6815
S11316B01800514B98473B685B7A002B06D03B6877
S11316C09A7A7B68110018004C4B9847FB685B685A
S11316D04B4A1A40FB685A603B681B7A002B0DD0BA
S11316E03B681B885A003B685B7A9B0313431A00D0
S11316F080231B021A43FB685A6209E03B681B887B
S11317005A003B685B7A9B0313431A00FB685A62D6
S11317101723FC187B6818003A4B98470300237082
S11317201723FB181B78002B07D11723FC187B68A1
S11317301800354B9847030023701723FB181B78B8
S1131740002B52D11223FB1800221A8033E0FB68CD
S11317505B8B9BB21A002023134001D1412347E045
S11317607B681800244B98473B685A681223FB187F
S11317701B8812217918581C0880D3181978FB6823
S1131780282299541723FC187B6818001D4B98478E
S1131790030023701723FB181B78002B15D1FB685B
S11317A05B8B9BB21A000423134004D01723FB184D
S11317B01E221A700AE01423FB181B881422BA187C
S11317C0591E1180002BC2D100E0C0467B689B7A71
S11317D0002B0AD07B681800074B9847FB685B68AE
S11317E0C02292021A43FB685A601723FB181B7825
S11317F01800BD4607B090BD690D00008D130000B0
S1131800FFFFFBFF2F130000D112000080B582B050
S113181000AF786039607B689B8B9BB2002B01D052
S113182005230CE07B6800229A727B680122DA723D
S11318303A687B6811001800034B984703001800AE
S1131840BD4602B080BDC0469516000080B584B088
S113185000AF78607B681B68FB607B681800064BF0
S11318609847FB685B68C02292021A43FB685A607F
S1131870C046BD4604B080BD690D000080B584B08B
S113188000AF78607B681B68FB60FB68DB6907223C
S113189013405A1E9341DBB21800BD4604B080BD0C
S11318A080B582B000AF7860C0467B681800044BF6
S11318B09847031EF9D1C046BD4602B080BDC0465C
S11318C07D18000080B584B000AF78607B681B6829
S11318D0FB60FB681B681B01DB0FDBB21A000B23E8
S11318E0FB18511E8A411A700823FB187A68528B20
S11318F01A807B689B8B9AB20823FB1808217918FD
S113190009888A1A1A807B689B8B9BB2013B9AB226
S11319107B689A830B23FB181B78002B10D07B6801
S1131920DB7A002B1CD07B689B8B9BB2012B17D1DD
S1131930FB685B688022D2021A43FB685A600FE09E
S11319407B68DB7A002B0BD07B689B8B9BB2002BD4
S113195006D1FB685B688022D2021A43FB685A6096
S11319607B689B8B9BB2002B0ED17B689B7A002BF0
S11319700AD07B6818000E4B9847FB685B68C0224E
S113198092021A43FB685A607B681800084B984718
S11319907B681A6A0823FB181B88D318FA68282165
S11319A0525CD2B21A70C046BD4604B080BDC04677
S11319B0A118000080B584B000AF78607B681B6814
S11319C0FB60FB685B8B9BB21A000423134004D0BA
S11319D07B6825221E21995424E00A23FB187A6887
S11319E0528B1A807B689B8B9AB20A23FB180A21BC
S11319F0791809888A1A1A807B689B8B9BB2013BF1
S1131A009AB27B689A837B681800084B98477B6876
S1131A101A6A0A23FB181B88D3181B78D9B2FB68EF
S1131A2028229954BD4604B080BDC046A1180000C8
S1131A3080B584B000AF78607B681B68FB60FB688E
S1131A401B7EDBB21A00012313402BD0FB6801225A
S1131A501A76FB685B8B9BB21A000223134004D0F6
S1131A607B682522412199541CE0FB685B8B9BB267
S1131A701A000423134015D07B6825221821995499
S1131A807B6800229A837B689B7A002B0AD07B6850
S1131A901800134B9847FB685B68C02292021A43F4
S1131AA0FB685A607B689B8B9AB27B685A837B681D
S1131AB025229B5CDBB2052B0ED17B6824229B5C28
S1131AC0DBB2002B04D17B681800064B984703E077
S1131AD07B681800044B9847C046BD4604B080BDDF
S1131AE0A1180000B5190000C518000080B586B023
S1131AF000AF0200FB1D1A70FB1D1A78934B920075
S1131B00D3587B617B691B683B613B691B681B0184
S1131B10DB0FDBB21A000F23FB18511E8A411A7027
S1131B200E23FB187A69527E1A707B691B7EDAB227
S1131B300E23FB180E21791809780A401A707B6964
S1131B405B8B9BB2002B09D17B699B8B9BB2002BD7
S1131B5004D07B6918007E4B984770E07B695B8BEF
S1131B609BB2002B39D07B699B8B9BB2002B34D169
S1131B707B6925229B5CDBB2052B2ED17B69242259
S1131B809B5CDBB2002B28D13B6903221A757B696D
S1131B9000225A837B692522002199547B699B7A10
S1131BA0002B0BD07B6918006A4B98473B695B6834
S1131BB0C02292021A433B695A6002E03B69012247
S1131BC01A760E23FB181B780122134037D07B6949
S1131BD0DB687A691000984731E07B695B8B9BB2C4
S1131BE0002B2CD07B699B8B9BB2002B27D03B69AD
S1131BF05B8B9BB21A002023134011D10F23FB18D7
S1131C001B7801225340DBB2002B04D17B699B8BF0
S1131C109BB2012B04D07B692522412199540EE00B
S1131C207B6924229B5CDBB2002B04D17B69180006
S1131C30494B984703E07B691800484B98477B69F8
S1131C405B8B9BB2002B47D07B699B8B9BB2002B99
S1131C5042D17B6925229B5CDBB2052B3CD17B699D
S1131C6024229B5CDBB2012B36D13B691B7EDBB2A9
S1131C701A000223134002D03B6902221A763B6900
S1131C8003221A757B6900225A837B69252200216D
S1131C9099540E23FB181B78022213400BD07B6946
S1131CA024229B5CDBB2012B05D17B691B697A6919
S1131CB01000984710E00E23FB181B7801221340F4
S1131CC00AD07B6924229B5CDBB2002B04D17B69A4
S1131CD0DB687A69100098477B6925229B5CDBB23C
S1131CE0052B2ED07B6925229B5CDBB2002B28D0F0
S1131CF03B6903221A757B6900225A837B6900229F
S1131D009A837B6925229B5CDBB2412B0ED07B69D5
S1131D109B7A002B0AD07B6918000E4B98473B69CD
S1131D205B68E022D2021A433B695A600E23FB1817
S1131D301B780422134004D07B695B697A69100024
S1131D409847C046BD4606B080BDC046C0030020CB
S1131D50311A0000A1180000B5190000C5180000D0
S1131D6080B584B000AF0200FB1D1A700F23FB186E
S1131D70FA1D1278D2091A700E23FB18FA1D127874
S1131D8052091A700D4BBB600F23FB181B78002BF4
S1131D900FD10F23FB181B789B0010229446BC44E0
S1131DA06344083B1A680E23FB181B78DB01D31825
S1131DB000E000231800BD4604B080BD004400418B
S1131DC080B582B000AF0200FB1D1A70FB1D1B78AA
S1131DD0002B02D0012B07D00DE0084B074A126CF0
S1131DE002210A431A6406E0044B044A126C0421DB
S1131DF00A431A64C046BD4602B080BD00080040D4
S1131E0080B582B000AF0200FB1D1A70064BFA1DAC
S1131E10127811001F220A40012191400A001A6021
S1131E20C046BD4602B080BD00E100E080B582B08E
S1131E3000AF0200FB1D1A70074AFB1D1B78190036
S1131E401F230B40012199400B0019008023D1501E
S1131E50C046BD4602B080BD00E100E080B584B05C
S1131E6000AF78607B681B68FB60FB685B7EDBB25D
S1131E705BB2002B01DA012300E000231800BD4609
S1131E8004B080BD80B586B000AF78607B681B6805
S1131E903B613B691B7EDBB2FB6000237B61FB681B
S1131EA00122134003D07B69012213437B61FB6849
S1131EB00422134003D07B69022213437B61FB6835
S1131EC00222134003D07B69042213437B617B69A4
S1131ED01800BD4606B080BD80B584B000AF786000
S1131EE039607B681B68BB600023FB603B68012290
S1131EF0134003D0FB6801221343FB603B680222BA
S1131F00134003D0FB6804221343FB603B680422A4
S1131F10134003D0FB6802221343FB60FB68DAB270
S1131F20BB681A76C046BD4604B080BD80B584B097
S1131F3000AF78607B681B68FB60C0467B68180054
S1131F40104B9847031EF9D117200F4B9847FB6895
S1131F500F229A75FB680F221A76FB681B78DBB296
S1131F6002221343DAB2FB681A70C0467B68180079
S1131F70044B9847031EF9D100231800BD4604B052
S1131F8080BDC0465D1E0000011E000080B584B007
S1131F9000AF78607B681B68FB601720114B984783
S1131FA0C0467B681800104B9847031EF9D1FB68A4
S1131FB00F229A75FB680F221A76FB681B78DBB236
S1131FC002229343DAB2FB681A70C0467B68180099
S1131FD0054B9847031EF9D100231800BD4604B0F1
S1131FE080BDC0462D1E00005D1E000080B584B07B
S1131FF000AF78607B681B68FB60C0467B68180094
S11320000B4B9847031EF9D1FB681B7BDBB2022202
S11320101343DAB2FB681A73C0467B681800044B9A
S11320209847031EF9D1C046BD4604B080BDC046E2
S11320305D1E000080B584B000AF786039607B68B5
S11320401800184B984702000123134001D10523BF
S113205023E07B681B68FB60C0467B681800124B5A
S11320609847031EF9D1FB685B8B9AB23B681A80D0
S11320707B68012118000D4B98477B681800094BB9
S1132080984702000423134006D07B6804211800FB
S1132090064B98471E2300E000231800BD4604B0F9
S11320A080BDC046851E00005D1E0000D91E0000D4
S11320B080B582B000AF0200FB1D1A70FB1D1B78B7
S11320C01800034B984703001800BD4602B080BDBA
S11320D0611D000080B584B000AF0200FB1D1A70C2
S11320E0FB1D1B7818000B4B98470300FB60FB1D7E
S11320F01B781F22134001229A401300BB60FB6827
S11321001B69BA6813405A1E9341DBB21800BD46DE
S113211004B080BDB120000080B584B000AF0200DF
S1132120FB1D1A70BB1D0A1C1A70FB1D1B781800BE
S11321300D4B98470300FB60FB1D1B781F221340C7
S113214001229A401300BB60BB1D1B78002B03D0F7
S1132150FB68BA689A6102E0FB68BA685A61C046D3
S1132160BD4604B080BDC046B1200000F0B5DE46D7
S113217057464E464546E0B583B000AF4F4B1A680C
S11321804F4B19684F4B1B687B604F4B1868386086
S11321904E4B1C68A3464E4B1C68A2464D4B1C6814
S11321A0A1464D4B1C68A0464C4B1C68A4464C4BA6
S11321B01E684C4B1D684C4B1C684C4B18684C4BB0
S11321C01A604B4A4B4B5360494A4B4B9360484B04
S11321D0D960474B474A1A61454B484A5A61444BB8
S11321E07A689A61424B434ADA61414B444A1A6223
S11321F03F4B3A685A623E4B424A9A623C4B424ACF
S1132200DA623B4B5A461A63394B3E4A5A63384B9F
S11322103E4A9A63364B5246DA63354B394A1A645E
S1132220334B3B4A5A64324B4A469A64304B314AE8
S1132230DA642F4B374A1A652D4B42465A652C4BAC
S11322402C4A9A652A4B344ADA65294B62461A6647
S1132250274B324A5A66264B314A9A66244BDE662D
S1132260234B244A1A67224B2E4A5A67204B9D67F8
S11322701F4B204ADA671E4B80212B4A5A501C4BB5
S113228084229C501A4B88211E4A5A50184B8C2188
S1132290264A5A50164B90229850154B9421154AB1
S11322A05A50134B9821224A5A50C046BD4603B097
S11322B03CBC90469946A246AB46F0BD00000020C7
S11322C004000020080000200C0000201000002062
S11322D014000020180000201C0000202000002012
S11322E0280000202C0000203000002034000020B2
S11322F0E0020020ACA00000B0A00000C8A00000D4
S1132300F0A0000018A100002CA1000050A10000C2
S113231074A10000A0A10000B8A10000D0A1000099
S1132320F4A1000014A2000030A2000050A200009A
S113233074A2000080B500AF034B1800034B98470C
S1132340C046BD4680BDC046500400208D1F00001D
S113235080B58CB000AF3B0018000E4B98473B0093
S113236001221A703B0002225A703B008022920024
S11323705A803B0000221A713A000749074B1800A3
S1132380074B9847054B1800064B9847C046BD4677
S11323900CB080BD690300000040004250040020DE
S11323A0B90900002D1F000080B59CB000AF786013
S11323B0C54A7B6811001800C44B98470300FB66AC
S11323C0C34B1B68FA6E11001800C24B9847031EDA
S11323D002D1C14B98474CE2C04B1B68FA6E110006
S11323E01800BC4B9847031E02D1BD4B984740E2EE
S11323F0BC4B1B68FA6E11001800B64B9847031EBD
S113240002D1B94B984734E2B84B1B68FA6E1100FD
S11324101800B04B9847031E46D1AB4B190000205F
S1132420AA4B98470300BB66A74B19000020A74B93
S1132430984703007B66BB6E002B02D07B6E002B9B
S113244004D1AB4B1800AB4B984712E2BB6E3B6612
S11324507B6E1800A84B98470300FB65A74A3B6EA8
S1132460110018009B4B9847031E0BD0A44A3B6EE7
S113247011001800974B9847031E03D0A14B180076
S11324809C4B9847FB6D002B06DCFB6D202B03DD7A
S11324909D4B1800974B98473B6E1B78FA6D1100C3
S11324A018009A4B9847E4E1994B1B68FA6E1100A7
S11324B01800884B9847031E46D1834B190000200F
S11324C0824B98470300BB657F4B190000207F4B6C
S11324D0984703007B65BB6D002B02D07B6D002BFE
S11324E004D1834B1800834B9847C2E1BB6D3B6515
S11324F07B6D1800804B98470300FB647F4A3B6D5B
S113250011001800734B9847031E0BD07C4A3B6D97
S1132510110018006F4B9847031E03D0794B180025
S1132520744B9847FB6C002B06DCFB6C202B03DD03
S1132530754B18006F4B98473B6D1B78FA6C110074
S11325401800744B984794E1734B1B68FA6E1100A2
S11325501800604B9847031E46D15B4B19000020BE
S11325605A4B98470300BB64574B19000020574B44
S1132570984703007B64BB6C002B02D07B6C002B60
S113258004D15B4B18005B4B984772E1BB6C3B6416
S11325907B6C1800584B98470300FB63574A3B6C0D
S11325A0110018004B4B9847031E0BD0544A3B6C48
S11325B011001800474B9847031E03D0514B1800D5
S11325C04C4B9847FB6B002B06DCFB6B202B03DD8D
S11325D04D4B1800474B98473B6C1B78FA6B110026
S11325E018004E4B984744E14D4B1B68FA6E11009E
S11325F01800384B9847031E02D14A4B984738E1DC
S1132600494B1B68FA6E11001800324B9847031EA1
S113261002D1464B98472CE1454B1B68FA6E1100DA
S113262018002C4B9847031E2BD1274B1900002070
S1132630264B98470300BB63234B19000020234B10
S1132640984703007B63BB6B002B02D07B6B002B92
S113265004D1274B1800274B98470AE1BB6B18009D
S1132660254B984703003B637B6B1800224B98472C
S11326700300FB62FA6A3B6B110018002D4B98476C
S1132680F7E02D4B1B68FA6E11001800114B9847A8
S1132690031E66D10C4B190000200C4B9847030015
S11326A0BB62094B19000020084B984703007B626A
S11326B0BB6A002B02D07B6A002B3FD10C4B180065
S11326C00C4B9847D5E0C046BCA200004D830000E7
S11326D00000002039830000D128000004000020FD
S11326E049290000080000206D2900000C0000208A
S11326F0C0A200008581000019800000E4A200004F
S1132700E8A20000ECA2000010A300009129000040
S113271010000020D129000014000020112A00001C
S113272018000020A52A00001C000020D12A000067
S113273020000020FD2A000024000020BB6A1800AD
S11327404D4B984703003B627B6A18004A4B9847FD
S11327500300FB61FA693B6A11001800474B984774
S113276087E0474B1B68FA6E11001800454B9847E9
S1132770031E46D1444B19000020444B98470300E4
S1132780BB61414B19000020404B984703007B611B
S1132790BB69002B02D07B69002B04D13C4B180091
S11327A03C4B984765E0BB693B617B691800324B41
S11327B098470300FB60384A3B6911001800314B0D
S11327C09847031E0BD0354A3B69110018002D4B66
S11327D09847031E03D0324B18002E4B9847FB68D2
S11327E0002B06DCFB68202B03DD2E4B1800294B45
S11327F098473B69DBB2FA68110018002A4B9847E6
S113280037E02A4B1B68FA6E110018001D4B9847DD
S1132810031E02D1264B98472BE0264B1B68FA6E09
S113282011001800174B9847031E02D1224B9847FA
S11328301FE0224B1B68FA6E11001800114B9847D9
S1132840031E04D1222142201D4B984711E01D4B49
S11328501B68FA6E110018000A4B9847031E04D136
S113286022214220184B984703E0184B1800094BCB
S11328709847BD461CB080BD19800000C12D0000E2
S11328803000002039830000BCA200004D8300000A
S1132890C0A2000085810000E4A20000E8A20000BC
S11328A0ECA2000010A30000E52D0000340000207D
S11328B04D2E000038000020C12E0000280000200A
S11328C0912900002C000020D129000038A3000029
S11328D0B0B582B000AF174B1800174B98470023D0
S11328E07B6020E015497A6813005B009B189B000D
S11328F05C5812497A6813005B009B189B00CB1844
S113290004331D680D497A6813005B009B189B0013
S1132910CB1808331B680A482A002100094CA04739
S11329207B6801337B607B680C2BDBDDC046BD46D6
S113293002B0B0BD78A3000085810000E002002051
S113294088A300009180000080B500AF044A054BC5
S113295011001800044B9847C046BD4680BDC046D0
S113296098A30000A0A300009180000080B500AFF0
S1132970044A054B11001800044B9847C046BD4655
S113298080BDC04698A30000BCA300009180000055
S113299080B584B000AF02003960FB1D1A700F23AC
S11329A0FB1822221A700E23FB1801221A700E2320
S11329B0FB181A780F23FB181B7811001800034B1F
S11329C09847C046BD4604B080BDC04619210000EA
S11329D080B584B000AF02003960FB1D1A700F236C
S11329E0FB1822221A700E23FB1800221A700E23E1
S11329F0FB181A780F23FB181B7811001800034BDF
S1132A009847C046BD4604B080BDC04619210000A9
S1132A1090B585B000AF02003960FB1D1A700E231B
S1132A20FB1822221A70FB1D1B781A00194B9A42BC
S1132A300DD13B68022B0AD10F23FC180E23FB187F
S1132A401B781800144B98470300237016E0FB1DF5
S1132A501B781A000F4B9A4210D13B68032B0DD1FF
S1132A600D23FB1823221A700F23FC180D23FB18C7
S1132A701B781800084B9847030023700F23FB189A
S1132A801A78064B11001800054B9847C046BD46FE
S1132A9005B090BDE8A20000D5200000D8A3000036
S1132AA09180000080B582B000AF064B7B607A68ED
S1132AB0054B11001800054B9847C046BD4602B0AF
S1132AC080BDC046F0A3000004A400009180000073
S1132AD080B582B000AF064B7B607A68054B11006D
S1132AE01800054B9847C046BD4602B080BDC0469D
S1132AF018A4000028A4000091800000F0B58DB057
S1132B0004AF786039600023FB6137E1A04B682291
S1132B101A809F4B01225A809E4B6B221A709C4B49
S1132B209C4A5A609C4B68221A801B23FC18984AC2
S1132B309A4B110018009A4B9847030023701B23EB
S1132B40FB181B78002B09D11B23FC18924A934BCA
S1132B5011001800934B9847030023708F4B180003
S1132B60914B98478C4B5B6800221A70884B682203
S1132B701A80874B02225A80864B6B221A70864B2E
S1132B805B681A78834B5A70814B824A5A60824B35
S1132B9068221A801B23FC187D4A804B1100180000
S1132BA07F4B9847030023707C4B18007E4B98475B
S1132BB0774B68221A80764B01225A80754B6B2220
S1132BC01A70734B734A5A60734B68221A801B2322
S1132BD0FC186F4A714B11001800714B98470300A1
S1132BE023701B23FB181B78002B09D11B23FC1813
S1132BF0694A6A4B110018006A4B98470300237016
S1132C00664B1800684B9847614B68221A80604BEA
S1132C1001225A805F4B3B221A705D4B5D4A5A6019
S1132C205D4B68221A801B23FC18594A5B4B110028
S1132C3018005B4B9847030023701B23FB181B7879
S1132C40002B09D11B23FC18534A544B11001800C4
S1132C50544B9847030023704F4B5B681B781B024F
S1132C6019B24D4B5B6801331B781AB21823FB1859
S1132C700A431A80484B5B6802331B781B0219B263
S1132C80454B5B6803331B781AB21623FB180A43BF
S1132C901A80414B5B6804331B781B0219B23E4B0C
S1132CA05B6805331B781AB21423FB180A431A8095
S1132CB0394B5B6808331B781B0219B2364B5B68CF
S1132CC009331B781AB21223FB180A431A80324BB9
S1132CD05B680A331B781B0219B22F4B5B680B33FA
S1132CE01B781AB21023FB180A431A802A4B5B681C
S1132CF00C331B781B0219B2274B5B680D331B780E
S1132D001AB20E23FB180A431A80FA69274B1100E2
S1132D101800274B98471823FB1800241C5F162320
S1132D20FB1800255D5F1423FB1800269E5F122309
S1132D30FB1800229B5E1022BA180021525E0E215D
S1132D4079180020095E1B48029101920093330018
S1132D502A002100164CA047104B1800124B98472C
S1132D603B68002B04D03B681800134B984702E0E3
S1132D700120124B9847FB690133FB61FA697B68B8
S1132D809A4200DAC2E6C046BD4609B0F0BDC0466C
S1132D90440000203C00002050000020EC030020F0
S1132DA00D180000551600004D1800003CA400004A
S1132DB09180000050A4000021300000F12F000099
S1132DC080B582B000AF78603960044B1800044BC2
S1132DD09847C046BD4602B080BDC04688A40000E6
S1132DE08581000080B584B000AF02003960FB1D0E
S1132DF01A700F4B98470F4B98470F4B18000F4B07
S1132E0098470E23FA180C4B110018000C4B9847E6
S1132E100300052BF5D00E23FB181B881A00094B61
S1132E2011001800084B9847C046BD4604B080BD49
S1132E30352300005123000050040020ED1F000042
S1132E403520000098A400009180000080B582B075
S1132E5000AF124B98470020114B9847114B9847ED
S1132E60114B1800114B9847BA1C0F4B1100180056
S1132E700F4B98470300052BF6D0BB1C1B8818008A
S1132E800C4B984703007B607A680B4B11001800C9
S1132E900A4B9847C046BD4602B080BD35230000AA
S1132EA0C11D0000C901000050040020ED1F0000F6
S1132EB03520000035020000ACA400009180000021
S1132EC090B583B000AFFB1D01221A7031E0FB1DE9
S1132ED01B789AB21B4B1A801A4B01225A801A4B48
S1132EE000221A70174B184A5A60BC1D154A174B1A
S1132EF011001800164B984703002370FB1D1A7825
S1132F00144B11001800144B9847BB1D1B78002B61
S1132F1006D1FB1D1A78114B110018000E4B98476F
S1132F200A4B18000E4B9847FB1D1A78FB1D013203
S1132F301A70FB1D1B785BB2002BC8DAC046BD4675
S1132F4003B090BD440000203C000020EC030020AE
S1132F500D180000C8A4000091800000D8A400004F
S1132F604D18000080B582B000AF78607B68002BFC
S1132F700CD0084B7A685A60064B00229A60C0460F
S1132F80044B1A6880235B021340F9D0C046BD4647
S1132F9002B080BD10E000E080B500AF00200F4B10
S1132FA0984702000E4B1A600D4B18680D4BFA221D
S1132FB09100984703001A00094B1A60084B1868DF
S1132FC0084BFA229100984703001A00064B1A6036
S1132FD0064B05221A60C046BD4680BDED55000073
S1132FE05C000020116400006000002010E000E09C
S1132FF080B582B000AF786004E0074B1B6818000E
S1133000064B98477B685A1E7A60002BF5D1C04660
S1133010BD4602B080BDC04660000020652F0000A0
S113302080B582B000AF786004E0074B1B681800DD
S1133030064B98477B685A1E7A60002BF5D1C04630
S1133040BD4602B080BDC0465C000020652F000074
S113305080B584B000AF0200FB1D1A700F23FB186B
S1133060FA1D1278D2091A700E23FB18FA1D127871
S113307052091A700D4BBB600F23FB181B78002BF1
S11330800FD10F23FB181B789B0010229446BC44DD
S11330906344083B1A680E23FB181B78DB01D31822
S11330A000E000231800BD4604B080BD0044004188
S11330B080B500AF044B01221A70BFF35F8F62B674
S11330C0C046BD4680BDC0466400002080B582B0C5
S11330D000AF0200FB1D1A70FB1D1B781800034B88
S11330E0984703001800BD4602B080BD513000006F
S11330F080B582B000AF78607B6800221A707B686C
S113310001225A707B6800229A70C046BD4602B004
S113311080BD000080B584B000AF0200FB1D1A70B2
S1133120BB1D0A1C1A70FB1D1B7818000D4B984719
S11331300300FB60FB1D1B781F22134001229A40F1
S11331401300BB60BB1D1B78002B03D0FB68BA685F
S11331509A6102E0FB68BA685A61C046BD4604B091
S113316080BDC046CD30000080B582B000AF3B1DAD
S11331701800104B98473B1D01221A703B1D190083
S11331801B200D4B98473B1D19001C200A4B9847E8
S11331903B1D19002820084B984700211C20074B91
S11331A0984700211B20054B9847C046BD4602B0F6
S11331B080BDC046F1300000E53700001531000045
S11331C080B500AF0C4B00221A600C4B98470C4B97
S11331D01B680122134004D0094B1B6802221340D0
S11331E001D1084B9847084B9847084B9847002350
S11331F01800BD4680BDC0465C0200206931000055
S113320010E000E0992F000011320000B1300000FE
S113321080B500AF00211C200B4B984700211B20D8
S1133220094B98470120094B984701211C20064B64
S113323098470A20054B984701211B20024B9847C9
S1133240C046BD4680BDC046153100005132000065
S113325080B582B000AF786002E00120054B98474A
S11332607B685A1E7A60002BF7D1C046BD4602B077
S113327080BDC0462130000080B582B000AF104B45
S11332801B68002B12D1EFF310837B607B68002B4B
S113329009D172B6BFF35F8F0A4B00221A700A4B32
S11332A001221A7002E0084B00221A70044B1B68BA
S11332B05A1C034B1A60C046BD4602B080BDC046CE
S11332C060020020640000206402002080B500AF8A
S11332D00B4B1B685A1E0A4B1A60094B1B68002BC8
S11332E00AD1084B1B78DBB2002B05D0064B012218
S11332F01A70BFF35F8F62B6C046BD4680BDC0463C
S113330060020020640200206400002080B584B0C4
S113331000AF0200FB1D1A700F23FB18FA1D127870
S1133320D2091A700E23FB18FA1D127852091A706A
S11333300D4BBB600F23FB181B78002B0FD10F2301
S1133340FB181B789B0010229446BC446344083B42
S11333501A680E23FB181B78DB01D31800E0002346
S11333601800BD4604B080BD0044004180B582B061
S113337000AF0200FB1D1A70FB1D1B781800034BE5
S1133380984703001800BD4602B080BD0D3300000D
S113339080B582B000AF78607B6800221A707B68C9
S11333A001225A707B6800229A70C046BD4602B062
S11333B080BD000080B584B000AF0200FB1D1A7010
S11333C0BB1D0A1C1A70FB1D1B7818000D4B984777
S11333D00300FB60FB1D1B781F22134001229A404F
S11333E01300BB60BB1D1B78002B03D0FB68BA68BD
S11333F09A6102E0FB68BA685A61C046BD4604B0EF
S113340080BDC0466D33000080B582B000AF3B1D67
S113341018000E4B98473B1D01221A703B1D1900E2
S113342017200B4B9847012117200A4B98473B1D47
S113343000221A703B1D01225A703B1D19003720CF
S1133440034B9847C046BD4602B080BD913300008F
S1133450E5370000B533000080B584B000AF02004A
S1133460FB1D1A700F23FB18FA1D127852091A70EB
S11334700F23FB181B78002B0CD1094BBB600F23C7
S1133480FB181B789B0010229446BC446344083B01
S11334901B6800E000231800BD4604B080BDC04690
S11334A00018004080B584B000AF0200FB1D1A7004
S11334B0FB1D1B7818000B4B98470300FB60FB1D9A
S11334C01B781F22134001229A401300BB60FB6843
S11334D01B69BA6813405A1E9341DBB21800BD46FB
S11334E004B080BD5934000080B584B000AF020040
S11334F0FB1D1A70FB1D1B781800094B984703002D
S1133500FB60FB1D1B781F22134001229A4013000D
S1133510BB60FB68BA681A61C046BD4604B080BD92
S11335205934000080B500AF154B00221A7020E01A
S1133530134B1B781800134B9847031E13D0104BE2
S11335401B781800104B98470D4B1B781A000F4B33
S11335509200D358002B06D0094B1B781A000B4B52
S11335609200D3589847064B1B780133DAB2044BC8
S11335701A70034B1B780F2BDAD9C046BD4680BDA9
S11335807C030020A5340000E934000080030020FF
S113359080B582B000AF78607B6800221A70C046A4
S11335A0BD4602B080BD000080B582B000AF02000D
S11335B03960FB1D1A70FB1D1B78012B0AD0022BEE
S11335C00FD0002B14D10E4B0D4A91693A680A436F
S11335D09A610FE00A4B0A4AD1693A680A43DA61F0
S11335E008E0074B064A116A3A680A431A6201E086
S11335F0172300E000231800BD4602B080BDC0467A
S11336000004004080B582B000AF0200FB1D1A70B8
S1133610064BFA1D127811001F220A400121914025
S11336200A001A60C046BD4602B080BD00E100E059
S113363080B582B000AF0F4B3B6000237B6011E08C
S11336407B689B0008229446BC446344083B1B6887
S11336505B78DBB25BB2002B01DA012306E07B6806
S113366001337B607B68002BEAD000231800BD4641
S113367002B080BD0018004080B584B000AF2D4B6F
S11336807B60402100202C4B98473B0018002B4BBB
S113369098473B0000221A703B0019000520284B74
S11336A098470520274B98470023FB6018E0FB68E8
S11336B09B0010229446BC4463440C3B1A68FB688C
S11336C09B0010218C46BC4463440C3B1B681B7854
S11336D0DBB201210B43DBB21370FB680133FB60E7
S11336E0FB68002BE3D0C046174B9847031EFBD161
S11336F00B23FB1800221A700DE00B23FB181A7819
S1133700124B92000021D1500B23FB181A780B2383
S1133710FB1801321A700B23FB181B780F2BECD902
S113372004200B4B98470B4B9847C046BD4604B04A
S113373080BDC04600180040A93500009135000046
S1133740C5560000095700003136000080030020F0
S1133750053600005937000080B582B000AF154B24
S11337603B6000237B6018E07B689B000822944642
S1133770BC446344083B1A687B689B0008218C4660
S1133780BC446344083B1B681B78DBB202210B4337
S1133790DBB213707B6801337B607B68002BE3D062
S11337A0C046054B9847031EFBD1C046BD4602B038
S11337B080BDC046001800403136000080B582B09C
S11337C000AF78607B6880221A707B6800225A7090
S11337D07B6801229A707B680022DA70C046BD467D
S11337E002B080BD80B584B000AF02003960FB1D1B
S11337F01A700C23FB181800104B98470C23FB1865
S113380080221A703B681A780C23FB185A703B68A4
S11338105A780C23FB189A703B689A780C23FB188F
S1133820DA700C23FA18FB1D1B7811001800044BE6
S11338309847C046BD4604B080BDC046BD370000B1
S1133840B159000080B582B000AF78607B68002277
S11338501A70C046BD4602B080BDF0B58DB000AF51
S1133860B860F9603A607B60002300243B627C62AC
S113387000230024BB61FC613F23FB6253E0FB6A2D
S1133880203B002B04DB01229A4013007B610BE0F8
S1133890FB6A2022D31A0122DA4013000021FA6ABB
S11338A091400A0013437B610122FB6A9A40130092
S11338B03B61BB69FC69DB186441BB61FC61BB68AB
S11338C03A691A401500FB687A691A4016002B0001
S11338D0334307D0BB6901221343BB61FB69002258
S11338E01343FB617A68FB699A4219D87A68FB69C9
S11338F09A4203D13A68BB699A4211D8B969FA6904
S11339003B687C68C91AA2410B001400BB61FC61CE
S11339103A6A3B6913433B627A6A7B6913437B626D
S1133920FB6A013BFB62FB6A002BA8DA3B6A7C6AF8
S113393018002100BD460DB0F0BD80B586B000AFC3
S1133940F860B9607A601623FB1800221A80BB68FD
S11339503B61BB685A08FB689A4201D2402326E0C7
S1133960BB685B083B610AE03A69FB68D31A3B61B8
S11339701623FB181A881623FB1801321A803A6999
S1133980FB689A42F0D21623FB181622BA18128842
S1133990013A1A801623FB181B88FF2B01D94023F8
S11339A005E07B681622BA1812881A8000231800D2
S11339B0BD4606B080BD0000F0B5A1B000AFF8640C
S11339C0B9647A644322BA181370002300243B6755
S11339D07C6700230024BB66FC6600230024BB67CD
S11339E0FC6700237B66582340229446BC4463440E
S11339F01A78FB6C5A43BB6C9A4201D94023B3E05A
S1133A004323FB181B78002B3DD1582340229446B6
S1133A10BC4463441B78DBB23B6100237B61FB6CD9
S1133A20BB600023FB60524CBA68FB683869796953
S1133A30A04703000C001B00FB650023BB65BB6CA7
S1133A403B6000237B60B86DF96D3A687B68494C34
S1133A50A04703000C003B677C67002101223B6FF9
S1133A607C6FC91AA2410B001400BB66FC66BB6ED6
S1133A701B0CFA6E16041E43BB6E1D043300BB6799
S1133A800023FB676AE04323FB181B78012B65D1F5
S1133A90FB6C3B6300237B63582340229446BC4465
S1133AA063441B78DBB2BB620023FB62304CBA6A0E
S1133AB0FB6A386B796BA04703000C00BB65FC659F
S1133AC0BB6C3B6200237B62BB6DFC6D1A00230060
S1133AD0386A796A274CA04703000C007B667A6E2B
S1133AE080239B019A4201D940233DE0BB6CBB611A
S1133AF00023FB61B969FA690B005B0F1000C00079
S1133B00F863F86B1843F8630B00DB00BB63BB6D11
S1133B10FC6D1A002300B86BF96B164CA047030028
S1133B200C00BB65FC65BB6DFC6DD9B27B6EDBB272
S1133B30DB00DAB2172340208446BC4463448A1A6B
S1133B401A70172340229446BC4463441B785B03D9
S1133B501A007B6E1343BB670023FB67BB6FFC6FCC
S1133B609AB27B6C1A8000231800BD4621B0F0BDC8
S1133B70FD6600005B38000080B584B000AF020031
S1133B80FB1D1A70BB1D0A1C1A701A4B1B780122EC
S1133B905340DBB2002B03D1BB1D1B78002B1BD081
S1133BA00C23FB181800144B98470C23FB18FA1D20
S1133BB012781A700C23FB18190013200F4B984726
S1133BC013200F4B98470B4BFA1D12785A70094B70
S1133BD001221A70002308E0064B5B78FA1D127864
S1133BE09A4201D1002300E01D231800BD4604B011
S1133BF080BDC0466802002045380000C55600005C
S1133C000957000080B582B000AF78600A00FB1C41
S1133C101A707B684D4A93423FD04C4A934206D86F
S1133C204B4A93420FD04B4A934221D089E04A4AEF
S1133C30934200D15BE0494A934200D16CE0484A88
S1133C4093423FD07DE0FB1C1B78012B0AD002DCA1
S1133C50002B05D075E0022B06D0032B06D070E0B4
S1133C60404B6FE0404B6DE0404B6BE0404B69E0F4
S1133C70FB1C1B78012B0AD002DC002B05D060E072
S1133C80022B06D0032B06D05BE003235AE0394B0A
S1133C9058E0394B56E0394B54E0FB1C1B78012BA0
S1133CA00AD002DC002B05D04BE0022B06D0032BFC
S1133CB006D046E0324B45E0324B43E0324B41E024
S1133CC0324B3FE0FB1C1B78012B0AD002DC002B9B
S1133CD005D036E0022B06D0032B06D031E02C4B66
S1133CE030E02C4B2EE02C4B2CE02C4B2AE0FB1C20
S1133CF01B78012B0AD002DC002B05D021E0022B1B
S1133D0006D0032B06D01CE0254B1BE0254B19E005
S1133D10254B17E0254B15E0FB1C1B78012B0AD023
S1133D2002DC002B05D00CE0022B06D0032B06D0BE
S1133D3007E01F4B06E01F4B04E01F4B02E01F4B44
S1133D4000E000231800BD4602B080BD0010004210
S1133D5000080042000C004200180042001C00420F
S1133D6000140042030004000300050003000600E1
S1133D70030007000300010003001E0003001F00EE
S1133D80030008000300090003000A0003000B00FD
S1133D9003001000030011000300120003001300CD
S1133DA003000C0003000D0003000E0003000F00CD
S1133DB00300160003001700030018000300190095
S1133DC090B58BB000AF78600C23FB180F4A13CA70
S1133DD013C313CA13C300237B620EE00C23FB1826
S1133DE07A6A9200D3581A007B689A4202D17B6A9D
S1133DF0DBB206E07B6A01337B627B6A052BEDD97B
S1133E0000231800BD460BB090BDC046F8A40000C6
S1133E1080B582B000AF0200FB1D1A70C046BD46DB
S1133E2002B080BD80B584B000AF02003960FB1DD4
S1133E301A70134B1B7801225340DBB2002B15D0B0
S1133E400023FB600CE00F4BFA6892000E49D1503E
S1133E500E4BFA6892000021D150FB680133FB60DD
S1133E60FB68052BEFD9064B01221A70FB1D1A784B
S1133E70044B92003968D150C046BD4604B080BDA1
S1133E806A0200206C020020113E0000C0030020E2
S1133E9090B585B000AF78600823FB180B4A116811
S1133EA0196092889A800F23FC187B681800084BCD
S1133EB09847030023700F23FB181B780822BA18B5
S1133EC0D35C5BB21800BD4605B090BD10A50000E0
S1133ED0C13D000080B500AF034B1B68002098472C
S1133EE0C046BD4680BDC0466C02002080B500AF10
S1133EF0034B5B6801209847C046BD4680BDC04661
S1133F006C02002080B500AF034B9B6802209847E9
S1133F10C046BD4680BDC0466C02002080B500AFDF
S1133F20034BDB6803209847C046BD4680BDC046AE
S1133F306C02002080B500AF034B1B690420984736
S1133F40C046BD4680BDC0466C02002080B500AFAF
S1133F50034B5B6905209847C046BD4680BDC046FB
S1133F606C02002080B582B000AF78607B680022CC
S1133F701A70C046BD4602B080BD000080B582B054
S1133F8000AF02003960FB1D1A70FB1D1B78012B6A
S1133F900AD0022B0FD0002B14D10E4B0D4A91697D
S1133FA03A680A439A610FE00A4B0A4AD1693A68AF
S1133FB00A43DA6108E0074B064A116A3A680A4381
S1133FC01A6201E0172300E000231800BD4602B086
S1133FD080BDC0460004004080B582B000AF786068
S1133FE07B6880221A707B6800225A707B680122E9
S1133FF09A707B680022DA70C046BD4602B080BD6C
S113400080B500AF054B9B78DBB21A000223134046
S11340105A1E9341DBB21800BD4680BD002000410A
S113402080B584B000AF78607B681B68FB60FB6878
S1134030DB695A1E9341DBB21800BD4604B080BD53
S113404080B582B000AF7860C0467B681800044B2E
S11340509847031EF9D1C046BD4602B080BDC04694
S113406021400000B0B58CB002AF786039607B6845
S11340701B68BB617B681B681800AB4B9847030047
S11340807B617B6914333B6100237B6200233B62C9
S11340900A23FB1800221A801F23FB1800221A701F
S11340A01E23FB1810221A703B681B8A8022D2013F
S11340B093421CD08022D201934206DC002B0DD007
S11340C080229201934224D035E0C022D20193424F
S11340D028D080221202934212D02CE01F23FB1816
S11340E000221A701E23FB1810221A7023E01F23CB
S11340F0FB1800221A701E23FB1808221A701AE0FB
S11341001F23FB1800221A701E23FB1803221A70A7
S113411011E01F23FB1801221A701E23FB18102222
S11341201A7008E01F23FB1801221A701E23FB18C3
S113413008221A70C0463B681A683B68DB681A4359
S11341403B685B6913433A68128A13433A68127EE8
S1134150120213433A682621525C520713437B62CE
S11341601D23FB1800221A703B685B68FB60FB6828
S1134170002B1ED08022520593424FD13B68272248
S11341809B5C01225340DBB2002B46D03B681D6A86
S11341903B69DBB21800654B984701001D23FC18EE
S11341A00A23FB181A002800614B98470300237068
S11341B033E03B6827229B5C002B14D03B68186AD1
S11341C03B68996A1D23FC181F23FB181D780A23DA
S11341D0FA181E23FB181B7800932B00554DA84793
S11341E0030023701AE03B681D6A3B69DBB21800C8
S11341F04E4B98471D23FC181F23FB1819780A23DC
S1134200FA181E23FB181B7800930B0001002800EA
S1134210484DA8470300237000E0C0461D23FB1847
S11342201B78002B03D01D23FB181B7877E03B6819
S11342305B7E002B03D03B689A7EBB699A737B68D4
S113424018003D4B98470A23FB181A88BB699A81CA
S11342507A6AFB6813437B623B6827229B5C0122DA
S11342605340DBB2002B03D07B6A042213437B62EE
S11342703B685B7E9A023B681B7F5B021A433B6888
S11342805B7F1B021A433B6824215B5C5B041A437B
S11342903B6825215B5C1B0413433B623B689B7AB0
S11342A01A003B6A13433B623B68DB7A1A003B6AA1
S11342B013433B623B681B89FF2B0BD07B6A802234
S11342C0520413437B623B681B891A003B6A134305
S11342D03B6208E03B68DB7E002B04D07B6A8022D3
S11342E0D20413437B623B682C229B5C002B03D1DA
S11342F0124B9847031E03D07B6A802213437B62D0
S11343007B6818000C4B9847BB693A6A5A607B6813
S11343101800094B9847BB697A6A1A600023180091
S1134320BD460AB0B0BDC046C13D0000E95700001B
S11343303B390000B9390000414000000140000051
S113434090B593B000AFF860B9607A603B23FB1876
S113435000221A70FB68BA681A60FB681B687B63EA
S1134360FB681B681800864B984703003B633B6B54
S11343700233FB623B6B1433BB627B6B1B68012211
S1134380134001D00523F6E07B6B1B680222134027
S113439001D01C23EFE00122FB6A9A4013001900AC
S11343A00220784B98472423FB181800764B984733
S11343B07B682D229A5C2423FB181A70BB6ADBB23B
S11343C02422BA1811001800704B9847BB6ADBB25C
S11343D018006F4B98477B682D229B5C00211800C6
S11343E06C4B98477B68DA7AFB685A717B682422A5
S11343F09A5CFB689A717B6825229A5CFB68DA7187
S11344007B68DA7EFB681A727B681A7FFB685A72D3
S11344103B23FC187A68FB68110018005E4B984730
S1134420030023703B23FB181B78002B03D03B2392
S1134430FB181B789FE02023FB181800574B984764
S11344402023FB1800225A702023FB1800229A70A4
S11344507B681A6B1023FB181A607B685A6B102355
S1134460FB185A607B689A6B1023FB189A607B6870
S1134470DA6B1023FB18DA604723FB1800221A704A
S11344802CE04723FB181A781023FB189200D3580A
S11344903B643B6C002B09D14723FB181A78BB689B
S11344A0110018003E4B984703003B643B6C0133FA
S11344B00DD03B6CDAB22023FB181A703B6C1B0C3A
S11344C0DBB22022BA1811001800364B9847472354
S11344D0FB181A784723FB1801321A704723FB187C
S11344E01B78032BCDD90023FB630AE0FA68FB6B2E
S11344F002339B00D318043300221A60FB6B013390
S1134500FB63FB6B052BF1D9FB6800229A62FB6805
S113451000225A62FB680022DA85FB6800229A8531
S1134520FB68302200219954FB6831220021995400
S1134530FB68322200219954FB68332200219954EC
S1134540FB681B682722BC1818000D4B9847030012
S11345502370154A2723FB181B7811001800134BEE
S113456098472723FB181A78114B9200F968D15009
S11345703B23FB181B781800BD4613B090BDC04602
S1134580C13D00007D3F0000653F0000C5560000AE
S113459009570000793B000065400000D93F000046
S11345A0053C0000B159000049470000253E0000C9
S11345B0C003002080B584B000AF78600A00BB1C43
S11345C01A807B681B68FB607B68DB79012253409F
S11345D0DBB2002B01D01C2317E07B68DB8D9BB280
S11345E0002B01D0052310E07B681800094B984785
S11345F0FB68BA1C12881A85C046FB681B7EDBB2B6
S11346001A0002231340F8D000231800BD4604B05A
S113461080BDC0464140000080B584B000AF7860E2
S113462039607B681B68FB607B689B79012253407F
S1134630DBB2002B01D01C235EE07B689B8D9BB218
S1134640002B01D0052357E0FB681B7EDBB21A0068
S11346500423134001D105234EE07B681800284B46
S11346609847FB685B8B9BB2DAB20B23FB183F21A4
S11346700A401A700B23FB181B78002B36D00B232F
S1134680FB181B780222134004D0FB6802225A83D1
S11346901A2331E00B23FB181B780422134004D0A7
S11346A0FB6804225A831E2326E00B23FB181B7885
S11346B00122134004D0FB6801225A8313231BE018
S11346C00B23FB181B781022134004D0FB68102224
S11346D05A83422310E00B23FB181B78202213403B
S11346E004D0FB6820225A83412305E0FB681B8D1C
S11346F09AB23B681A8000231800BD4604B080BDFE
S11347004140000080B584B000AF78607B681B68CE
S1134710FB60FB68DB695A1E9341DBB21800BD469F
S113472004B080BD80B582B000AF7860C0467B68BD
S11347301800044B9847031EF9D1C046BD4602B089
S113474080BDC0460547000080B588B000AF0200B8
S1134750FB1D1A70FB1D1A78A34B9200D358BB6142
S1134760BB691B687B61BB691800A04B98477B69D8
S11347701B7EDAB21223FB181A807B699B7DDBB2A5
S11347809AB21223FB181221791809880A401A8058
S1134790BB6930229B5CBA693121525C1340DAB2A6
S11347A01023FB181A801223FB181B8801221340C4
S11347B044D0BB69DB8D9BB2002B3CD0BB699B6AA8
S11347C01B78DAB21C23FB181A80BB699B6A5A1C3B
S11347D0BB699A62BB695B79012B13D1BB699B6A84
S11347E01B78DBB21B021AB21C23FB1800215B5E90
S11347F013431AB21C23FB181A80BB699B6A5A1C08
S1134800BB699A621C23FB181B88DB05DB0D9AB27B
S11348107B691A85BB69DB8D9BB2013B9BB2BA698C
S1134820191CD185002B09D17B6901221A757B697A
S113483002229A7502E07B6901221A751223FB1881
S11348401B880222134011D07B6902221A75BB69AE
S11348503322002199541023FB181B880122134092
S113486004D0BB69DB68BA69100098471223FB18AF
S11348701B880422134000D1BDE0BB699B8D9BB211
S1134880002B00D1B4E07B695B8B9BB2DAB21F23AF
S1134890FB183F210A401A701F23FB181B780822BB
S11348A0134007D01F23FB181F22BA1812780821BF
S11348B08A431A701F23FB181B78002B50D01F2328
S11348C0FB181B780222134007D0BB6932221A213D
S11348D099547B6902225A8336E01F23FB181B7804
S11348E00422134007D0BB6932221E2199547B69EC
S11348F004225A8328E01F23FB181B78012213404B
S113490007D0BB693222132199547B6901225A834F
S11349101AE01F23FB181B781022134007D0BB6931
S11349203222422199547B6910225A830CE01F23BE
S1134930FB181B782022134006D0BB693222412188
S113494099547B6920225A831023FB181B88042264
S1134950134050D0BB695B69BA69100098474AE0BC
S11349607B691B8D9AB20E23FB18D205D20D1A80D7
S1134970BB695B6A0E22BA181288D2B21A70BB697C
S11349805B6A5A1CBB695A62BB695B79012B0DD106
S1134990BB695B6A0E22BA181288120A92B2D2B2AA
S11349A01A70BB695B6A5A1CBB695A62BB699B8DEE
S11349B09BB2013B9BB2BA69191C9185002B1AD199
S11349C07B6904221A75BB69322200219954102391
S11349D0FB181B88022213400DD0BB691B69BA69FE
S11349E01000984707E0C046C00300202547000098
S11349F07B6904221A751223FB181B8810221340AA
S1134A0010D07B6910221A757B6910221A76102344
S1134A10FB181B881022134004D0BB69DB69BA69F8
S1134A20100098471223FB181B882022134010D033
S1134A307B6920221A757B6920221A761023FB18C1
S1134A401B880822134004D0BB699B69BA69100013
S1134A5098471223FB181B880822134010D07B6947
S1134A6008221A757B6908221A761023FB181B8802
S1134A702022134004D0BB691B6ABA69100098470E
S1134A80C046BD4608B080BD80B582B000AF786036
S1134A907B6801225A607B6800225A707B68062278
S1134AA01A707B6800221A727B6800225A72C04610
S1134AB0BD4602B080BD80B582B000AF78607B682F
S1134AC000221A70C046BD4602B080BD80B582B0D7
S1134AD000AF78607B6800221A707B6804225A70E9
S1134AE07B6800229A707B68802212029A607B683D
S1134AF00022DA707B6801221A717B6800221A7323
S1134B007B6801225A737B6800229A73C046BD46B3
S1134B1002B080BD80B582B000AF78607B680322AC
S1134B201A707B6800225A707B6801229A70C04612
S1134B30BD4602B080BD80B582B000AF78607B68AE
S1134B4000221A707B6800225A807B6800229A80B7
S1134B507B6800229A717B680022DA717B680122EB
S1134B605A707B6807221A727B683F225A817B68DD
S1134B7001221A737B680122DA817B6806221A8279
S1134B80C046BD4602B080BD80B582B000AF020011
S1134B90FB1D1A70034AFB1D1B781372C046BD46E9
S1134BA002B080BD0004004080B582B000AF0200B6
S1134BB0FB1D1A70BB1D0A1C1A70FB1D1B78012BF0
S1134BC008D0022B0BD0002B0ED10B4ABB1D1B7837
S1134BD053720BE0084ABB1D1B78937206E0064A29
S1134BE0BB1D1B78D37201E0172300E000231800DB
S1134BF0BD4602B080BDC0460004004080B582B00E
S1134C0000AF0200FB1D1A70084AFB1D1B780F2120
S1134C100B40D9B253680F20014049001E20834342
S1134C200B435360C046BD4602B080BD0040004106
S1134C3080B500AFC046044BDB6810221340FAD0A5
S1134C40C046BD4680BDC0460008004080B500AFE8
S1134C500C4B02229A840C4B98470A4A0B4B9B68D4
S1134C60D362084A094B5B689362064B00229A841C
S1134C70054B9847034A054B1B689BB29384C04677
S1134C80BD4680BD00080040314C00008402002075
S1134C9080B582B000AF0200FB1D1A70FB1D1B78AB
S1134CA0082B40D89A00224BD3181B689F46214BEF
S1134CB01B6939E0204B1B6A9B059B0FDBB21A0072
S1134CC01E4BD34030E080231B022DE080231B02C7
S1134CD02AE0184B5B6927E0164B1B68022213403D
S1134CE001D1002320E0164B9847124B1B68042285
S1134CF0134009D00020134B984702000D4B9B68CA
S1134D001B041B0C53430FE00F4B0DE00A4A5023C6
S1134D10D35CDBB21A000423134001D1002303E067
S1134D20044BDB6800E000231800BD4602B080BDE0
S1134D3018A50000840200200008004000127A0038
S1134D40314C0000E9570000006CDC0280B584B0EF
S1134D5000AF78601A4B1B6AFB607B681B781A1CD7
S1134D6003231340DAB20D23FB1803210A40100079
S1134D701A7803218A43111C021C0A431A707B68A7
S1134D809A780C23FB18D0011A787F210A40111C51
S1134D90021C0A431A707B685A780C23FB18012101
S1134DA00A4090011A7840218A43111C021C0A43CC
S1134DB01A70034BFA681A62C046BD4604B080BD3F
S1134DC00008004080B584B000AF7860434A0C23EB
S1134DD0FB18928A1A807B685B781A1C072313409D
S1134DE0DAB20C23FB1807210A4010005A78072175
S1134DF08A43111C021C0A435A707B681B78002BDF
S1134E0006D10C23FB181A7804210A431A7005E012
S1134E100C23FB181A7804218A431A707B689A7849
S1134E200C23FB1801210A4050011A7820218A43DF
S1134E30111C021C0A431A707B68DA780C23FB18D5
S1134E4001210A4010011A7810218A43111C021C06
S1134E500A431A707B681A790C23FB1801210A4053
S1134E60D0001A7808218A43111C021C0A431A70C4
S1134E707B685A7B0C23FB18D0011A787F210A40E7
S1134E80111C021C0A431A707B681A7B0C23FB1842
S1134E9001210A4090011A7840218A43111C021C06
S1134EA00A431A707B689A7B0C23FB1801210A4081
S1134EB010015A7810218A43111C021C0A435A70AB
S1134EC07B689A68064B5A61044A0C23FB181B88BA
S1134ED09382C046BD4604B080BDC0460008004071
S1134EE08402002080B582B000AF78607B681B7AB2
S1134EF09B021B041A0C7B685B899B059B0D1A4360
S1134F002A4B5A607B689A797B68DB791343DBB25E
S1134F101A007B685B8813437A6892881A437B681B
S1134F205B78DB011A43214B1A607B681B78042BE6
S1134F3016D17B681B7B9B061A007B68DB891B04EC
S1134F4019001B4B0B4013437A68128A1A43174B00
S1134F509A60164B1B687A6812781A43134B1A60CE
S1134F607B681B78202B1CD17B681B7B9B061A005B
S1134F707B68DB891B0419000D4B0B4013437A68D3
S1134F80128A1A43094B9A60084B1B687A68127894
S1134F9004210A43D2B213438022D2001A43034BA2
S1134FA01A60C046BD4602B080BDC04684020020DF
S1134FB00000FF0380B582B000AF0200FB1D1A7031
S1134FC0FB1D1B78082B3BD89A00214BD3181B6878
S1134FD09F46204B1F4A126A02210A431A62002389
S1134FE031E01C4B1B4A926902210A439A6129E071
S1134FF0184A184B1B8A9BB202210B439BB21382A3
S113500020E0144A134B9B8A9BB202210B439BB2B0
S1135010938217E0104B1B6802221A430E4B1A604E
S11350200E4B98470EE00B4A0A494423CB5CDBB293
S113503002210B43D9B24423D15403E0002302E0FC
S1135040172300E000231800BD4602B080BDC0460F
S11350503CA5000000080040840200204D4C0000E4
S113506080B584B000AF0200FB1D1A700023FB6002
S1135070FB1D1B78082B21D89A00184BD3181B68EA
S11350809F460823FB601BE00423FB6018E0012318
S1135090FB6015E00223FB6012E0D023FB600FE00D
S11350A00F4A5023D35CDBB21A0003231340033BA3
S11350B05A425341DBB20CE001230AE0002308E02A
S11350C0074BDB68FA681A40FB68D31A5A4253410B
S11350D0DBB21800BD4604B080BDC04660A5000028
S11350E00008004080B582B000AF3B0002221A7075
S11350F000237B6009E07B68DBB23A0011001800F2
S1135100054B98477B6801337B607B68242BF2D97D
S1135110C046BD4602B080BDC556000080B5AAB0E9
S113512000AF874BC222D2009A600220854B984779
S1135130854B98479423FB181800844B9847942375
S1135140FB18802212029A609423FB1800221A7022
S11351509423FB1803225A709423FB1800229A709C
S11351609423FB180022DA709423FB1801221A718D
S11351709423FB1800225A739423FB1800221A73F9
S11351809423FB181800724B98470520714B9847DD
S1135190C0460520704B984703001A000123534072
S11351A0DBB2002BF5D1664A938A80210B439382AC
S11351B08023FB181800694B98478023FB180422AE
S11351C01A708023FB1800225A70654B1B689B0ED3
S11351D0A422BA181360A423FB181B683F2B03D125
S11351E01F23A422BA181360A423FB181B68DAB285
S11351F08023FB181A728023FB1800225A80802314
S1135200FB180022DA718023FB1800229A71802394
S1135210FB1800229A808023FB18524A1A828023AA
S1135220FB1807221A738023FB183F22DA8180239C
S1135230FB1818004C4B98477C23FB1818004B4B69
S113524098477C23FB1800221A707C23FB18012248
S11352509A707C23FB1800225A707C23FB181800D8
S1135260434B984706203B4B9847424B984764234F
S1135270FB181800404B98476423FB1805221A704A
S11352806423FB1801225A606423FB1800221A725B
S11352906423FB1800225A726423FB1819000120AE
S11352A0364B98470120364B98470C23FB181800BF
S11352B0344B98470C23FB1801221A700C23FB185B
S11352C019000020304B98470020304B98470720A6
S11352D0204B9847C04607201F4B984703001A00ED
S11352E001235340DBB2002BF5D10020284B984713
S11352F000210020274B984700210120254B984787
S113530000210220234B98473B0018001A4B984772
S11353103B0007221A703B0001225A603B00002226
S11353201A723B0000225A723B0019000020134BF2
S113533098470020124B9847C046BD462AB080BD0E
S113534000080040FD4B0000E5500000CD4A00007D
S1135350C54D0000B54F000061500000374B000000
S113536024608000B9050000E54E0000154B0000E4
S11353704D4D00003D540000894A00006D5400006A
S113538091550000B74A0000C556000009570000B7
S1135390894B0000A94B000080B582B000AF020029
S11353A03960FB1D1A70FB1D1B78012B0AD0022BE0
S11353B00FD0002B14D10E4B0D4A91693A680A4361
S11353C09A610FE00A4B0A4AD1693A680A43DA61E2
S11353D008E0074B064A116A3A680A431A6201E078
S11353E0172300E000231800BD4602B080BDC0466C
S11353F00004004080B500AF024B9847C046BD464C
S113540080BDC0467932000080B500AF024B98479A
S1135410C046BD4680BDC046CD32000080B500AF59
S1135420054B5B78DBB25BB2002B01DA012300E0B1
S113543000231800BD4680BD000C004080B500AFBD
S113544008210020074B9847074B01221A70C046D9
S1135450054B1B78DBB21A0001231340F8D1C04678
S1135460BD4680BD99530000000C004080B586B055
S113547000AF02003960FB1D1A70FB1D1B787B61B5
S1135480FB1D1B783B613B681B781B021A007B6980
S113549013437B613B685B78002B04D07B698022DB
S11354A0D20213437B613B685B7A002B04D07B6997
S11354B08022120313437B613B685B68012B2CD968
S11354C03B685A683B685B68013B13401AD1002370
S11354D0FB600223BB6005E0FB680133FB60BB6833
S11354E05B00BB603B685A68BB689A42F4D8FB68AF
S11354F01B023A6913433B617B69802252031343C5
S11355007B610AE03B685B681B023A6913433B61B9
S11355107B698022920213437B613B681B7A002BD8
S113552004D07B698022920313437B61C046134BF2
S11355309847031EFBD1124B9847124AFB1D1B7858
S11355401370C0460D4B9847031EFBD10E4B3A69AE
S11355509A60C046094B9847031EFBD10A4B0A4A7E
S113556051688022520211407A690A435A60074BFB
S11355709847C046BD4606B080BDC0461D540000D5
S1135580F5530000080C0040000C004009540000D2
S113559080B582B000AF0200FB1D1A70C0460E4BEE
S11355A09847031EFBD10D4B98470D4AFB1D1B78F2
S11355B01370C046084B9847031EFBD1094B094A98
S11355C05268802149020A435A60074B9847C046F3
S11355D0BD4602B080BDC0461D540000F553000016
S11355E0040C0040000C00400954000080B586B053
S11355F000AF0200FB1D1A70C0462A4B9847031ED9
S1135600FBD1294B9847294AFB1D1B781370C046D0
S1135610244B9847031EFBD1254B5B68DB04DB0E50
S1135620DBB21800234B984703007B611F4AFB1D24
S11356301B7813701E4B5B68DB02DB0FDAB213239B
S1135640FB181A701C4AFB1D1B781370C046154BBF
S11356509847031EFBD1164B9B681B021B0C9BB285
S1135660FB60164B98471323FB181B78002B09D1BA
S1135670FB68012B06D9124BF96878699847030037
S11356807B610AE01323FB181B78002B05D0FB6811
S113569001337A69DA4013007B617B691800BD46E7
S11356A006B080BD1D540000F5530000040C0040FA
S11356B0000C0040914C0000080C0040095400000C
S11356C01164000080B584B000AF02003960FB1D96
S11356D01A70FB1D1B78FB603B681B781B021A00C9
S11356E0FB681343FB60FB1D1B781800044B9847B1
S11356F0044BFA6892B25A80C046BD4604B080BDDD
S113570051570000000C004080B582B000AF020089
S1135710FB1D1A700A4B98470A4AFB1D1B7813702D
S11357200949094B5B889BB28022D20113439BB287
S11357304B80064B9847C046BD4602B080BDC0466C
S1135740F5530000020C0040000C00400954000016
S113575080B584B000AF0200FB1D1A701C4B984743
S11357601C4AFB1D1B7813701B4B5B881B051B0F0E
S1135770DBB2FB60184A538818490B405380164A21
S1135780154B5B889BB216490B409BB25380C046B5
S1135790114B5B889BB21A008023DB011340F7D1C5
S11357A00D4AFB68DBB2191C0F230B40D9B2538896
S11357B0081C0F210140080208490B40191C031C56
S11357C00B435380074B9847C046BD4604B080BD89
S11357D0F5530000020C0040000C0040FFF0FFFFF6
S11357E0FFBFFFFF0954000080B584B000AF020082
S11357F0FB1D1A700D4B98470D4AFB1D1B78137047
S11358000C4B5B881B051B0FDAB20F23FB181A70B5
S1135810094B98470F23FB181B781800074B984730
S113582003001800BD4604B080BDC046F553000017
S1135830020C0040000C004009540000ED5500002B
S113584080B584B000AF0200FB1D1A700F23FB1853
S1135850FA1D1278D2091A700E23FB18FA1D127859
S113586052091A700D4BBB600F23FB181B78002BD9
S11358700FD10F23FB181B789B0010229446BC44C5
S11358806344083B1A680E23FB181B78DB01D3180A
S113589000E000231800BD4604B080BD0044004170
S11358A080B588B000AFF860B9607A600023FB610E
S11358B07B68DB7801225340DBB2002B35D07B6858
S11358C01B78802B0BD0FB69802252021343FB61AF
S11358D07B681B781B061A00FB691343FB617B681A
S11358E05B78002B03D07B685B78022B10D1FB69BB
S11358F0802292021343FB617B689B78002B04D0C7
S1135900FB698022D2021343FB61FB68BA685A60C8
S11359107B685B78012B03D07B685B78022B07D113
S1135920FB69224A1340FB6102E0FB68BA685A60D3
S1135930BB681B041B0CBB61BB681B0C7B61BA6995
S1135940FB691343A022D2051A43FB689A627A6961
S1135950FB691343D02212061A43FB689A627B68E0
S1135960DB7801225340DBB2002B1AD0FA69802382
S1135970DB0213400AD07B689B78012B03D1FB68C0
S1135980BA689A6102E0FB68BA685A617B685B781E
S1135990012B03D07B685B78022B02D1FB68BA68C9
S11359A09A60C046BD4608B080BDC046FFFFFBFFFD
S11359B080B584B000AF02003960FB1D1A70FB1D76
S11359C01B7818000A4B98470300FB60FB1D1B78EB
S11359D01F22134001229A401300BB603A68B96841
S11359E0FB681800034B9847C046BD4604B080BD11
S11359F041580000A158000080B500AFC046BD4624
S1135A0080BD000080B500AF064B9847064B984711
S1135A10064B9847064B9847064B9847C046BD46E9
S1135A2080BDC0461D51000009340000F959000032
S1135A3079360000F959000080B582B000AF2F4BD1
S1135A407B602F4B3B607A683B689A420CD007E03E
S1135A503B681A1D3A607A68111D796012681A60F1
S1135A603A68284B9A42F3D3274B3B6004E03B68E7
S1135A701A1D3A6000221A603A68244B9A42F6D3FF
S1135A80234B7B60234B7A68FF218A439A60224A26
S1135A9090235B000221D150204AD37803218B4309
S1135AA0191C02230B43D3701C4AD3780C218B435B
S1135AB0191C08230B43D370194A937B30218B4361
S1135AC0191C20230B439373154A937B0C218B439E
S1135AD0191C08230B439373114A937B03218B43B3
S1135AE0191C02230B4393730E4A536880210B4302
S1135AF053600D4B98470D4B9847FEE78CA8000068
S1135B000000002038020020380200207404002025
S1135B100000000000ED00E0007000410050004172
S1135B200048004100400041258000007D630000E2
S1135B3080B500AFFEE7000080B586B000AFF86026
S1135B40B9607A6000237B61FB68002B12D00123CB
S1135B505B4213E00B4B1A680B4B1B68B9681800C7
S1135B609047BB680133BB607B6901337B617B6811
S1135B70013B7B607B68002BECDC7B691800BD4635
S1135B8006B080BDD8030020E003002080B586B0B5
S1135B9000AFF860B9607A6000237B61FB68012B79
S1135BA01DD0FB68022B1AD0FB68032B17D00123EE
S1135BB05B4218E00E4B1A680E4B1868BB68591C00
S1135BC0B9601B7819009047031E02DA01235B4277
S1135BD009E07B6901337B617B68013B7B607B6807
S1135BE0002BE7D17B691800BD4606B080BDC046D6
S1135BF0DC030020E003002080B584B000AF7860AF
S1135C000A4B1B68002B02D1084B094A1A60074B48
S1135C101B68FB60054B1A687B68D218034B1A603B
S1135C20FB681800BD4604B080BDC0469C0200203D
S1135C307824002080B582B000AF786001235B42F5
S1135C401800BD4602B080BD80B582B000AF786058
S1135C5039603B68802292015A6000231800BD46D7
S1135C6002B080BD80B582B000AF78600123180017
S1135C70BD4602B080BD80B584B000AFF860B960A5
S1135C807A6000231800BD4604B080BD80B584B09E
S1135C9000AF0200FB1D1A700F23FB18FA1D1278C7
S1135CA0D2091A700E23FB18FA1D127852091A70C1
S1135CB00D4BBB600F23FB181B78002B0FD10F2358
S1135CC0FB181B789B0010229446BC446344083B99
S1135CD01A680E23FB181B78DB01D31800E000239D
S1135CE01800BD4604B080BD0044004180B582B0B8
