S01A000044726F6E65444144426F6F746C6F616465722E737265633E
S113000078210020DD1B0000D91B0000D91B000053
S113001000000000000000000000000000000000DC
S1130020000000000000000000000000D91B0000D8
S11300300000000000000000D91B0000D91B0000D4
S1130040D91B0000D91B0000BD1B0000D91B0000F8
S1130050D91B0000D91B0000D91B0000D91B0000CC
S1130060D91B0000050A0000150A0000250A00003B
S1130070350A0000450A0000550A0000D91B00009B
S1130080D91B0000D91B0000D91B0000D91B00009C
S1130090D91B00000000000000000000D91B000074
S11300A0D91B0000D91B0000D91B0000D91B00007C
S11300B00000000010B5064C2378002B07D1054B37
S11300C0002B02D0044800E000BF0123237010BDC0
S11300D06800002000000000E83C0000084B10B558
S11300E0002B03D00749084800E000BF0748036815
S11300F0002B00D110BD064B002BFBD09847F9E72D
S1130100000000006C000020E83C0000E83C000017
S113011000000000002210B54309C409944202D132
S1130120DA01064BD2181F2318401E3B83400029D6
S113013001D0936110BD5361FCE7C0460044004107
S113014070B50500064B98472B790524DBB2002BCC
S113015002D101221C002A71024B9847200070BD75
S11301603D06000071060000F0B585B015000AAA2E
S1130170040001CA168802AA01901170012D05D944
S1130180D37002A91A0A1B0C8A704B706079002183
S1130190084FB847AAB202A92068074DA847002E05
S11301A003D0320001992068A84760790121B8473B
S11301B005B0F0BD15010000DD0D0000F0B585B0FF
S11301C015000AAA040001CA168802AA0190117037
S11301D0012D05D9D37002A91A0A1B0C8A704B7021
S11301E060790021094FB847AAB202A92068084BD8
S11301F09847002E05D00023320001992068054D50
S1130200A84760790121B84705B0F0BD1501000089
S1130210DD0D0000E90C0000F7B50D001E005918B3
S11302200379170004000022092B02D80B4A9B0013
S11302309A58172091420FD82068094B98470528EF
S11302400AD02B0020000196009705220B21054DB2
S1130250A847002023681871FEBDC046A0380000DE
S113026041010000BD01000073B5094B05000068A1
S1130270984705280BD000242800230001940094FB
S11302800122B921034EB04720002B681C7176BDB2
S1130290410100006901000073B5094B05000068C5
S11302A0984705280BD000242800230001940094CB
S11302B00122AB21034EB04720002B681C7176BD90
S11302C0410100006901000070470000012310B5DE
S11302D048400649D200002A00D110BD040040085D
S11302E01C4000D04840013AF5E7C0462083B8EDF1
S11302F0F7B503230C000500170012689D43D14392
S113030022009C4201D942421A40002A0AD0D3005A
S113031028685B422033D840164BA41A98472E1DF8
S113032001003500032322009A430BD02E00A31AA8
S1130330A40801930094009B5A1E009214D2A400B6
S11303402D19019C002C0BD00122E3005B422033C9
S11303505242DA402868074B1040220098470100B7
S1130360C94300203960FEBD042201CE014B9847E9
S11303700100E0E7CD020000024B187D0123184084
S11303807047C04600400041042370B51C4A1D4D0F
S1130390D16904000B43D3612023FF332B831A4B11
S11303A0984703000520002B28D0C0221E21237863
S11303B092001B021340A27852000A40802113438A
S11303C06278C902D2011343E27892040A40C02140
S11303D013432279890212040A40082113436B60F3
S11303E0AB680A4A5B035B0F99401180AB6853808A
S11303F063781371288BC005C00F000170BDC0461F
S11304000004004000400041790300008400002003
S1130410F7B5244A019153881188019A4B4304008B
S1130420934207D28022019B1F4992015B18182036
S113043093420FD880231D4DDB026F682E003B438F
S11304406B602023FF332B83194B9847002802D17C
S11304506F600530FEBD062C14D8052C1BD2022C6F
S113046001D0042C14D1019B9B085B00F361A523EC
S11304701B021C4334800E4B98470028FBD0776046
S11304800020E7E7402C03D3412CECD9452CEED9CE
S113049077601720DEE72B8BDB05E4D56F60102037
S11304A0D8E7C0468400002000C07FFF0040004120
S11304B079030000F7B5214E009133887188150047
S11304C0594304001822814226D3591E084223D1DD
S11304D0013AAB4220D31A4FB847052200281BD05B
S11304E0184B194A1A800193B8470028FCD02023DE
S11304F0019AFF331383002362085200681E9D4251
S11305000CD800223379934206D13F2D04D8210020
S113051004200E4B984702001000FEBD0099C95CF0
S1130520834205DB89B2023311809BB20232E6E7D3
S1130530009FFF187F783F023943F4E784000020CE
S1130540790300000040004144A5FFFF11040000AE
S1130550F8B5164B0F00160059881A880500514348
S11305601823814214D3541E044011D1013BB242DA
S11305700ED30F4B98470523002809D020220D4B9A
S1130580FF326D081A836D00711EA64202D8002343
S11305901800F8BD2B889BB23B558C4202DA3A19FD
S11305A01B0A53700234A4B20235EEE78400002023
S11305B0790300000040004170B5134A0400138819
S11305C0528818205A43A2421CD39B00013B1C4270
S11305D018D10E4DA84703000520002B12D020226D
S11305E00B4BA408FF3264001A83DC611C00094A27
S11305F01A80A8470028FCD01C23208B1840431ED7
S11306009841800070BDC04684000020790300003A
S11306100040004102A5FFFF07B5802201AB1A701C
S11306200A785A704A789A708A781900DA70014BFD
S1130630984707BD611B000070470000094B19680B
S113064000290BD1EFF31080074A002805D172B6B8
S1130650BFF35F8F05490870012111701A680132D8
S11306601A6070478C0000209000002000000020D9
S1130670084B1A68013A1A601B68002B09D1064B13
S11306801B78002B05D00122044B1A70BFF35F8F37
S113069062B670478C00002090000020000000200B
S11306A0F0B5002489B0009201933F23002600276F
S11306B02500069007910393039A134B0120002110
S11306C09847B6197F41069B079A03400A4004964F
S11306D00597134303D0012333431E00059F019B59
S11306E0BB4209D802D1009BB34205D8009A019BB2
S11306F0B61A9F4104430D43039B5A1E0392DBD257
S11307002000290009B0F0BD2527000010B54908D4
S1130710040000234020A14201D210BD0300581C54
S1130720091B80B28C42F9D94020FF2BF5D81380E5
S11307300020F2E7F0B585B01E000AAB0D00197871
S113074003004B4303924027AB4217D8002E18D125
S11307500200330008001B4C3100A0472A000100AE
S11307603300194C3000A04700220123121A8B4198
S1130770140C180404430027039B1C80380005B0A4
S1130780F0BD0024012EF6D10A00230021000D4EF5
S1130790B047009001910B000200210028000A4C90
S11307A0A047802306009B019842E7D8009A019B4A
S11307B0690FE800A047F400041BE4B26403344367
S11307C0D9E7C0463D270000A106000037B50D4C0F
S11307D005002378002B01D000290CD001A9132097
S11307E0094B0D7098471320084B984701230020AC
S11307F0657023703EBD63780800AB42FAD01D20BB
S1130800F8E7C046910000208D1A0000051A000088
S1130810394A030000B50800934233D007D8374A59
S1130820934214D0364A93421FD0002317E0354A2E
S113083093423AD0344A934244D0344A9342F4D156
S1130840002303290BD801F0D7FE502A2C2E0023B5
S1130850032904D801F0D0FE430205072C4B1800ED
S113086000BD2C4BFBE72C4BF9E700230329F6D8FA
S113087001F0C2FE37020406284BF0E7284BEEE7EE
S1130880284BECE700230329E9D801F0B5FE2C023C
S11308900406254BE3E7254BE1E7254BDFE7254B32
S11308A0DDE7254BDBE7254BD9E700230329D6D821
S11308B001F0A2FE1D020406214BD0E7214BCEE736
S11308C0214BCCE700230329C9D801F095FE12027D
S11308D004061E4BC3E71E4BC1E71E4BBFE71E4B6E
S11308E0BDE70323BBE71D4BB9E71D4BB7E71D4B22
S11308F0B5E71D4BB3E7C0460010004200080042B4
S1130900000C004200180042001C00420014004287
S113091003000500030006000300070003000100B4
S113092003001E0003001F000300090003000A0067
S113093003000B0003001100030012000300130066
S113094003000D0003000E0003000F000300170056
S1130950030018000300190003000400030008004A
S11309600300100003000C000300160070B586B0ED
S11309706946094B6A4670CB70C170CB70C10023C5
S113098099005158814202D1D8B206B070BD0133EA
S1130990062BF5D10020F8E7C838000070470000A6
S11309A0F0B5094C094A2378002B09D11E00084FE1
S11309B0084DD750EE500433182BFAD1173B23704F
S11309C080001150F0BDC046930000209400002028
S11309D09D0900000401002007B509236A4613702D
S11309E001335370013393700133D37001331371A6
S11309F001335371024B98476B4618560EBDC046DF
S1130A006D09000010B5024B00201B68984710BD0B
S1130A109400002010B5024B01205B68984710BD7C
S1130A209400002010B5024B02209B68984710BD2B
S1130A309400002010B5024B0320DB68984710BDDA
S1130A409400002010B5024B04201B69984710BD88
S1130A509400002010B5024B05205B69984710BD37
S1130A60940000200368187E8007C00F7047036855
S1130A70187E0123184070470368187E4007C00F92
S1130A807047000070B5064B0C00056898470523B5
S1130A90002803D00023E405E40DAC62180070BD07
S1130AA06F0A000070B50D4B06000C0005689847EE
S1130AB0102200280DD00423698B0022194201D092
S1130AC06B831E32B379012B05D1AB6ADB05DB0DD9
S1130AD02380100070BDAB6ADBB2F9E7790A00002D
S1130AE0F0B50500296014000A6889B00E001C23C3
S1130AF0920700D5D4E001270B683B400193019A8B
S1130B000523002A00D0CBE008006A4B9847811CDB
S1130B108F40694B14301A6A17431F62631DDB7FD1
S1130B2002AAC7B2137011003800644B984738000A
S1130B30634B9847631DD87F0199624B984723788C
S1130B40012B03D132680B33134333602378002B1A
S1130B5003D132680833134333602B002A00002684
S1130B600C33283240C39A42FCD12B003633AE8674
S1130B70EE622E86AE621E705E709E70032328683D
S1130B806B724C4B2E71984707004F4B4F49984757
S1130B904F4BBF00FD50802302AA137101239371B0
S1130BA023782F685671D671002B00D196710026D8
S1130BB0A36A0493E36A0593236B0693636B079319
S1130BC0B30004AA9858F1B2002802D13800414B6E
S1130BD09847431C06D002AB1871000CC0B203A99D
S1130BE03D4B98470136042EEAD123786B71237C60
S1130BF0AB71A37CEB71237D2B7202AB9E1C002393
S1130C0033802378012B10D12A4B2868984714305D
S1130C10324BC0B29847324B01003200A06998476A
S1130C20172300283CD133783B732378002B3DD124
S1130C30E17FA57F7B6A090429431943A069A28B3C
S1130C40631C7962DB7F002B2DD11300A1686268DD
S1130C500A43E1680A43217C02430B43617C002977
S1130C6003D120498978890701D580210A43A17CD1
S1130C70002902D0802189020B43E17C002902D0A3
S1130C80802189000B43217D002902D08021890124
S1130C900B4339680A433A607A6813437B60002344
S1130CA0180009B0F0BD40231343CFE70023180018
S1130CB0CCE7C0466D090000000400408D1A000016
S1130CC0051A0000CD070000A10900009D0F0000D7
S1130CD00401002011080000611B0000A91A000093
S1130CE00D07000000200041F0B587B00393030016
S1130CF004000520029138331B781700834236D054
S1130D001230002A33D0E3790530002B2FD06379D9
S1130D10002B07D120002B4B9847002802D0022338
S1130D202268137600256379012B08D12000264B15
S1130D3098470028FAD003992000244B98476379F8
S1130D40234E002B1BD1234B01932000B0470028D6
S1130D5004D1019B013B0193002BF6D12000194BD8
S1130D609847002805D00222042023681A7607B089
S1130D70F0BD2000B047002801D11230F7E7200071
S1130D80B0470028FBD004AB9E1D00233100338004
S1130D902000114B98470028E9D1029932886B1C36
S1130DA04A55A1799BB2012909D102990235120A47
S1130DB0ADB2CA54013FBFB2002FB4D1D7E71D0072
S1130DC0F8E7C046650A00006F0A0000850A0000C3
S1130DD0790A000011270000A50A00000300F0B5FD
S1130DE00400052087B0029138331B781500834234
S1130DF032D01230002A2FD06379002B07D1200083
S1130E005F4B9847002802D00223226813760026FD
S1130E100195013DADB25B4A6379954208D1012B3E
S1130E2000D187E06379002B00D189E0002013E032
S1130E30002B1AD1544F2000544B9847002802D15C
S1130E40013F002FF7D120004D4B9847002805D0D3
S1130E500222042023681A7607B0F0BD20004B4B11
S1130E609847002801D11230F6E72000474B9847F5
S1130E700028FAD0029A731C915DA2799BB2012AD0
S1130E8040D01E0089B2424B20009847E2796B1E85
S1130E909BB2002A4CD06379002B24D13A4B0393A4
S1130EA0002D12D02000394B984700280DD0029B0A
S1130EB0771C995DA379BFB2012B2AD089B2200097
S1130EC0334B98473E00013DADB22000314FB84747
S1130ED0002825D020002A4B98470028B8D12000AC
S1130EE0B847002822D020002A4B98470028FAD07F
S1130EF004AB991D2000284B9847019B013B9BB2F2
S1130F00019386E7029A0236D35CB6B21B021943F8
S1130F10B9E7029B0236DB5DB7B21B021943CEE789
S1130F20039B013B0393002BBAD1D3E7122093E731
S1130F301D0070E72000124B98470028FAD071E793
S1130F40E379002B00D171E7019B002B00D16DE701
S1130F500D4D20000F4EB047002802D1013D002D59
S1130F60F7D12000B047002800D17CE704AB991DDD
S1130F702000094B9847019B013B9BB20193E3E797
S1130F80650A0000FFFF0000112700006F0A00003F
S1130F90850A0000790A0000A50A0000F8B57C4B18
S1130FA08000C458230022003733363225681B786A
S1130FB016781E402B7EAF7D1F40FB0739D5627922
S1130FC01300012A33D1637A002B0DD1714B1B8896
S1130FD0AB62638E013B9BB26386638E002B00D1B0
S1130FE02A756379012B22D1637A002B21D0E16A1F
S1130FF02268481C0B78E062A079DBB2012800D19A
S113100074E09BB2DB05DB0D9362A38E013B9BB2C4
S1131010A386A38E002B0CD101332B75637A012B8D
S113102007D1E379002B04D10233AB7501E0002B27
S1131030DAD004210F4215D06B8B0B425CD0637A5B
S1131040012B0CD023001E2238331A700323637241
S113105002332B75330702D52000A3699847AB6A86
S113106004236B830222174227D06379002B0ED10D
S1131070072129752A760132627222003832A3864A
S113108023861370F30602D52000E3699847637939
S1131090012B12D1637ADBB2012B0ED1E279002A43
S11310A00BD10221297501316172210038310A7096
S11310B01E4202D02000E368984708231F4209D04B
S11310C06279002A06D12B752B76B30602D520004F
S11310D0236A98477FB2002F07DA80232B752B767B
S11310E0730602D5636A20009847F8BD4878023138
S11310F000020343E16285E7627A2368D2B29B6A05
S1131100012A13D1638E013B9BB26386638E9BB22B
S1131110002BA7D12975210038310B70033363727A
S113112016429FD02000E36898479BE7DB05A16A3D
S1131130DB0DDAB20A70A26A511CA162A1790129FD
S113114004D11B0A5370A36A0133A362238E013BAB
S11311509BB22386238E9BB2002B00D082E7220011
S11311603832137004332B75627A022A05D11E4279
S113117000D177E720006369D6E7637A002B00D0BB
S113118070E7B30700D46DE720002369CCE7C046BD
S1131190040100201C0100200268D369002BFCD14B
S11311A070470000F0B5070093B0A04B3960080009
S11311B01600049198470122049B05001B68052032
S11311C0134200D00FE1049B17301C6802231C401B
S11311D000D008E1EB181B3898400300944A1435FA
S11311E0116AEDB20B43136233002D3302931B7863
S11311F00CA90B7028008F4B984728008E4B9847FA
S1131200029B210018788D4B9847F37A08257B714F
S1131210731DDB7FBB71B31DDB7FFB71F37E3B7200
S1131220337F7B723B6803931800804B98470EAB67
S11312301C80338A143002938023029ADB019A4281
S113124014D008D8802310259B019A4200D1CDE008
S1131250102500240AE0C023029ADB019A4200D13F
S1131260C3E0802303251B029A42F1D1336806931D
S1131270F368079373690893337E0993F31DDB7F47
S11312800A93736805933300059A0833002A00D142
S1131290AEE080220599520591420ED1DB7F002BEE
S11312A00BD1674BC0B2346A98470EAA0100654B54
S11312B020009847002800D095E0737E002B02D0D0
S11312C0B37E039A9373604B380098470AAB1B8A2A
S11312D0039A069C9381079B1C43089B1C43059B14
S11312E01C43029B1C43099B1B021C430A9B5B0778
S11312F01C4333000833DB7F002B01D104331C4330
S1131300757E337FAD025B021D43737FF27A1B024D
S11313101D43731DDB7F5B041D43B31DDB7F1B0477
S11313202B43B57A15431D433389FF2B00D175E058
S11313308022520414431D4333002C331B78002BAA
S113134003D1424B9B789B0701D580231C43380073
S11313503D4B9847039B38005D603B4B9847039B8C
S113136000251C6080230DAC2370336B65700E93D5
S1131370736BE5700F93B36BA5701093F36B0293CB
S1131380119310200AAAAB001218D058E9B2002811
S113139002D104982E4B9847431C05D02070000CB2
S11313A0C0B221002B4B98470135042DE9D13B00F5
S11313B000243033FC85FC603C617C61BC61FC61D1
S11313C03C62BC627C62BC859C701C705C70DC708E
S11313D03868164B984705001F4B20499847200052
S11313E01F4BAD00EF5013B0F0BD082501243DE7BD
S11313F0DB7F002B07D02300B16A306A00950EAA68
S1131400184CA04756E7336AC0B20B930C4B98476D
S11314100095010023000EAA0B98F1E7F37E002B40
S113142000D189E78023DB041C4385E76D090000B4
S1131430000400408D1A0000051A0000CD070000CA
S1131440A91A00000D0700009911000000200041B6
S113145011080000611B0000A10900000D15000027
S1131460040100203507000070B5C2790D001C236B
S1131470002A0CD0C28D173B002A08D1054B046802
S1131480984702232585227E1A42FCD000231800A7
S113149070BDC0469911000070B582790E001C23FE
S11314A0002A13D0828D173B002A0FD1042504682B
S11314B0227E2A420AD0144B9847638BDBB29A06E9
S11314C01DD00222134203D01A236283180070BD78
S11314D02B4202D065831E23F8E70122134202D077
S11314E062831323F2E71022134202D06283422361
S11314F0ECE72022134202D062834123E6E7238DE6
S113150033800023E2E7C04699110000F8B5584B38
S11315108000C4582568EB69002BFCD12B7EAF7D7D
S11315201F40230030331A785E78012316401F428F
S113153019D0E28D002A00D172E0A26A511C1378FE
S1131540A1626179DBB2012964D09BB2DB05DB0DBA
S11315502B85E38D013B9BB2E385002B03D1013343
S11315602B750133AB7502231F4209D02B75230061
S1131570002233331A70F30702D52000E36898473A
S113158004231F4227D0A28D002A00D16DE06B8B6B
S1131590DBB21A0746D43F22134045D002221A2157
S11315A013420FD104221E2113420BD10122132115
S11315B0134207D110224221134203D120221342A5
S11315C004D041212300323319706A83730702D592
S11315D020006369984710231F4206D02B752B7691
S11315E01E4202D02000E369984720231F4206D000
S11315F02B752B76330702D52000A369984708235F
S11316001F4206D02B752B76B30602D5236A200021
S11316109847F8BD5178023209020B43A26295E75C
S11316202B75A0E73722B7E72B8D616ADB05DB0D4D
S1131630DAB20A70626A511C61626179012904D1CB
S11316401B0A5370636A01336362A38D013B9BB22F
S1131650A385002BBFD104222A75220032321370D5
S1131660B307B8D520002369B4E72B75B3E7C046A8
S11316700401002010230249CA681A42FCD07047B2
S11316800008004070B5082806D800F0B5FF08052A
S1131690052E2E120B1526000024200070BD154BBC
S11316A01C69FAE7144B154C1B6A9B059B0FDC4025
S11316B0F3E7104B5C69F0E70E4D00242B689B07A1
S11316C0EBD50F4B98472B685B0711D520000D4BCA
S11316D09847AC68A4B24443DFE70B4B00241B7863
S11316E05B07DAD5034BDC68D7E780242402D4E710
S11316F0064CD2E7AC0000200008004000127A003B
S113170075160000A91A000050080040006CDC02A5
S113171070B5847802784578012040260540204041
S113172080240849AD010B6AC001B3432B43A34392
S113173003430320024004481202034013430B6294
S113174070BDC04600080040FFFCFFFFF8B5082844
S113175006D800F051FF1405050C0E1A07203400BA
S11317601720F8BD0223194A116A0B4313620020A3
S1131770F7E70223154A91690B439361F7E70223C4
S1131780124A118A0B431382F1E702230F4A918A0A
S11317900B439382EBE7022200240D4E0B4D33687A
S11317A00C4F13433360AA84B847B368EB62736881
S11317B0AB62AC84B84733689BB2AB84D7E70223EF
S11317C0054A11780B431370D1E7C0460008004066
S11317D0AC00002075160000440800407FB5C2220A
S11317E01E21194BD2009A60184A0024536801AD97
S11317F08B43536001232B70E0B22900144B013456
S11318009847252CF8D100246B4601265C709E7005
S11318101C7068460F4B98470F4B062098470F4B98
S113182098470F4B29001C725C729C72DC72062371
S113183020002B700B4B6E606C702C726C7298478E
S11318402000094B98477FBD00080040004000413C
S11318508D1A0000111700004D17000079180000C0
S113186000040040991800003D190000014B58780D
S1131870C0097047000C00400823054A91690B43D6
S113188093610123034A137011781942FCD1704704
S113189000040040000C0040F8B50C784B7824029A
S11318A0060005000443002B02D08023DB021C4306
S11318B04B7A002B02D080231B031C434B68012B63
S11318C012D95D1E1D400222002D06D01D02802368
S11318D035439B0207E0013552009A42FBD3802333
S11318E02D0235435B031C430B7A002B02D080236B
S11318F09B031C430C4FB8470028FBD10B4B984764
S11319000B4B1E70B8470028FCD10A4B9D601D008C
S1131910B8470028FCD180226B68520213401C4354
S11319206C60054B9847F8BD6D1800003D0600003B
S1131930080C0040000C00407106000070B5050062
S1131940094CA0470028FBD1084B9847084B1D7051
S1131950A0470028FCD18023064A5B0251680B4350
S11319605360054B984770BD6D1800003D0600009C
S1131970040C0040000C004071060000F7B507009D
S1131980184EB0470028FBD1174B9847174B1F70D0
S11319900193B0470028FCD1154D164B6868C0046C
S11319A0C00E98470400019B1F706B68DB02DB0FBD
S11319B00193114B1F70B0470028FCD1AD680F4B49
S11319C09847019B2D022D0C002B08D1012D04D921
S11319D0200029000A4B984704002000FEBD013571
S11319E0EC40FAE76D1800003D060000040C0040CE
S11319F0000C004085160000080C00407106000031
S1131A000D26000010B50400064B9847064B074A04
S1131A101C7080235188DB010B435380044B98478F
S1131A2010BDC0463D060000020C0040000C004002
S1131A307106000010B504000E4B98470E4B0F4A78
S1131A401C700F4B0F4C5888598800051140598061
S1131A505988000F2140598011008022D2015C88EE
S1131A601442FCD15A8800020A4002435A80064BB1
S1131A70984710BD3D060000020C0040FFF0FFFF38
S1131A80000C0040FFBFFFFF7106000010B50C788A
S1131A90034B240204439847024BA4B25C8010BD5C
S1131AA0351A0000000C004010B50400064B98479E
S1131AB0064B1C70064B5C88064B2405240F984784
S1131AC02000054B984710BD3D060000020C004065
S1131AD0000C0040710600007D190000D37830B579
S1131AE0002B35D11478802C03D0802324065B028C
S1131AF0234302255478AC4306D19478002C24D196
S1131B008024A402234341605478013C012C01D871
S1131B10124C2340A0248DB2E4052C431C43846260
S1131B20D0240D0C24062C431C438462D478002C4E
S1131B300AD15B0303D59378012B0CD181615378CF
S1131B40013B012B00D8816030BDC024E402D9E7F9
S1131B5041600023DEE74161F1E7C046FFFFFBFF80
S1131B6010B503000A004409C1090020814202D1D2
S1131B700449E00140181F210B401E399940024BD3
S1131B80984710BD00440041DD1A00007047000072
S1131B9010B5054B9847054B9847054B9847054B9F
S1131BA09847054B984710BDDD1700003906000023
S1131BB08D1B00008D1B00008D1B0000012210B541
S1131BC0034B9A71034B1B68002B00D0984710BD40
S1131BD00010004020010020FEE7000021482249B7
S1131BE070B5884204D00023204CCA18A24232D3D4
S1131BF000211F4B1F4A934231D3FF211E4B1F4A22
S1131C008B43936002220C25082430261C4B1D486C
S1131C105A62C378FC398B431343C370C378AB4314
S1131C202343C370184B987BB043060020203043F5
S1131C309873987BA84304439C73987B884302431E
S1131C409A738023114A51680B435360104B984791
S1131C50104B9847FEE7C55804331560C5E702C327
S1131C60C9E7C046E83C00000000002068000020EE
S1131C7068000020780100200000000000ED00E072
S1131C80FC70004100500041004800410040004108
S1131C90912700000523000070B50E001400150004
S1131CA0002808D0012040420CE0074B013D186891
S1131CB0064B1B689847611B7118002DF5DCE04347
S1131CC0C017204070BDC0462C0100202401002014
S1131CD0013870B50E0002280DD80C008D18A01B19
S1131CE0AC420AD0054B21781868054B01341B68B7
S1131CF098470028F3DA0120404270BD2C010020EF
S1131D0028010020054B02001968002901D104496B
S1131D101960186882181A607047C046C400002011
S1131D207821002001204042704780239B0100203D
S1131D304B607047012070470020704773B56B46B5
S1131D409C1D002306000D00238021003000034B5E
S1131D5098470028F9D123882B7073BD991400008B
S1131D6070B504000D00A9B22000024B984700286A
S1131D70F9D170BD6914000007B500226B466946AD
S1131D801A70064B68465B68DB061B0F8B70044BAE
S1131D90CA700A714A70984707BDC04600400041A6
S1131DA0890300008023F7B5DB0100AF1A6882F3D2
S1131DB00888184A184E9360184B34681B68200032
S1131DC07B60174B98471F2318401E3B8340154DDB
S1131DD0EB673268D369002BFCD102222368124ED0
S1131DE09343236034680E4B200098471F23184008
S1131DF01E3B8340EB673268D369002BFCD102227F
S1131E008F33237523762368934323607B68984735
S1131E10BD46F7BD00ED00E0C8000020044000000E
S1131E20D909000004E100E03801002070B50D007C
S1131E3016000402B2B229002000024B984705287C
S1131E40F8D070BD5105000070B50D001600840176
S1131E50B2B229002000024B98470528F8D070BD83
S1131E605105000070B50D0016008401B2B22900BE
S1131E702000024B98470528F8D070BDB504000037
S1131E80F7B506000D00019207023800114B984780
S1131E9004000528F9D0002805D10700B300019EED
S1131EA00093002E01D12000FEBD009BB901F8185B
S1131EB06918402E07D94022074B9847002807D1BC
S1131EC00137403EEDE73200034B98470028EAD043
S1131ED00400E8E7B9050000651E000010B5010024
S1131EE010220248024B984710BDC046FF03000071
S1131EF02D1E000010B5010010220248024B984725
S1131F0010BDC046FF030000811E0000DD230370E6
S1131F10303B43708D3B8370083BC37000230371D7
S1131F20437183710372437280230122DB01C27106
S1131F30C3607047002310B506491A00845C525CE4
S1131F400133944203D1082BF7D1012010BD0020A6
S1131F50FCE7C046E038000010B50248024B984741
S1131F60FEE7C046C13B0000E9270000F8B50A4C73
S1131F7006000A4B20000F001500984700280AD1DC
S1131F80ABB23A0031002000054DA847002802D129
S1131F902000044B9847F8BD30010020990200004E
S1131FA019020000690200007FB501AD04000E00B3
S1131FB00C2229000020044B9847002802D1A400D9
S1131FC06359336004B070BD6D1F000013B5064B38
S1131FD00C0001A99847002804D11022210001987F
S1131FE0024B984716BDC046A91F00006D1F000094
S1131FF0F0B51F4B87B000AF9D446B46002416001C
S113200078603960FB607C6180223B685201E01893
S1132010F968184B9847051E28D180235B01E31803
S1132020BB609E421BD914238021FA184901F86829
S1132030114B98470135BC68320021000F48104B02
S11320409847002DE0D10F4B0F4898477B697A6879
S1132050981A43425841C0B2BD4607B0F0BD14239C
S1132060311BFA18F868044B9847E4E70020F3E7BB
S113207000F0FFFF6D1F0000F10200001B3900009B
S1132080E9270000DD280000E8390000F0B516005B
S1132090140095B001908D00002C10D11E4D019AB2
S11320A029001E4C1E48A047039A29001D48A0473A
S11320B0039B019A981A43425841C0B20CE03F2C4A
S11320C019D904A940222800174B9847011E05D0AE
S11320D01648124B9847002015B0F0BD03AA4021C2
S11320E004A8134B9847403C311B320011480B4B5A
S11320F098470135D0E7220004A928000A4B9847E5
S1132100071E01D00100E3E7210003AA04A8084B3D
S113211098473C00E8E7C046E8380000E92700009B
S11321204F39000061390000491E000033390000B6
S1132130F10200001B390000F0B5002380270600DF
S11321400D00C7B00390019105937F00039BF31A20
S11321500293002D01D12C001DE0BD4231D93A007B
S113216006A93000224B9847041E02D021002148C2
S11321700FE005AA3900204B06A89847029B3A00B5
S11321801812403006A91D4B9847041E0ED021009A
S11321901B481C4B98471C4B1C489847059A1C49E4
S11321A0184B1C489847200047B0F0BD013DFF3D47
S11321B0019B1948591B1A000136124B9847FF36E8
S11321C0C4E72A0006A93000094B9847041ECDD164
S11321D0290005AA084B06A89847029B2A00181252
S11321E0403006A9054B98470400051EE0D0CEE711
S11321F06D1F0000CF3B0000F1020000811E0000B3
S1132200E83B0000E9270000DD280000E839000071
S113221002390000173C0000003C000030B585B0D6
S113222005006946407A1D4B9847041E1CD1029A4A
S113223000991B4C1B48A04701991B48A047039ACF
S113224002990198194B9847002804D11848194B52
S11322509847052408E003990298174B9847041EF1
S113226005D01648134B9847200005B030BD039A9B
S113227040210198124B9847002801D11148E6E704
S1132280102269461048114B9847041EECD128725D
S11322900F4B280098470400E6E7C046CD1F000016
S11322A0E92700007139000095390000F11F000092
S11322B0A8390000DD28000039210000C6390000DB
S11322C08D200000EA390000FE030000811E00009A
S11322D0F51E00001FB5084B1022694607489847B1
S11322E003000120002B04D1039A40210198044BE0
S11322F0984705B000BDC0462D1E0000FE03000037
S11323008D200000F0B5854B97B09847844B9847D3
S113231001233422002106AC2370A374E37402ABBE
S11323209B181970283A7F4B0CA86160A160217436
S11323306174217598477C4B7C4EA36180235B02BA
S1132340E3607B4B2200A36201235B42E362794B8F
S113235079492363794B30006363794B98470028AC
S113236002D07848784B98473568784B28009847CE
S11323701F2318401E3B8340754A13603368019243
S1132380DF69002FFCD102232A68724E13432B60AD
S1132390042301223371654B0720336002AB5A706A
S11323A001229F701A7019006B4B707198477279F3
S11323B05309D50900D0AEE01F210A401E399140CF
S11323C00A006649DB015B189A613000644B984748
S11323D03000644B9847644B9847644B02A8984775
S11323E08023DB050693FF233422238102AB9B1851
S11323F0333A1A70162302AA9B180122DA7717239C
S113240002AA9B18DD7708ABDD7711AB1D703D2365
S11324109B181D701323A376C4239B03E36001233D
S11324205B4223636363524B524EA363524B534A42
S1132430E363E1235B022362514B65601E60514BF1
S1132440A572E572A56265612582E5762576257714
S1132450657665771A604C4A4C4B4D491A603000DA
S113246022004C4B98474C4F4C4C3B6829009868D1
S1132470A0473B6829005868A0473468334B2000C4
S113248098471F2318401E3B8340019A136032680B
S1132490D369002BFCD122680233134323604048E4
S11324A0294CA0473F4A40494048414DA84741482C
S11324B0A04702A8404B9847002813D13F48A047A3
S11324C03F48A0473F4B98473F4F404E404D002860
S11324D006D04048A04702A8B84702A8B047A8477A
S11324E03D48F7E73D48A04702AB1B7AFF2B0DD1CF
S11324F03B48A04702A83B4B9847002802D03A48E3
S1132500A847FEE73948A047314B98473848A047C9
S1132510384B9847FEE7BF61FFDEC046911B0000C1
S1132520791D0000D9270000C0D401003801002023
S11325300200100002001200000C0042020013000E
S1132540E10A0000013A0000DD280000D90900007A
S113255000E100E0300100201906000000440041C1
S11325609902000069020000C9020000DD1E00009B
S113257003002A00C800002003002B00611D000096
S11325802C010020280100203D1D00002401002012
S113259000180042A511000004000020F1280000EA
S11325A0293A00004A3A0000563A00005F3A000017
S11325B0E9270000703A0000351F0000893A000046
S11325C0C13A0000D52200000D1F0000F51E0000D6
S11325D0591F0000DE3A0000133B0000403B00009E
S11325E0573B00001D2200007A3B00008C3B00009A
S11325F0A93B0000A51D000002B47146490849002A
S1132600095C49008E4402BC7047C046002243085E
S11326108B4274D303098B425FD3030A8B4244D3A6
S1132620030B8B4228D3030C8B420DD3FF220902E8
S113263012BA030C8B4202D31212090265D0030BA7
S11326408B4219D300E0090AC30B8B4201D3CB039D
S1132650C01A5241830B8B4201D38B03C01A5241DF
S1132660430B8B4201D34B03C01A5241030B8B42E1
S113267001D30B03C01A5241C30A8B4201D3CB02CC
S1132680C01A5241830A8B4201D38B02C01A5241B1
S1132690430A8B4201D34B02C01A5241030A8B42B4
S11326A001D30B02C01A5241CDD2C3098B4201D3CC
S11326B0CB01C01A524183098B4201D38B01C01A4A
S11326C0524143098B4201D34B01C01A52410309C1
S11326D08B4201D30B01C01A5241C3088B4201D370
S11326E0CB00C01A524183088B4201D38B00C01A1D
S11326F0524143088B4201D34B00C01A5241411A44
S113270000D20146524110467047FFE701B5002050
S113271000F006F802BDC0460029F7D076E77047FE
S11327207047C0469140031C90409C46203A934019
S1132730194352426346D34019437047F0B5CE461D
S1132740474615042D0C2E0080B50704140C3F0CCD
S11327509946030C7E435D43674363437F19340CFE
S1132760E4199C46A54203D980235B029846C444DD
S11327704B46514343433604360C250C240465442C
S1132780A4195918491920000CBC90469946F0BD6B
S113279070B500260C4D0D4C641BA410A64209D143
S11327A0002601F091FA0A4D0A4C641BA410A642BB
S11327B005D170BDB300EB5898470136EEE7B3007E
S11327C0EB5898470136F2E7D43C0000D43C0000B3
S11327D0D43C0000D83C000003008218934200D18E
S11327E0704719700133F9E70FB40B4B13B51C682C
S11327F0002C05D0A369002B02D1200000F0F2FACE
S113280005AB049AA1682000019300F0C7FC16BC34
S113281008BC04B01847C0460400002070B5050089
S11328200E00002804D08369002B01D100F0DAFAED
S1132830AB69AC68002B02D1280000F0D3FA244B1A
S11328409C420FD16C68A3891B0702D52369002B16
S113285020D12100280000F057F900281AD00120C7
S1132860404270BD1B4B9C4201D1AC68EBE71A4B54
S11328709C42E8D1EC68E6E7013B0136A360002BFB
S113288004DAA269934216DB0A2914D023685A1C7D
S1132890226019703178A3680029EDD1013BA3604F
S11328A0002B0FDA22000A31280000F0D7F8431C6D
S11328B0D5D00A20D5E72200280000F0CFF8431C29
S11328C0E8D1CCE70A2023685A1C22601870C8E7B4
S11328D0543C0000743C0000343C000010B5034B31
S11328E001001868FFF79AFF10BDC04604000020DD
S11328F04A424A41802310B55200DB0000F002F83E
S113290010BD0000F0B51D004F4B85B01E680400DB
S11329100F000092002E05D0B369002B02D13000C5
S113292000F060FA494B9C4250D17468009B022B22
S113293005D0012B00D984E0002D00DA81E02100CC
S1132940300000F0E1F9616B002908D02300443322
S1132950994202D0300000F051FB0023636300234E
S1132960A3616360A3891B0603D52169300000F0CD
S113297045FBA389364A1340A381009B022B5AD0FE
S113298003AB02AA2100300000F0C2FAA389184365
S1132990A081002D24D1029D280000F025FB019583
S11329A0071E42D1029B0193AB4239D10120404220
S11329B00223A2891343A3810023A3602300473386
S11329C0236023610123636105B0F0BD214B9C4268
S11329D001D1B468AAE7204B9C42A7D1F468A5E7CB
S11329E0002FD9D0B369002B02D1300000F0FAF9DE
S11329F0009B012B03D1A389009A1A43A2810820CA
S1132A00A389276027616561184018D00120184008
S1132A100023984211D06D42A360A5611800D3E74A
S1132A20019800F0E1FA071EC0D08023A289019D1D
S1132A301343A381D6E70020BAE7A560C4E7A060EA
S1132A40C2E701204042BFE704000020543C0000DC
S1132A505CF3FFFF743C0000343C0000F8B5050053
S1132A600E001400002804D08369002B01D100F06B
S1132A70B9F9224B9C422DD16C68A369A360A38948
S1132A801B0731D52369002B2ED023682269F7B2A6
S1132A90981A6369F6B2984205DB2100280000F019
S1132AA033F9002826D1A3680130013BA3602368D1
S1132AB05A1C22601F706369984204D0A389DB0703
S1132AC01AD50A2E18D12100280000F01DF900287B
S1132AD012D00FE00A4B9C4201D1AC68CDE7094B00
S1132AE09C42CAD1EC68C8E72100280000F00CF829
S1132AF00028CAD0012676423000F8BD543C0000BC
S1132B00743C0000343C0000364B70B51D68060070
S1132B100C00002D05D0AB69002B02D1280000F079
S1132B2061F9314B9C420FD16C680C23E25E93B285
S1132B3019072DD4D90611D4092301203360373362
S1132B401343A381404270BD284B9C4201D1AC6821
S1132B50EBE7274B9C42E8D1EC68E6E75B0713D52B
S1132B60616B002908D023004433994202D030001D
S1132B7000F044FA002363632422A3899343A381CE
S1132B8000236360236923600823A2891343A3817C
S1132B902369002B0BD1A0218022A38989009200F4
S1132BA00B40934203D02100300000F0D9F90123F7
S1132BB0A289134011D00023A36063695B42A3611F
S1132BC0002023698342BED10C23E25E1306BAD5EA
S1132BD040231343A3810138B5E7920700D4636906
S1132BE0A360EDE704000020543C0000743C0000A6
S1132BF0343C0000F7B58A8905000C00130760D443
S1132C004B68002B04DC0B6C002B01DC0020FEBDA8
S1132C10E76A002FFAD000232E682B6080235B0123
S1132C201A4034D0606DA3895B0706D56368C01A67
S1132C30636B002B01D0236CC01A0200216A0023AD
S1132C402800E76AB847A189431C06D12B681D2BCD
S1132C5031D82C4ADA40D3072DD500236360236989
S1132C602360CB0405D5431C02D12B68002B00D173
S1132C706065616B2E600029C8D0230044339942FB
S1132C8002D0280000F0BAF900206063BFE70123F6
S1132C90216A2800B847431CC5D12B68002BC2D039
S1132CA01D2B01D0162B01D12E60AFE74023A28942
S1132CB01343A381ABE740230B430120A38140428C
S1132CC0A5E70F69002FA1D00B680F60DB1B0193F0
S1132CD00023920700D14B69A360019B002B00DC09
S1132CE094E7019B3A00216A2800A66AB0470028AD
S1132CF003DC4023A2891343DFE7019B3F181B1A1F
S1132D000193EAE7010040200B6970B505000C004F
S1132D10002B01D1002070BD002804D08369002B52
S1132D2001D100F05FF80B4B9C4209D16C680C2276
S1132D30A35E002BEED021002800FFF75BFFEAE73B
S1132D40054B9C4201D1AC68F1E7044B9C42EED1A7
S1132D50EC68ECE7543C0000743C0000343C000098
S1132D6010B5024900F0B2F810BDC046092D0000AC
S1132D70002310B5040003604360836081814366CF
S1132D80C281036143618361190008225C30FFF74B
S1132D9023FD054B24626362044BA362044BE3628C
S1132DA0044B236310BDC0460937000031370000CF
S1132DB0693700009537000070B568254A1E5543F1
S1132DC00E002900743100F063F9041E08D00021BC
S1132DD02A00016046600C30A0606832FFF7FCFCFA
S1132DE0200070BD836913B50400002B28D18364CF
S1132DF0C3640365134B144A1B68826201939842AF
S1132E0001D101238361200000F020F860602000DC
S1132E1000F01CF8A060200000F018F80022E06028
S1132E2004216068FFF7A4FF01220921A068FFF7CD
S1132E309FFF02221221E068FFF79AFF0123A3619A
S1132E4013BDC046303C0000612D0000F8B51E4B98
S1132E5007001E68B369002B02D13000FFF7C2FFE0
S1132E604836B4687368013B04D53368002B07D037
S1132E703668F6E70C22A55E002D0DD06834F2E723
S1132E8004213800FFF798FF30600028F0D10C23AC
S1132E9004003B602000F8BD012320005B42E38175
S1132EA00233A38165662560A5606560256165615F
S1132EB0A561082229005C30FFF78EFC6563A563D9
S1132EC0A564E564E6E7C046303C0000F7B50400BD
S1132ED00700002601914834002C01D13000FEBDCA
S1132EE06368A5680093009B013B009301D52468A7
S1132EF0F2E7AB89012B08D90E22AB5E013304D073
S1132F0029003800019B984706436835EBE7000029
S1132F1070B50E001D000E23C95E90B01400002988
S1132F2007DA00232B60B3891B0611D48023DB004E
S1132F300FE001AA00F05AFC0028F2DBF022029B09
S1132F4012021340054A9B185A4253412B60EDE785
S1132F5040230020236010B070BDC04600E0FFFF96
S1132F60F7B502268B8905000C00334206D02300F6
S1132F7047332360236101236361F7BD01AB6A46D4
S1132F80FFF7C6FF00990700280000F081F8002829
S1132F9008D10C22A35E9A05EFD4032293431E4367
S1132FA0A681E4E70F4BAB628023A2892060134320
S1132FB0A381009B20616361019B002B0DD00E2334
S1132FC0E15E280000F024FC002806D00322A38937
S1132FD093431A0001231343A381A0893843A0819A
S1132FE0CBE7C046612D000010B5034B0100186803
S1132FF000F04EF810BDC0460400002070B5050076
S1133000002910D00C1F2368002B00DAE4182800D4
S113301000F02FFC1D4A1368002B05D16360146077
S1133020280000F027FC70BDA34209D9216860186C
S11330308342F3D118685B6841182160EEE71300FE
S11330405A68002A01D0A242F9D919685818A04236
S11330500BD120680918581819608242E0D1106811
S11330605268411819605A60DAE7A04202D90C2369
S11330702B60D5E721686018824203D1106852683A
S11330804118216062605C60CAE7C046FC00002011
S1133090032370B5CD1C9D43083506000C2D1ED2AC
S11330A00C25A9421DD8300000F0E3FB254A146822
S11330B02100002919D1244C2368002B03D13000AE
S11330C000F010FB20602900300000F00BFB431CD3
S11330D02CD10C233000336000F0CCFB03E0002D36
S11330E0DFDA0C233360002070BD0B685B1B1AD43D
S11330F00B2B03D90B60CC18256003E08C420ED156
S113310063681360300000F0B5FB200007220B3029
S1133110231D9043C31AE7D05A42E250E4E74B68B8
S113312063600C00EEE70C004968C2E70323C41C8B
S11331309C43A042E0D0211A300000F0D3FA431C93
S1133140DAD1C6E7FC00002000010020936810B526
S1133150013B9360002B05DA9469A34208DBCBB2F0
S11331600A2B05D01368581C10601970C8B210BD22
S1133170FFF774FCFBE7F8B506000F001400D51840
S1133180AC4201D1002007E021783A003000FFF77B
S1133190DDFF0134431CF3D1F8BD0000F0B59FB04E
S11331A006000F0014000593002804D08369002B47
S11331B001D1FFF717FE7F4B9F425CD17768BB8933
S11331C01B0762D53B69002B5FD0002306AD6B6102
S11331D020336B761033AB760294029C2378002B59
S11331E05DD1029BE31A04930DD0049B029A39002B
S11331F03000FFF7C0FF431C00D1CCE06A69049B98
S1133200944663446B612378002B00D1C3E0012210
S1133210002352426A6002A95432521801342B60CE
S1133220EB60AB601370AB6521780522624800F057
S113323015FB631C9C46002835D12968CB0604D5B0
S1133240532302AA20309B1818700B0704D553236C
S11332502B2002AA9B18187023782A2B2CD000202C
S11332600A21099B2278303A092A00D86BE0002809
S11332702AD0099328E0514B9F4201D1B7689EE7B9
S11332804F4B9F429BD1F76899E739003000FFF715
S11332903BFC002899D0012040421FB0F0BD252BF3
S11332A09FD001349AE7444B2968C01A0123834014
S11332B00B432B606446B7E7059B181D1B680590FC
S11332C0002B3ADB0993644623782E2B0BD16378C9
S11332D0621C2A2B3FD1059B02341A1D1B680592E0
S11332E0002B35DB079321780322364800F0B6FA29
S11332F0002807D0334B2A68C01A40238340134365
S11333002B6001342178631C06222F48029329760E
S113331000F0A4FA002844D02C4B002B2FD12968AC
S1133320059B0722C90528D59B18934308330593A9
S11333306B69039A9B186B614FE75B42EB60022356
S11333400B432B60BFE74B4301349B18012089E7F3
S113335001235B42C6E7002314000A201A006B60B5
S113336021783039092903D9002BBCD00792BAE758
S11333704243013452180123F2E70733D5E705AB82
S113338000933A00124B2900300000E000BF039084
S1133390039B0133CCD1BB895B0600D57BE70B983B
S11333A07BE705AB00933A00094B2900300000F09D
S11333B07FF8ECE7543C0000943C0000743C0000AF
S11333C0343C00009A3C00009E3C000000000000D9
S11333D077310000F7B5150001938A680B690090F6
S11333E00C00934200DA130022002B60433212785F
S11333F0002A01D001332B6023689B0602D52B6879
S113340002332B60062723681F4027D02300433351
S11334101B785A1E93412268920630D422000199E7
S113342043320098089EB047431C25D006232068E9
S11334302A68E16803400025042B03D18D1AEB436D
S1133440DB171D40A3682269934201DD9B1AED1826
S11334500027BD4220D1002010E00137E3682A682C
S11334609B1A9F42D2DA2200012319320199009853
S1133470089EB047431CF0D101204042FEBD3020DD
S1133480E1184331087021005A1C45310978A2180B
S1133490433202331170C1E7220001231A32019929
S11334A00098089EB047431CE6D00137D1E70000DE
S11334B0F0B58BB006920A0043320793059004924C
S11334C00A7E0C00109B6E2A00D18FE017D8632A65
S11334D02CD008D8002A00D199E0582A54D02600CC
S11334E04236327029E0642A01D0692AF7D1216872
S11334F01A68080623D5111D1960156825E0732A7A
S113350000D188E008D86F2A29D0702AE7D1202278
S113351009680A43226003E0752A20D0782ADED1A4
S113352022007821453211706C4A30E00E001A688E
S11335304236111D196013683370012379E049067E
S1133540D9D5111D19600023D55E002D03DA2D2372
S1133550049A6D421370624B0A2703932FE020688C
S11335601968050603D5081D18600D6805E04006B6
S1133570F9D50D68081D1860ADB2594B082703939F
S11335806F2A18D00A2716E045310A70544A03926C
S11335901A682168101D18601568080622D5CB0723
S11335A002D52023194321601027002D03D12023A5
S11335B022689A4322602300002243331A7063680E
S11335C0A360002B5CDB0422216891432160002D61
S11335D058D1049E002B64D02600039B42361B78EE
S11335E033705EE04806DAD5ADB2D8E709681A68E8
S11335F0080605D5111D1960136862691A6006E092
S11336004906F7D5111D19601368A28A1A80002390
S1133610049E236154E01A68111D19601668002184
S11336206268300000F01AF9002801D0801B606045
S1133630636823610023049A137041E02369320014
S113364006990598079DA847431C43D02368002585
S11336509B070FD4099BE06898423DDA18003BE0D1
S113366022000123193206990598079EB047431C8E
S113367030D00135E368099A9B1A9D42F0DBE9E7F3
S1133680002DA9D0049E28003900FFF745F8039BBC
S1133690013E5B5C280033703900FEF7B7FF051E5E
S11336A0F1D1082F09D12368DB0706D563682269A5
S11336B0934202DC3023013E3370049B9B1B236145
S11336C0079B09AA00932100069B0598FFF782FE39
S11336D0431CB3D1012040420BB0F0BDB63C000006
S11336E0A53C0000002370B5064C050008002360CB
S11336F0FEF708FB431C03D12368002B00D02B608A
S113370070BDC0467401002070B50C000E25495FE1
S113371000F0B2F8002803DB636D1B18636570BD0D
S1133720A389024A1340A381F9E7C046FFEFFFFFD4
S1133730F8B51F008B8905000C001600DB0505D5C4
S11337400E23C95E0022022300F074F8A389054AFF
S113375028001340A38132000E23E15E3B0000F0F9
S11337601FF8F8BDFFEFFFFF70B50C000E25495F91
S113377000F060F8A389421C03D1054A1340A381D9
S113378070BD802252011343A3816065F8E7C046EF
S1133790FFEFFFFF10B50E23C95E00F015F810BD52
S11337A070B50500080011000022064C22601A00C2
S11337B0FEF78EFA431C03D12368002B00D02B6044
S11337C070BDC04674010020002370B5064C05008E
S11337D008002360FEF7A6FA431C03D12368002BDC
S11337E000D02B6070BDC04674010020002370B56A
S11337F0064C0500080011002360FEF796FA431CEE
S113380003D12368002B00D02B6070BD740100200D
S1133810002370B5064C050008002360FEF78AFA01
S1133820431C03D12368002B00D02B6070BDC0461D
S11338307401002070B50500080011000022064C38
S113384022601A00FEF778FA431C03D12368002B88
S113385000D02B6070BDC04674010020C9B282182C
S1133860904201D10020704703788B42FBD0013095
S1133870F6E770477047000070B5050008001100B6
S11338800022064C22601A00FEF706FA431C03D1FC
S11338902368002B00D02B6070BDC046740100204B
S11338A000000100000004000000080000001000F7
S11338B00000100000002000000020000000200094
S11338C0000040000000800000080042000C00429C
S11338D0001000420014004200180042001C004284
S11338E0DDAD201800000001636865636B5F6E76D0
S11338F06D5F6170706C69636174696F6E5F637230
S1133900630077726974655F6170706C6963617478
S1133910696F6E5F746F5F6E766D00436865636B8D
S11339206564202564206F662025642062797465AF
S1133930730D004E564D20526F77205265616420FE
S11339406661696C65642120282564290D0A0025B7
S1133950733A2045787065637465642025780D0A90
S11339600025733A2041637475616C2025780D0A33
S1133970004E6577204657204C6F63617465642060
S1133980617420496E646578202564202830782588
S113399078290D0A004E6577204657204352433A52
S11339A020307825780D0A00435243206F66206446
S11339B0617461206F6E20666C6173682066616952
S11339C06C6564210D004661696C656420777269D9
S11339D074696E67206170706C69636174696F6E7D
S11339E020746F204E564D210D004661696C65644C
S11339F0204E564D2043524320436865636B210D8E
S1133A00004661696C656420746F20696E74696135
S1133A106C697A6520466C617368206D656D6F72A0
S1133A207920636869702E0D000D0A0D0A3D3D3D35
S1133A303D44524F4E4544414420426F6F746C6F75
S1133A40616465723D3D3D3D0D004170722032362A
S1133A5020323031380032313A35393A3235004388
S1133A606F6D70696C65642025732025730D0A00E1
S1133A70436865636B696E6720426F6F742053748B
S1133A80617475732E2E2E0D00496E76616C696417
S1133A9020626F6F74207369676E61747572652E2E
S1133AA020426F6F74205374617475732063616E68
S1133AB06E6F7420626520747275737465642E0D64
S1133AC000417474656D7074696E672043524320BD
S1133AD0636865636B206F6E2046572E0D00465752
S1133AE02076616C69642E205265736574696E6713
S1133AF020426F6F74207369676E617475726520FC
S1133B00616E642072657374617274696E672E2EBF
S1133B102E0D00465720696E76616C69642E204133
S1133B207474656D7074696E6720746F206C6F6156
S1133B306420476F6C64656E20496D6167650D0094
S1133B40426F6F74205369676E6174757265205695
S1133B50616C69642E0D0055706461746520536353
S1133B60686564756C65642E204E6F7720557064AB
S1133B706174696E672E2E2E0D004661696C656452
S1133B802046572075706461746521004669726D22
S1133B907761726520557064617465205375636341
S1133BA065737366756C2E0D004A756D70696E676A
S1133BB020746F206170706C69636174696F6E0D3D
S1133BC00052657374617274696E672E2E2E0046FE
S1133BD061696C656420466C617368205265616438
S1133BE020282564290D0A004661696C6564204E0D
S1133BF0564D20577269746520282564290D0A00E2
S1133C0057726F7465202564206F662025642062D6
S1133C10797465732E0D0025733A20466C617368C0
S1133C202041637475616C2025780D0A0000000042
S1133C300800002000000000000000000000000058
S1133C400000000000000000000000000000000070
S1133C500000000000000000000000000000000060
S1133C600000000000000000000000000000000050
S1133C700000000000000000000000000000000040
S1133C800000000000000000000000000000000030
S1133C9000000000232D302B2000686C4C0065666A
S1133CA06745464700303132333435363738394189
S1133CB0424344454600303132333435363738399F
S1133CC06162636465660000F8B5C046F8BC08BC70
S1133CD09E467047DD000000F8B5C046F8BC08BC3D
S10B3CE09E467047B500000088
S1133CE8010000000800002000000000543C00000F
S1133CF8743C0000343C0000000000000000000098
S1133D0800000000000000000000000000000000A7
S1133D180000000000000000000000000000000097
S1133D280000000000000000000000000000000087
S1133D380000000000000000000000000000000077
S10B3D4800000000000000006F
S9031BDD04
