S014000044726F6E6544414450726F6A2E73726563B4
S1130000702100204913000045130000451300002F
S113001000000000000000000000000000000000DC
S11300200000000000000000000000004513000074
S1130030000000000000000045130000451300000C
S1130040451300004513000045130000451300004C
S11300507902000045130000451300004513000019
S113006045130000D1060000E1060000F10600007F
S113007001070000110700002107000045130000DC
S1130080451300004513000045130000451300000C
S113009045130000000000000000000035010000CE
S11300A045130000451300004513000045130000EC
S11300B00000000010B5064C2378002B07D1054B37
S11300C0002B02D0044800E000BF0123237010BDC0
S11300D06800002000000000002A0000084B10B552
S11300E0002B03D00749084800E000BF0748036815
S11300F0002B00D110BD064B002BFBD09847F9E72D
S1130100000000006C000020002A0000002A00000B
S11301100000000003685A7E52B2002AFBDB022270
S1130120197B0A431A730268537E5BB2002BFBDB14
S11301307047000070B5284B1C6801232268157EA7
S1130140EDB21D4228D0E17E194225D0A17E19428C
S113015022D0137621684B7E5BB2002BFBDB6269F5
S1130160931C63614B8B9BB21380238B013B9BB22B
S11301702383002B0AD1227F052A0DD12377012363
S1130180226820009375A368984705E0637F002BDD
S113019002D02000114B984704231D420BD0226843
S11301A01376E27E023B1A4205D0A27E1A4202D0A6
S11301B02000E368984702231D420BD0226813767F
S11301C0E27EDB181A4205D0A27E1A4202D02369CD
S11301D02000984770BDC046FC00002015010000B7
S11301E0094B196800290BD1EFF31080074A002846
S11301F005D172B6BFF35F8F0549087001211170F4
S11302001A6801321A6070478400002088000020B8
S113021000000020084B1A68013A1A601B68002B82
S113022009D1064B1B78002B05D00122044B1A7010
S1130230BFF35F8F62B670478400002088000020FF
S113024000000020F7B50125002701AC084E21006D
S113025017206570A7702570B0478022054B1204E3
S11302609A612100372027706570B047F7BDC046FA
S11302704D03000000440041002370B501250B4CE0
S1130280237023780F2B00D970BD29009940084AA8
S11302901069084206D01161064A9B009B58002B46
S11302A000D09847237801332370EAE70001002047
S11302B00018004004010020014B5878C009704721
S11302C000180040022310B5044A11780B43137040
S11302D0034B98470028FBD110BDC04600180040CE
S11302E0B9020000402307B5104A052091690B4369
S11302F09361002301A90B700D4B98470D4B05200A
S1130300984701230C4A11780B4313700B4B984701
S11303100028FBD102000A4B1A5004304028FBD1BC
S11303201022084B1A60084B984707BD0004004090
S1130330151200008D11000000180040B9020000E1
S11303400401002000E100E0C502000007B580229E
S113035001AB1A700A785A704A789A708A78190030
S1130360DA70014B984707BDE9120000F0B500248C
S113037089B0009201933F230026002725000690B0
S113038007910393039A134B012000219847B61950
S11303907F41069B079A03400A400496059713433E
S11303A003D0012333431E00059F019BBB4209D8A0
S11303B002D1009BB34205D8009A019BB61A9F4113
S11303C004430D43039B5A1E0392DBD220002900F1
S11303D009B0F0BD2D17000010B549080400002332
S11303E04020A14201D210BD0300581C091B80B259
S11303F08C42F9D94020FF2BF5D813800020F2E776
S1130400F0B585B01E000AAB0D00197803004B430C
S113041003924027AB4217D8002E18D102003300B4
S113042008001B4C3100A0472A0001003300194C7E
S11304303000A04700220123121A8B41140C180427
S113044004430027039B1C80380005B0F0BD002442
S1130450012EF6D10A00230021000D4EB047009072
S113046001910B000200210028000A4CA0478023C0
S113047006009B019842E7D8009A019B690FE800A7
S1130480A047F400041BE4B264033443D9E7C04634
S1130490451700006D03000037B50D4C05002378A7
S11304A0002B01D000290CD001A91320094B0D7099
S11304B098471320084B9847012300206570237048
S11304C03EBD63780800AB42FAD01D20F8E7C04671
S11304D089000020151200008D110000394A030024
S11304E000B50800934233D007D8374A934214D05A
S11304F0364A93421FD0002317E0354A93423AD03C
S1130500344A934244D0344A9342F4D10023032919
S11305100BD801F075F8502A2C2E0023032904D897
S113052001F06EF8430205072C4B180000BD2C4B5C
S1130530FBE72C4BF9E700230329F6D801F060F818
S113054037020406284BF0E7284BEEE7284BECE78C
S113055000230329E9D801F053F82C020406254BA3
S1130560E3E7254BE1E7254BDFE7254BDDE7254BAB
S1130570DBE7254BD9E700230329D6D801F040F85F
S11305801D020406214BD0E7214BCEE7214BCCE7DB
S113059000230329C9D801F033F8120204061E4BC4
S11305A0C3E71E4BC1E71E4BBFE71E4BBDE703234A
S11305B0BBE71D4BB9E71D4BB7E71D4BB5E71D4B1B
S11305C0B3E7C0460010004200080042000C00429D
S11305D000180042001C0042001400420300050001
S11305E003000600030007000300010003001E00CF
S11305F003001F000300090003000A0003000B00AE
S113060003001100030012000300130003000D0097
S113061003000E0003000F0003001700030018007E
S11306200300190003000400030008000300100085
S113063003000C000300160070B586B06946094B30
S11306406A4670CB70C170CB70C1002399005158B9
S1130650814202D1D8B206B070BD0133062BF5D168
S11306600020F8E7A828000070470000F0B5094C06
S1130670094A2378002B09D11E00084F084DD75092
S1130680EE500433182BFAD1173B2370800011501D
S1130690F0BDC0468B0000208C00002069060000DD
S11306A04401002007B509236A46137001335370CF
S11306B0013393700133D3700133137101335371D8
S11306C0024B98476B4618560EBDC04639060000CB
S11306D010B5024B00201B68984710BD8C00002009
S11306E010B5024B01205B68984710BD8C000020B8
S11306F010B5024B02209B68984710BD8C00002067
S113070010B5024B0320DB68984710BD8C00002015
S113071010B5024B04201B69984710BD8C000020C3
S113072010B5024B05205B69984710BD8C00002072
S11307300268D369002BFCD170470000F0B50700B4
S113074093B0A04B39600800160004919847012229
S1130750049B05001B680520134200D00FE1049B95
S113076017301C6802231C4000D008E1EB181B382A
S113077098400300944A1435116AEDB20B43136296
S113078033002D3302931B780CA90B7028008F4B78
S1130790984728008E4B9847029B210018788D4B70
S11307A09847F37A08257B71731DDB7FBB71B31DFA
S11307B0DB7FFB71F37E3B72337F7B723B68039379
S11307C01800804B98470EAB1C80338A1430029378
S11307D08023029ADB019A4214D008D88023102582
S11307E09B019A4200D1CDE0102500240AE0C023E9
S11307F0029ADB019A4200D1C3E0802303251B0245
S11308009A42F1D133680693F368079373690893A6
S1130810337E0993F31DDB7F0A93736805933300DA
S1130820059A0833002A00D1AEE0802205995205CA
S113083091420ED1DB7F002B0BD1674BC0B2346ADF
S113084098470EAA0100654B20009847002800D065
S113085095E0737E002B02D0B37E039A9373604BB2
S1130860380098470AAB1B8A039A069C9381079B1E
S11308701C43089B1C43059B1C43029B1C43099B74
S11308801B021C430A9B5B071C4333000833DB7FBA
S1130890002B01D104331C43757E337FAD025B0210
S11308A01D43737FF27A1B021D43731DDB7F5B04C0
S11308B01D43B31DDB7F1B042B43B57A15431D4336
S11308C03389FF2B00D175E08022520414431D4369
S11308D033002C331B78002B03D1424B9B789B07AE
S11308E001D580231C4338003D4B9847039B3800B7
S11308F05D603B4B9847039B00251C6080230DAC37
S11309002370336B65700E93736BE5700F93B36B49
S1130910A5701093F36B0293119310200AAAAB00F5
S11309201218D058E9B2002802D104982E4B9847E7
S1130930431C05D02070000CC0B221002B4B9847FB
S11309400135042DE9D13B0000243033FC85FC60E3
S11309503C617C61BC61FC613C62BC627C62BC85C4
S11309609C701C705C70DC703868164B98470500EE
S11309701F4B2049984720001F4BAD00EF5013B088
S1130980F0BD082501243DE7DB7F002B07D02300C1
S1130990B16A306A00950EAA184CA04756E7336A2C
S11309A0C0B20B930C4B98470095010023000EAA8C
S11309B00B98F1E7F37E002B00D189E78023DB0459
S11309C01C4385E7390600000004004015120000AE
S11309D08D1100009904000031120000D9030000B9
S11309E03107000000200041DD040000E91200008E
S11309F06D060000A50A0000440100200104000067
S1130A0070B5C2790D001C23002A0CD0C28D173B8F
S1130A10002A08D1054B0468984702232585227EC5
S1130A201A42FCD00023180070BDC04631070000F4
S1130A3070B582790E001C23002A13D0828D173BD7
S1130A40002A0FD104250468227E2A420AD0144BBE
S1130A509847638BDBB29A061DD00222134203D05F
S1130A601A236283180070BD2B4202D065831E23B3
S1130A70F8E70122134202D062831323F2E7102223
S1130A80134202D062834223ECE72022134202D0B5
S1130A9062834123E6E7238D33800023E2E7C046E7
S1130AA031070000F8B5584B8000C4582568EB693D
S1130AB0002BFCD12B7EAF7D1F40230030331A78EE
S1130AC05E78012316401F4219D0E28D002A00D11E
S1130AD072E0A26A511C1378A1626179DBB2012928
S1130AE064D09BB2DB05DB0D2B85E38D013B9BB210
S1130AF0E385002B03D101332B750133AB7502233E
S1130B001F4209D02B752300002233331A70F307D8
S1130B1002D52000E368984704231F4227D0A28D02
S1130B20002A00D16DE06B8BDBB21A0746D43F225A
S1130B30134045D002221A2113420FD104221E2150
S1130B4013420BD101221321134207D11022422157
S1130B50134203D12022134204D041212300323313
S1130B6019706A83730702D52000636998471023BC
S1130B701F4206D02B752B761E4202D02000E3695B
S1130B80984720231F4206D02B752B76330702D5B6
S1130B902000A369984708231F4206D02B752B76A3
S1130BA0B30602D5236A20009847F8BD5178023273
S1130BB009020B43A26295E72B75A0E73722B7E73A
S1130BC02B8D616ADB05DB0DDAB20A70626A511C97
S1130BD061626179012904D11B0A5370636A01338C
S1130BE06362A38D013B9BB2A385002BBFD104227A
S1130BF02A75220032321370B307B8D52000236956
S1130C00B4E72B75B3E7C046440100201023024922
S1130C10CA681A42FCD07047000800400222F8B5A6
S1130C200026094D094C2B68094F13432B60A284FD
S1130C30B847AB68E3626B68A362A684B8472B68C5
S1130C4030009BB2A384F8BDA4000020000800403B
S1130C500D0C000070B5082806D800F0D1FC08057A
S1130C60052E2E120B1526000024200070BD154BF6
S1130C701C69FAE7144B154C1B6A9B059B0FDC405F
S1130C80F3E7104B5C69F0E70E4D00242B689B07DB
S1130C90EBD50F4B98472B685B0711D520000D4B04
S1130CA09847AC68A4B24443DFE70B4B00241B789D
S1130CB05B07DAD5034BDC68D7E780242402D4E74A
S1130CC0064CD2E7A40000200008004000127A007D
S1130CD00D0C00003112000050080040006CDC02D2
S1130CE070B584780278457801204026054020407C
S1130CF080240849AD010B6AC001B3432B43A343CD
S1130D0003430320024004481202034013430B62CE
S1130D1070BDC04600080040FFFCFFFFF0B5224B49
S1130D204278077885B09C469B8A03927A42574161
S1130D30427B8478C57806790192027B0292817B9A
S1130D401A4A80685061B80004270122BB43184343
S1130D5008231540BD4016409843F6000643DB18AF
S1130D609E43354310339D432B00402014406401BF
S1130D702343029C83431440A40123438024019809
S1130D80A3431040C00103430720039C11402040AB
S1130D90074C00022340074A03431A4063460903F1
S1130DA00A439A8205B0F0BD00080040A400002068
S1130DB0FFF8FFFFFFEFFFFF10B5027A43899206A9
S1130DC09B059B0D120C1A43174B5A60C17982790B
S1130DD084880A43418821430A4341780478C9013D
S1130DE00A431A60042C0DD1027B018A92060A433D
S1130DF0C1890E48090401400A439A601A681443E1
S1130E001C6010BD202CFCD1027B018A92060A438F
S1130E10C1890648090401400A439A601968044AD2
S1130E200A431A60EDE7C046A40000200000FF0357
S1130E302404000010B5082806D800F0E1FB1405CE
S1130E40050C0E1A07202300172010BD0223104A98
S1130E50116A0B4313620020F7E702230C4A9169DD
S1130E600B439361F7E70223094A118A0B43138268
S1130E70F1E70223064A918A0B439382EBE7054B81
S1130E809847E2E70223044A11780B431370E2E720
S1130E90000800401D0C000044080040C2231E222C
S1130EA0F0B5454DDB004549AB604B6800249343E6
S1130EB01A00042313434B6002238FB009AE33702E
S1130EC0E0B231003E4B01349847252CF8D1802202
S1130ED005A8120200238260012203708370C3708C
S1130EE002710373837302324373364B4270984723
S1130EF00520354CA0470223EA681A42FCD080231F
S1130F00AA8A1343AB823F22002372817380B38089
S1130F10B371F37173703B3A2C4B32701B689B0EA8
S1130F203F2B00D1203B3372294B01273382072307
S1130F3033733833F38130000026264B984701A8D9
S1130F40254B46708770067098470620A047234BB0
S1130F509847052302AC210023703800204B6760BA
S1130F60667026726672984738001E4B98472100B7
S1130F703000134B2770984730001B4B98471B4B8E
S1130F809847D022EB681340D02BFBD10025184B97
S1130F9021001D725D729D72DD7201236360063350
S1130FA0237028000E4B65702572657298472800DF
S1130FB00C4B98470FB0F0BD0008004000400041C2
S1130FC0151200001D0D0000350E00002460800085
S1130FD0B9050000B90D0000E10C0000011000008B
S1130FE021100000C51000008D1100001D0C000030
S1130FF000040040014B5878C0097047000C0040C1
S11310000823054A91690B4393610123034A137032
S113101011781942FCD1704700040040000C0040D4
S1131020F8B50C784B782402060005000443002B25
S113103002D08023DB021C434B7A002B02D0802396
S11310401B031C434B68012B12D95D1E1D40022259
S1131050002D06D01D02802335439B0207E0013595
S113106052009A42FBD380232D0235435B031C4379
S11310700B7A002B02D080239B031C430C4FB847F0
S11310800028FBD10B4B98470B4B1E70B847002828
S1131090FCD10A4B9D601D00B8470028FCD180227A
S11310A06B68520213401C436C60054B9847F8BDB3
S11310B0F50F0000E1010000080C0040000C0040A6
S11310C01502000070B50500094CA0470028FBD1AB
S11310D0084B9847084B1D70A0470028FCD180237B
S11310E0064A5B0251680B435360054B984770BD39
S11310F0F50F0000E1010000040C0040000C00406A
S113110015020000F7B50700184EB0470028FBD1C0
S1131110174B9847174B1F700193B0470028FCD119
S1131120154D164B6868C004C00E98470400019B17
S11311301F706B68DB02DB0F0193114B1F70B0470C
S11311400028FCD1AD680F4B9847019B2D022D0C54
S1131150002B08D1012D04D9200029000A4B9847FF
S113116004002000FEBD0135EC40FAE7F50F000055
S1131170E1010000040C0040000C0040550C00008C
S1131180080C0040150200001516000010B50400FC
S1131190064B9847064B074A1C7080235188DB0195
S11311A00B435380044B984710BDC046E101000037
S11311B0020C0040000C00401502000010B50400B1
S11311C00E4B98470E4B0F4A1C700F4B0F4C588810
S11311D059880005114059805988000F21405980D1
S11311E011008022D2015C881442FCD15A8800028A
S11311F00A4002435A80064B984710BDE1010000A3
S1131200020C0040FFF0FFFF000C0040FFBFFFFF97
S11312101502000010B50C78034B240204439847D0
S1131220024BA4B25C8010BDBD110000000C004054
S113123010B50400064B9847064B1C70064B5C889F
S1131240064B2405240F98472000054B984710BDF2
S1131250E1010000020C0040000C004015020000F7
S113126005110000D37830B5002B35D11478802CCB
S113127003D0802324065B02234302255478AC4325
S113128006D19478002C24D18024A4022343416005
S11312905478013C012C01D8124C2340A0248DB277
S11312A0E4052C431C438462D0240D0C24062C43F7
S11312B01C438462D478002C0AD15B0303D5937851
S11312C0012B0CD181615378013B012B00D8816043
S11312D030BDC024E402D9E741600023DEE7416168
S11312E0F1E7C046FFFFFBFF10B503000A00440905
S11312F0C1090020814202D10449E00140181F21A4
S11313000B401E399940024B984710BD00440041E0
S1131310651200007047000010B5054B9847054B57
S11313209847054B9847054B9847054B984710BD80
S11313309D0E00004502000015130000E5020000A8
S113134015130000FEE700002148224970B58842C9
S113135004D00023204CCA18A24232D300211F4BD0
S11313601F4A934231D3FF211E4B1F4A8B43936084
S113137002220C25082430261C4B1D485A62C378CF
S1131380FC398B431343C370C378AB432343C3700B
S1131390184B987BB0430600202030439873987B09
S11313A0A84304439C73987B884302439A73802325
S11313B0114A51680B435360104B9847104B9847A0
S11313C0FEE7C55804331560C5E702C3C9E7C04644
S11313D0002A0000000000206800002068000020AF
S11313E06C0100200000000000ED00E0FC700041F2
S11313F0005000410048004100400041991700009E
S1131400E514000070B50E0014001500002808D083
S1131410012040420CE0074B013D1868064B1B6855
S11314209847611B7118002DF5DCE043C01720407C
S113143070BDC046640100205C010020013870B515
S11314400E0002280DD80C008D18A01BAC420AD047
S1131450054B21781868054B01341B689847002810
S1131460F3DA0120404270BD6401002060010020D5
S1131470054B02001968002901D104491960186854
S113148082181A607047C046BC00002070210020FA
S113149001204042704780239B0100204B6070472D
S11314A0012070470020704773B56B469C1D0023D4
S11314B006000D00238021003000034B98470028CC
S11314C0F9D123882B7073BD310A000070B5040074
S11314D00D00A9B22000024B98470028F9D170BD35
S11314E0010A0000F0B5334B91B098478023DB0527
S11314F06A460093FF2313816B4601250533DD778C
S11315006B460633DD776B4600240733DC7702AB8A
S1131510DC770BAB1C702D236B441C701323937668
S1131520C4239B03039301235B420C930D93224B2F
S1131530224E0E93224B94720F93E1235B02089385
S1131540204BD4721482D47614761477547654775C
S11315501E601D4A1D4B01940A9405941A601C4A8E
S11315601C4B1D491A6030006A461C4B98471C4F9F
S113157021003B6898681B4B98473B6821005868DA
S1131580184B98473468184B200098471F2318407D
S11315908540164B1D603268D369002BFCD122684C
S11315A00233134323601248124B98471248134BDB
S11315B09847FEE71913000003002A00C00000202A
S11315C003002B0064010020CD1400006001002002
S11315D0A91400005C010020001800423D0700002F
S11315E004000020F9180000A506000000E100E056
S11315F0C0280000E51800002A290000F1170000A7
S113160002B4714649084900095C49008E4402BC91
S11316107047C046002243088B4274D303098B42AF
S11316205FD3030A8B4244D3030B8B4228D3030CAE
S11316308B420DD3FF22090212BA030C8B4202D350
S11316401212090265D0030B8B4219D300E0090A78
S1131650C30B8B4201D3CB03C01A5241830B8B4281
S113166001D38B03C01A5241430B8B4201D34B036A
S1131670C01A5241030B8B4201D30B03C01A5241CF
S1131680C30A8B4201D3CB02C01A5241830A8B4254
S113169001D38B02C01A5241430A8B4201D34B023D
S11316A0C01A5241030A8B4201D30B02C01A5241A1
S11316B0CDD2C3098B4201D3CB01C01A5241830955
S11316C08B4201D38B01C01A524143098B4201D38F
S11316D04B01C01A524103098B4201D30B01C01ABA
S11316E05241C3088B4201D3CB00C01A5241830834
S11316F08B4201D38B00C01A524143088B4201D361
S11317004B00C01A5241411A00D2014652411046C0
S11317107047FFE701B5002000F006F802BDC0469F
S11317200029F7D076E770477047C0469140031C04
S113173090409C46203A9340194352426346D3401A
S113174019437047F0B5CE46474615042D0C2E00BC
S113175080B50704140C3F0C9946030C7E435D438B
S1131760674363437F19340CE4199C46A54203D9AB
S113177080235B029846C4444B465143434336049A
S1131780360C250C24046544A41959184919200061
S11317900CBC90469946F0BD70B500260C4D0D4C1E
S11317A0641BA410A64209D1002601F019F90A4DC0
S11317B00A4C641BA410A64205D170BDB300EB58BB
S11317C098470136EEE7B300EB5898470136F2E745
S11317D0EC290000EC290000EC290000F0290000AD
S11317E003008218934200D1704719700133F9E75E
S11317F00FB40B4B13B51C68002C05D0A369002B48
S113180002D1200000F0F2FA05AB049AA16820008E
S1131810019300F0C7FC16BC08BC04B01847C046CE
S11318200400002070B505000E00002804D0836970
S1131830002B01D100F0DAFAAB69AC68002B02D1BD
S1131840280000F0D3FA244B9C420FD16C68A38982
S11318501B0702D52369002B20D12100280000F0AA
S113186057F900281AD00120404270BD1B4B9C42FE
S113187001D1AC68EBE71A4B9C42E8D1EC68E6E78F
S1131880013B0136A360002B04DAA269934216DB04
S11318900A2914D023685A1C226019703178A3686D
S11318A00029EDD1013BA360002B0FDA22000A319D
S11318B0280000F0D7F8431CD5D00A20D5E7220031
S11318C0280000F0CFF8431CE8D1CCE70A202368B5
S11318D05A1C22601870C8E76C2900008C2900008B
S11318E04C29000010B5034B01001868FFF79AFF5C
S11318F010BDC046040000204A424A41802310B56E
S11319005200DB0000F002F810BD0000F0B51D002D
S11319104F4B85B01E6804000F000092002E05D0C6
S1131920B369002B02D1300000F060FA494B9C42AD
S113193050D17468009B022B05D0012B00D984E0A0
S1131940002D00DA81E02100300000F0E1F9616B44
S1131950002908D023004433994202D0300000F01B
S113196051FB002363630023A3616360A3891B0607
S113197003D52169300000F045FBA389364A1340A2
S1131980A381009B022B5AD003AB02AA2100300092
S113199000F0C2FAA3891843A081002D24D1029D2E
S11319A0280000F025FB0195071E42D1029B0193FC
S11319B0AB4239D1012040420223A2891343A381BF
S11319C00023A36023004733236023610123636161
S11319D005B0F0BD214B9C4201D1B468AAE7204B6D
S11319E09C42A7D1F468A5E7002FD9D0B369002B96
S11319F002D1300000F0FAF9009B012B03D1A38936
S1131A00009A1A43A2810820A3892760276165618F
S1131A10184018D0012018400023984211D06D427C
S1131A20A360A5611800D3E7019800F0E1FA071E4E
S1131A30C0D08023A289019D1343A381D6E700204F
S1131A40BAE7A560C4E7A060C2E701204042BFE74F
S1131A50040000206C2900005CF3FFFF8C290000C7
S1131A604C290000F8B505000E001400002804D02D
S1131A708369002B01D100F0B9F9224B9C422DD18E
S1131A806C68A369A360A3891B0731D52369002B64
S1131A902ED023682269F7B2981A6369F6B2984285
S1131AA005DB2100280000F033F9002826D1A368C3
S1131AB00130013BA36023685A1C22601F706369D4
S1131AC0984204D0A389DB071AD50A2E18D1210025
S1131AD0280000F01DF9002812D00FE00A4B9C42A8
S1131AE001D1AC68CDE7094B9C42CAD1EC68C8E788
S1131AF02100280000F00CF80028CAD00126764204
S1131B003000F8BD6C2900008C2900004C2900002D
S1131B10364B70B51D6806000C00002D05D0AB696E
S1131B20002B02D1280000F061F9314B9C420FD107
S1131B306C680C23E25E93B219072DD4D90611D434
S1131B4009230120336037331343A381404270BD1E
S1131B50284B9C4201D1AC68EBE7274B9C42E8D16F
S1131B60EC68E6E75B0713D5616B002908D0230016
S1131B704433994202D0300000F044FA00236363F6
S1131B802422A3899343A3810023636023692360F0
S1131B900823A2891343A3812369002B0BD1A0211D
S1131BA08022A389890092000B40934203D0210034
S1131BB0300000F0D9F90123A289134011D0002389
S1131BC0A36063695B42A361002023698342BED1A1
S1131BD00C23E25E1306BAD540231343A3810138D4
S1131BE0B5E7920700D46369A360EDE70400002021
S1131BF06C2900008C2900004C290000F7B58A8963
S1131C0005000C00130760D44B68002B04DC0B6C3C
S1131C10002B01DC0020FEBDE76A002FFAD0002370
S1131C202E682B6080235B011A4034D0606DA38939
S1131C305B0706D56368C01A636B002B01D0236C65
S1131C40C01A0200216A00232800E76AB847A18964
S1131C50431C06D12B681D2B31D82C4ADA40D307FC
S1131C602DD50023636023692360CB0405D5431C71
S1131C7002D12B68002B00D16065616B2E600029B6
S1131C80C8D023004433994202D0280000F0BAF9A6
S1131C9000206063BFE70123216A2800B847431C82
S1131CA0C5D12B68002BC2D01D2B01D0162B01D11E
S1131CB02E60AFE74023A2891343A381ABE74023FF
S1131CC00B430120A3814042A5E70F69002FA1D057
S1131CD00B680F60DB1B01930023920700D14B6953
S1131CE0A360019B002B00DC94E7019B3A00216A6E
S1131CF02800A66AB047002803DC4023A2891343C6
S1131D00DFE7019B3F181B1A0193EAE7010040201B
S1131D100B6970B505000C00002B01D1002070BDCB
S1131D20002804D08369002B01D100F05FF80B4B2D
S1131D309C4209D16C680C22A35E002BEED02100DA
S1131D402800FFF75BFFEAE7054B9C4201D1AC6832
S1131D50F1E7044B9C42EED1EC68ECE76C290000FF
S1131D608C2900004C29000010B5024900F0B2F89B
S1131D7010BDC046111D0000002310B5040003600F
S1131D804360836081814366C281036143618361EF
S1131D90190008225C30FFF723FD054B24626362BF
S1131DA0044BA362044BE362044B236310BDC0469F
S1131DB01127000039270000712700009D2700002B
S1131DC070B568254A1E55430E002900743100F091
S1131DD063F9041E08D000212A00016046600C301B
S1131DE0A0606832FFF7FCFC200070BD836913B566
S1131DF00400002B28D18364C3640365134B144A85
S1131E001B6882620193984201D1012383612000FF
S1131E1000F020F86060200000F01CF8A0602000B2
S1131E2000F018F80022E06004216068FFF7A4FFC6
S1131E3001220921A068FFF79FFF02221221E06816
S1131E40FFF79AFF0123A36113BDC0464829000090
S1131E50691D0000F8B51E4B07001E68B369002B0E
S1131E6002D13000FFF7C2FF4836B4687368013B03
S1131E7004D53368002B07D03668F6E70C22A55E3C
S1131E80002D0DD06834F2E704213800FFF798FFE5
S1131E9030600028F0D10C2304003B602000F8BD22
S1131EA0012320005B42E3810233A3816566256040
S1131EB0A560656025616561A561082229005C3023
S1131EC0FFF78EFC6563A563A564E564E6E7C04699
S1131ED048290000F7B504000700002601914834A2
S1131EE0002C01D13000FEBD6368A5680093009BFF
S1131EF0013B009301D52468F2E7AB89012B08D993
S1131F000E22AB5E013304D029003800019B9847B0
S1131F1006436835EBE7000070B50E001D000E2384
S1131F20C95E90B01400002907DA00232B60B3893E
S1131F301B0611D48023DB000FE001AA00F05AFC39
S1131F400028F2DBF022029B12021340054A9B1880
S1131F505A4253412B60EDE740230020236010B028
S1131F6070BDC04600E0FFFFF7B502268B8905006F
S1131F700C00334206D0230047332360236101233E
S1131F806361F7BD01AB6A46FFF7C6FF009907001E
S1131F90280000F081F8002808D10C22A35E9A05DD
S1131FA0EFD4032293431E43A681E4E70F4BAB62B5
S1131FB08023A28920601343A381009B2061636175
S1131FC0019B002B0DD00E23E15E280000F024FCC1
S1131FD0002806D00322A38993431A000123134344
S1131FE0A381A0893843A081CBE7C046691D0000C6
S1131FF010B5034B0100186800F04EF810BDC04640
S11320000400002070B50500002910D00C1F2368BF
S1132010002B00DAE418280000F02FFC1D4A136896
S1132020002B05D163601460280000F027FC70BD0C
S1132030A34209D9216860188342F3D118685B6808
S113204041182160EEE713005A68002A01D0A24229
S1132050F9D919685818A0420BD1206809185818E2
S113206019608242E0D110685268411819605A60C0
S1132070DAE7A04202D90C232B60D5E72168601867
S1132080824203D1106852684118216062605C602A
S1132090CAE7C046F4000020032370B5CD1C9D435D
S11320A0083506000C2D1ED20C25A9421DD830007F
S11320B000F0E3FB254A14682100002919D1244CBF
S11320C02368002B03D1300000F010FB20602900AE
S11320D0300000F00BFB431C2CD10C233000336088
S11320E000F0CCFB03E0002DDFDA0C23336000208A
S11320F070BD0B685B1B1AD40B2B03D90B60CC1877
S1132100256003E08C420ED163681360300000F058
S1132110B5FB200007220B30231D9043C31AE7D0E0
S11321205A42E250E4E74B6863600C00EEE70C00AF
S11321304968C2E70323C41C9C43A042E0D0211A8F
S1132140300000F0D3FA431CDAD1C6E7F4000020D3
S1132150F8000020936810B5013B9360002B05DA6A
S11321609469A34208DBCBB20A2B05D01368581C30
S113217010601970C8B210BDFFF774FCFBE7F8B526
S113218006000F001400D518AC4201D1002007E06E
S113219021783A003000FFF7DDFF0134431CF3D10E
S11321A0F8BD0000F0B59FB006000F0014000593C1
S11321B0002804D08369002B01D1FFF717FE7F4B61
S11321C09F425CD17768BB891B0762D53B69002BB2
S11321D05FD0002306AD6B6120336B761033AB7692
S11321E00294029C2378002B5DD1029BE31A049392
S11321F00DD0049B029A39003000FFF7C0FF431C46
S113220000D1CCE06A69049B944663446B612378F3
S1132210002B00D1C3E00122002352426A6002A9CC
S11322205432521801342B60EB60AB601370AB6511
S113223021780522624800F015FB631C9C460028A7
S113224035D12968CB0604D5532302AA20309B1824
S113225018700B0704D553232B2002AA9B1818705F
S113226023782A2B2CD000200A21099B2278303A8B
S1132270092A00D86BE000282AD0099328E0514BA2
S11322809F4201D1B7689EE74F4B9F429BD1F768AD
S113229099E739003000FFF73BFC002899D0012072
S11322A040421FB0F0BD252B9FD001349AE7444B28
S11322B02968C01A012383400B432B606446B7E7A7
S11322C0059B181D1B680590002B3ADB0993644697
S11322D023782E2B0BD16378621C2A2B3FD1059BCC
S11322E002341A1D1B680592002B35DB07932178F5
S11322F00322364800F0B6FA002807D0334B2A6888
S1132300C01A4023834013432B6001342178631C9B
S113231006222F480293297600F0A4FA002844D01C
S11323202C4B002B2FD12968059B0722C90528D5E2
S11323309B189343083305936B69039A9B186B614D
S11323404FE75B42EB6002230B432B60BFE74B4339
S113235001349B18012089E701235B42C6E700236F
S113236014000A201A006B6021783039092903D936
S1132370002BBCD00792BAE7424301345218012320
S1132380F2E70733D5E705AB00933A00124B290077
S1132390300000E000BF0390039B0133CCD1BB8924
S11323A05B0600D57BE70B987BE705AB00933A000F
S11323B0094B2900300000F07FF8ECE76C2900009D
S11323C0AC2900008C2900004C290000B22900002F
S11323D0B6290000000000007F210000F7B51500B9
S11323E001938A680B6900900C00934200DA130091
S11323F022002B6043321278002A01D001332B6073
S113240023689B0602D52B6802332B6006272368BA
S11324101F4027D0230043331B785A1E9341226860
S1132420920630D42200019943320098089EB047A6
S1132430431C25D0062320682A68E1680340002550
S1132440042B03D18D1AEB43DB171D40A3682269CB
S1132450934201DD9B1AED180027BD4220D10020D4
S113246010E00137E3682A689B1A9F42D2DA2200FF
S11324700123193201990098089EB047431CF0D1FA
S113248001204042FEBD3020E11843310870210094
S11324905A1C45310978A218433202331170C1E73E
S11324A0220001231A3201990098089EB047431C68
S11324B0E6D00137D1E70000F0B58BB006920A00F0
S11324C043320793059004920A7E0C00109B6E2AF7
S11324D000D18FE017D8632A2CD008D8002A00D165
S11324E099E0582A54D026004236327029E0642AF2
S11324F001D0692AF7D121681A68080623D5111D6D
S11325001960156825E0732A00D188E008D86F2A7D
S113251029D0702AE7D1202209680A43226003E007
S1132520752A20D0782ADED1220078214532117014
S11325306C4A30E00E001A684236111D19601368A7
S11325403370012379E04906D9D5111D19600023A0
S1132550D55E002D03DA2D23049A6D421370624B6D
S11325600A2703932FE020681968050603D5081D80
S113257018600D6805E04006F9D50D68081D18605F
S1132580ADB2594B082703936F2A18D00A2716E0D7
S113259045310A70544A03921A682168101D186064
S11325A01568080622D5CB0702D5202319432160DC
S11325B01027002D03D1202322689A432260230090
S11325C0002243331A706368A360002B5CDB04228F
S11325D0216891432160002D58D1049E002B64D0C2
S11325E02600039B42361B7833705EE04806DAD53A
S11325F0ADB2D8E709681A68080605D5111D196037
S1132600136862691A6006E04906F7D5111D19605E
S11326101368A28A1A800023049E236154E01A6876
S1132620111D1960166800216268300000F01AF963
S1132630002801D0801B6060636823610023049A32
S1132640137041E02369320006990598079DA84755
S1132650431C43D0236800259B070FD4099BE068E3
S113266098423DDA18003BE0220001231932069912
S11326700598079EB047431C30D00135E368099A9A
S11326809B1A9D42F0DBE9E7002DA9D0049E2800A7
S11326903900FFF745F8039B013E5B5C280033706B
S11326A03900FEF7B7FF051EF1D1082F09D12368C1
S11326B0DB0706D563682269934202DC3023013EBE
S11326C03370049B9B1B2361079B09AA0093210081
S11326D0069B0598FFF782FE431CB3D101204042BC
S11326E00BB0F0BDCE290000BD290000002370B559
S11326F0064C050008002360FEF7BAFE431C03D114
S11327002368002B00D02B6070BDC04668010020F8
S113271070B50C000E25495F00F0B2F8002803DB09
S1132720636D1B18636570BDA389024A1340A381BE
S1132730F9E7C046FFEFFFFFF8B51F008B890500DE
S11327400C001600DB0505D50E23C95E002202230A
S113275000F074F8A389054A28001340A3813200CD
S11327600E23E15E3B0000F01FF8F8BDFFEFFFFF12
S113277070B50C000E25495F00F060F8A389421C77
S113278003D1054A1340A38170BD80225201134333
S1132790A3816065F8E7C046FFEFFFFF10B50E2385
S11327A0C95E00F015F810BD70B5050008001100F1
S11327B00022064C22601A00FEF740FE431C03D19F
S11327C02368002B00D02B6070BDC0466801002038
S11327D0002370B5064C050008002360FEF758FE80
S11327E0431C03D12368002B00D02B6070BDC0466E
S11327F068010020002370B5064C05000800110094
S11328002360FEF748FE431C03D12368002B00D04D
S11328102B6070BD68010020002370B5064C0500D4
S113282008002360FEF73CFE431C03D12368002B01
S113283000D02B6070BDC0466801002070B5050053
S1132840080011000022064C22601A00FEF72AFE3E
S1132850431C03D12368002B00D02B6070BDC046FD
S113286068010020C9B28218904201D1002070474B
S113287003788B42FBD00130F6E7704770470000C5
S113288070B50500080011000022064C22601A00F1
S1132890FEF7B8FD431C03D12368002B00D02B6046
S11328A070BDC0466801002000080042000C0042D0
S11328B0001000420014004200180042001C0042B4
S11328C02D2D2057494E43313530302063686970CF
S11328D020696E666F726D6174696F6E20657861D0
S11328E06D706C65202D2D0D0A2D2D2053414D57F3
S11328F032355F58504C41494E45445F50524F2049
S11329002D2D0D0A2D2D20436F6D70696C65643A71
S11329102041707220323320323031382031393A3C
S113292032383A3433202D2D0D0048656C6C6F20FD
S1132930776F726C642120596F75207570646174AF
S1132940656421212100000008000020000000002F
S11329500000000000000000000000000000000073
S11329600000000000000000000000000000000063
S11329700000000000000000000000000000000053
S11329800000000000000000000000000000000043
S11329900000000000000000000000000000000033
S11329A0000000000000000000000000232D302B78
S11329B02000686C4C00656667454647003031323C
S11329C03334353637383941424344454600303193
S11329D032333435363738396162636465660000F2
S11329E0F8B5C046F8BC08BC9E467047DD00000040
S11329F0F8B5C046F8BC08BC9E467047B500000058
S1132A000100000008000020000000006C29000004
S1132A108C2900004C290000000000000000000088
S1132A2000000000000000000000000000000000A2
S1132A300000000000000000000000000000000092
S1132A400000000000000000000000000000000082
S1132A500000000000000000000000000000000072
S10B2A6000000000000000006A
S9031349A0
