:10000000F0250020119E0000099F0000099F0000BC
:1000100000000000000000000000000000000000E0
:10002000000000000000000000000000099F000028
:100030000000000000000000099F0000099F000070
:10004000099F0000099F0000099F0000C161000096
:10005000D55C0000099F0000099F0000099F000077
:10006000099F000091770000A9770000C177000088
:10007000D9770000F177000009780000C56D000015
:10008000D96D0000ED6D0000099F0000099F000080
:10009000099F00000000000000000000099F000010
:1000A000099F0000099F0000099F0000099F0000B0
:1000B0000000000010B5064C2378002B07D1054B3B
:1000C000002B02D0044800E000BF0123237010BDC4
:1000D000E40100200000000060FE0000084B10B5A5
:1000E000002B03D00749084800E000BF0748036819
:1000F000002B00D110BD064B002BFBD09847F9E731
:1001000000000000E801002060FE000060FE00002A
:100110000000000080B582B000AF78607B68002BE3
:100120000CD0084B7A685A60064B00229A60C04691
:10013000044B1A6880235B021340F9D0C046BD46C9
:1001400002B080BD10E000E080B500AF00200F4B92
:10015000984702000E4B1A600D4B18680D4BFA229F
:100160009100984703001A00094B1A60084B186861
:10017000084BFA229100984703001A00064B1A60B8
:10018000064B05221A60C046BD4680BDC5990000D9
:1001900000000020D1C900000400002010E000E0B1
:1001A00080B582B000AF786004E0074B1B68180090
:1001B000064B98477B685A1E7A60002BF5D1C046E3
:1001C000BD4602B080BDC046000000201501000001
:1001D00080B584B000AF0200FB1D1A700F23FB181E
:1001E000FA1D1278D2091A700E23FB18FA1D127824
:1001F00052091A700D4BBB600F23FB181B78002BA4
:100200000FD10F23FB181B789B0010229446BC448F
:100210006344083B1A680E23FB181B78DB01D318D4
:1002200000E000231800BD4604B080BD004400413A
:1002300080B582B000AF0200FB1D1A70FB1D1B7859
:100240001800034B984703001800BD4602B080BD5C
:10025000D101000080B582B000AF78607B680022D9
:100260001A707B6801225A707B6800229A70C0461F
:10027000BD4602B080BD000080B584B000AF020072
:10028000FB1D1A70BB1D0A1C1A70FB1D1B78180081
:100290000D4B98470300FB60FB1D1B781F2213408A
:1002A00001229A401300BB60BB1D1B78002B03D0BA
:1002B000FB68BA689A6102E0FB68BA685A61C04696
:1002C000BD4604B080BDC0463102000080B500AF1D
:1002D000044B01221A70BFF35F8F62B6C046BD4661
:1002E00080BDC0460F00002080B500AF044B1B68E6
:1002F000002B02D0024B1B689847C046BD4680BD0C
:100300000002002080B582B000AF3B1D1800104BEA
:1003100098473B1D01221A703B1D19001B200D4BF5
:1003200098473B1D19001C200A4B98473B1D19009C
:100330002820084B984700211C20074B9847002194
:100340001B20054B9847C046BD4602B080BDC04645
:1003500055020000017000007902000080B500AF76
:100360000C4B00221A600C4B98470C4B1B68012267
:10037000134004D0094B1B680222134001D1084BE3
:100380009847084B9847084B984700231800BD46EC
:1003900080BDC046000200200503000010E000E020
:1003A00049010000AD030000CD02000080B500AFA0
:1003B00000211C200B4B984700211B20094B98471C
:1003C0000120094B984701211C20064B98470A2021
:1003D000054B984701211B20024B9847C046BD465C
:1003E00080BDC04679020000ED03000080B582B0F8
:1003F00000AF786002E00120054B98477B685A1EE9
:100400007A60002BF7D1C046BD4602B080BDC04621
:10041000A101000080B586B000AF7860154B7A6806
:100420001A600C23FB181800134B98470C23FB1879
:1004300029221A600C23FB1800225A600C23FB1897
:1004400001221A720C23FB180222DA720C23FB1809
:1004500019000920094B9847094B0022092118006F
:10046000084B984700210920074B9847C046BD46D6
:1004700006B080BD00020020E15F000015600000B2
:10048000E9020000E15B0000455C000080B582B03D
:1004900000AF0200FB1D1A70FB1D1B78002B04D05F
:1004A00000210920054B984703E000210920044B57
:1004B0009847C046BD4602B080BDC046455C0000BE
:1004C0008D5C000080B584B000AF0200FB1D1A7087
:1004D0000F23FB18FA1D1278D2091A700E23FB188D
:1004E000FA1D127852091A700D4BBB600F23FB18CE
:1004F0001B78002B0FD10F23FB181B789B001022B9
:100500009446BC446344083B1A680E23FB181B78CE
:10051000DB01D31800E000231800BD4604B080BD05
:100520000044004180B582B000AF0200FB1D1A708C
:10053000FB1D1B781800034B984703001800BD46AD
:1005400002B080BDC504000080B582B000AF786005
:100550007B6800221A707B6801225A707B68002237
:100560009A70C046BD4602B080BD000080B584B020
:1005700000AF0200FB1D1A70BB1D0A1C1A70FB1D88
:100580001B7818000D4B98470300FB60FB1D1B7880
:100590001F22134001229A401300BB60BB1D1B7831
:1005A000002B03D0FB68BA689A6102E0FB68BA6866
:1005B0005A61C046BD4604B080BDC0462505000056
:1005C00080B582B000AF0200FB1D1A70064BFA1D09
:1005D000127811001F220A40012191400A001A607E
:1005E000C046BD4602B080BD00E100E080B582B0EB
:1005F00000AF0200FB1D1A70074AFB1D1B78190093
:100600001F230B40012199400B0019008023D1507A
:10061000C046BD4602B080BD00E100E080B584B0B8
:1006200000AF78607B681B68FB60FB68DB695A1E63
:100630009341DBB21800BD4604B080BD80B582B0E6
:1006400000AF78607B6801221A707B6800225A60D4
:100650007B6800229A607B68C0229203DA607B6824
:1006600000221A747B6800225A747B6801229A74F3
:100670007B680122DA747B6800221A757B68242269
:10068000002199547B6818330C22002118000A4B72
:1006900098477B68094A9A617B6800229A627B6866
:1006A0000022DA627B6800221A637B6800225A63A8
:1006B000C046BD4602B080BDC3CD0000A08601008B
:1006C00080B582B000AF78607B680A221A707B68C0
:1006D00000225A707B6800229A70C046BD4602B064
:1006E00080BD000080B584B000AF786039603B68A1
:1006F0001A787B681A703B685A787B685A703B6836
:100700009A787B689A700C23FB1818000B4B98475B
:100710000C23FB1801221A707B681B780C22BA1874
:1007200011001800064B98477B681B7801211800C0
:10073000044B9847C046BD4604B080BD4905000043
:10074000017000006D05000080B584B000AF7860D6
:100750007B681B68FB607B681B6818000B4B984725
:10076000030018000A4B9847C0467B681800094BE5
:100770009847031EF9D1FB681B6802221A43FB68E5
:100780001A60C046BD4604B080BDC0464D7700002B
:10079000C10500001D06000080B584B000AF786080
:1007A0007B681B68FB607B681B6818000E4B9847D2
:1007B000030018000D4B9847C0467B6818000C4B8F
:1007C0009847031EF9D1FB688F221A75FB688F22A8
:1007D0001A76FB681B68022293431A00FB681A60B2
:1007E000C046BD4604B080BD4D770000ED05000059
:1007F0001D06000080B584B000AF78607B681B6880
:10080000FB60FB681B7EDBB21A00022313405A1EFA
:100810009341DBB21800BD4604B080BD80B584B002
:1008200000AF78607B681B68FB60FB681B7EDBB2F7
:100830001A00012313405A1E9341DBB21800BD4633
:1008400004B080BD80B584B000AF78607B681B6861
:10085000FB60FB681B7EDBB21A00042313405A1EA8
:100860009341DBB21800BD4604B080BD80B584B0B2
:1008700000AF78600A00BB1C1A807B681B68FB60B5
:100880007B6818000A4B984703001A000123534065
:10089000DBB2002B01D0052306E0BB1C1B88DB0567
:1008A000DA0DFB689A6200231800BD4604B080BDD3
:1008B0001D08000080B584B000AF786039607B68A7
:1008C0001B68BB607B6818001B4B984703001A002D
:1008D00001235340DBB2002B01D0102327E00F236C
:1008E000FB1800221A70BB685B8B9BB21A000423B2
:1008F000134006D00F23FB181E221A70BB68042277
:100900005A837B689B79012B08D1BB689B6A9BB299
:10091000DB05DB0D9AB23B681A8005E0BB689B6A79
:10092000DBB29AB23B681A800F23FB181B781800C1
:10093000BD4604B080BDC0464508000080B586B005
:1009400000AFF860B960BB1D1A801323FB180022AA
:100950001A701723FB1800221A701623FB180022A6
:100960001A701423FB1800221A801023FB1800228F
:100970001A80BB68002B02D1FB68002B03D0BB1D83
:100980001B88002B02D10F235B427EE0FB68002B0B
:1009900006D11323FB18FB601723FB1801221A70E2
:1009A000BB68002B06D11323FB18BB601623FB1872
:1009B00001221A703749384B01221800374B9847EB
:1009C0004CE0FB681A781423FB181A80C046324B9F
:1009D0001800334B984703001A0001235340DBB241
:1009E000002BF4D1C0461423FB181A882A4B11009F
:1009F00018002C4B9847031EF5D1C046264B180013
:100A0000294B984703001A0001235340DBB2002B07
:100A1000F4D1C0461023FA181F4B11001800234BC5
:100A20009847031EF6D11023FB181B88DAB2BB6867
:100A30001A70BB1D1A88BB1D013A1A801623FB18B9
:100A40001B78002B02D1BB680133BB601723FB1856
:100A50001B78002B02D1FB680133FB60BB1D1B8898
:100A6000002BAED1C0460C4B1800114B9847030029
:100A70001A0001235340DBB2002BF4D10549064B89
:100A800000221800054B984700231800BD4606B009
:100A900080BDC046C0020020C4020020757E000058
:100AA0001D0800006D08000045080000B5080000A2
:100AB000F507000080B592B000AF78604723FB18BF
:100AC00000221A700823FB181800264B98470823A9
:100AD000FB180E221A700823FA18234B1100180075
:100AE000224B98470C23FB181800214B98470C23E6
:100AF000FB18C0229203DA600C23FB181D4A9A628D
:100B00000C23FB181C4ADA620C23FB180122524208
:100B10001A630C23FB18194A5A630C23FB18002292
:100B20001A750C23FB18164A9A610C23FA181549FA
:100B3000154B1800154B9847031E02D006235B4245
:100B40000CE0114B1800124B9847124B98470120AC
:100B5000114B98474723FB181B785BB21800BD4622
:100B600012B080BDC1060000C0020020E5060000F2
:100B70003D06000002000C0002000D0002000F0004
:100B8000001BB70000100042C4020020E57C0000FA
:100B900049070000AD030000ED03000090B585B0EB
:100BA00000AF02003960FB1D1A700F23FB180022F2
:100BB0001A70FB1D1B78032B0FD13B68BB60BB6811
:100BC0001868BB685968BB681B890F22BC181A00DB
:100BD000104B98470300237013E00F23FB18FF22EC
:100BE0001A700E23FF331A000B490C4B18000C4BE4
:100BF00098470C4B18000C4B98470D200B4B98470F
:100C0000C0460F23FB181B785BB21800BD4605B029
:100C100090BDC0463D090000D4E40000ACE40000F3
:100C200025CF0000C0E4000041D0000059CF0000F3
:100C300080B582B000AFFB1D00221A703B1D18006A
:100C4000134B98473B1D00221A703B1D00225A701F
:100C5000104B1800104B98473B1D19000C200F4BF0
:100C600098473B1D19000F200C4B98473B1D19005E
:100C70000D200A4B98473B1D19000E20074B984743
:100C8000FB1D1B785BB21800BD4602B080BDC0469C
:100C900049050000C402002099070000017000000F
:100CA00080B584B000AFF860B9607A607B68002BD3
:100CB00010D0BB681A78FB681A70FB680133FB60C0
:100CC000BB680133BB607B68013B7B607B68002BAA
:100CD000EFD100E0C046BD4604B080BD80B584B011
:100CE00000AFF8607A600B23FB180A1C1A707B684F
:100CF000002B0ED0FB680B22BA1812781A70FB6812
:100D00000133FB607B68013B7B607B68002BF1D18A
:100D100000E0C046BD4604B080BD80B584B000AFE1
:100D200078600E23FB1800221A8009E00E23FB18BE
:100D30001A880E23FB1801321A807B6801337B600E
:100D40007B681B78002BF1D10E23FB181B88180041
:100D5000BD4604B080BD000080B500AF044BDB7819
:100D6000DBB20133DAB2024BDA70C046BD4680BD59
:100D70000003002090B583B000AFFB1D00221A7065
:100D8000144B00229A700120134B9847FC1D3B0026
:100D9000124A19001000124B984703002370FB1DE4
:100DA0001B785BB2002B0DD13B68022213433B60E2
:100DB0003B68FC1D094A190010000A4B98470300C4
:100DC000237000E0C046FB1D1B785BB21800BD46D7
:100DD00003B090BD000300208D04000070100000DF
:100DE000192D00003D2D000080B582B000AF3A60A3
:100DF000FB1D021C1A703B1D0A1C1A80C046BD4612
:100E000002B080BD90B583B000AFFB1D00221A7008
:100E1000164B9B78DBB2002B03D0FB1D1B785BB21B
:100E20001FE0124B5B78DBB2002B0ED10F4B1B780F
:100E3000DBB2002B09D0FC1D0D4B9847030023703B
:100E4000FB1D1B785BB2002B07D1084B5B78DBB234
:100E50000133DAB2054B5A7000E0C046FB1D1B7827
:100E60005BB21800BD4603B090BDC0460003002031
:100E7000ED27000080B500AF074B5B78DBB2002B9D
:100E800006D0054B5B78DBB2013BDAB2024B5A70FD
:100E900000231800BD4680BD0003002090B583B03C
:100EA00000AFFB1D00221A70104B5B78DBB2002BE9
:100EB00006D00E4B5B78DBB2013BDAB20B4B5A70BB
:100EC0000A4B5B78DBB2002B09D1084B1B78DBB2F5
:100ED000002B04D0FC1D064B984703002370FB1D1C
:100EE0001B785BB21800BD4603B090BD0003002024
:100EF0001527000080B582B000AF7860094B28222A
:100F000000211800084B9847084B1800084B9847D9
:100F1000084B19000320084B984700231800BD46D2
:100F200002B080BD00030020DD0C0000590D000060
:100F300015040000E90D0000B119000090B589B05A
:100F400000AF040008003A601900FB1D221C1A7053
:100F5000BB1D021C1A703B1D0A1C1A801F23FB18A4
:100F6000FF221A70BB1D1B787F221340DAB21823B0
:100F7000FB185A701823FB18FA1D12781A701823E0
:100F8000FB1808225A803B6B002B11D01823FB184A
:100F90005B889AB23823F9183423FB1809881B8818
:100FA000CB189BB2D3189AB21823FB185A800AE0C8
:100FB0001823FB185B889AB23B1D1B88D3189AB282
:100FC0001823FB185A801F23FC18B04B98470300C6
:100FD00023701F23FB181B785BB2002B00D027E186
:100FE00000233B610E23FB1800221A8000237B6143
:100FF000FB1D1A787B6913437B61BB1D1B781A02AA
:101000007B6913437B611823FB185B889BB21A042E
:101010007B6913437B617B691F22BC189C4A1900C2
:1010200010009C4B9847030023701F23FB181B786C
:101030005BB2002B00D015E100237B617B690222AB
:1010400013437B617B691F22BC18934A190010006F
:10105000904B9847030023701F23FB181B785BB24B
:10106000002B00D000E100233B610E23FB1800227F
:101070001A804FE01F23FC181423FB18864A19001E
:101080001000864B9847030023701F23FB181B7822
:101090005BB2002B46D10E23FB181B889AB2F423B7
:1010A000FF339A4215D90E23FB181B889AB2FA23F4
:1010B0005B009A420AD87A4B18007A4B98477A4BD1
:1010C00018007A4B98470D20794B98470120794BAF
:1010D00098477B690222134013D11F23FC18102369
:1010E000FB18754A190010006C4B984703002370D9
:1010F0001F23FB181B785BB2002B15D000233B612C
:10110000B9E00E23FB181B889BB201339AB20E2361
:10111000FB181A800E23FB181B889BB2674A934268
:10112000A8D902E0C04600E0C0463B69002B00D1D0
:1011300073E03B69BB601823FB185B889AB21823E5
:10114000FB185A80BB681F22BC181822B918082245
:1011500018005B4B9847030023701F23FB181B7874
:101160005BB2002B00D081E0BB680833BB603B68FA
:10117000002B15D0B8683B1D1A881F23FC183B684C
:1011800019004F4B9847030023701F23FB181B784F
:101190005BB2002B6CD13B1D1A88BB68D318BB60B7
:1011A0003B6B002B21D03823FB181A883B1D1B8872
:1011B000D31A1A00BB68D318BB60B8683423FB1875
:1011C0001A881F23FC183B6B19003D4B98470300FE
:1011D00023701F23FB181B785BB2002B4AD13423EA
:1011E000FB181A88BB68D318BB603B699B007B6106
:1011F0007B69022213437B617B691F22BC18314A41
:1012000019001000234B9847030023701F23FB187D
:101210001B785BB2002B1AD02DE01F23FC182A4B41
:101220009847030023701F23FB18FD221A7024E047
:10123000CB235A002549264B18001A4B9847254BBB
:1012400018001A4B98470D20194B984715E01F239B
:10125000FC181D4B9847030023701F23FB181B78B5
:101260005BB20EE0C04606E0C04604E0C04602E0C5
:10127000C04600E0C046184B98471F23FB181B7858
:101280005BB21800BD4609B090BDC046050E000017
:101290008C1000003D2D000078100000192D00007A
:1012A000E4E4000025CF0000F0E4000041D000009D
:1012B00059CF0000ED03000000041500E703000013
:1012C000852E00006C1000009D0E0000F8E7000065
:1012D00000E5000014E50000750E000090B587B031
:1012E00002AF0F23FB1800221A700F23FC180823EB
:1012F000FB18D64A19001000D54B984703002370FD
:101300000F23FB181B785BB2002B00D017E2BB68E1
:101310000122134000D1FDE10020CE4B9847BB686D
:1013200001229343BB60BB680F22BC18C74A190057
:101330001000C94B9847030023700F23FB181B783C
:101340005BB2002B00D008E2C44B01229A70BB684C
:101350009B089AB20C23FB181205120D1A800C235D
:10136000FB181B88002B00D1C1E100233B600F2339
:10137000FC183B00BA4A19001000B54B984703000F
:1013800023700F23FB181B785BB2002B12D0C823ED
:10139000FF331A00B349B44B1800B44B9847B44B11
:1013A0001800B44B98470D20B34B98470120A94B28
:1013B0009847D3E13A68A94B5A600C23FB181A8866
:1013C000A64B9A603B680F22BC18391D04221800F6
:1013D000AA4B9847030023703B1D5B889AB23B1DC4
:1013E0005A800F23FB181B785BB2002B12D0D2233C
:1013F000FF331A009B499C4B18009C4B9847A04B0D
:1014000018009C4B98470D209B4B98470120914B0F
:101410009847A3E13B1D5B889BB20C22BA18128847
:101420009A422DD00C23FB181B883A1D528892B289
:101430009B1A042B24DDED235A008A498A4B18009D
:101440008A4B98470C23FB1819883B1D5B889BB27D
:101450001A003B1D1B78DBB21C003B1D5B78DBB226
:10146000884800932300814CA0470D20824B984769
:101470000120784B98470F23FB18FA221A706DE170
:101480003B1D1B78DBB2012B20D1744BDB68002B9A
:101490000DD0724BDB683A1D5278D0B23A1D52889B
:1014A00092B2083A91B23A6808329847FEE0F323C4
:1014B0005A006C496C4B18006C4B9847724B1800E3
:1014C0006C4B98470D206C4B9847EFE03B1D1B7809
:1014D000DBB2022B20D1614B1B69002B0DD05F4B7F
:1014E0001B693A1D5278D0B23A1D528892B2083A1E
:1014F00091B23A6808329847D8E0F7235A00594920
:10150000594B1800594B9847604B1800594B984756
:101510000D20594B9847C9E03B1D1B78DBB2042BCB
:1015200020D14E4B5B69002B0DD04C4B5B693A1DB3
:101530005278D0B23A1D528892B2083A91B23A68C3
:1015400008329847B2E0FB235A004649464B180040
:10155000464B98474E4B1800464B98470D20464B3C
:101560009847A3E03B1D1B78DBB2062B1FD13B4BFA
:101570001B6A002B0DD0394B1B6A3A1D5278D0B232
:101580003A1D528892B2083A91B23A6808329847A6
:101590008CE0404A3349344B1800344B98473E4B5B
:1015A0001800344B98470D20334B98477EE03B1D85
:1015B0001B78DBB2072B1FD1284B9B69002B0DD06A
:1015C000264B9B693A1D5278D0B23A1D528892B28E
:1015D000083A91B23A680832984767E02F4A2149A1
:1015E000214B1800214B98472D4B1800214B984751
:1015F0000D20214B984759E03B1D1B78DBB2052B92
:1016000011D1164B5B6A002B50D0144B5B6A3A1D0C
:101610005278D0B23A1D528892B2083A91B23A68E2
:101620000832984742E01F4A0E490F4B18000F4BF3
:1016300098471D4B18000F4B98470D200E4B9847AD
:101640000F23FB18FA221A7088E0C04670100000C1
:10165000192D00008D0400003D2D00000003002026
:101660008410000004E8000000E5000025CF000021
:1016700030E5000041D0000059CF00008D2D000062
:1016800054E500006CE50000ACE50000CCE500008E
:10169000F0E50000FF01000010E600000602000077
:1016A00034E600000F02000058E600002F4B9B7844
:1016B000DBB2002B52D02E4A2E492F4B18002F4B55
:1016C00098473B1D1B78DBB219003B1D5B78DBB2F2
:1016D0001A002B4B1800294B98470D20294B98478F
:1016E0000F23FC18284B98470300237036E087230C
:1016F0009A002049204B1800204B9847234B180094
:10170000234B98470D201F4B98470F23FB18FE22B1
:101710001A7023E089239A001649174B1800174BBB
:101720009847BA681B4B11001800144B98470D20BE
:10173000144B98470F23FB18F4221A700EE0164A38
:101740000C490D4B18000D4B9847144B1800104BCB
:1017500098470D200B4B984700E0C0460F23FB181D
:101760001B785BB21800BD4605B090BD0003002099
:101770001502000004E8000000E5000025CF00008D
:1017800070E6000059CF0000750D00009CE60000D7
:1017900041D00000B0E600002D020000CCE60000C1
:1017A00090B583B000AFFB1D00221A7023E0184BE8
:1017B000DB78DBB2013BDAB2154BDA70FC1D154B5E
:1017C000984703002370FB1D1B785BB2002B00D1F0
:1017D00011E0114A1149124B1800124B9847FB1D9A
:1017E00000229A56104B110018000E4B98470D20FE
:1017F0000E4B9847E2E7064BDB78DBB2002BD6D1E5
:10180000FB1D1B785BB21800BD4603B090BDC046FF
:1018100000030020DD1200004A0200000CE8000076
:1018200000E5000025CF0000F0E6000059CF0000E1
:1018300090B587B000AFF860B9601900BB1D1A8081
:101840007B1D0A1C1A701723FB1800221A70FB68F4
:10185000002B06D0BB68002B03D0BB1D1B88002BC0
:101860001CD17B1D1B78002B06D01723FC18424B84
:1018700098470300237077E01723FB18F4221A70AF
:101880003E4A3F493F4B18003F4B98473F4B18009B
:101890003F4B98470D203F4B984765E0BB1D1A888A
:1018A0003D4B9B689A4215D91723FB18F4221A70F6
:1018B0003A4A3349334B1800334B9847BB1D1988BC
:1018C000354B9A68364B18002F4B98470D20314BFB
:1018D000984749E0304B5A68FB689A420AD8BB1DCA
:1018E0001A88FB68D2182C4B59682B4B9B68CB1875
:1018F0009A4211D91723FB18F4221A70294A204959
:10190000204B1800204B9847274B1800204B984736
:101910000D20204B984727E0BB1D1A881723FC1881
:10192000B968FB681800214B984703002370172300
:10193000FB181B785BB2002B15D1174B5A68164B5E
:101940009B68D218BB1D1988FB68CB189A4203D03C
:101950007B1D1B78002B07D01723FC18064B9847DC
:101960000300237000E0C0461723FB181B785BB20E
:101970001800BD4607B090BD750D00006B02000059
:101980001CE8000000E5000025CF000020E7000073
:1019900041D0000059CF0000000300207302000076
:1019A00040E700007902000088E700008D2D00006C
:1019B00080B584B000AF02003960FB1D1A700F23A0
:1019C000FB1800221A70FB1D1B78072B20D89A00E9
:1019D0001E4BD3181B689F461D4B3A681A612CE0BA
:1019E0001B4B3A68DA6028E0194B3A685A6124E0E8
:1019F000174B3A68DA6120E0154B3A681A621CE02E
:101A0000134B3A689A6118E0114B3A685A6214E035
:101A1000104A1149114B1800114B9847FB1D1A78B9
:101A2000104B110018000E4B98470D200E4B984795
:101A30000F23FB18F4221A70C0460F23FB181B78E3
:101A40005BB21800BD4604B080BDC046D8E70000B8
:101A500000030020B102000028E8000000E50000BB
:101A600025CF0000CCE7000059CF000090B5ADB005
:101A700002AF3A60FB1D021C1A703B1D0A1C1A8043
:101A8000FB1D1B782C2B16D19C23F91838680023DA
:101A90000422C64CA047031E00D0AAE1C44B1B6819
:101AA000002B00D1A5E1C24B1B689C22BA18110083
:101AB0002C2098479DE1FB1D1B781B2B16D19423EE
:101AC000F918386800230822B84CA047031E00D03C
:101AD0008FE1B74B1B68002B00D18AE1B44B1B6828
:101AE0009422BA1811001B20984782E1FB1D1B7835
:101AF000062B16D10823F918386801233022AB4C85
:101B0000A047031E00D074E1A94B1B68002B00D135
:101B10006FE1A74B1B680822BA18110006209847EE
:101B200067E1FB1D1B780E2B00D162E1FB1D1B78CA
:101B3000322B16D18023F9183868002314229B4CCD
:101B4000A047031E00D054E1994B1B68002B00D125
:101B50004FE1974B1B688022BA181100322098473A
:101B600047E1FB1D1B782F2B1DD10823FB18642296
:101B7000002118008F4B98470823F9183868002374
:101B800064228A4CA047031E00D032E1884B1B68B8
:101B9000002B00D12DE1864B1B680822BA181100DA
:101BA0002F20984725E1FB1D1B78342B2ED17C2359
:101BB000F9183868002304227C4CA047031E00D08B
:101BC00017E17D4B18007D4B9847FB6F1B0EDBB276
:101BD0001900FB6F1B0CDBB21A00FB6F1B0ADBB298
:101BE0001C00FB6FDBB2764800932300734CA047C8
:101BF0000D20744B98476E4B1B68002B00D1F8E00A
:101C00006B4B1B68002134209847F2E0FB1D1B78CA
:101C1000112B1ED16C4B00221A707823F9183868EA
:101C200000230422614CA047031E00D0E1E078238A
:101C3000FB181A78654B1A705D4B1B68002B00D19E
:101C4000D7E05B4B1B687822BA1811001120984727
:101C5000CFE0FB1D1B78132B16D10823F918386829
:101C600000232C22514CA047031E00D0C1E0504B52
:101C70001B68002B00D1BCE04D4B1B680822BA1832
:101C8000110013209847B4E0FB1D1B78042B16D1DC
:101C9000A023F918386800230422444CA047031EEF
:101CA00000D0A6E0424B1B68002B00D1A1E0404BC6
:101CB0001B68A022BA1811000420984799E0FB1D68
:101CC0001B78652B16D1A023F9183868002304224D
:101CD000364CA047031E00D08BE0354B1B68002B11
:101CE00000D186E0324B1B68A022BA181100652093
:101CF00098477EE0FB1D1B78092B16D10823F918A5
:101D0000386801236422294CA047031E00D070E0EC
:101D1000274B1B68002B00D16BE0254B1B6808226A
:101D2000BA1811000920984763E0FB1D1B782A2B85
:101D300014D17423F9183868012304221B4CA047DE
:101D4000031E56D11A4B1B68002B52D0184B1B6830
:101D50007422BA1811002A2098474AE0FB1D1B780C
:101D6000202B35D16C23F9183868002308220F4C3A
:101D7000A047031E3DD13B68083318006C23FB18B5
:101D800019686C23FB189A880123084CA047031E8E
:101D90002FD1074B1B68002B2BD0054B1B686C22E7
:101DA000BA1811002020984723E0C04631180000DF
:101DB00008020020DD0C000038E8000025CF0000FC
:101DC00044E8000059CF0000050200200402002072
:101DD00095235A0009490A4B18000A4B9847FB1DE6
:101DE0001A78094B11001800064B98470D20074B35
:101DF0009847C046BD462BB090BDC046ECEB0000F6
:101E000064E8000025CF000078E8000059CF00000A
:101E100090B591B002AF78603723FB1800221A709A
:101E20000B23FB1801221A707B68002B04D1372387
:101E3000FB18F4221A70ADE07B681A68594B1A60DF
:101E4000594B00221A703723FC180B23FB1818007B
:101E5000564B9847030023703723FB181B785BB25F
:101E6000002B00D093E03723FC180020504B9847FC
:101E7000030023703723FB181B785BB2002B00D0C4
:101E800080E04C4B190001204B4B98473723FC183E
:101E90000C23FB181800494B984703002370484B4C
:101EA0001800484B98470C23FB181B7919000C238A
:101EB000FB185B791A000C23FB189B791C000C2380
:101EC000FB181B8C4048009323003E4CA0470D207C
:101ED0003E4B98473A4B18003A4B98470C23FB1857
:101EE00016331A000C23FB180A331900384B18005C
:101EF000344B98470D20354B9847314B1800314BE8
:101F000098470C23FB18DB7919000C23FB181B7A6C
:101F10001A000C23FB185B7A2E482A4CA0470D2090
:101F20002A4B9847264B1800264B98472A480223ED
:101F300005221321234CA0470D20244B9847204B0A
:101F40001800204B9847254A2549264B18001D4B61
:101F500098470D201D4B98473723FB181B785BB221
:101F60000D3316D1EE23FF331A001F491F4B180003
:101F7000144B98471E4B18001E4B98470D20134BCF
:101F8000984706E0C04600201B4B984702E0C04639
:101F900000E0C0463723FB181B785BB21800BD4633
:101FA0000FB090BD08020020050200201D31000086
:101FB000F50E00006D1A0000B1190000512F00004D
:101FC00038E8000025CF0000CCE9000059CF000020
:101FD000F4E9000010EA000034EA00004CEA0000D6
:101FE00058EA000064EA0000F8EB000064E8000032
:101FF0007CEA000041D00000B132000080B582B020
:1020000000AF7860034B984703001800BD4602B04C
:1020100080BDC046A117000090B587B002AFF86040
:10202000080011007B600B23FB18021C1A700A23A6
:10203000FB180A1C1A707C680A23FB181A780B23F9
:10204000FB181978F868002301932023FB181B88DC
:1020500000932300034CA04703001800BD4605B0C1
:1020600090BDC04669200000B0B5AAB004AFF860CA
:10207000080011007B600B23FB18021C1A700A2356
:10208000FB180A1C1A709723FB1800221A700A23E7
:10209000FB181B78012B00D183E07B68002B11D14A
:1020A000DB4ADC49DC4B1800DC4B9847DC4B180062
:1020B000DC4B98470D20DC4B98479723FB18F42204
:1020C0001A70F5E10A23FB181B78022B69D17B6893
:1020D0001800D64B98470300402B62D19623FB187B
:1020E00000221A707B689022BA18136054E096237D
:1020F000FB181B789022BA181268D3181B782F2B64
:1021000031D99623FB181B789022BA181268D3187D
:102110001B78392B09D99623FB181B789022BA1803
:102120001268D3181B78402B1DD99623FB181B78F7
:102130009022BA181268D3181B78462B09D9962317
:10214000FB181B789022BA181268D3181B78602BE2
:1021500009D99623FB181B789022BA181268D31855
:102160001B78662B11D9B24AAA49AB4B1800AB4B6E
:102170009847B04B1800AB4B98470D20AA4B984797
:102180009723FB18F4221A7092E19623FB181A7811
:102190009623FB1801321A709623FB181B783F2BED
:1021A000A5D90B23FB181B78002B04D00B23FB189D
:1021B0001B78202B11D9A04A9649974B1800974BB2
:1021C00098479E4B1800974B98470D20964B984781
:1021D0009723FB18F4221A706AE1A823FB181B88C6
:1021E000002B04D0A823FB181B880E2B16D9A8237C
:1021F000FB181B88FF2B11D0914A8649864B18008B
:10220000864B98478F4B1800864B98470D20864B7E
:1022100098479723FB18F4221A7049E10B23FB1807
:102220001A78F9681423FB1846331800864B984730
:102230000B23FB181B781422BA184621D3185B18FD
:1022400000221A701423FB18A822BA1844211288FD
:102250005A52AC23FB181B785A1E9341DBB219006B
:102260001423FB18672299541423FB188C22BA18E4
:1022700013608C23FB181B680A22BA1841211278BC
:102280005A540A23FB181B78032B00D07BE07B6891
:102290008822BA1813608C23FB181B688422BA1892
:1022A00013608823FB181B681B78013BDAB2842378
:1022B000FB181B681A708423FB181B681B78032B00
:1022C00017D9624A5349544B1800544B98478423FA
:1022D000FB181B681B781A005D4B110018004F4B50
:1022E00098470D20504B98479723FB18F4221A70FB
:1022F000DEE08823FB181B685B78013BDAB284239D
:10230000FB181B685A708423FB181B685B780A2B28
:102310001ED08423FB181B685B781A2B18D09623D9
:102320009A003C493C4B18003C4B98478423FB18CF
:102330001B685B781A00474B11001800374B984711
:102340000D20394B98479723FB18F4221A70AFE001
:102350008423FB181B68981C8823FB181B68991C96
:102360008823FB181B685B781A00374B9847882333
:10237000FB181B685B781A008423FB181B689B18EA
:1023800000229A7083E00A23FB181B78022B30D1BD
:102390008223FC187B681800244B98470300238095
:1023A0008223FB181B88002B04D08223FB181B8878
:1023B000402B11D9284A1749174B1800174B98473B
:1023C000264B1800174B98470D20174B984797231B
:1023D000FB18F4221A706BE08C23FB181868822318
:1023E000FB181B8801331A007B681900164B9847AD
:1023F0004DE00A23FB181B78042B31D18C23FB18EA
:102400001B6879683E2218000F4B98473FE0C04692
:102410001B02000008EC000064E8000025CF00006B
:1024200098EA000041D0000059CF00001B0D0000C9
:1024300027020000ACEA000031020000B8EA000008
:102440003A020000CCEA0000A10C0000510200009A
:10245000D8EA0000F4EA00006702000010EB000078
:102460000A23FB181B78012B11D0154A1549164B6E
:102470001800164B9847164B1800164B98470D201E
:10248000154B98479723FB18F4221A7010E09723F6
:10249000FC181423FA18002302930023019300234D
:1024A00000936C23282101200C4DA84703002370C2
:1024B0009723FB181B785BB21800BD4626B0B0BD51
:1024C0007702000008EC000064E8000025CF00005F
:1024D0002CEB000041D0000059CF00003D0F000060
:1024E00080B500AF00231800BD4680BD90B587B011
:1024F00000AF78601723FB1800221A707B683B61DD
:102500003B698022520013433B613A69A5235B017A
:1025100011001800124B98473B69002B18D000237C
:10252000FB601723FC180C23FA18A5235B0111008C
:1025300018000C4B9847030023701723FB181B78D7
:102540005BB2002BE1D1FA683B699A4202D0DCE72A
:10255000C04600E0C04600231800BD4607B090BD4D
:102560003D2D0000192D000090B583B000AF002371
:102570003B60FB1D00221A70FC1D3B00244A190021
:102580001000244B984703002370FB1D1B785BB29F
:10259000002B31D13B688022520013433B603B68E3
:1025A000FC1D1B4A190010001B4B984703002370A9
:1025B000FB1D1B785BB2002B20D1FC1D3A00D02301
:1025C0005B0111001800134B984703002370FB1D9B
:1025D0001B785BB2002B13D13B688022520213435D
:1025E0003B603A68FC1DD0235B01110018000A4BC8
:1025F00098470300237004E0C04602E0C04600E0B4
:10260000C046FB1D1B785BB21800BD4603B090BDF1
:1026100008140000192D00003D2D000080B582B087
:1026200000AF324B1B68002B59D1304A80235B012D
:10263000110018002E4B9847031E04D02B4B00228C
:102640001A6000234DE03B1D2A4A19001000284B58
:102650009847031E04D0254B00221A60002340E057
:10266000224B1B68244A934206D17B68012B29D058
:102670001E4B224A1A6025E01C4B1B68204A9342DD
:102680000DD17B68032B1DD07B68042B03D1174B26
:102690001C4A1A6016E0154B1B4A1A6012E0134BD5
:1026A0001B681A4A93420DD1104AEC239B03110078
:1026B00018000F4B9847031E04D00C4B00221A60E1
:1026C00000230EE0094B1B68114A1A40074B1A60A1
:1026D000064B1B68A022D2021A43044B1A60034B1C
:1026E0001B681800BD4602B080BDC0460C02002029
:1026F000192D0000F4130000A0021000A102100028
:10270000B0021000B1021000B2021000F000100080
:10271000FFFFF0FF90B583B000AFFB1D00221A70E1
:10272000FC1D3B00190010202E4B9847030023701E
:10273000FB1D1B785BB2002B45D13B680122134087
:1027400000D0EDE7C046FC1D3B0019000120254BE1
:10275000984703002370FB1D1B785BB2002B34D11C
:102760003B680222134010D03B68022293433B6037
:102770003B68FC1D190001201B4B98470300237088
:10278000FB1D1B785BB2002B21D1FC1D3B00190007
:102790000B20144B984703002370FB1D1B785BB282
:1027A000002B16D13B680122134013D03B68012255
:1027B00093433B603B68FC1D19000B200A4B984774
:1027C0000300237006E0C04604E0C04602E0C046B5
:1027D00000E0C046FB1D1B785BB21800BD4603B08D
:1027E00090BDC046192D00003D2D000090B585B06C
:1027F00000AF0F23FB1800221A7000237B60002318
:102800003B600023BB600F23FC183B1D19000B200D
:102810004C4B9847030023700F23FB181B785BB2C7
:10282000002B00D07FE07B680122134010D17B6831
:10283000012213430F22BC1819000B20424B98476A
:10284000030023700F23FB181B785BB2002B6CD1A5
:102850000F23FC183B1D190001203A4B9847030039
:1028600023700F23FB181B785BB2002B5FD17B68B2
:102870000222134010D17B68022213430F22BC189E
:1028800019000120304B9847030023700F23FB18D9
:102890001B785BB2002B4CD10F23FC183B001900B6
:1028A0000F20284B9847030023700F23FB181B7839
:1028B0005BB2002B13D0AA235A002449244B1800E2
:1028C000244B98470F23FB18002159563A68224B96
:1028D0001800204B98470D20204B98472AE03B6872
:1028E000042213401BD102201D4B9847BB680133C3
:1028F000BB60BB68042BCFD9AF235A001349144BDC
:102900001800144B9847174B1800174B98470D2089
:10291000124B98470F23FB18FC221A700AE0C0469E
:10292000124B984706E0C04604E0C04602E0C046AD
:1029300000E0C0460F23FB181B785BB21800BD46B1
:1029400005B090BD192D00003D2D0000A0EC000049
:102950001CEC000025CF000030EC000059CF000037
:10296000ED03000048EC000041D00000D92C00002D
:1029700080B588B000AF0200FB1D1A701323FB184E
:1029800000221A700023FB610023BB6100237B61DE
:102990004A4BFB600023FB61494B1800494B9847A9
:1029A0000300FB61FB69002B03DB0120464B9847CA
:1029B000F2E7C046454B1800424B98470300FB61C5
:1029C000FB6901221340FB61FB69002B12D100233C
:1029D000FB610BE001203C4B98473D4B1800394B05
:1029E00098470300FB61BB690133BB61FB69394A4E
:1029F0009342EFD1FB1D1B78022B0DD1364A374B8A
:102A000011001800364B984780235B03354A1900A4
:102A10001000334B984722E0FB1D1B78032B0BD192
:102A20002D4A2E4B110018002D4B98472D4B00219D
:102A300018002B4B984712E0FB1D1B78042B08D184
:102A400080237B61FB68274A19001000244B9847BC
:102A500005E0FB68234A19001000214B9847224BE0
:102A6000984703001B051B0D204A934206D97B693A
:102A70000222134318001E4B984703E07B6918009D
:102A80001B4B98471B4B18001B4B9847FA681B4B76
:102A900011001800184B98470D20194B9847194AF8
:102AA0000B4B110018000E4B98471323FB181B7893
:102AB0005BB21800BD4608B080BDC0465213521329
:102AC00014100000F92C0000ED030000BC07020008
:102AD0000C000C009ED0AD107DD51C3CAC07020054
:102AE0003D2D00008C1000001D2600009F030000FB
:102AF000ED24000064EC000025CF000070EC000025
:102B000059CF0000612F52EF80B588B000AF0200AE
:102B1000FB1D1A701F23FB1800221A700023BB61D3
:102B200000237B6101235B423B611D4BFB601D4B1E
:102B3000BB60FB1D1B78022B03D0FB1D1B78032BF6
:102B400019D1194BFB60194BBB6014E00220184BE4
:102B50009847FB681800174B98470300BB617B69D7
:102B600001337B617A693B699A4204D31F23FB18C6
:102B7000FB221A700CE0BA68BB699A42E6D1BB68C6
:102B8000084A934204D1064B002118000A4B98478B
:102B90001F23FB181B785BB21800BD4608B080BD30
:102BA0008C10000036265302AC070200C3C15DD76B
:102BB000ED030000F92C00003D2D000090B583B01E
:102BC00000AF00233B60FC1D3A00A0235B01110015
:102BD00018001F4B984703002370FB1D1B785BB246
:102BE000002B0DD01B4A1C491C4B18001C4B98474E
:102BF0001C4B18001C4B98470D201C4B984720E09D
:102C00003B681B4A13403B603A68FC1DA0235B01F4
:102C100011001800174B984703002370FB1D1B7809
:102C20005BB2002B0DD0144A0B490C4B18000C4B17
:102C300098470C4B18000C4B98470D200B4B9847AE
:102C4000C046FB1D1B785BB21800BD4603B090BDAB
:102C5000192D000005020000ACEC00001CEC000087
:102C600025CF000088EC000041D0000059CF0000C3
:102C7000FFFBFFFF3D2D00000B02000090B585B06B
:102C800000AF78600F23FB1800221A700F23FC1886
:102C90007B681800054B9847030023700F23FB182F
:102CA0001B785BB21800BD4605B090BDB50A0000A8
:102CB00090B583B000AFFB1D00221A70FC1D054BC0
:102CC000984703002370FB1D1B785BB21800BD46BC
:102CD00003B090BD310C000080B582B000AFFB1D89
:102CE00000221A70034B984703001800BD4602B03B
:102CF00080BDC046C145000080B582B000AF78609D
:102D00007B681800034B984703001800BD4602B0CB
:102D100080BDC0465547000080B582B000AF7860E6
:102D200039603A687B6811001800034B984703002C
:102D30001800BD4602B080BD7947000080B582B062
:102D400000AF786039603A687B6811001800034B67
:102D5000984703001800BD4602B080BDC947000077
:102D600080B584B000AFF860B960BB1D1A80BB1D90
:102D70001A88B968FB681800034B984703001800CD
:102D8000BD4604B080BDC0461948000080B586B07D
:102D900000AFF860B9607A602D4B1A881023FB18D9
:102DA000083A1A8000237B611323FB1800221A7053
:102DB0001023FB181A887B689A4213D3BA687B6980
:102DC000D1187B689AB2FB681800224B9847030021
:102DD000DAB21323FB181B78D318DAB21323FB18CB
:102DE0001A702DE0BA687B69D1181023FB181A8875
:102DF000FB681800174B98470300DAB21323FB183F
:102E00001B78D318DAB21323FB181A701323FB189C
:102E10001B785BB2002B12D11023FB181B887A6839
:102E2000D31A7B601023FB181B887A69D3187B6147
:102E30001023FB181B88FA68D318FB60B8E7C0465C
:102E40001323FB181B785BB21800BD4606B080BD8B
:102E500008000020612D000080B584B000AFF8604C
:102E6000B960BB1D1A80BB1D1A88B968FB681800C1
:102E7000034B984703001800BD4604B080BDC04610
:102E80007148000080B586B000AFF860B9607A6024
:102E90002D4B1A881023FB18083A1A8000237B61F7
:102EA0001323FB1800221A701023FB181A887B6862
:102EB0009A4213D3BA687B69D1187B689AB2FB68CF
:102EC0001800224B98470300DAB21323FB181B7833
:102ED000D318DAB21323FB181A702DE0BA687B6995
:102EE000D1181023FB181A88FB681800174B984755
:102EF0000300DAB21323FB181B78D318DAB21323BA
:102F0000FB181A701323FB181B785BB2002B12D12D
:102F10001023FB181B887A68D31A7B601023FB18D8
:102F20001B887A69D3187B611023FB181B88FA6809
:102F3000D318FB60B8E7C0461323FB181B785BB2BD
:102F40001800BD4606B080BD08000020592E0000C4
:102F500090B589B000AF786000237B611F23FB1818
:102F600000221A700C23FB18180008231A000021F5
:102F7000644B98477B68002B00D1BAE07B6828221D
:102F800000211800604B98471F23FC181423FB18DE
:102F90005E4A190010005E4B9847030023701F2300
:102FA000FB181B785BB2002B00D0A2E07B69002BE2
:102FB00000D19AE07B69C022920213431F22BC1801
:102FC0000C22B91808221800524B984703002370AE
:102FD0001F23FB181B785BB2002B00D089E00C2369
:102FE000FB185B687B617B691B041B0C7B617B6945
:102FF000002B00D174E07B69C022920213431F2290
:10300000BC18796828221800424B984703002370A7
:103010001F23FB181B785BB2002B6AD17B681B79DE
:103020001B021AB27B685B791B011BB2FF210B40AC
:103030001BB213431AB27B689B791BB20F210B4062
:103040001BB213431AB21C23FB181A801A23FB1855
:10305000314A1A807B68DB791B021AB27B681B7AC3
:103060001B011BB2FF210B401BB213431AB27B683A
:103070005B7A1BB20F210B401BB213431AB2182309
:10308000FB181A801C23FB181B88002B09D018235F
:10309000FB181B88002B04D01823FB181B88002B5F
:1030A00004D11F23FB18F4221A7022E01A23FA1805
:1030B0001823FB1812881B889A4204D21F23FB187E
:1030C000F3221A7015E01A23FA181C23FB18128831
:1030D0001B889A420DD91F23FB18F3221A7008E0AF
:1030E0001F23FB18F4221A7003E01F23FB18F4229D
:1030F0001A701F23FB181B785BB21800BD4609B07D
:1031000090BDC046C3CD0000DD0C000008000C00DF
:10311000192D00008D2D00005213000090B585B0D0
:1031200000AF78600F23FB1800221A707B68002B19
:1031300013D00E23FB187A6812781A700E23FB182E
:103140001B78002B04D00E23FB181B78042B08D906
:103150000E23FB1801221A7003E00E23FB18012234
:103160001A700F23FC180020414B9847030023706E
:103170000F23FB181B785BB2002B0FD02823FF33E3
:103180001A003C493C4B18003C4B98473C4B1800FC
:103190003C4B98470D203C4B984760E03B4B180058
:1031A000364B98473A4B984702003A4B11001800AB
:1031B000324B98470D20344B9847374B98470F2395
:1031C000FC180E23FB181B781800344B984703009B
:1031D00023700F23FB181B785BB2002B3AD10F230F
:1031E000FC180E23FB181B7818002D4B9847030082
:1031F00023700F23FB181B785BB2002B2CD10E23FE
:10320000FB181B78022B2AD00E23FB181B78032BEC
:1032100025D00F23FC18234B9847030023700F235E
:10322000FB181B785BB2002B0FD05623FF331A001C
:103230001049114B1800114B98471B4B1800114BAC
:1032400098470D20104B984707E00F23FB181B7879
:103250005BB208E0C04600E0C046144B98470F231D
:10326000FB181B785BB21800BD4605B090BDC04688
:103270007D2C000084ED0000B8EC000025CF00009C
:10328000CCEC000041D0000059CF0000E8EC000079
:103290001D260000F4EC0000F1450000712900003B
:1032A000092B00006925000004ED0000B12C00008E
:1032B00090B585B000AF78600F23FC182D4B984770
:1032C000030023700F23FB181B785BB2002B0ED07A
:1032D000B6235A002849294B1800294B9847294BF7
:1032E0001800294B98470D20284B98473AE00F23A8
:1032F000FC180020264B9847030023700F23FB186F
:103300001B785BB2002B0FD07423FF331A001A49CD
:103310001A4B18001A4B98471E4B18001A4B984727
:103320000D201A4B98471DE00F23FC181A4B9847A5
:10333000030023700F23FB181B785BB2002B0FD008
:103340007A23FF331A000C490C4B18000C4B98479A
:10335000124B18000C4B98470D200C4B984701E07E
:103360000F4B98470F23FB181B785BB21800BD4624
:1033700005B090BDBD2B000090ED0000B8EC000042
:1033800025CF000024ED000041D0000059CF0000FF
:10339000495A000044ED0000B12C000068ED000027
:1033A0003D47000080B586B000AF78600A00BB1CC6
:1033B0001A800C23FB1800221A600C23FB187A6871
:1033C0005A600C23FB18BA1C12881A810C23FB18B4
:1033D00019000320034B984703001800BD4606B0B0
:1033E00080BDC0469D0B000080B586B000AF786000
:1033F0000A00BB1C1A800C23FB187A681A600C2385
:10340000FB1800225A600C23FB18BA1C12881A8180
:103410000C23FB1819000320034B984703001800E6
:10342000BD4606B080BDC0469D0B000080B582B091
:1034300000AF0200FB1D1A70BB1D0A1C1A70FB1D99
:103440001B785A00BB1D1B785340034AD35C1800FD
:10345000BD4602B080BDC046A0ED000090B585B06D
:1034600000AFB9607A600F23FB18021C1A700EE0DF
:10347000BB685A1CBA601A780F23FC180F23FB187C
:103480001B7811001800084B9847030023707B68D5
:103490005A1E7A60002BEBD10F23FB181B78180003
:1034A000BD4605B090BDC0462D34000090B589B032
:1034B00000AFB9607A603B600F23FB18021C1A70E2
:1034C0001F23FB1805221A701E23FB1801221A70F5
:1034D0001423FB180F22BA1812781A700F23FB1846
:1034E0001B78C13B0E2B00D91BE19A00B64BD318B9
:1034F0001B689F46BB681B0CDAB21423FB185A707A
:10350000BB681B0ADAB21423FB189A70BB68DAB2E4
:103510001423FB18DA701F23FB1805221A7005E12B
:10352000BB681B0ADAB21423FB185A703023FB184D
:103530001B78002B09D01423FB185B7880225242A1
:103540001343DAB21423FB185A70BB68DAB214239F
:10355000FB189A701423FB180022DA701F23FB1843
:1035600005221A70E2E01423FB1800225A7014237B
:10357000FB1800229A701423FB180022DA701F2314
:10358000FB1805221A70D1E01423FB1800225A7090
:103590001423FB1800229A701423FB180022DA70FF
:1035A0001F23FB1805221A70C0E01423FB18FF220A
:1035B0005A701423FB18FF229A701423FB18FF2261
:1035C000DA701F23FB1805221A70AFE0BB681B0CD2
:1035D000DAB21423FB185A70BB681B0ADAB2142340
:1035E000FB189A70BB68DAB21423FB18DA703B68D8
:1035F0001B0ADAB21423FB181A713B68DAB21423DF
:10360000FB185A711F23FB1807221A708EE0BB6843
:103610001B0CDAB21423FB185A70BB681B0ADAB20F
:103620001423FB189A70BB68DAB21423FB18DA7003
:103630003B681B0CDAB21423FB181A713B681B0A97
:10364000DAB21423FB185A713B68DAB21423FB1860
:103650009A711F23FB1808221A7067E0BB681B0AC7
:10366000DAB21423FB185A703023FB181B78002B96
:1036700009D01423FB185B78802252421343DAB23C
:103680001423FB185A70BB68DAB21423FB189A7023
:103690007B681B0EDAB21423FB18DA707B681B0CF4
:1036A000DAB21423FB181A717B681B0ADAB21423EE
:1036B000FB185A717B68DAB21423FB189A711F2326
:1036C000FB1808221A7031E0BB681B0CDAB2142315
:1036D000FB185A70BB681B0ADAB21423FB189A70E5
:1036E000BB68DAB21423FB18DA707B681B0EDAB2FF
:1036F0001423FB181A717B681B0CDAB21423FB1815
:103700005A717B681B0ADAB21423FB189A717B6822
:10371000DAB21423FB18DA711F23FB1809221A707E
:1037200004E01E23FB1800221A70C0461E23FB185B
:103730001B785BB2002B3FD0244B1B78002B15D19C
:103740001F23FB181B785C1E1F23FB181B78013BF3
:103750001A001423FB1819007F201D4B9847030003
:10376000DB18DAB21423FB181A5506E01F23FB18E6
:103770001F22BA181278013A1A701F23FB181B78FF
:103780009AB21423FB1811001800124B9847031E1D
:1037900012D02823FF331A000F49104B1800104B8A
:1037A0009847104B1800104B98470D200F4B984727
:1037B0001E23FB1800221A701E23FB181B785BB215
:1037C0001800BD4609B090BDF8F3000010020020BB
:1037D0005D340000E933000034F40000A0EE000086
:1037E00025CF0000B4EE000041D0000059CF00000A
:1037F00090B585B000AF0200FB1D1A700E23FB18B8
:1038000001221A70314B1B78002B04D10F23FB18B7
:1038100002221A7003E00F23FB1803221A700F23F1
:10382000FB181B789AB20823FB1811001800284BCC
:103830009847031E13D03C23FF331A002549264B1B
:103840001800264B9847264B1800264B98470D200A
:10385000254B98470E23FB1800221A702EE00F23E9
:10386000FB181B78013B0822BA18D35C002B08D147
:103870000F23FB181B78023B0822BA18D35CC32B1A
:103880001CD0A1235A001349134B1800134B98471F
:103890000823FB181B7819000823FB185B781A0013
:1038A0000823FB189B7811480C4CA0470D200E4BA9
:1038B00098470E23FB1800221A70C0460E23FB18EF
:1038C0001B785BB21800BD4605B090BD1002002009
:1038D000A53300003CF40000A0EE000025CF00005E
:1038E000E0EE000041D0000059CF000000EF0000E2
:1038F00080B584B000AF0200FB1D1A700F23FB18C7
:1039000001221A70FB1D1B78CF2B07D0FB1D1B78E3
:10391000C52B03D0FB1D1B78C62B0CD10D23FB1828
:1039200001211800394B9847031E04D00F23FB18C0
:1039300000221A7061E00E23FB180A221A700D2370
:10394000FB1801211800314B9847031E12D0B123F8
:103950005A002F492F4B18002F4B98472F4B180018
:103960002F4B98470D202F4B98470F23FB18002211
:103970001A7042E00D23FB181B78FA1D12789A4248
:103980000BD00E23FB181B785BB2DAB2013AD1B22E
:103990000E22BA181170002BD1DC0E23FB180A225C
:1039A0001A700D23FB1801211800184B9847031EAD
:1039B00012D0B8235A001649164B1800164B9847D8
:1039C000164B1800164B98470D20164B98470F239F
:1039D000FB1800221A7010E00D23FB181B78002B37
:1039E0000BD00E23FB181B785BB2DAB2013AD1B2CE
:1039F0000E22BA181170002BD3DC0F23FB181B7892
:103A00005BB21800BD4604B080BDC046A5330000BF
:103A10004CF40000A0EE000025CF000030EF0000C5
:103A200041D0000059CF000080B586B000AF78606B
:103A300008001100BB1C021C1A807B1C0A1C1A7097
:103A40001123FB1801221A701423FB1800221A807C
:103A5000BB1C1A8880239B019A4205D81223FB18AD
:103A6000BA1C12881A8004E01223FB1880229201EB
:103A70001A801623FB180A221A800B23FB18012137
:103A800018005C4B9847031E11D05B4A5B495C4BA6
:103A900018005C4B98475C4B18005C4B98470D2016
:103AA0005B4B98471123FB1800221A7017E00B2379
:103AB000FB181B781B09DBB21A000F2313400F2BD6
:103AC0000CD01623FB1800229B5E9AB2013A91B2E9
:103AD0001622BA181180002BCFD100E0C046112366
:103AE000FB181B785BB2002B00D179E01623FB1882
:103AF00000229B5E002B16DC464A4049404B1800D2
:103B0000404B98470B23FB181B781A00424B1100BF
:103B100018003C4B98470D203D4B98471123FB184C
:103B200000221A705DE01423FB1800229B5E7A6865
:103B3000D2181223FB181B88190010002D4B984730
:103B4000031E12D0C5239A002C492D4B18002D4B73
:103B50009847324B18002D4B98470D202C4B984717
:103B60001123FB1800221A703BE07B1C1B78002BF2
:103B70001DD12B4B1B78002B19D10C23FB180221D4
:103B800018001C4B9847031E11D0264A1B491C4B9A
:103B900018001C4B9847244B18001C4B98470D20CD
:103BA0001B4B98471123FB1800221A7019E01423AD
:103BB000FB181A881223FB181B88D3189AB21423F7
:103BC000FB181A801223FB181A88BB1CB91C098821
:103BD0008A1A1A80BB1C1B88002B00D038E700E033
:103BE000C0461123FB181B785BB21800BD4606B017
:103BF00080BDC046A5330000FF02000058F400005D
:103C0000A0EE000025CF000064EF000041D00000CE
:103C100059CF00000B03000098EF0000C8EF000030
:103C2000100200201F030000F8EF000080B586B0EE
:103C300000AF78600A00BB1C1A801323FB18012216
:103C40001A700C23FB1800221A801623FB1800227E
:103C50001A80BB1C1A8880239B019A4205D8142322
:103C6000FB18BA1C12881A8004E01423FB18802267
:103C700092011A801123FB18F0221A701623FB18E8
:103C800000229B5E002B0FD1BB1C1A8880239B0156
:103C90009A4204D81223FB1803221A7013E012234D
:103CA000FB1801221A700EE0BB1C1A8880239B01AE
:103CB0009A4204D81223FB1803221A7003E012233D
:103CC000FB1802221A701123FB181A781223FB1812
:103CD0001B781343DAB21123FB181A701123FB1857
:103CE000012118003A4B9847031E12D0D4239A00A2
:103CF0003849394B1800394B9847394B1800394B24
:103D000098470D20384B98471323FB1800221A7050
:103D100056E01623FB1800229B5E7A68D218142303
:103D2000FB181B8819001000294B9847031E11D05F
:103D30002E4A2849284B1800284B98472C4B18002E
:103D4000284B98470D20284B98471323FB18002237
:103D50001A7035E0274B1B78002B19D10C23FB1868
:103D6000022118001A4B9847031E11D0224A194904
:103D7000194B1800194B9847204B1800194B9847BE
:103D80000D20194B98471323FB1800221A7017E0D7
:103D90001623FB181A881423FB181B88D3189AB211
:103DA0001623FB181A80BB1CB91C1422BA180988E8
:103DB00012888A1A1A80BB1C1B88002B00D048E787
:103DC0001323FB181B785BB21800BD4606B080BDFC
:103DD000E933000068F40000A0EE000025CF0000E9
:103DE0002CF0000041D0000059CF00005903000022
:103DF00064F00000100200206303000098F000004F
:103E0000B0B586B002AF786039600F23FB180A2284
:103E10001A700E23FB1801221A700D23FB18C922F9
:103E20001A700C23FB1800221A707B68302B08D8FC
:103E30000D23FB18C3221A700C23FB1801221A70E1
:103E400007E00D23FB18C9221A700C23FB1800226F
:103E50001A700E23FC183A6879680D23FB1818783D
:103E60000C23FB181B78009304233C4DA847030048
:103E700023700E23FB181B785BB2012B0FD0384A3E
:103E80003849394B1800394B98477A68384B11003C
:103E90001800364B98470D20364B984720E00E23EC
:103EA000FC180D23FB181B781800334B98470300B0
:103EB00023700E23FB181B785BB2012B10D0E72375
:103EC0009A002849284B1800284B98477A682B4BB2
:103ED00011001800254B98470D20264B9847C046E7
:103EE0000E23FB181B785BB2012B2ED00120244B34
:103EF000984700230093002300220021CF20174C75
:103F0000A047CF201C4B98471E4A1649164B180055
:103F1000164B98470F23FB1819783B687A681A48A4
:103F2000124CA0470D20134B98470120144B984783
:103F30000F23FB181A780F23FB18013A1A700F236E
:103F4000FB181B78002B00D06FE70E23FB181B78A3
:103F50005BB21800BD4604B0B0BDC046AD34000031
:103F60009603000078F40000A0EE000025CF0000CA
:103F7000D0F0000059CF0000F1380000FCF0000044
:103F8000ED030000AF03000034F10000B0B588B0CD
:103F900002AFF860B960BB1D1A801623FB180A2215
:103FA0001A701523FB18C7221A70BB1D1B88012B22
:103FB00002D1BB1D02221A80BB1D1A881723FC18D0
:103FC000F9681523FB1818780023009313000022CA
:103FD0005B4DA847030023701723FB181B785BB2C7
:103FE000012B0FD0574A5849584B1800584B984747
:103FF000FA68584B11001800554B98470D20564B46
:1040000098475FE01723FC181523FB181B7818004E
:10401000524B9847030023701723FB181B785BB2A1
:10402000012B10D0F4239A004749484B1800484B05
:104030009847FA684A4B11001800454B98470D20E5
:10404000454B98473EE01723FC18BB1D1A88BB68F8
:1040500011001800434B9847030023701723FB18E7
:104060001B785BB2012B0ED0F8239A003649374BF0
:104070001800374B98473C4B18003C4B98470D2095
:10408000354B98471EE01723FC181523FB181B78A7
:104090001800374B9847030023701723FB181B7831
:1040A0005BB2012B0ED0FA239A002749274B180048
:1040B000274B98472C4B18002C4B98470D20264B2C
:1040C0009847C0461723FB181B785BB2012B2FD0F3
:1040D0000120284B98470023009300230022002151
:1040E000CF20174CA047CF201C4B9847224A164997
:1040F000164B1800164B98471623FB181978BB1D52
:104100001B88FA681D48124CA0470D20124B984797
:104110000120184B98471623FB181A781623FB1812
:10412000013A1A701623FB181B78002B00D03CE7CD
:104130001723FB181B785BB21800BD4606B0B0BD54
:10414000AD340000CA03000088F40000A0EE0000B7
:1041500025CF000050F1000059CF0000F1380000D9
:1041600080F100002D3C0000B8F1000041D00000BB
:10417000F1370000ED030000F2030000E0F1000061
:10418000B0B586B002AF786039600F23FB180A2201
:104190001A700E23FB1801221A700D23FB18CA2275
:1041A0001A700C23FB1800221A707B68FF2B08D8AA
:1041B0000D23FB18C4221A700C23FB1801221A705D
:1041C00007E00D23FB18CA221A700C23FB180022EB
:1041D0001A700E23FC1879680D23FB1818780C232D
:1041E000FB181B78009304230022564DA8470300B8
:1041F00023700E23FB181B785BB2012B0FD0524AA1
:104200005249534B1800534B98477A68524B110050
:104210001800504B98470D20504B984755E00E23FF
:10422000FC180D23FB181B7818004D4B9847030012
:1042300023700E23FB181B785BB2012B0FD0494A69
:104240004249434B1800434B98477A68464B11004C
:104250001800404B98470D20404B984735E00E23FF
:10426000FC180C23FB181A780823FB1804211800EB
:104270003E4B9847030023700E23FB181B785BB25C
:10428000012B0DD03A4A3149314B1800314B984738
:10429000384B1800384B98470D20304B984714E0A6
:1042A0000823FB181B781A000823FB185B781B02F5
:1042B0001A430823FB189B781B041A430823FB1896
:1042C000DB781B061A433B681A600E23FB181B7829
:1042D0005BB2012B2ED00120284B9847002300937E
:1042E000002300220021CF20164CA047CF201C4BDA
:1042F0009847234A1549164B1800164B98470F2329
:10430000FB1819787A681F4B1800124B98470D203C
:10431000124B98470120194B98470F23FB181A7826
:104320000F23FB18013A1A700F23FB181B78002B80
:1043300000D03AE70E23FB181B785BB21800BD468D
:1043400004B0B0BDAD3400001704000098F40000C4
:10435000A0EE000025CF0000FCF1000059CF0000C6
:10436000F13800001D04000028F20000293A000086
:10437000240400005CF2000041D00000ED030000C6
:104380003C0400007CF20000B0B588B002AFF860D9
:10439000B960BB1D1A801423FB18C8221A7016239B
:1043A000FB180A221A701523FB1800221A70BB1D75
:1043B0001B88012B06D1BB1D02221A801523FB1876
:1043C00001221A70BB1D1A881723FC18F9681423E0
:1043D000FB1818780023009313000022564DA847BD
:1043E000030023701723FB181B785BB2012B0FD03F
:1043F000524A5349534B1800534B9847FA68534B52
:1044000011001800504B98470D20514B984755E02C
:104410001723FC181423FB181B7818004D4B9847E2
:10442000030023701723FB181B785BB2012B0FD0FE
:10443000494A4349434B1800434B9847FA68474B56
:1044400011001800404B98470D20414B984735E02C
:104450001523FB181B78002B11D01723FC18BB1D4C
:1044600019881023FB18002218003D4B98470300C1
:1044700023701023FB181A78BB681A700AE0172300
:10448000FC18BB1D1988BB6800221800344B9847E4
:10449000030023701723FB181B785BB2012B0DD090
:1044A000304A2749274B1800274B98472E4B1800B6
:1044B0002E4B98470D20264B9847C0461723FB18D4
:1044C0001B785BB2012B2FD00120294B984700238A
:1044D0000093002300220021CF20174CA047CF20BB
:1044E0001C4B9847234A1649164B1800164B984701
:1044F0001623FB181978BB1D1B88FA681E48124C3E
:10450000A0470D20124B98470120194B98471623BE
:10451000FB181A781623FB18013A1A701623FB1899
:104520001B78002B00D042E71723FB181B785BB2E7
:104530001800BD4606B0B0BDAD3400005D040000FB
:10454000A8F40000A0EE000025CF000094F20000C7
:1045500059CF0000F138000063040000C4F20000ED
:10456000293A000073040000FCF2000041D0000072
:10457000ED03000084040000E0F1000080B582B08B
:1045800000AF0C4B18000C4B984703007B607B6816
:10459000702293437B607B68502213437B60C0464C
:1045A0007B68044A19001000044B9847C046BD467A
:1045B00002B080BD24E8000055470000C947000054
:1045C00090B583B002AF00230093002300220021A6
:1045D000CF20054CA047CF20044B9847002318005C
:1045E000BD4601B090BDC046AD340000F1380000BA
:1045F00080B582B000AF00233B603E4B00221A70B2
:104600003B003D4A190010003C4B9847031E26D141
:10461000384B01221A703A4A3A493B4B18003B4B3F
:1046200098473B4B18003B4B98470D203A4B984717
:104630003B00314A19001000304B9847031E0ED141
:10464000364A3049304B1800304B9847344B1800ED
:10465000304B98470D20304B9847002345E0254BC1
:104660001B78002B25D13B680C2293433B603B68B1
:10467000702293433B603B68502213433B603B688E
:104680001D4A19001000274B9847031E0ED1264AD9
:104690001C491D4B18001D4B9847244B18001D4BFF
:1046A00098470D201C4B984700231EE0114B012218
:1046B0001A703A1D80235B01110018000F4B9847B8
:1046C000031E0FD11A4A0F490F4B18000F4B984782
:1046D000184B18000F4B98470D200F4B9847062397
:1046E0005B4202E0144B984700231800BD4602B01D
:1046F00080BDC0461002002024E800008141000077
:10470000C7040000B4F40000A0EE000025CF0000B4
:1047100024F3000041D0000059CF0000CA0400007B
:1047200074F30000013E0000D4040000A0F3000078
:10473000DE040000D4F300007D45000080B500AF2A
:10474000034B00221A7000231800BD4680BDC046EE
:104750001002002080B584B000AF78600C23FA18F6
:104760007B6811001800034B9847FB681800BD4692
:1047700004B080BD8141000090B585B000AF786085
:1047800039600F23FC183A687B68110018000D4B44
:104790009847030023700F23FB181B785BB2012B93
:1047A00004D10F23FB1800221A7003E00F23FB181B
:1047B000FA221A700F23FB181B785BB21800BD4653
:1047C00005B090BD8141000090B585B000AF786024
:1047D00039600F23FC183A687B68110018000D4BF4
:1047E0009847030023700F23FB181B785BB2012B43
:1047F00004D10F23FB1800221A7003E00F23FB18CB
:10480000FA221A700F23FB181B785BB21800BD4602
:1048100005B090BD013E000090B587B000AFF860D4
:10482000B960BB1D1A801723FC18BB1D1A88B96814
:10483000FB6818000D4B9847030023701723FB18E3
:104840001B785BB2012B04D11723FB1800221A70CE
:1048500003E01723FB18FA221A701723FB181B78A2
:104860005BB21800BD4607B090BDC046894300004A
:1048700090B587B000AFF860B960BB1D1A801723F0
:10488000FC18BB1D1A88B968FB6818000D4B9847C7
:10489000030023701723FB181B785BB2012B04D194
:1048A0001723FB1800221A7003E01723FB18FA22C3
:1048B0001A701723FB181B785BB21800BD4607B0AF
:1048C00090BDC0468D3F000090B589B000AFB96083
:1048D00011007B600F23FB18021C1A700E23FB18BB
:1048E0000A1C1A703023FB181B88002B00D1D6E05D
:1048F0000F23FB1800229A566B4B1201D358002B42
:1049000000D1CCE00F23FB181B785BB2664A1B0179
:10491000D31804331B889BB2002B00D1BFE00F23B8
:10492000FB181B785BB2604A1B01D3180A331B7853
:10493000DBB2012B00D0B2E07B68FB61BB683022A8
:10494000BA181288DA801923FB1801221A701A2368
:10495000FB183022BA1812881A800F23FB181B7814
:104960005BB2514A1B01D31804331B889BB21A2235
:10497000BA181288D31A9AB21623FB181A80162373
:10498000FB1800229B5E002B0FDD1923FB18002271
:104990001A700F23FB1800229A561A23FB1842495B
:1049A00012018A18043212881A800F23FB18002281
:1049B0009A563D4B1201D1581923FB181C781A2323
:1049C000FB181A88F8692300384CA047031E4FD102
:1049D0000F23FB1800229A56334B1201D258BB68A2
:1049E0001A601A23FB1800229A5EBB689A80BB6883
:1049F000DA881A23FB181B88D31A9AB2BB68DA80AC
:104A00002B4B1B68002B0BD0294B1B68BC680E225C
:104A1000BA1811780F22BA180020105622009847B1
:104A20003023F9183023FA181A23FB1812881B8830
:104A3000D31A0B801A23FB181B88FA69D318FB6161
:104A40000F23FB181B785BB2174A1B01D3180A33DC
:104A50001B78DBB2002B1BD13023FB181B88002BEB
:104A600016D00123002200210020104CA04716E0A0
:104A7000104B1800104B98473023FB181A880F4B27
:104A8000110018000C4B98470D200D4B984706E07D
:104A90003023FB181B88002B00D054E7FFE7C046EB
:104AA000BD4609B090BDC0462C030020311800005F
:104AB000DC030020C0F4000025CF0000CCF400008F
:104AC00059CF000090B5BBB002AF3A60FB1D021C8D
:104AD0001A703B1D0A1C1A80FB1D1B78412B03D04A
:104AE000FB1D1B78542B20D1CC23F91838680023E8
:104AF0000422984CA047031E00D075E2CC23FB187B
:104B000001229A56C823FB181A70934B1B68002B7E
:104B100000D169E2904B1B68CC22BA1800201056D5
:104B2000C822BA18012198475EE2FB1D1B78422B70
:104B300020D1C423F918386800230422854CA047EB
:104B4000031E00D057E2C423FB1801229A56C0234B
:104B5000FB181A70804B1B68002B00D14BE27E4B78
:104B60001B68C422BA1800201056C022BA180221AD
:104B7000984740E2FB1D1B78432B00D086E0B4230E
:104B8000F918386800230C22724CA047031E00D08D
:104B900031E2B423FB185B7A5BB2002B4FDBB4230A
:104BA000FB185B7A5BB21800B423FB181B7A5BB26C
:104BB0006A4A1B01D3180B331B78D9B2674A030129
:104BC000D3180B330A1C1A70B423FB185B7A5BB240
:104BD000624A1B01D3180A3301221A70B423FB184E
:104BE0005B7A5BB21800B423FB185B89083B99B26F
:104BF0005A4A0301D31808330A1C1A80584B1B88E1
:104C00009BB201339AB2564B1A80554B1B889BB20C
:104C1000002B06D1524B1B889BB201339AB2504BEA
:104C20001A80B423FB185B7A5BB218004C4B1B88CC
:104C300099B24A4A0301D31806330A1C1A80B423D6
:104C4000FB1809229A56A023FB181A70A023FB1800
:104C500002229A80B423FB185A88A023FB18DA801A
:104C6000B423FB185A68A023FB189A603A4B1B68C0
:104C7000002B00D1BFE1384B1B68B422BA180820C2
:104C80001056A022BA1804219847B4E1FB1D1B78E6
:104C9000442B03D0FB1D1B784B2B3DD19C23F918D3
:104CA0003868002304222B4CA047031E00D09DE14E
:104CB0009C23FB1800229A569823FB181A709C23F9
:104CC000FB1801229A569823FB185A709C23FB1854
:104CD0005B785BB2002B0FD19C23FB181B785BB277
:104CE00018009C23FB185B88083B99B21B4A030100
:104CF000D31808330A1C1A80174B1B68002B00D1ED
:104D000074E1154B1B689C22BA180020105698229B
:104D1000BA180521984769E1FB1D1B784A2B23D15E
:104D20000C23F9183868002344220A4CA047031EBC
:104D300000D060E10B4B1B68002B00D15BE1094BFD
:104D40001A680C23FB18196C0C23FB1818009047E9
:104D500051E1C04631180000DC0300202C03002084
:104D600012020020E4030020FB1D1B78462B08D014
:104D7000FB1D1B78482B04D0FB1D1B784D2B00D04E
:104D8000B4E0DF23FB1806221A70FB1D1B78482BAA
:104D900003D1DF23FB1809221A70D823FB18102235
:104DA0001A80D823FB181A888823F918386800233A
:104DB000934CA047031E00D01AE1D623FB18002213
:104DC0001A80D523FB188822BA18127B1A70D623B2
:104DD000FB188822BA18D2891A80D523FB181B78B1
:104DE0005BB2884A1B01D3180C3300221A70D223FD
:104DF000FB188822BA1812891A80D023FB1888223F
:104E0000BA1852891A808823FB185A887023FB1815
:104E10005A818823FB185A687023FB18DA60D5235F
:104E2000FB181B785BB2774A1B01D31806331B882B
:104E30009BB2D622BA1812889A4248D1D223FB18C4
:104E400000229B5E002B25DDD223FB1800229A5EF8
:104E50003B1D1B889A421DDAD023FB181B883A6839
:104E6000D3183B60D823FB18D222BA1812881A80B4
:104E70003C68DF23FB181A787023F918D523FB1838
:104E800000201856D823FB181B88009323005E4C83
:104E9000A047ADE07023FB18D222BA1812889A807E
:104EA0007023FB1800221A60584B1B68002B00D19E
:104EB0009EE0564B1B687022BC18DF22BA1811788E
:104EC000D522BA18002010562200984790E0D82327
:104ED000FA183B1D12881B889A4200D388E00123F0
:104EE000002200210020464CA04781E0FB1D1B78DA
:104EF000452B07D0FB1D1B78472B03D0FB1D1B78D0
:104F00004C2B4CD1DE23FB1807221A70FB1D1B789B
:104F1000472B03D1DE23FB1808221A706423F918EB
:104F2000386800230822364CA047031E62D1DC23D8
:104F3000FB1800221A80DB23FB186422BA181278AF
:104F40001A70DC23FB186422BA1892881A80642332
:104F5000FB1802229A5E6E23FB181A80DB23FB18D3
:104F60001B785BB2274A1B01D31806331B889BB200
:104F7000DC22BA1812889A423CD1244B1B68002BC1
:104F800038D0224B1B686E22BC18DE22BA1811786A
:104F9000DB22BA1800201056220098472AE0FB1D99
:104FA0001B78522B27D15023F9183868012314227B
:104FB000134CA047031E1ED15023FB185B681A0038
:104FC000134B1A60124B1B68002B14D0104B1C683B
:104FD0005023FB1818685023FB1899685023FB18BE
:104FE0001B7C1A00A04706E0C04604E0C04602E071
:104FF000C04600E0C046C046BD4639B090BDC04680
:10500000311800002C030020C9480000DC030020F8
:10501000E003002080B500AF0C4B1B78DBB2002B07
:1050200010D10B4BB022002118000A4B98470A4BB5
:1050300019000220094B9847044B01221A70084BB3
:1050400000221A80C046BD4680BDC0461402002022
:105050002C030020DD0C0000C54A0000B11900003F
:105060001202002080B582B000AF78603960054B35
:105070007A681A60044B3A681A60C046BD4602B0AE
:1050800080BDC046DC030020E403002090B58DB055
:1050900004AF040008001100BB1D221C1A807B1DF8
:1050A000021C1A703B1D0A1C1A701F23FB18FF22DA
:1050B0001A70BB1D1B88022B00D0CDE07B1D1B7816
:1050C000012B35D11E23FB1800221A702AE017236A
:1050D000FB18654A12781A70634B1B78DBB21A0111
:1050E000624BD318BB61604B1B78DBB25A1C604B20
:1050F0000721100098470B00DAB25B4B1A70BB69AE
:105100009B7ADBB2002B06D11F23FB181722BA189B
:1051100012781A704CE01E23FB181A781E23FB1815
:1051200001321A701E23FB181B78062BCFD93FE0E3
:105130007B1D1B78022B3BD14E4B3B611E23FB1882
:1051400000221A702FE01723FB184B4A12781A70AE
:10515000494B1B78DBB21B013A69D318BB61464B44
:105160001B78DBB20133454A134004D5013B0422CE
:10517000524213430133DAB23F4B1A70BB699B7A38
:10518000DBB2002B08D11723FB181B780733DAB2E8
:105190001F23FB181A700BE01E23FB181A781E231E
:1051A000FB1801321A701E23FB181B78032BCAD977
:1051B0001F23FB181B787F2B4ED8BB6910220021C0
:1051C00018002F4B9847BB6901229A722D4B1B8800
:1051D0009BB201339AB22B4B1A802A4B1B889BB28D
:1051E000002B06D1274B1B889BB201339AB2254B6B
:1051F0001A80244B1B889AB2BB69DA80224B1800B4
:10520000224B98471F23FB18002159561D4B1B8822
:105210009BB21A001E4B18001C4B98470D201D4BCB
:1052200098473B1D1B780122134015D00C23FB1817
:105230001F22BA1812781A70BB692122DA720C2365
:10524000FA18002302930023019300230093042300
:1052500050210220104CA0471F23FB181B785BB283
:105260001800BD4609B090BD150200202C03002097
:10527000B1CC00009C030020160200200300008037
:10528000DD0C000012020020C0F4000025CF000059
:10529000E0F4000059CF00003D0F0000B0B58AB027
:1052A00004AF39601100FB1D021C1A70BB1D0A1CE3
:1052B0001A701723FB18FA221A70FB1D1B787F2B1C
:1052C00067D83B68002B64D0FB1D1B785BB2354A66
:1052D0001B01D3180A331B78DBB2012B59D1BB1D3C
:1052E0001B78002B55D01623FB1844221A70FB1D87
:1052F0001B785BB22B4A1B01D3180B331B78DBB234
:105300001A00012313400FD01623FB184B221A70EA
:10531000FB1D1B785BB2234A1B01D3180B331B7890
:10532000DAB20823FB185A720823FB18FA1D127808
:105330001A7239680823FB18082218001A4B98477C
:10534000FB1D1B785BB2174A1B01D31806331B8861
:105350009AB20823FB185A811723FC180823FA185D
:105360001623FB18197800230293002301930023CE
:1053700000930C2302200D4DA84703002370172330
:10538000FB181B785BB2002B03D01723FB18F72206
:105390001A701723FB181B785BB21800BD4606B0C5
:1053A000B0BDC0462C030020A10C00003D0F000042
:1053B00090B58FB004AF0400B960100019000F233E
:1053C000FB18221C1A700C23FB18021C1A80BB1D30
:1053D0000A1C1A802623FB18062252421A800F2329
:1053E000FB181B787F2B00D987E0BB68002B00D10E
:1053F00083E00C23FB181A88AF23DB009A4200D904
:105400007BE00F23FB181B785BB2404A1B01D318CB
:105410000A331B78DBB2012B6FD12323FB18452203
:105420001A702423FB1850221A801023FB180F2215
:10543000BA1812781A701023FB180C22BA181288A6
:105440005A800F23FB181B785BB2304A1B01D3181C
:1054500006331B889AB21023FB189A810F23FB187E
:105460001B785BB2062B03DD2423FB1844221A8031
:105470000F23FB181B785BB2244A1B01D3180B3394
:105480001B78DBB21A00012313400FD02323FB1833
:105490004C221A700F23FB1800229A562423FB1863
:1054A0001A4912018A18083212881A802323FB181D
:1054B0001B78802252421343D9B21023FA182423B6
:1054C000FB181B8802930C23FB181B880193BB68F5
:1054D0000093102302200E4CA04703001A0026233D
:1054E000FB181A802623FB1800229B5E002B04D099
:1054F0002623FB180E2252421A802623FB18002274
:105500009B5E1800BD460BB090BDC0462C0300202A
:105510003D0F000090B58DB004AFB96011007B6005
:105520000F23FB18021C1A700C23FB180A1C1A808C
:105530001E23FB18062252421A800F23FB181B78E9
:105540007F2B00D999E0BB68002B00D195E00C239C
:10555000FB181B88002B00D18FE00F23FB181B7852
:105560005BB24A4A1B01D3180A331B78DBB2012B0A
:1055700000D082E01E23FB1800221A800F23FB18A4
:1055800000229A56414B1201B968D1500F23FB18E3
:105590001B785BB23D4A1B01D31804330C22BA18A6
:1055A00012881A800F23FB181B785BB2374A1B0145
:1055B000D3180C331B78DBB2002B5ED11D23FB18F4
:1055C00046221A700F23FB181B785BB22F4A1B016F
:1055D000D3180C3301221A700F23FB181B785BB20F
:1055E0002A4A1B01D3180B331B78DBB21A000123A4
:1055F000134003D01D23FB184D221A707B68002B2B
:1056000005D11423FB18012252421A6003E014232F
:10561000FB187A681A601423FB180F22BA18127844
:105620001A710F23FB181B785BB2184A1B01D318A1
:1056300006331B889AB21423FB18DA801423FA1855
:105640001D23FB18197800230293002301930023E4
:105650000093082302200E4CA04703001A001E23CB
:10566000FB181A801E23FB1800229B5E002B04D01F
:105670001E23FB180E2252421A801E23FB18002202
:105680009B5E1800BD4609B090BDC0462C030020AB
:105690003D0F0000B0B588B004AF0200FB1D1A70CA
:1056A0000F23FB18FA221A70424B1800424B9847FE
:1056B000FB1D00229A56414B110018003E4B9847A3
:1056C0000D203F4B9847FB1D1B787F2B6AD8FB1D95
:1056D0001B785BB23B4A1B01D3180A331B78DBB241
:1056E000012B5FD10E23FB1849221A700823FB18E7
:1056F000FA1D12781A70FB1D1B785BB2314A1B0130
:10570000D31806331B889AB20823FB185A80FB1D56
:105710001B785BB22B4A1B01D3180A3300221A7084
:10572000FB1D1B785BB2274A1B01D31806330022EE
:105730001A80FB1D1B785BB2224A1B01D3180B3366
:105740001B78DBB21A000123134003D00E23FB1891
:105750004E221A700F23FC180823FA180E23FB1888
:10576000197800230293002301930023009304235C
:105770000220154DA847030023700F23FB181B7848
:105780005BB2002B03D00F23FB18F7221A70FB1D0E
:105790001B785BB21A010B4BD318102200211800A2
:1057A0000A4B98470F23FB181B785BB21800BD46C5
:1057B00004B0B0BDC0F4000025CF0000FCF4000030
:1057C00059CF00002C0300203D0F0000DD0C00002D
:1057D00080B586B000AF786000233B611723FB18CB
:1057E00000221A701623FB1800221A7060E015239D
:1057F000FB1800221A701423FB187A6812781A70AA
:105800001523FB181522BA18127801321A701523C5
:10581000FB181B78042B01D9002357E01423FB1835
:105820001B782E2B04D01423FB181B78002B0DD1D2
:105830001623FB181B780C22BA181721791809783F
:10584000D1541723FB1800221A701DE01423FB18F3
:105850001B782F2B16D91423FB181B78392B11D842
:105860001723FB181B781A1C9200D318DB18DAB226
:105870001423FB181B78D318DAB21723FB18303A1D
:105880001A7001E0002321E07B6801337B60142360
:10589000FB181B782E2B04D01423FB181B78002B2D
:1058A000A9D11623FB181622BA18127801321A70E1
:1058B0001623FB181B78032B99D90C23F9181023F6
:1058C000FB1804221800034B98473B691800BD469B
:1058D00006B080BDA10C0000B0B588B004AF786000
:1058E0000F23FB18FA221A707B681800144B984794
:1058F00003001A000E23FB181A700E23FB181B78E6
:10590000402B15D80E23FB181B789BB2013399B29C
:105910000F23FC187A6800230293002301930023CD
:1059200000930B004A210220064DA8470300237074
:105930000F23FB181B785BB21800BD4604B0B0BD46
:105940001B0D00003D0F000080B582B000AF3B0092
:105950007B607B68B9221A70134B00211800134B2F
:1059600098477B681B781A00114B110018000F4BE9
:105970009847104B012118000C4B98470E4B002103
:1059800018000A4B98470D4B81211800074B984788
:10599000C0460B4B18000B4B98470300012BF8D166
:1059A000C046BD4602B080BD080201003D2D00008A
:1059B0000C020100140201001C020100040201009B
:1059C00018020100F92C000080B582B000AF3B0046
:1059D0007B607B68AB221A70134B00211800134BBD
:1059E00098477B681B781A00114B110018000F4B69
:1059F0009847104B012118000C4B98470E4B002183
:105A000018000A4B98470D4B81211800074B984707
:105A1000C0460B4B18000B4B98470300012BF8D1E5
:105A2000C046BD4602B080BD080201003D2D000009
:105A30000C020100140201001C020100040201001A
:105A400018020100F92C000090B585B000AF0200EB
:105A5000FB1D1A700F23FB1800221A70244B984765
:105A600003001B051B0D234A934238D90F23FC1852
:105A70000823FB18204A19001000204B9847030008
:105A800023700F23FB181B785BB2002B26D1BB6859
:105A90001B4A1340BB60BB681A4A1343BB60BB6818
:105AA000154A19001000184B9847FB1D1B78002B56
:105AB00002D0164B984701E0154B9847BB68104A37
:105AC0001340BB60BB68802252021343BB60BB68BB
:105AD000094A190010000C4B984700E0C0460F23FC
