:10200000D8200020A94E0000A14F0000A14F0000E1
:1020100000000000000000000000000000000000C0
:10202000000000000000000000000000A14F0000C0
:102030000000000000000000A14F0000A14F0000C0
:10204000A14F0000A14F0000A14F0000A14F0000D0
:10205000A14F0000A14F0000A14F0000A14F0000C0
:10206000A14F0000DD330000F53300000D34000007
:10207000253400003D34000055340000A14F00001D
:10208000A14F0000A14F0000A14F0000A14F000090
:10209000A14F00000000000000000000A14F000060
:1020A000A14F0000A14F0000A14F0000A14F000070
:1020B0000000000010B5064C2378002B07D1054B1B
:1020C000002B02D0044800E000BF0123237010BDA4
:1020D000100000200000000088560000084B10B5DA
:1020E000002B03D00749084800E000BF07480368F9
:1020F000002B00D110BD064B002BFBD09847F9E711
:1021000000000000140000208856000088560000DF
:102110000000000080B584B000AF0200FB1D1A7003
:102120000F23FB18FA1D1278D2091A700E23FB1820
:10213000FA1D127852091A700D4BBB600F23FB1861
:102140001B78002B0FD10F23FB181B789B0010224C
:102150009446BC446344083B1A680E23FB181B7862
:10216000DB01D31800E000231800BD4604B080BD99
:102170000044004180B582B000AF0200FB1D1A7020
:10218000FB1D1B781800034B984703001800BD4641
:1021900002B080BD1521000080B584B000AF020000
:1021A000FB1D1A70BB1D0A1C1A70FB1D1B78180042
:1021B0000D4B98470300FB60FB1D1B781F2213404B
:1021C00001229A401300BB60BB1D1B78002B03D07B
:1021D000FB68BA689A6102E0FB68BA685A61C04657
:1021E000BD4604B080BDC0467521000080B500AF7B
:1021F000024B9847C046BD4680BDC046592F0000DF
:1022000080B500AF024B9847C046BD4680BDC04672
:10221000AD2F000080B584B000AF78600D4B9847BB
:102220007B681B79DBB2002B04D00F23FB1805223F
:102230001A7006E07B6801221A710F23FB18002236
:102240001A70054B98470F23FB181B781800BD46E2
:1022500004B080BDED2100000122000080B582B0F5
:1022600000AF78607B6800221A71C046BD4602B09C
:1022700080BD80B584B000AF78607B681B68FB6070
:10228000FB681B7EDBB21A00012313405A1E9341E8
:10229000DBB21800BD4604B080BD80B584B000AF8D
:1022A00078607B681B68FB60FB681B7EDBB21A00F2
:1022B000042313405A1E9341DBB21800BD4604B0FC
:1022C00080BD000080B584B000AF78600A00BB1C00
:1022D0001A807B681B68FB607B6818000A4B984774
:1022E00003001A0001235340DBB2002B01D0052369
:1022F00006E0BB1C1B88DB05DA0DFB689A62002335
:102300001800BD4604B080BD7322000080B584B0C3
:1023100000AF786039607B681B68BB607B68180021
:102320001B4B984703001A0001235340DBB2002BDC
:1023300001D0102327E00F23FB1800221A70BB687E
:102340005B8B9BB21A000423134006D00F23FB18AB
:102350001E221A70BB6804225A837B689B79012B6A
:1023600008D1BB689B6A9BB2DB05DB0D9AB23B6868
:102370001A8005E0BB689B6ADBB29AB23B681A80A0
:102380000F23FB181B781800BD4604B080BDC04663
:102390009B22000080B582B000AF0200FB1D1A70C6
:1023A000FB1D1B78092B18D89A000E4BD3181B68FD
:1023B0009F460D4B12E00D4B10E00D4B0EE00D4B08
:1023C0000CE00D4B0AE00D4B08E00D4B06E00D4B09
:1023D00004E00D4B02E00D4B00E000231800BD4669
:1023E00002B080BDB05500001F6500001F43000013
:1023F0001F4401001F4502001F4501001F46020047
:102400001F4603001F8600001F4701001F480000F1
:1024100080B582B000AF0200FB1D1A70FB1D1B7857
:10242000092B19D89A000F4BD3181B689F4680239D
:102430005B0212E08023DB020FE080231B030CE031
:1024400080235B0309E080239B0306E08023DB03FA
:1024500003E080231B0400E000231800BD4602B007
:1024600080BDC046D855000080B582B000AF78600E
:102470007B685B7900211800024B9847C046BD4637
:1024800002B080BD9921000080B582B000AF7860B5
:102490007B685B7901211800024B9847C046BD4616
:1024A00002B080BD9921000084B0B0B584B000AF07
:1024B000786004202024A446BC446044016042604B
:1024C0008360042320229446BC4463441A78082382
:1024D000FB181A70042320229446BC4463445B78A2
:1024E000012B1FD9042320229446BC4463445B681B
:1024F000DAB20823FB18DA70042320229446BC4485
:1025000063445B681B0ADAB20823FB189A70042341
:1025100020229446BC4463445B681B0CDAB2082357
:10252000FB185A707B6818001D4B98477B68186829
:10253000042320229446BC4463445B789AB20F2360
:10254000FC180823FB181900164B9847030023704A
:10255000042320229446BC4463449B89002B14D05E
:102560007B681868042320229446BC44634499681D
:10257000042320229446BC4463449A890F23FC1808
:102580000023094DA847030023707B681800074B00
:102590009847C046BD4604B0B0BC08BC04B018475C
:1025A000692400003D3C0000813A000089240000BD
:1025B00084B090B585B000AF786004202024A44694
:1025C000BC4460440160426083600423202294463E
:1025D000BC4463441A780823FB181A700423202291
:1025E0009446BC4463445B78012B1FD9042320220A
:1025F0009446BC4463445B68DAB20823FB18DA7083
:10260000042320229446BC4463445B681B0ADAB26C
:102610000823FB189A70042320229446BC44634488
:102620005B681B0CDAB20823FB185A707B68180031
:102630001D4B98477B681868042320229446BC44AD
:1026400063445B789AB20F23FC180823FB18190027
:10265000164B984703002370042320229446BC4461
:1026600063449B89002B14D07B68186804232022C4
:102670009446BC4463449968042320229446BC4495
:1026800063449B890F22BC181A00084B984703002B
:1026900023707B681800064B9847C046BD4605B0BE
:1026A00090BC08BC04B01847692400003D3C000001
:1026B0008924000090B585B000AF78600C23FB182A
:1026C00000221A80C0467B681B6818003C4B984764
:1026D00003001A0001235340DBB2002BF3D17B68C7
:1026E0001800384B98477B681B680F22BC180521DF
:1026F0001800354B984703002370C0467B681B6861
:102700001800324B984703001A0001235340DBB2F4
:10271000002BF3D17B681B680F22BC180C22BA185F
:10272000110018002A4B984703002370C0467B68AD
:102730001B681800224B984703001A0001235340DE
:10274000DBB2002BF3D17B681B680F22BC18002181
:1027500018001D4B984703002370C0467B681B6818
:1027600018001A4B984703001A0001235340DBB2AC
:10277000002BF3D17B681B680F22BC180C22BA18FF
:1027800011001800124B9847030023700C23FB180C
:102790001B881A0001231340C8D17B6818000D4B19
:1027A00098470C23FB181B881A002023134001D0E4
:1027B000102300E000231800BD4605B090BDC046C0
:1027C0007322000069240000C52200009B22000043
:1027D0000D2300008924000090B589B002AF786015
:1027E0000823FB1806221A700823FB1801225A70CE
:1027F0000823FB1800229A810823FB1800225A6044
:102800000823FB1800229A600823FB1878686A46A0
:10281000D968116019685A689B68034CA047C04684
:10282000BD4607B090BDC046B125000090B58BB045
:1028300002AF78600023BB607B681B681F22BC1856
:102840001800214B9847030023701F23FB181B78A7
:10285000052B03D11F23FB181B7830E00C23FB183A
:102860009F221A700C23FB1801225A700C23FB18AC
:102870000822BA189A600C23FB1803229A810C23B1
:10288000FB1800225A600C23FB1878686A46D96846
:10289000116019685A689B680C4CA0477B681B68DC
:1028A00018000B4B98477B681B791800094B984719
:1028B0000200BB689A4201D1002300E014231800F3
:1028C000BD4609B090BDC04615220000A9240000F5
:1028D0005D2200009523000090B58DB002AFF86036
:1028E000B9607A601A00BB1C1A80BB1C1A88BB68CE
:1028F000D418FB681B791800214B984703009C42B1
:1029000001D9172337E0FB681B682722BC18180081
:102910001C4B9847030023702723FB181B78052BBB
:1029200003D12723FB181B7825E01423FB180B2267
:102930001A701423FB1805225A701423FB18BA6866
:102940005A601423FB187A689A601423FB18BA1C87
:1029500012889A811423FB18F8686A46D9681160B6
:1029600019685A689B68084CA047FB681B681800E8
:10297000064B984700231800BD460BB090BDC046DB
:102980001124000015220000A92400005D2200008F
:1029900090B58DB002AFF860B9607A601A00BB1CC8
:1029A0001A80BB1C1A88BB68D418FB681B791800F6
:1029B0005B4B984703009C4201D91723ABE0FB68AF
:1029C0001B682722BC181800564B98470300237039
:1029D0002723FB181B78052B03D12723FB181B7813
:1029E00099E0FB681800504B98471423FB1802220B
:1029F0001A701423FB1804225A701423FB18BA68A7
:102A00005A601423FB187A689A60BB689BB2FF2255
:102A100013409AB22423FB18802149008A1A1A8095
:102A2000BB1C2422BA1810881B8899B282B291422A
:102A300000D9031C9AB21423FB189A811423FB18A3
:102A4000F8686A46D968116019685A689B68374CFB
:102A5000A0472723FC18FB681800354B9847030054
:102A600023701423FB189A89BB1CB91C09888A1A85
:102A70001A803FE0FB6818002B4B98471423FB1883
:102A80005B681422BA1892899A181423FB185A60AA
:102A90001423FB189B681422BA1892899A181423DD
:102AA000FB189A60BB1C1B8899B28022520091428D
:102AB00001D980235B009AB21423FB189A81142356
:102AC000FB18F8686A46D968116019685A689B68EB
:102AD000164CA0472723FC18FB681800144B984796
:102AE000030023701423FB189A89BB1CB91C0988A6
:102AF0008A1A1A80BB1C1B88002B04D02723FB18C2
:102B00001B78002BB6D0FB681B681800094B984750
:102B10002723FB181B781800BD460BB090BDC0469C
:102B20001124000015220000D9270000B125000063
:102B3000B52600005D22000090B58DB002AFF860B0
:102B4000B960FB1D1A70FB681B791800334B98475E
:102B50000200BB689A4201D817235BE0FB681B6840
:102B60002722BC1818002E4B9847030023702723F8
:102B7000FB181B78052B03D12723FB181B7849E092
:102B8000FB681800274B9847FB1D1B78012B08D0CA
:102B9000022B0BD0002B0ED11423FB1820221A700D
:102BA0000DE01423FB1852221A7008E01423FB18BE
:102BB000D8221A7003E01423FB1800221A70142381
:102BC000FB1804225A701423FB18BA685A601423A5
:102BD000FB1800229A811423FB1800229A60142308
:102BE000FB18F8686A46D968116019685A689B68CA
:102BF0000D4CA0472723FC18FB6818000B4B984787
:102C000003002370FB681B681800094B98472723B3
:102C1000FB181B781800BD460BB090BD11240000B6
:102C200015220000D9270000B1250000B5260000BC
:102C30005D22000090B58BB002AF78600A00FB1CEB
:102C40001A707B681B681F22BC181800224B98471B
:102C5000030023701F23FB181B78052B03D11F23B0
:102C6000FB181B7833E07B6818001C4B9847FB1C53
:102C70001B78002B01D03C2200E000220B23FB1824
:102C80001A700C23FB1801221A700C23FB18012266
:102C90005A700C23FB1801229A810C23FB180B227B
:102CA000BA189A600C23FB1800225A600C23FB18F8
:102CB00078686A46D968116019685A689B68084C38
:102CC000A0477B681B681800064B98470023180034
:102CD000BD4609B090BDC04615220000D9270000AE
:102CE000B12500005D22000090B58DB002AFF86004
:102CF000B960FB1D1A70FB681B791800264B9847BA
:102D00000200BB689A4201D8172340E0FB681B68A9
:102D10002722BC181800214B984703002370272353
:102D2000FB181B78052B03D12723FB181B782EE0FB
:102D3000FB6818001A4B9847FB1D1B78002B01D02D
:102D4000362200E039221423FB181A701423FB18D2
:102D500004225A701423FB18BA685A601423FB1813
:102D600000229A811423FB1800229A601423FB1876
:102D7000F8686A46D968116019685A689B68094CF6
:102D8000A047FB681B681800074B984700231800F2
:102D9000BD460BB090BDC0461124000015220000B6
:102DA000D9270000B12500005D22000090B58BB04E
:102DB00002AF78607B681B681F22BC1818001B4B91
:102DC0009847030023701F23FB181B78052B03D1A2
:102DD0001F23FB181B7824E00C23FB18B9221A7060
:102DE0000C23FB1801225A700C23FB1800229A8135
:102DF0000C23FB1800225A600C23FB1800229A6057
:102E00000C23FB1878686A46D968116019685A68FB
:102E10009B68074CA0477B681B681800054B9847C8
:102E200000231800BD4609B090BDC0461522000021
:102E3000B12500005D22000090B58BB002AF786034
:102E40007B681B681F22BC1818001B4B98470300A7
:102E500023701F23FB181B78052B03D11F23FB189E
:102E60001B7824E00C23FB18AB221A700C23FB18F0
:102E700001225A700C23FB1800229A810C23FB18A4
:102E800000225A600C23FB1800229A600C23FB18C6
:102E900078686A46D968116019685A689B68074C57
:102EA000A0477B681B681800054B98470023180053
:102EB000BD4609B090BDC04615220000B1250000F6
:102EC0005D22000080B582B000AF78607B68802210
:102ED0001A707B6800225A707B6801229A707B68A6
:102EE0000022DA70C046BD4602B080BD80B584B015
:102EF00000AF02003960FB1D1A700C23FB1818008C
:102F0000104B98470C23FB1880221A703B681A78E4
:102F10000C23FB185A703B685A780C23FB189A70E4
:102F20003B689A780C23FB18DA700C23FA18FB1D07
:102F30001B7811001800044B9847C046BD4604B0EA
:102F400080BDC046C52E0000214E000080B500AFF8
:102F5000C046BD4680BD000080B582B000AF104BBA
:102F60001B68002B12D1EFF310837B607B68002B72
:102F700009D172B6BFF35F8F0A4B00221A700A4B59
:102F800001221A7002E0084B00221A70044B1B68E1
:102F90005A1C034B1A60C046BD4602B080BDC046F5
:102FA0002C000020000000203000002080B500AF81
:102FB0000B4B1B685A1E0A4B1A60094B1B68002BEF
:102FC0000AD1084B1B78DBB2002B05D0064B01223F
:102FD0001A70BFF35F8F62B6C046BD4680BDC04663
:102FE0002C000020300000200000002080B582B0BE
:102FF00000AF78607B6800221A70C046BD4602B000
:1030000080BD80B586B000AFF860B9607A601623E5
:10301000FB1800221A80BB683B61BB685A08FB683A
:103020009A4201D2402326E0BB685B083B610AE07C
:103030003A69FB68D31A3B611623FB181A881623DA
:10304000FB1801321A803A69FB689A42F0D21623C3
:10305000FB181622BA181288013A1A801623FB1898
:103060001B88FF2B01D9402305E07B681622BA1884
:1030700012881A8000231800BD4606B080BD0000EB
:1030800080B584B000AF0200FB1D1A70BB1D0A1C86
:103090001A701A4B1B7801225340DBB2002B03D16C
:1030A000BB1D1B78002B1BD00C23FB181800144BE6
:1030B00098470C23FB18FA1D12781A700C23FB1882
:1030C000190013200F4B984713200F4B98470B4BB9
:1030D000FA1D12785A70094B01221A70002308E079
:1030E000064B5B78FA1D12789A4201D1002300E06A
:1030F0001D231800BD4604B080BDC046340000202A
:10310000ED2F0000354B0000794B000080B582B0F8
:1031100000AF78600A00FB1C1A707B684D4A93422E
:103120003FD04C4A934206D84B4A93420FD04B4A69
:10313000934221D089E04A4A934200D15BE0494A58
:10314000934200D16CE0484A93423FD07DE0FB1CA3
:103150001B78012B0AD002DC002B05D075E0022B76
:1031600006D0032B06D070E0404B6FE0404B6DE083
:10317000404B6BE0404B69E0FB1C1B78012B0AD0F5
:1031800002DC002B05D060E0022B06D0032B06D01A
:103190005BE003235AE0394B58E0394B56E0394B9A
:1031A00054E0FB1C1B78012B0AD002DC002B05D05D
:1031B0004BE0022B06D0032B06D046E0324B45E015
:1031C000324B43E0324B41E0324B3FE0FB1C1B787B
:1031D000012B0AD002DC002B05D036E0022B06D0F2
:1031E000032B06D031E02C4B30E02C4B2EE02C4B47
:1031F0002CE02C4B2AE0FB1C1B78012B0AD002DCB4
:10320000002B05D021E0022B06D0032B06D01CE0BA
:10321000254B1BE0254B19E0254B17E0254B15E00E
:10322000FB1C1B78012B0AD002DC002B05D00CE024
:10323000022B06D0032B06D007E01F4B06E01F4BE6
:1032400004E01F4B02E01F4B00E000231800BD46C6
:1032500002B080BD0010004200080042000C004295
:1032600000180042001C0042001400420300040049
:10327000030005000300060003000700030001002F
:1032800003001E0003001F000300080003000900E4
:1032900003000A0003000B000300100003001100EC
:1032A000030012000300130003000C0003000D00D4
:1032B00003000E0003000F000300160003001700B8
:1032C000030018000300190090B58BB000AF7860C0
:1032D0000C23FB180F4A13CA13C313CA13C30023CA
:1032E0007B620EE00C23FB187A6A9200D3581A0016
:1032F0007B689A4202D17B6ADBB206E07B6A0133CB
:103300007B627B6A052BEDD900231800BD460BB00C
:1033100090BDC0460056000080B582B000AF0200EC
:10332000FB1D1A70C046BD4602B080BD80B584B09A
:1033300000AF02003960FB1D1A70134B1B7801228D
:103340005340DBB2002B15D00023FB600CE00F4B89
:10335000FA6892000E49D1500E4BFA689200002193
:10336000D150FB680133FB60FB68052BEFD9064B9E
:1033700001221A70FB1D1A78044B92003968D15053
:10338000C046BD4604B080BD360000203800002095
:10339000193300007400002090B585B000AF78604C
:1033A0000823FB180B4A1168196092889A800F2332
:1033B000FC187B681800084B9847030023700F2304
:1033C000FB181B780822BA18D35C5BB21800BD4604
:1033D00005B090BD18560000C932000080B500AF9E
:1033E000034B1B6800209847C046BD4680BDC046C1
:1033F0003800002080B500AF034B5B680120984780
:10340000C046BD4680BDC0463800002080B500AF34
:10341000034B9B6802209847C046BD4680BDC0460E
:103420003800002080B500AF034BDB6803209847CD
:10343000C046BD4680BDC0463800002080B500AF04
:10344000034B1B6904209847C046BD4680BDC0465B
:103450003800002080B500AF034B5B69052098471A
:10346000C046BD4680BDC0463800002080B582B051
:1034700000AF78607B6880221A707B6800225A70E7
:103480007B6801229A707B680022DA70C046BD46D4
:1034900002B080BD80B582B000AF78607B6800224A
:1034A0001A70C046BD4602B080BD000080B582B033
:1034B00000AF02003960FB1D1A70FB1D1B78012B49
:1034C0000AD0022B0FD0002B14D10E4B0D4A91695C
:1034D0003A680A439A610FE00A4B0A4AD1693A688E
:1034E0000A43DA6108E0074B064A116A3A680A4360
:1034F0001A6201E0172300E000231800BD4602B065
:1035000080BDC0460004004080B500AF054B9B78ED
:10351000DBB21A00022313405A1E9341DBB218009B
:10352000BD4680BD0020004180B584B000AF78600A
:103530007B681B68FB60FB681B7EDBB21A00022302
:1035400013405A1E9341DBB21800BD4604B080BD43
:1035500080B584B000AF78607B681B68FB60FB6857
:103560001B7EDBB21A00012313405A1E9341DBB2CB
:103570001800BD4604B080BD80B584B000AF78604F
:103580007B681B68FB60FB681B7EDBB21A000423B0
:1035900013405A1E9341DBB21800BD4604B080BDF3
:1035A00080B584B000AF78600A00BB1C1A807B68CD
:1035B0001B68FB607B6818000A4B984703001A00E1
:1035C00001235340DBB2002B01D0052306E0BB1CD6
:1035D0001B88DB05DA0DFB689A6200231800BD46E4
:1035E00004B080BD5135000080B584B000AF786074
:1035F00039607B681B68BB607B6818001B4B984771
:1036000003001A0001235340DBB2002B01D010232A
:1036100027E00F23FB1800221A70BB685B8B9BB25C
:103620001A000423134006D00F23FB181E221A7021
:10363000BB6804225A837B689B79012B08D1BB6845
:103640009B6A9BB2DB05DB0D9AB23B681A8005E0F2
:10365000BB689B6ADBB29AB23B681A800F23FB18E7
:103660001B781800BD4604B080BDC0467935000007
:1036700080B584B000AF78607B681B68FB60FB6836
:1036800002221A76C046BD4604B080BD90B593B004
:1036900000AF786039607B681B687B637B681B6860
:1036A0003B631C23FB181800854B98471C23FB1811
:1036B00000225A703B681B78002B03D11C23FB1897
:1036C00000229A703B689A6A0C23FB181A603B68C8
:1036D000DA6A0C23FB185A603B681A6B0C23FB1840
:1036E0009A603B685A6B0C23FB18DA604723FB187F
:1036F00000221A702CE04723FB181A780C23FB18C1
:103700009200D3583B643B6C002B09D14723FB1834
:103710001A783B6B110018006A4B984703003B6412
:103720003B6C01330DD03B6CDAB21C23FB181A70D2
:103730003B6C1B0CDBB21C22BA1811001800624B48
:1037400098474723FB181A784723FB1801321A7051
:103750004723FB181B78032BCDD93B681A787B686D
:103760005A713B681A7C7B689A713B689A7C7B68CB
:10377000DA713B681A7D7B681A720A23FB180022F3
:103780001A800023FB630023BB633B681B78012B7B
:1037900029D17B681B6818004C4B98470300FB62DB
:1037A000FB6A1433BB62BB6ADBB21800484B984714
:1037B00003007B623B689B692322BC180A22BA186B
:1037C000796A1800434B9847030023702323FB18A2
:1037D0001B78002B01D017236DE00A23FB181B88F0
:1037E000DAB27B6B1A733B681B78002B1AD13B68EB
:1037F0009B69FB633B689B8BBB637B6B5B6A3A6833
:10380000927F11003A68D27F12040A431A437B6BFD
:103810005A623B6820229B5C002B03D0BB6B40228A
:103820001343BB633B685B68FA6B1343FB633B6802
:103830009B68FA6B1343FB633B68DB68FA6B1343CB
:10384000FB633B681B7C1A00BB6B1343BB633B6889
:103850005B7C002B03D1204B9847031E03D0FB6BEE
:1038600080221343FB633B689B7C002B04D0BB6B23
:10387000802292021343BB633B68DB7C002B04D0A5
:10388000BB6B802292001343BB633B681B7D002B04
:1038900004D0BB6B802292011343BB637B6B1A681D
:1038A000FB6B1A437B6B1A607B6B5A68BB6B1A43CA
:1038B0007B6B5A6000231800BD4613B090BDC04614
:1038C0006D3400000D310000214E0000C9320000AF
:1038D000594C0000033000000935000090B58BB052
:1038E00000AFF860B9607A60FB68BA681A60FB687C
:1038F0001B683B623B6A1B680222134001D01C23F9
:10390000A6E03B6A1B680122134001D005239FE01B
:10391000FB681B681800504B98470300FB61FB696C
:103920000233BB61FB6914337B610122BB699A409E
:10393000130019000220494B98471023FB18180068
:10394000474B98477B6824229A5C1023FB181A7017
:103950007B69DBB21022BA1811001800414B98475E
:103960007B69DBB21800404B98477B6824229B5C44
:10397000002118003D4B98477B681B78012B05D12F
:103980003B6A1B680C221A433B6A1A607B681B78EF
:10399000002B05D13B6A1B6808221A433B6A1A6058
:1039A0002723FB1800221A7010E02723FB181B782E
:1039B000FA6802339B00D318043300221A602723CD
:1039C000FB181A782723FB1801321A702723FB18DB
:1039D0001B78062BE9D9FB680022DA62FB6800221B
:1039E0009A62FB6800229A86FB6800221A86FB68AE
:1039F000362200219954FB68372200219954FB6834
:103A0000382200219954FB6803225A72FB68002275
:103A10001A71FB681B681322BC1818000E4B9847DC
:103A200003002370124A1323FB181B78110018009F
:103A3000104B98471323FB181A780F4B9200F96824
:103A4000D1507A68FB68110018000C4B98470300AE
:103A50001800BD460BB090BDC9320000AD34000067
:103A600095340000354B0000794B00008130000098
:103A7000B94000002D330000740000208D36000096
:103A800090B589B000AFF860B9601900BB1D1A800D
:103A90003B1D0A1C1A80FB6838229B5CDBB2052B9D
:103AA00001D10523B8E0BB1D1B88002B01D11723D2
:103AB000B2E0FB68DB7901225340DBB2002B01D07E
:103AC0001C23A9E0FB685B79002B09D1FB68180077
:103AD000534B9847031E03D0FB681800514B98477F
:103AE0001E23FB1800221A808DE0FB685B79012BF6
:103AF00012D1C046FB6818004B4B984703001A00D0
:103B000001235340DBB2002BF4D13B1D1A88FB6824
:103B100011001800454B9847FB685B79002B2AD1B0
:103B20000023BB6108E0FB681800414B9847031E67
:103B300007D1BB690133BB61BB693E4A9342F2D9ED
:103B400000E0C046FB681800354B9847031E05D0BF
:103B5000FB681800334B984704235DE0FB681800AE
:103B6000334B984703001A0001235340DBB2002B6C
:103B700001D0122350E0C046FB6818002C4B984738
:103B800003001A0001235340DBB2002BF4D11423AD
:103B9000FB1800221A801723FC181423FA18FB685C
:103BA00011001800244B9847030023701723FB18BB
:103BB0001B78002B03D01723FB181B782CE01E2347
:103BC000FB181B881E22BA18591C11801A00BB68EA
:103BD0009B181422BA181288D2B21A70FB689B790B
:103BE000012B10D11E23FB181B881E22BA18591C4A
:103BF00011801A00BB689B181422BA181288120A86
:103C000092B2D2B21A70BB1D1B88BA1D591E118008
:103C1000002B00D069E700231800BD4609B090BD15
:103C2000293500007136000051350000A135000033
:103C30007935000010270000E935000080B58AB012
:103C400000AFF860B960BB1D1A80FB6838229B5C2E
:103C5000DBB2052B01D1052370E1BB1D1B88002BB6
:103C600001D117236AE1FB685B79002B09D1FB685E
:103C70001800B44B9847031E03D0FB681800B24BE2
:103C800098472623FB1800221A802423FB18BA1D0C
:103C900012881A80FEE0FB685B79002B2AD1002392
:103CA0003B6208E0FB681800A84B9847031E07D149
:103CB0003B6A01333B623B6AA54A9342F2D900E07A
:103CC000C046FB6818009F4B9847031E05D0FB6851
:103CD00018009D4B9847042330E1FB6818009B4B6C
:103CE000984703001A0001235340DBB2002B01D098
:103CF000122323E1C046FB681800944B9847030049
:103D00001A0001235340DBB2002BF4D12623FB1809
:103D10001B882622BA18591C11801A00BB689B18F0
:103D20001A781E23FB181A80FB689B79012B15D18A
:103D30002623FB181B882622BA18591C11801A004A
:103D4000BB689B181B781B021AB21E23FB180021AC
:103D50005B5E13431AB21E23FB181A801E23FB1846
:103D60001A88FB68110018007A4B9847FB68DB79CA
:103D70002422BA182421791809881180002B00D137
:103D800088E0FB685B79002B00D069E00023BB6111
:103D900047E0BB1D1B88002B3AD0FB6818006B4B1B
:103DA0009847031E34D02623FB181B882622BA18F6
:103DB000591C11801A00BB689B181A781E23FB1827
:103DC0001A80FB689B79012B15D12623FB181B88D1
:103DD0002622BA18591C11801A00BB689B181B7840
:103DE0001B021AB21E23FB1800215B5E13431AB29A
:103DF0001E23FB181A801E23FB181A88FB6811006B
:103E00001800544B9847BB1D1A88BB1D013A1A80F5
:103E1000FB681800504B9847031E07D1BB6901335C
:103E2000BB61BB694A4A9342B3D900E0C046FB6814
:103E30001800444B9847031E05D0FB681800424BFE
:103E4000984704237AE0FB681800434B9847030027
:103E50001A0001235340DBB2002B01D012236DE086
:103E6000C046FB6818003C4B984703001A0001232A
:103E70005340DBB2002BF4D11223FA18FB68110077
:103E80001800364B98472423FB181A882423FB1864
:103E9000013A1A80BB1D1B88BA1D591E1180002BC8
:103EA00000D0F8E6FB685B79012B0BD1C046FB68BC
:103EB0001800244B984703001A0001235340DBB23B
:103EC000002BF4D1FB685B79002B36D1FB68DB79E2
:103ED000002B32D02CE000237B6108E0FB68180047
:103EE0001D4B9847031E07D17B6901337B617B69BA
:103EF000174A9342F2D900E0C046FB681800164BFF
:103F0000984703001A0001235340DBB2002B01D075
:103F1000122313E01023FA18FB68110018000F4B4E
:103F200098472423FB181A882423FB18013A1A8087
:103F30002423FB181B88002BCDD100231800BD467D
:103F40000AB080BD293500007136000051350000EF
:103F500010270000A135000079350000E935000088
:103F600080B584B000AF78607B681B68BB607B68FD
:103F7000DB6A1B78DAB20E23FB181A807B68DB6AD7
:103F80005A1C7B68DA627B689B79012B13D17B68B2
:103F9000DB6A1B78DBB21B021AB20E23FB1800216E
:103FA0005B5E13431AB20E23FB181A807B68DB6A30
:103FB0005A1C7B68DA620E23FB181B88DB05DA0DBE
:103FC000BB689A627B689B8E9BB2013B9AB27B680E
:103FD0009A86C046BD4604B080BD000080B584B05E
:103FE00000AF78607B681B68FB60084B1B881A0079
:103FF000FB689A627B685B8E9BB2013B9AB27B68DE
:104000005A86C046BD4604B080BDC0468C00002024
:1040100080B584B000AF78607B681B68FB600A23C2
:10402000FB1800221A80FB689A6A0A23FB181A8080
:104030007B685B8E9BB2013B9AB27B685A86C04616
:10404000BD4604B080BD80B584B000AF78607B68A9
:104050001B68FB60FB689B6A9AB20A23FB18D205B7
:10406000D20D1A807B689B6A0A22BA181288D2B2D3
:104070001A707B689B6A5A1C7B689A627B689B7982
:10408000012B0DD17B689B6A0A22BA181288120A8A
:1040900092B2D2B21A707B689B6A5A1C7B689A6291
:1040A0007B681B8E9BB2013B9AB27B681A86C04626
:1040B000BD4604B080BD000080B586B000AF0200F0
:1040C000FB1D1A70FB1D1A78B94B9200D3587B6107
:1040D0007B691B683B617B6937229A5C7B6936216F
:1040E000595C0F23FB180A401A703B691B7EDAB239
:1040F0000C23FB181A803B699B7DDBB29AB20C2320
:10410000FB180C21791809880A401A800C23FB1827
:104110001B880122134041D07B695B79012B10D1B0
:104120007B695B7ADBB2002B0BD17B691800A14B5A
:1041300098477B695B8E9BB2002B02D13B690122C1
:104140001A757B695B79012B04D17B695B7ADBB2E1
:10415000002B08D17B695B79002B1FD17B695B7ACF
:10416000DBB2002B1AD07B691800934B98477B6910
:104170009B8E9BB2002B11D13B6901221A757B6982
:104180005B7ADBB2012B09D17B69DB7901225340D9
:10419000DBB2002B02D03B6902229A750C23FB187C
:1041A0001B880422134000D17EE03B695B8B9BB2ED
:1041B0001A000423134022D07B695B7ADBB2012B07
:1041C00014D07B6938221E2199547B6903225A72CC
:1041D0003B6905221A750F23FB181B780822134030
:1041E00004D07B699B697A69100098473B699A6A99
:1041F0000A23FB181A803B6904225A8354E07B6926
:104200005B7ADBB2012B1ED17B6918006B4B9847A0
:104210007B695B8E9BB2002B46D13B6904221A75E9
:104220007B693822002199547B6903225A720F233B
:10423000FB181B780122134036D07B69DB687A6952
:104240001000984730E07B6918005D4B98477B6908
:104250001B8E9BB2002B27D17B69382200219954F9
:104260003B6904221A757B695B7ADBB2022B0BD1A6
:104270000F23FB181B780422134015D07B695B6960
:104280007A69100098470FE07B695B7ADBB2002BFC
:104290000AD10F23FB181B780222134004D07B693C
:1042A0001B697A69100098470C23FB181B880222AF
:1042B000134046D07B695B79002B1DD13B690722F7
:1042C0001A753B6902221A767B6903225A727B694E
:1042D00000229A867B6900221A867B693822002197
:1042E00099540F23FB181B781022134004D07B69CC
:1042F000DB697A69100098477B695B79012B20D1D3
:104300007B695B7ADBB2012B1BD17B69DB790122F4
:104310005340DBB2002B14D03B6902221A757B6933
:1043200003225A727B693822002199540F23FB180B
:104330001B780122134004D07B69DB687A69100086
:1043400098470C23FB181B880822134014D07B6964
:104350005B79002B10D13B6908221A753B69082252
:104360001A760F23FB181B782022134004D07B6998
:104370001B6A7A69100098470C23FB181B8880225F
:10438000134010D03B6980221A753B6980221A764F
:104390000F23FB181B784022134004D07B695B6A13
:1043A0007A6910009847C046BD4606B080BDC04639
:1043B00074000020DD3F0000613F0000114000005C
:1043C0004740000080B582B000AF78607B68012272
:1043D0005A607B6800225A707B6806221A707B68DC
:1043E00000221A727B6800225A72C046BD4602B093
:1043F00080BD80B582B000AF78607B6803221A7000
:104400007B6800225A707B6801229A70C046BD46C4
:1044100002B080BD80B582B000AF0200FB1D1A70F3
:10442000034AFB1D1B781372C046BD4602B080BD17
:104430000004004080B582B000AF0200FB1D1A707E
:10444000BB1D0A1C1A70FB1D1B78012B08D0022B08
:104450000BD0002B0ED10B4ABB1D1B7853720BE007
:10446000084ABB1D1B78937206E0064ABB1D1B78E9
:10447000D37201E0172300E000231800BD4602B00C
:1044800080BDC0460004004080B582B000AF02008D
:10449000FB1D1A70084AFB1D1B780F210B40D9B277
:1044A00053680F20014049001E2083430B43536093
:1044B000C046BD4602B080BD0040004180B500AF9F
:1044C000C046044BDB6810221340FAD0C046BD46FC
:1044D00080BDC0460008004080B500AF0C4B0222F2
:1044E0009A840C4B98470A4A0B4B9B68D362084A44
:1044F000094B5B689362064B00229A84054B9847F0
:10450000034A054B1B689BB29384C046BD4680BDE1
:1045100000080040BD4400005000002080B582B07B
:1045200000AF0200FB1D1A70FB1D1B78082B40D842
:104530009A00224BD3181B689F46214B1B6939E018
:10454000204B1B6A9B059B0FDBB21A001E4BD3400E
:1045500030E080231B022DE080231B022AE0184B51
:104560005B6927E0164B1B680222134001D1002330
:1045700020E0164B9847124B1B680422134009D0C9
:104580000020134B984702000D4B9B681B041B0C2B
:1045900053430FE00F4B0DE00A4A5023D35CDBB2CC
:1045A0001A000423134001D1002303E0044BDB680D
:1045B00000E000231800BD4602B080BD2056000078
:1045C000500000200008004000127A00BD440000A6
:1045D000594C0000006CDC0280B584B000AF7860FC
:1045E0001A4B1B6AFB607B681B781A1C0323134061
:1045F000DAB20D23FB1803210A4010001A780321B8
:104600008A43111C021C0A431A707B689A780C2397
:10461000FB18D0011A787F210A40111C021C0A43A2
:104620001A707B685A780C23FB1801210A4090010C
:104630001A7840218A43111C021C0A431A70034B4A
:10464000FA681A62C046BD4604B080BD000800404A
:1046500080B582B000AF0200FB1D1A70FB1D1B78F5
:10466000082B3BD89A00214BD3181B689F46204B40
:104670001F4A126A02210A431A62002331E01C4BCE
:104680001B4A926902210A439A6129E0184A184B91
:104690001B8A9BB202210B439BB2138220E0144A77
:1046A000134B9B8A9BB202210B439BB2938217E070
:1046B000104B1B6802221A430E4B1A600E4B984790
:1046C0000EE00B4A0A494423CB5CDBB202210B43C8
:1046D000D9B24423D15403E0002302E0172300E0C1
:1046E00000231800BD4602B080BDC04644560000FD
:1046F0000008004050000020D944000080B582B07E
:1047000000AF3B0001221A7000237B6009E07B6848
:10471000DBB23A0011001800054B98477B68013363
:104720007B607B68242BF2D9C046BD4602B080BDB9
:10473000354B000080B5A0B000AF274BC222D2009D
:104740009A600020254B9847254B98477C23FB18FF
:104750001800244B98477C23FB1800221A707C23F6
:10476000FB1801229A707C23FB1800225A707C23CC
:10477000FB1818001C4B984706201C4B98471C4BF5
:10478000984700201B4B9847002100201A4B984760
:1047900000210120184B984700210220164B984712
:1047A0003B1D1800154B98473B1D06221A703B1DF8
:1047B00001225A603B1D00221A723B1D00225A72D0
:1047C0003B1D190000200E4B984700200D4B9847C9
:1047D000C046BD4620B080BD0008004089440000AE
:1047E000FD460000F3430000D9450000514600009B
:1047F000AD4800001544000035440000C5430000EA
:10480000DD480000014A000080B582B000AF020020
:104810003960FB1D1A70FB1D1B78012B0AD0022B7F
:104820000FD0002B14D10E4B0D4A91693A680A4300
:104830009A610FE00A4B0A4AD1693A680A43DA6181
:1048400008E0074B064A116A3A680A431A6201E017
:10485000172300E000231800BD4602B080BDC0460B
:104860000004004080B500AF024B9847C046BD46EB
:1048700080BDC046592F000080B500AF024B98475D
:10488000C046BD4680BDC046AD2F000080B500AF1C
:10489000054B5B78DBB25BB2002B01DA012300E051
:1048A00000231800BD4680BD000C004080B500AF5D
:1048B00008210020074B9847074B01221A70C04679
:1048C000054B1B78DBB21A0001231340F8D1C04618
:1048D000BD4680BD09480000000C004080B586B090
:1048E00000AF02003960FB1D1A70FB1D1B787B6155
:1048F000FB1D1B783B613B681B781B021A007B6920
:1049000013437B613B685B78002B04D07B6980227A
:10491000D20213437B613B685B7A002B04D07B6936
:104920008022120313437B613B685B68012B2CD907
:104930003B685A683B685B68013B13401AD100230F
:10494000FB600223BB6005E0FB680133FB60BB68D2
:104950005B00BB603B685A68BB689A42F4D8FB684E
:104960001B023A6913433B617B6980225203134364
:104970007B610AE03B685B681B023A6913433B6159
:104980007B698022920213437B613B681B7A002B78
:1049900004D07B698022920313437B61C046134B92
:1049A0009847031EFBD1124B9847124AFB1D1B78F8
:1049B0001370C0460D4B9847031EFBD10E4B3A694E
:1049C0009A60C046094B9847031EFBD10A4B0A4A1E
:1049D00051688022520211407A690A435A60074B9B
:1049E0009847C046BD4606B080BDC0468D48000011
:1049F00065480000080C0040000C004079480000A9
:104A000080B582B000AF0200FB1D1A70C0460E4B8D
:104A10009847031EFBD10D4B98470D4AFB1D1B7891
:104A20001370C046084B9847031EFBD1094B094A37
:104A30005268802149020A435A60074B9847C04692
:104A4000BD4602B080BDC0468D48000065480000EC
:104A5000040C0040000C00407948000080B586B08E
:104A600000AF0200FB1D1A70C0462A4B9847031E78
:104A7000FBD1294B9847294AFB1D1B781370C04670
:104A8000244B9847031EFBD1254B5B68DB04DB0EF0
:104A9000DBB21800234B984703007B611F4AFB1DC4
:104AA0001B7813701E4B5B68DB02DB0FDAB213233B
:104AB000FB181A701C4AFB1D1B781370C046154B5F
:104AC0009847031EFBD1164B9B681B021B0C9BB225
:104AD000FB60164B98471323FB181B78002B09D15A
:104AE000FB68012B06D9124BF968786998470300D7
:104AF0007B610AE01323FB181B78002B05D0FB68B1
:104B000001337A69DA4013007B617B691800BD4686
:104B100006B080BD8D48000065480000040C0040D0
:104B2000000C00401D450000080C004079480000C2
:104B30004154000080B584B000AF02003960FB1D15
:104B40001A70FB1D1B78FB603B681B781B021A0068
:104B5000FB681343FB60FB1D1B781800044B984750
:104B6000044BFA6892B25A80C046BD4604B080BD7C
:104B7000C14B0000000C004080B582B000AF0200C5
:104B8000FB1D1A700A4B98470A4AFB1D1B781370CD
:104B90000949094B5B889BB28022D20113439BB227
:104BA0004B80064B9847C046BD4602B080BDC0460C
:104BB00065480000020C0040000C004079480000ED
:104BC00080B584B000AF0200FB1D1A701C4B9847E3
:104BD0001C4AFB1D1B7813701B4B5B881B051B0FAE
:104BE000DBB2FB60184A538818490B405380164AC1
:104BF000154B5B889BB216490B409BB25380C04655
:104C0000114B5B889BB21A008023DB011340F7D164
:104C10000D4AFB68DBB2191C0F230B40D9B2538835
:104C2000081C0F210140080208490B40191C031CF5
:104C30000B435380074B9847C046BD4604B080BD28
:104C400065480000020C0040000C0040FFF0FFFF30
:104C5000FFBFFFFF7948000080B584B000AF0200BD
:104C6000FB1D1A700D4B98470D4AFB1D1B781370E6
:104C70000C4B5B881B051B0FDAB20F23FB181A7055
:104C8000094B98470F23FB181B781800074B9847D0
:104C900003001800BD4604B080BDC0466548000052
:104CA000020C0040000C0040794800005D4A000002
:104CB00080B584B000AF0200FB1D1A700F23FB18F3
:104CC000FA1D1278D2091A700E23FB18FA1D1278F9
:104CD00052091A700D4BBB600F23FB181B78002B79
:104CE0000FD10F23FB181B789B0010229446BC4465
:104CF0006344083B1A680E23FB181B78DB01D318AA
:104D000000E000231800BD4604B080BD004400410F
:104D100080B588B000AFF860B9607A600023FB61AD
:104D20007B68DB7801225340DBB2002B35D07B68F7
:104D30001B78802B0BD0FB69802252021343FB614E
:104D40007B681B781B061A00FB691343FB617B68B9
:104D50005B78002B03D07B685B78022B10D1FB695A
:104D6000802292021343FB617B689B78002B04D066
:104D7000FB698022D2021343FB61FB68BA685A6068
:104D80007B685B78012B03D07B685B78022B07D1B3
:104D9000FB69224A1340FB6102E0FB68BA685A6073
:104DA000BB681B041B0CBB61BB681B0C7B61BA6935
:104DB000FB691343A022D2051A43FB689A627A6901
:104DC000FB691343D02212061A43FB689A627B6880
:104DD000DB7801225340DBB2002B1AD0FA69802322
:104DE000DB0213400AD07B689B78012B03D1FB6860
:104DF000BA689A6102E0FB68BA685A617B685B78BE
:104E0000012B03D07B685B78022B02D1FB68BA6868
:104E10009A60C046BD4608B080BDC046FFFFFBFF9C
:104E200080B584B000AF02003960FB1D1A70FB1D15
:104E30001B7818000A4B98470300FB60FB1D1B788A
:104E40001F22134001229A401300BB603A68B968E0
:104E5000FB681800034B9847C046BD4604B080BDB0
:104E6000B14C0000114D000080B500AFC046BD46FA
:104E700080BD000080B500AF064B9847064B9847B1
:104E8000064B9847064B9847064B9847C046BD4689
:104E900080BDC046354700004D2F0000694E000020
:104EA000694E0000694E000080B582B000AF2F4B04
:104EB0007B602F4B3B607A683B689A420CD007E0DE
:104EC0003B681A1D3A607A68111D796012681A6091
:104ED0003A68284B9A42F3D3274B3B6004E03B6887
:104EE0001A1D3A6000221A603A68244B9A42F6D39F
:104EF000234B7B60234B7A68FF218A439A60224AC6
:104F000090235B000221D150204AD37803218B43A8
:104F1000191C02230B43D3701C4AD3780C218B43FA
:104F2000191C08230B43D370194A937B30218B4300
:104F3000191C20230B439373154A937B0C218B433D
:104F4000191C08230B439373114A937B03218B4352
:104F5000191C02230B4393730E4A536880210B43A1
:104F600053600D4B98470D4B9847FEE7885600005D
:104F7000000000201000002010000020D4000020BD
:104F80000020000000ED00E00070004100500041F2
:104F90000048004100400041595500001D530000E9
:104FA00080B500AFFEE7000080B584B000AF02001E
:104FB000FB1D1A700F23FB18FA1D1278D2091A7004
:104FC0000E23FB18FA1D127852091A700D4BBB60A4
:104FD0000F23FB181B78002B0FD10F23FB181B7816
:104FE0009B0010229446BC446344083B1A680E237D
:104FF000FB181B78DB01D31800E000231800BD4626
:1050000004B080BD0044004180B582B000AF020012
:10501000FB1D1A70FB1D1B781800034B98470300FB
:105020001800BD4602B080BDA94F000080B582B017
:1050300000AF78607B6800221A707B6801225A708A
:105040007B6800229A70C046BD4602B080BD000059
:1050500080B584B000AF0200FB1D1A70FB1D1B78E9
:1050600018000B4B98470300FB60FB1D1B781F22A9
:10507000134001229A401300BB60FB681B6ABA68A8
:1050800013405A1E9341DBB21800BD4604B080BDE8
:105090000950000080B584B000AF0200FB1D1A70FB
:1050A000BB1D0A1C1A70FB1D1B7818000D4B98477E
:1050B0000300FB60FB1D1B781F22134001229A4056
:1050C0001300BB60BB1D1B78002B03D0FB68BA68C4
:1050D0009A6102E0FB68BA685A61C046BD4604B0F6
:1050E00080BDC0460950000080B582B000AF02000C
:1050F000FB1D1A70064BFA1D127811001F220A4080
:10510000012191400A001A60C046BD4602B080BD30
:1051100000E100E080B584B000AF78607B681B6878
:10512000FB60FB68DB695A1E9341DBB21800BD4689
:1051300004B080BD80B582B000AF78607B6801228A
:105140001A707B6800225A607B6800229A607B6834
:10515000C0229203DA607B6800221A747B68002206
:105160005A747B6801229A747B680122DA747B6826
:1051700000221A757B682422002199547B68183319
:105180000C22002118000A4B98477B68094A9A6153
:105190007B6800229A627B680022DA627B680022C8
:1051A0001A637B6800225A63C046BD4602B080BDC8
:1051B000A1550000A086010080B584B000AF7860E2
:1051C0007B681B68FB607B681B6818000B4B98476B
:1051D000030018000A4B9847C0467B681800094B2B
:1051E0009847031EF9D1FB681B6802221A43FB682B
:1051F0001A60C046BD4604B080BDC0469933000069
:10520000E95000001551000080B586B000AFF8608D
:10521000B9607A607B681A78FB681A717B685A7883
:10522000FB685A71FB68BA681A601423FB181800EF
:105230000C4B98471423FB1801221A70FB685B790A
:105240001422BA1811001800074B9847FB685B79C5
:1052500001211800054B984700231800BD4606B0F1
:1052600080BDC0462D500000ED2E0000955000007E
:1052700090B591B000AF3B1D18001D4B98473B1DEA
:105280001C4A9A613B1D80225202DA603B1D1A4A79
:105290009A623B1D01225242DA623B1D174A1A6391
:1052A0003B1D174A5A633F23FC183A1D1549164BFC
:1052B0001800164B984703002370134B1800144B2B
:1052C00098473C23FB1804221A703C23FB18072242
:1052D0005A703F23FC183C23FA180B490D4B180059
:1052E0000D4B984703002370C046BD4611B090BDDA
:1052F00035510000C0D4010002001000020012006D
:1053000002001300000C004298000020DD3800006D
:10531000B9510000900000200952000090B583B000
:1053200000AF364B9847364B98473B1D1800354B1E
:1053300098473B1D00221A703B1D19003720324B45
:1053400098473B0018002F4B98473B0001221A70EA
:105350003B00190017202C4B98472C4B18002C4B66
:1053600098472A4B18002B4B9847031E00D0FEE7A6
:10537000294A26480A230021284CA04780235902A5
:10538000224B00221800264B9847802359021F4BBE
:1053900000221800234B9847234A802359021B48B8
:1053A0000A23224CA047194B01211800204B984793
:1053B000194A8023590215480A23184CA047134B59
:1053C00018001C4B9847FC1D37201B4B98470300C7
:1053D0002370FB1D1B7801225340DBB2002B04D04D
:1053E00000211720154B984703E001211720134B8C
:1053F000984700231800BD4603B090BD754E0000CD
:10540000715200002D500000ED2E00009000002091
:10541000392E00002D28000068000020D928000047
:10542000E92C0000392B0000040000209129000025
:10543000352C0000AD2D00005150000095500000AB
:10544000002243088B4274D303098B425FD3030AC3
:105450008B4244D3030B8B4228D3030C8B420DD3D6
:10546000FF22090212BA030C8B4202D31212090264
:1054700065D0030B8B4219D300E0090AC30B8B42A2
:1054800001D3CB03C01A5241830B8B4201D38B0350
:10549000C01A5241430B8B4201D34B03C01A5241F5
:1054A000030B8B4201D30B03C01A5241C30A8B4238
:1054B00001D3CB02C01A5241830A8B4201D38B0223
:1054C000C01A5241430A8B4201D34B02C01A5241C7
:1054D000030A8B4201D30B02C01A5241CDD2C30939
:1054E0008B4201D3CB01C01A524183098B4201D3B5
:1054F0008B01C01A524143098B4201D34B01C01AA0
:10550000524103098B4201D30B01C01A5241C30817
:105510008B4201D3CB00C01A524183088B4201D386
:105520008B00C01A524143088B4201D34B00C01A72
:105530005241411A00D20146524110467047FFE7DE
:1055400001B5002000F006F802BDC0460029F7D0E2
:1055500076E770477047C04670B500260C4D0D4C7D
:10556000641BA410A64209D1002600F07DF80A4D64
:105570000A4C641BA410A64205D170BDB300EB58C1
:1055800098470136EEE7B300EB5898470136F2E74B
:1055900074560000745600007456000078560000DF
:1055A00003008218934200D1704719700133F9E764
:1055B000B2230000B6230000BA230000BE2300007F
:1055C000C2230000C6230000CA230000CE2300002F
:1055D000D2230000D62300002E2400003424000033
:1055E0003A2400004024000040240000462400002B
:1055F00046240000462400004C24000052240000F1
:1056000000080042000C004200100042001400425A
:1056100000180042001C0042090A0B0C0D0E00008D
:105620003A450000B2450000B24500005845000070
:10563000524500005E450000404500006445000002
:10564000984500008C460000DC460000DC46000067
:10565000D84600007E4600009E4600006E460000D0
:10566000B0460000C2460000F8B5C046F8BC08BC11
:105670009E467047DD200000F8B5C046F8BC08BC67
:085680009E467047B5200000B2
:1056880001000000000102030405060708090000E4
:0400000300004EA902
:00000001FF
