:1020000040200020CD250000C9250000C925000082
:1020100000000000000000000000000000000000C0
:10202000000000000000000000000000C9250000C2
:102030000000000000000000C9250000C9250000C4
:10204000C9250000C9250000C9250000C9250000D8
:10205000C9250000C9250000C9250000C9250000C8
:10206000C9250000C9250000C9250000C9250000B8
:10207000C9250000C9250000C9250000C9250000A8
:10208000C9250000C9250000C9250000C925000098
:10209000C92500000000000000000000C925000064
:1020A000C9250000C9250000C9250000C925000078
:1020B0000000000010B5064C2378002B07D1054B1B
:1020C000002B02D0044800E000BF0123237010BDA4
:1020D00004000020000000008C270000084B10B511
:1020E000002B03D00749084800E000BF07480368F9
:1020F000002B00D110BD064B002BFBD09847F9E711
:1021000000000000080000208C2700008C27000041
:102110000000000000B583B001AB80221A700A787D
:102120005A704A789A708A78DA701900014B984789
:1021300003B000BD69250000704700000C4B1B6810
:10214000002B06D1EFF31083002B07D00022094BA0
:102150001A70074A136801331360704772B6BFF3F1
:102160005F8F0022044B1A700132024B1A70F0E7A5
:10217000200000202400002000000020084B1A68E6
:10218000013A1A601B68002B09D1064B1B78002B03
:1021900005D00122044B1A70BFF35F8F62B67047FF
:1021A00020000020240000200000002070B50C4911
:1021B0000B6A04788578407801221040800140261F
:1021C000B34303432A40D2018020834313430322B5
:1021D000224012020348034013430B6270BDC04605
:1021E00000080040FFFCFFFF082803D88000254BB3
:1021F0001B589F46172044E0234A136A02210B43D1
:10220000136200203DE0204A936902210B43936151
:10221000002036E01C4A138A02210B43138200205F
:102220002FE0194A938A02210B439382002028E071
:1022300016490B68022213430B60134B9A84190052
:102240000E32CB681A42FCD0104A91680E4BD9620C
:1022500052689A6200229A8419001032CB681A429E
:10226000FCD00A4B1B689BB2074A9384002008E00D
:10227000054944228B5C022003438B54002000E07C
:102280000020704748270000000800402800002078
:1022900030B585B0C222D2001A4B9A601A4A5368F0
:1022A0001E218B43536001236A4613700024174D8F
:1022B000E0B26946A8470134252CF9D103A80024CF
:1022C0004470012585700470114B98470620114B0E
:1022D0009847114B9847114B1C725C729C72DC72D0
:1022E00001956B465C7006236A4613701472547233
:1022F000694600200A4B984700200A4B984705B0D2
:1023000030BDC0460008004000400041A524000048
:10231000AD210000E9210000292300000004004055
:102320004D23000005240000064A936908210B4351
:1023300093610122044B1A7019000B781342FCD1EF
:102340007047C04600040040000C004070B5060015
:1023500004000D782D0205434B78002B02D080231A
:10236000DB021D434B7A002B02D080231B031D434D
:102370004868012810D9431E184234D1022830D9A8
:102380000223002201325B009842FBD81202324342
:10239000140080235B031D430B7A002B02D08023A3
:1023A0009B031D43134A53785BB2002BFBDB124B9C
:1023B0009847124B1E700F4A53785BB2002BFBDB21
:1023C0000C4B9C601A0053785BB2002BFBDB094A74
:1023D0005368802149020B401D435560084B9847C4
:1023E00070BD0022D2E70402344380239B021D43C8
:1023F000D2E7C046000C00403D210000080C004020
:102400007D21000010B504000B4A53785BB2002B0D
:10241000FBDB0A4B98470A4B1C70074A53785BB2A8
:10242000002BFBDB044A516880235B020B435360A3
:10243000044B984710BDC046000C00403D210000F1
:10244000040C00407D21000010B504000F4B98479C
:102450000F4B1C700F4A53881B05180F53880E49E9
:102460000B40538053880D490B405380110080224C
:10247000D2014B881342FCD106494A880302064820
:10248000024013434B80064B984710BD3D2100008E
:10249000020C0040000C0040FFF0FFFFFFBFFFFFF9
:1024A0007D21000010B50C7824020443024B9847AC
:1024B000A4B2024B5C8010BD49240000000C004017
:1024C00030B5D378002B35D11378802B29D01B065B
:1024D00080246402234354780225AC4306D19478C7
:1024E000002C20D18024A402234341605478013C75
:1024F000012C1CD90D042D0CA024E4052C431C43F5
:1025000084620D0CD02424062C431C438462D478AE
:10251000002C22D15B031CD59378012B1ED0416186
:1025200017E00023D7E7C024E4022343DDE70D4C86
:102530002340DFE741600C04240CA023DB05234388
:1025400083620C0CD0231B0623438362D378002BB9
:1025500003D15378013B012B02D930BD8161F8E7EB
:102560008160FAE7FFFFFBFF10B50A00C1090023F5
:10257000002904D14309DB0105498C4663441F242B
:102580002040012181401800024B984710BDC046F1
:1025900000440041C12400007047000010B5054B05
:1025A0009847054B9847054B9847054B9847054B6F
:1025B000984710BD912200003921000099250000A4
:1025C0009925000099250000FEE70000F8B52A4A89
:1025D0002A4B9A4211D01A00294B9A420DD2294A0D
:1025E00003339B1A9B0801339B0000222348224996
:1025F0008C58845004329A42FAD1234A234B9A428F
:102600000AD2D34321495B1803218B4304339B181F
:10261000002102C29342FCD11D4AFF211D4B8B4376
:102620009360FD3990235B001B4AD1501B4AD3783D
:102630000325AB4302242343D370D3780C27BB4339
:1026400008263343D370164B987B302290432022C8
:1026500010439873997BB943314399739A7BAA438A
:1026600022439A730F4A536880210B4353600E4BE9
:1026700098470E4B9847FEE78C270000000000208B
:10268000040000200400002004000020400000207E
:1026900000ED00E00020000000700041005000410B
:1026A000004800410040004101270000B126000021
:1026B00070B582B00E4B984701A900250D7001241A
:1026C0004C708D7037200B4EB0476B465C709D7020
:1026D0001C7069461720B047074880231B04074930
:1026E00000E08B61026A1A42FBD14B61FAE7C046F7
:1026F0009D25000015210000804400410044004158
:1027000070B500260C4D0D4C641BA410A64209D1D7
:10271000002600F02BF80A4D0A4C641BA410A642B8
:1027200005D170BDB300EB5898470136EEE7B30012
:10273000EB5898470136F2E7782700007827000029
:10274000782700007C27000014220000F4210000FC
:10275000F421000080220000062200002222000056
:10276000F82100003022000070220000F8B5C046B9
:10277000F8BC08BC9E467047DD200000F8B5C04696
:0C278000F8BC08BC9E467047B520000065
:04278C000100000048
:04000003000025CD07
:00000001FF
